:100000000C9485080C94B6080C94B6080C94B608A9
:100010000C94B6080C94B6080C94B6080C94B60868
:100020000C94B6080C94B6080C94B6080C94B60858
:100030000C94B6080C94B6080C94B6080C94B60848
:100040000C94B6080C94B6080C94B6080C94B60838
:100050000C94B6080C94B6080C94B6080C948D7FDA
:100060000C94B6080C94A40C0C947A0C0C94B6085E
:100070000C94B6080C94B6080C94B6080C94B60808
:100080000C94B6080C94B6080C94B6080C94B608F8
:100090000C94500C0C94260C0C94B6080C94B25290
:1000A0000C94B6080C94B6080C94B6080C94B608D8
:1000B0000C94B6080C94B6080C94B6080C94B608C8
:1000C0000C94B6080C94B6080C94B6080C94FC0B6F
:1000D0000C94D20B0C94B6080C94A80B0C947E0BC9
:1000E0000C94B60805A84CCDB2D44EB93836A90246
:1000F0000C50B9918688083CA6AAAA2ABE00000026
:10010000803F07634236B79BD8A71A39685618AEA6
:10011000BAAB558C1D3CB7CC5763BD6DEDFD753E3C
:10012000F6177231BF000000803F08000000BE9249
:100130002449123EABAAAA2ABECDCCCC4C3E00002C
:100140000080BEABAAAAAA3E00000000BF000000CB
:10015000803F0000000000084178D3BB4387D113E3
:100160003D190E3CC3BD4282AD2B3E68EC8276BE8B
:10017000D98FE1A93E4C80EFFFBE01C4FF7F3F0055
:10018000000000000C94689E0C946E760C947176BE
:100190000C9484830C94D1810C94416F0C949B46F5
:1001A0000C9479470C94A8740C946D710C949C9EDB
:1001B0000C94819F0C9466730C947C6C0C949983C2
:1001C0000C941C830C9473830C9485550C940E7CB6
:1001D0000C94A7810C94B08B0C94DF820C942C723D
:1001E0000C9456550C9461940C94816C0C948394EB
:1001F0000C94446D0C94B66F0C9421920C949786D9
:100200000C944E9E0C9467710C946B920C948276B5
:100210000C94E4720C94487C0C940B830C94249DF5
:100220000C94D78C0C94272B0C94446F0C947675FB
:100230000C94058E0C94D6990C946A760C94DC8AF6
:100240000C9465860C9493960C94CC850C943A9DF2
:100250000C9446750C9423B60C94006D0C9465A018
:100260000C94AE2B0C94AC6E0C9423750C94238DD3
:100270000C9407870C947C9D0C94596E0C94348CD0
:100280000C944F2C0C9404950C949D7C0C949372BC
:100290000C94E5890C9461A00C942F090C94937C28
:1002A0000C9477950C94AF720C945C7C0C94B671A2
:1002B0000C948D720C9450A10C94A89D0C941F73F7
:1002C0000C94D9830C945DA00C94527C0C949D9A50
:1002D0000C94956F0C9419710C9463920C94C592C4
:1002E0000C9473930C949A860C941B820C949B90A0
:1002F0000C94CB9C0C9458750C943D910C94F391F8
:100300000C9486460C9441460C94EA9D0C94F18022
:100310000C9401830C94F59A0C942D460C940D09C1
:100320000C94D6900C94F8970C9447870C947376A1
:100330000C94C9710C94BE9D0C94AD9C0C94DD98EA
:100340000C94F3920C94C5910C9405460C949972FC
:100350000C943B470C94C3440C946D730C94377508
:100360000C9431810C94DC6C0C94D9820C94AB8588
:100370000C94FE080C94FF8A0C9495930C948D8831
:100380000C94F9710C94E5480C94F6450C94B271F8
:100390000C94B7930C94148C0C948E890C94379B0A
:1003A0000C94E18A0C94EC2B0C9448900C949A8851
:1003B0000C946A710C94148A0C94AE950C94929DD2
:1003C0000C945AA10C947F7C0C94CD8D0C94D29BF0
:1003D0000C9419700C943A460C941E720C942E7C5A
:1003E0000C942C820C94F58F0C94247C0C94BC817E
:1003F0000C941E950C94D6440C94D6A00C940776BD
:100400000C948D6C0C9475810C9463760C94C89745
:100410000C94398D0C94DD860C94454A0C94D76F5E
:100420000C94407C0C94FD710C9428460C948648E6
:100430000C9442730C94879A0C94A1920C94C372FE
:100440000C94F0720C942A8B0C9428980C944071A4
:100450000C94E99C0C94D6950C943C9C0C94A04A6A
:100460000C94B18C0C948F550C9410980C94F082D1
:100470000C9426460C9490A00C94868A0C94D489F3
:100480000C9484760C94D9930C94E09E0C94BF86C3
:100490000C94A96E0C94B1440C943B6D0C947B9518
:1004A0000C9474730C94079C0C94219B0C94E0970F
:1004B0000C94AC8A0C94AA460C94B2440C94D49D2F
:1004C0000C94B8080C94DC820C947D810C946C76AE
:1004D0000C94F0A00C943F6E0C9439870C94067227
:1004E0000C9467810C94728C0C941B6D0C94F571B8
:1004F0000C9418720C9447930C9480710C949D9BEF
:100500000C94222C0C94F08A0C9424A10C94597510
:100510000C94FB930C94EA880C94F8800C94694A30
:100520000C94EB710C945E830C944D9B0C94B4442E
:100530000C9481550C941A7C0C9468760C94167665
:100540000C94BC9F0C943A8A0C94CE720C94A26EBC
:100550000C94F06C0C940F6D0C94669D0C94E06CF4
:100560000C94A66E0C94469F0C94C36C0C94B39A96
:100570000C943E730C94DC470C9480880C9459497D
:100580000C947F760C949F720C94369A0C940A8289
:100590000C9492810C942D750C9497910C949E6EF2
:1005A0000C948E800C9435970C941B870C946E8160
:1005B0000C946F460C9422720C9459920C94A2A045
:1005C0000C943C460C941A9E0C9417460C94757C23
:1005D0000C9421090C94F1710C94B8750C944F9201
:1005E0000C94608A0C945B460C9458880C943E8260
:1005F0000C9430720C94D9720C94724A0C94018150
:100600000C945F6E0C94DF450C94639B0C94A38D4B
:100610000C94A56C0C94D78A0C941B470C94F86F1F
:100620000C94726F0C940A9A0C9428750C94227393
:100630000C942B720C94C6750C94509D0C94829E55
:100640000C94FD8C0C9471710C9453910C94D09477
:100650000C94B8990C9445810C94798D0C947395F5
:100660000C94DC890C94FA8A0C94F9840C946676C8
:100670000C94E8950C94D28B0C947A550C943F8B87
:100680000C948F9C0C9479760C94CC830C94AD884C
:100690000C9439750C945E870C949A750C9433867F
:1006A0000C94FC720C94F79F0C9426720C94D192CB
:1006B0000C9495940C94FA950C94C5750C94D4886C
:1006C0000C9454730C9483990C945A710C94C695A1
:1006D0000C9485920C94B6750C94AA880C94AA8CF0
:1006E0000C94F42A0C94009E0C943A730C940A72A5
:1006F0000C94F58A0C945B870C9417990C94787180
:100700000C9467920C9469910C9467480C94048B38
:100710000C94F2460C943AA10C941D940C94D209BA
:100720000C940A450C947F8B0C943F940C949695F2
:100730000C94B3440C943C830C94AA830C94A78827
:100740000C9498750C944C9A0C9486760C94966B39
:100750000C94C1920C9485090C947B2C0C9400721F
:100760000C94E26D0C94DA450C9450460C9446B609
:100770000C944E460C9448840C941E750C947F5532
:100780000C94719C0C9415930C9443870C94E6750F
:100790000C94BD920C9414720C940B9B0C94A77C3B
:1007A0000C94D8480C94897C0C9416890C94DD44E4
:1007B0000C9439450C944C480C944D710C949F71D9
:1007C0000C946E2B0C9477760C94CB8E0C94667CE8
:1007D0000C94157C0C94249F0C94387C0C94AF479B
:1007E0000C94FB890C94074B0C9475760C9406833F
:1007F0000C945C6E0C94DF9A0C94A96D0C94288375
:100800000C94D28A0C945D730C94A9720C94D889C0
:100810000C94EA940C948DA10C94C99A0C947B7658
:100820000C94B46E0C944F8D0C94BD4A0C94757559
:100830000C949B750C94E68A0C94BCA00C945D4AB5
:100840000C9400890C94EE8B0C94E9860C944D83E7
:100850000C9410720C94BB830C94F4990C948355F3
:100860000C94029F0C94E7750C94349E0C9448856C
:100870000C94BE9E0C943E6F0C94209A0C94EB8AC0
:100880000C947D76000000006410B71DC8206E3BFC
:10089000AC30D9269041DC76F4516B6B5861B24D87
:1008A0003C7105502083B8ED44930FF0E8A3D6D6F1
:1008B0008CB361CBB0C2649BD4D2D38678E20AA059
:1008C0001CF2BDBD000000000000000000000000A0
:1008D0000000000000000000000000000101010114
:1008E00001010101010101010202020202020202F0
:1008F00003030303030304040404050505050506B7
:100900000606060707070808080909090A0A0A0B64
:100910000B0B0C0C0D0D0D0E0E0F0F1010111112F4
:1009200012131314141515161617181819191A1B63
:100930001B1C1D1D1E1F1F202122222324252626AD
:100940002728292A2A2B2C2D2E2F303132333435CB
:10095000363738393A3B3C3D3E3F404142444546BC
:100960004748494B4C4D4E50515254555658595A80
:100970005C5D5E606163646667696A6C6D6F70720E
:10098000737577787A7C7D7F8182848688898B8D68
:100990008F91929496989A9C9EA0A2A4A6A8AAAC85
:1009A000AEB0B2B4B6B8BABCBFC1C3C5C7CACCCE6C
:1009B000D1D3D5D7DADCDFE1E3E6E8EBEDF0F2F511
:1009C000F7FAFCFF57616E642053796E6368726FAB
:1009D0006E697A656400526563762E2057616E6495
:1009E00020536D6F6B6520507265667300526563AE
:1009F000762E2057616E6420436F6E6669672050C3
:100A00007265667300526563762E2057616E6420AE
:100A1000446174613A2000526563762E2057616EFE
:100A20006420436F6D6D616E643A20005361766996
:100A30006E6720536D6F6B652050726566657265D9
:100A40006E63657300536176696E672057616E64EB
:100A500020507265666572656E63657300436F6DE5
:100A6000706C6574656420757064617465206F6670
:100A7000207061636B2073657474696E67730052D4
:100A8000756E6E696E672075706461746520667539
:100A90006E6374696F6E732E2E2E005570646174D0
:100AA000696E6720706F7765722063656C6C207665
:100AB00061726961626C65732E2E2E0055706461DF
:100AC00074696E6720696E6E6572206379636C6FFE
:100AD00074726F6E207661726961626C65732E2E1E
:100AE0002E005570646174696E67206F757465724D
:100AF000206379636C6F74726F6E207661726961C6
:100B0000626C65732E2E2E005570646174696E6779
:100B10002067656E6572616C207661726961626CD6
:100B200065732E2E2E00536176696E6720506163C7
:100B30006B20507265666572656E63657300526501
:100B400063762E20536D6F6B6520436F6E66696709
:100B500000526563762E2057616E6420436F6E6687
:100B6000696700526563762E205061636B20436F86
:100B70006E66696700526563762E20417474656EF7
:100B80007561746F72204D6573736167653A2000FB
:100B9000526563762E20417474656E7561746F7250
:100BA00020436F6D6D616E643A2000000102030402
:100BB00005060708090A0B0C0D0E000102030405C7
:100BC000060708090A0B0C0E0D0C0B0A090807068C
:100BD0000504030201000C0B0A09080706050403BB
:100BE000020100B80BB80BAC0DAC0DA00F3075981E
:100BF0003A10274C1D70173D0064016501660167BE
:100C0000015761726E696E673A2043616C63756C5F
:100C100061746564206D7573696320636F756E74AC
:100C20002065786365656473206D6178696D756DA5
:100C300020706F737369626C653B2053442063615D
:100C4000726420636F7272757074696F6E206C6964
:100C50006B656C7921005761726E696E673A20543A
:100C60007261636B20636F756E7420646F657320AF
:100C70006E6F74206D61746368206669726D776150
:100C800072652120506C65617365207570646174B4
:100C90006520746865206D6963726F5344206361D9
:100CA000726420736F756E64206566666563747325
:100CB0002E000102030405060708090A0B0C0D0E9D
:100CC0000F101112131415161718191A1B1C1D1EBC
:100CD0001F2021222324252627280102030405069C
:100CE000070809000A0B0C0D0E0F10111200131447
:100CF00015161718191A1B001C1D1E1F2021222350
:100D00002400010203040500000000000607080992
:100D10000A00000000000B0C0D0E0F000000000088
:100D20001011121314000000000001020300000063
:100D30000000000004050600000000000000070895
:100D400009000000000000000A0B0C000000000079
:100D50000000010000000000000000000200000090
:100D60000000000000000300000000000000000080
:100D700004000000000000000000001C120A041F14
:100D8000160D02110C07010A0704000A121C040DBB
:100D9000161F02070C110104070A417474656E7571
:100DA00061746F722053796E6320456E64004174E4
:100DB00074656E7561746F722053796E632053741D
:100DC000617274005468656D65206368616E676563
:100DD0006420746F2046726F7A656E20456D70696D
:100DE000726520283230323429005468656D6520E0
:100DF0006368616E67656420746F20416674657214
:100E00006C69666520283230323129005468656D7E
:100E100065206368616E67656420746F20474232A5
:100E200020283139383929005468656D6520636898
:100E3000616E67656420746F204742312028313924
:100E400038342900417474656E7561746F72205373
:100E5000796E6368726F6E697A6564004765747451
:100E6000696E67205061636B2050726566657265BC
:100E70006E6365730047657474696E6720536D6FA8
:100E80006B6520507265666572656E6365730043BD
:100E90006F6D6D616E6420746F2057616E643A20CF
:100EA0000057616E642053796E6320456E6400576D
:100EB000616E642053796E63205374617274004EC6
:100EC0006F20417564696F204465766963650057DA
:100ED00061726E696E673A205253505F5359535492
:100EE000454D5F494E464F206E6F742072656365B5
:100EF0006976656421005573696E672057415620F5
:100F000054726967676572005573696E6720475050
:100F10005374617220417564696F205665727369FC
:100F20006F6E3A2000436F6E666967757265205078
:100F30006F776572204D6574657200556E61626CE5
:100F40006520746F2066696E6420706F776572200B
:100F50006D6F6E69746F72696E6720646576696320
:100F600065206F6E206932632E20506F7765722086
:100F70006D6574657220666561747572657320773E
:100F8000696C6C2062652064697361626C65642EB3
:100F900000506F776572204D6574657220526573DD
:100FA000756C743A2000496E697420706F776572B1
:100FB000206D657465722E2E2E004552524F523AA6
:100FC000204E6F2063616C6C6261636B206176619F
:100FD000696C61626C6520666F72207061636B651D
:100FE00074204944200000002100240027002A002A
:100FF0002D003000330001010000040107010A0147
:10100000000020002300260029002C002F003200C1
:10101000000100000301060109010102102020085F
:101020000810204010204080020102010804020143
:1010300001020408102040808040201008040201B2
:10104000800402018040201008040201080402010B
:101050000102040810204080010204081020408092
:1010600000002200250028002B002E003100340053
:1010700002010000050108010B0105050505070532
:1010800008080808020202020A0A08080404040404
:101090000101010101010101030303030303030330
:1010A000040707070C0C0C0C0C0C0C0C02020202BF
:1010B00006060606060606060B0B0B0B0B0B0B0BA8
:1010C00000000A0B02090C0D0E08070304010000C2
:1010D0000000000000000000000000000000000010
:1010E00000000000000000000000000012111000CD
:1010F00000000000000000000000000000000000F0
:1011000000000000000046B623B611241FBECFEF3A
:10111000D1E2DEBFCDBF00E00CBF13E0A0E0B2E043
:10112000EEEEF5E801E00BBF02C007900D92A03A89
:10113000B107D9F727E1A0EAB3E001C01D92AE39AB
:10114000B207E1F718E0C4E8D8E000E006C0219754
:101150000109802FFE010E944DBDC338D10780E0F8
:101160000807A9F70E94D77F0C94E5C20C940000F1
:10117000AF92BF92CF92DF92EF92FF920F931F93A5
:10118000CF93DF936C017B018B01040F151FEB01E3
:101190005E01AE18BF08C017D10759F06991D6019A
:1011A000ED91FC910190F081E02DC6011995892BFC
:1011B00079F7C501DF91CF911F910F91FF90EF90CB
:1011C000DF90CF90BF90AF900895FC01A089B189C6
:1011D0008C91A689B78982FD0FC09C91818D8F5F0C
:1011E0008F73228D821749F0A18DAE0FBF2FB11DD5
:1011F0005D969C93818F08958C910895FC01538D89
:10120000448D252F30E0842F90E0821B930B5417E0
:1012100010F0CF96089501970895FC01918D828D6D
:10122000981761F0A28DAE0FBF2FB11D5D968C9106
:10123000928D9F5F9F73928F90E008958FEF9FEF45
:101240000895FC01918D828D981731F0828DE80F01
:10125000F11D858D90E008958FEF9FEF0895FC01BB
:10126000918D228D892F90E0805C9F4F821B910988
:101270008F73992708958FE995E00E942F0921E047
:10128000892B09F420E0822F08958CE396E00E94D8
:101290002F0921E0892B09F420E0822F089589EDA0
:1012A00096E00E942F0921E0892B09F420E0822F8B
:1012B000089586E797E00E942F0921E0892B09F421
:1012C00020E0822F0895FC01A48DA80FB92FB11D35
:1012D000A35ABF4F2C91848D90E001968F7399276C
:1012E000848FA689B7892C93A089B1898C9183704A
:1012F00080648C93938D848D981306C00288F38943
:10130000E02D80818F7D80830895EF92FF920F936F
:101310001F93CF93DF93EC0181E0888F9B8D8C8DA1
:1013200098131AC0E889F989808185FF15C09FB795
:10133000F894EE89FF896083E889F9898081837058
:10134000806480839FBF81E090E0DF91CF911F9107
:101350000F91FF90EF900895F62E0B8D10E00F5F28
:101360001F4F0F731127E02E8C8D8E110CC00FB6FE
:1013700007FCFACFE889F989808185FFF5CFCE0196
:101380000E946309F1CFEB8DEC0FFD2FF11DE35AA5
:10139000FF4FF0829FB7F8940B8FEA89FB89808119
:1013A0008062CFCFCF93DF93EC01888D8823B9F093
:1013B000AA89BB89E889F9898C9185FD03C0808160
:1013C00086FD0DC00FB607FCF7CF8C9185FFF2CFDD
:1013D000808185FFEDCFCE010E946309E9CFDF91C7
:1013E000CF91089580E090E0892B29F00E9459095F
:1013F00081110E94000080E090E0892B29F00E947A
:101400004F0981110E94000080E090E0892B29F0B3
:101410000E94450981110E94000080E090E0892B24
:1014200029F00E943B0981110C94000008950F934C
:101430001F93CF93DF93EC0188819981009759F036
:101440002A813B812617370730F081E0DF91CF9169
:101450001F910F9108958B016F5F7F4F0E94EDC127
:10146000009759F0998388831B830A832C813D81DF
:10147000232B59F7FC011082E8CF80E0E7CFCF9310
:10148000DF93EC0188819981009711F00E9464C17B
:10149000198218821D821C821B821A82DF91CF91D1
:1014A0000895CF92DF92EF92FF926B017C01C114FD
:1014B000D104E104F10441F00E94DABAA7019601D7
:1014C0000E94A6BC6B017C01C701B601FF90EF90A2
:1014D000DF90CF900895EF92FF920F931F93CF93D9
:1014E000DF93EC01FB01E080F180E114F10411F1E4
:1014F0000481158101151105A9F08C819D81080FCA
:10150000191FB801CE010E94170A882399F028817B
:1015100039818C819D81B701820F931F0E94DEC2A9
:101520001D830C83CE01DF91CF911F910F91FF900E
:10153000EF900895CE010E943F0AF4CFEF92FF9200
:101540000F931F93CF93DF93EC017B018A01BA01C4
:101550000E94170A81110BC0CE010E943F0ACE01E2
:10156000DF91CF911F910F91FF90EF9008951D8310
:101570000C83B701888199810E94DEC2F0CFFC0103
:1015800080819181009711F00C9464C10895EF92CD
:10159000FF920F931F93CF93DF93EC018B0119827E
:1015A00018821B821A821D821C82CB010E9439BBC9
:1015B0007C01BC01CE010E94170A811109C0CE0135
:1015C000DF91CF911F910F91FF90EF900C943F0A04
:1015D000FD82EC82B80188819981DF91CF911F91C2
:1015E0000F91FF90EF900C9432BBFB01DC01119640
:1015F0001C921E9213961C921E92129715961C9284
:101600001E9214978617970749F0608171816115C2
:10161000710521F0448155810C949E0A0895FB01C7
:1016200001900020E9F73197AF01461B570BDC0111
:10163000ED91FC910280F381E02D19948F929F929D
:10164000AF92BF92EF92FF920F931F93CF93DF93CE
:10165000CDB7DEB7A1970FB6F894DEBF0FBECDBFF2
:101660007C01FA01CB0119A2223008F42AE08E0194
:101670000F5D1F4F822E912CB12CA12CBF01A50113
:1016800094010E94D8BCF901CA016A300CF5605D72
:10169000D8016E938D01232B242B252B79F790E015
:1016A00080E0109721F0BD01C7010E940F0BA196A9
:1016B0000FB6F894DEBF0FBECDBFDF91CF911F9163
:1016C0000F91FF90EF90BF90AF909F908F900895F3
:1016D000695CDECF0F931F93CF93DF93EC010E94E1
:1016E0000F0B8C0163E373E0CE010E940F0B800FA0
:1016F000911FDF91CF911F910F9108951F920F922B
:101700000FB60F9211240BB60F922F933F934F9366
:101710005F936F937F938F939F93AF93BF93EF9359
:10172000FF938FE995E00E946309FF91EF91BF91CC
:10173000AF919F918F917F916F915F914F913F9169
:101740002F910F900BBE0F900FBE0F901F9018950A
:101750001F920F920FB60F9211240BB60F922F9378
:101760003F934F935F936F937F938F939F93AF9329
:10177000BF93EF93FF938FE995E00E94E508FF91F7
:10178000EF91BF91AF919F918F917F916F915F91F9
:101790004F913F912F910F900BBE0F900FBE0F9066
:1017A0001F9018951F920F920FB60F9211240BB62F
:1017B0000F922F933F934F935F936F937F938F93EA
:1017C0009F93AF93BF93EF93FF938CE396E00E94B8
:1017D0006309FF91EF91BF91AF919F918F917F919D
:1017E0006F915F914F913F912F910F900BBE0F9092
:1017F0000FBE0F901F9018951F920F920FB60F9269
:1018000011240BB60F922F933F934F935F936F93D7
:101810007F938F939F93AF93BF93EF93FF938CE34B
:1018200096E00E94E508FF91EF91BF91AF919F91E3
:101830008F917F916F915F914F913F912F910F9079
:101840000BBE0F900FBE0F901F9018951F920F9216
:101850000FB60F9211240BB60F922F933F934F9315
:101860005F936F937F938F939F93AF93BF93EF9308
:10187000FF9389ED96E00E946309FF91EF91BF917C
:10188000AF919F918F917F916F915F914F913F9118
:101890002F910F900BBE0F900FBE0F901F901895B9
:1018A0001F920F920FB60F9211240BB60F922F9327
:1018B0003F934F935F936F937F938F939F93AF93D8
:1018C000BF93EF93FF9389ED96E00E94E508FF91A7
:1018D000EF91BF91AF919F918F917F916F915F91A8
:1018E0004F913F912F910F900BBE0F900FBE0F9015
:1018F0001F9018951F920F920FB60F9211240BB6DE
:101900000F922F933F934F935F936F937F938F9398
:101910009F93AF93BF93EF93FF9386E797E00E9467
:101920006309FF91EF91BF91AF919F918F917F914B
:101930006F915F914F913F912F910F900BBE0F9040
:101940000FBE0F901F9018951F920F920FB60F9217
:1019500011240BB60F922F933F934F935F936F9386
:101960007F938F939F93AF93BF93EF93FF9386E7FC
:1019700097E00E94E508FF91EF91BF91AF919F9191
:101980008F917F916F915F914F913F912F910F9028
:101990000BBE0F900FBE0F901F9018954F925F9245
:1019A0006F927F928F929F92AF92BF92EF92FF922F
:1019B000CF93DF93DC011E968C911E971B969C9112
:1019C0001B9719964D915C911A9718968C901897C1
:1019D000282F30E01C96EC911C97F0E01D96AC91FE
:1019E000B0E0891364C0CB01880F991F680F791F7D
:1019F000460F571F240F351FE9012881E40FF51FFB
:101A0000F080A40FB51FCC91882009F445C0912C1B
:101A1000B12CA12C622F70E0762F6627072E000CC8
:101A2000880B990BA50194010E94D8BC390155245B
:101A300044246F2D70E0762F6627072E000C880B4C
:101A4000990BA50194010E94D8BCB42FA32F922F0B
:101A50008827482A592A6A2A7B2A6C2F70E0762F19
:101A60006627072E000C880B990BA50194010E9494
:101A7000D8BCC301B201622B732B842B952BDF9151
:101A8000CF91FF90EF90BF90AF909F908F907F90FD
:101A90006F905F904F9008956F2D70E090E080E020
:101AA000982F872F762F6627822B6C2BE8CF660F17
:101AB000771F660F771F640F751F260F371FE90109
:101AC0003881EB01C90FD11DF880E60FF71FC081E7
:101AD000A60FB71FEC90882009F44BC0912CB12CB5
:101AE000A12C632F70E0762F6627072E000C880B41
:101AF000990BA50194010E94D8BC722E662455242E
:101B000044246F2D70E0762F6627072E000C880B7B
:101B1000990BA50194010E94D8BCA9013327222763
:101B2000422A532A642A752A6E2D70E0762F662782
:101B3000072E000C880B990BA50194010E94D8BCBC
:101B4000422A532A642A752A6C2F70E0762F662762
:101B5000072E000C880B990BA50194010E94D8BC9C
:101B6000942F832F722F6627642975298629972938
:101B700086CF6F2D70E090E080E0CB01772766275D
:101B8000932B6E297C2B7BCF8F929F92AF92BF922B
:101B9000CF92DF92EF92FF921F93CF93DF93FC01DE
:101BA0004A01AA24BB24C82DC32ED42EE52EFF241F
:101BB0001C2DD22F8085882361F0889E400111243E
:101BC000C92D8C9D600111241D2D829FD0011124EF
:101BD000DB2FA685E184F2849385A91322C0CB0173
:101BE000880F991F680F791F6E0D7F1DA385A60FA3
:101BF000B72FB11DCC93A485A60FB72FB11D1C9391
:101C00008585680F711DFB01D083DF91CF911F91F6
:101C1000FF90EF90DF90CF90BF90AF909F908F900C
:101C20000895660F771F660F771F6E0D7F1D252F96
:101C3000332744275527882349F090E0829F70017D
:101C4000839FF00C929FF00C11242F2DA60FB72F1D
:101C5000B11D2C93CBCFCF93DF9300D01F92CDB784
:101C6000DEB769837A838B839C83DE011196CE0174
:101C70000596ED91F0E0EC53F74F44919D01215012
:101C80003109F90140838A179B0799F769817A81A5
:101C90008B819C810F900F900F900F90DF91CF91CF
:101CA0000895CF92DF92EF92FF920F931F93CF93FD
:101CB000DF9300D000D000D0CDB7DEB78C01DC01BF
:101CC00019968D919C91892B09F473C00E94AC7C6C
:101CD000F801C784D088E188F2886C157D058E05EF
:101CE0009F0520F46787708B818B928BF801C784E6
:101CF000D088E188F2886C197D098E099F096C32C1
:101D000071408105910510F3F894D80114968D91D6
:101D10009C9115979A8389831996ED91FC917F0187
:101D2000BFEFEB1AFB0A80818987F8019081038855
:101D3000F489E02DD80155968C91992309F448C077
:101D40009081982B98879081809589238F838F81AC
:101D50008C8388E08B8358856F8149853B812C81FA
:101D600089819A81D701508347FD252F3A95208399
:101D7000262F39F0441F00C000006083000000C01F
:101D8000F2CF38E04D9160830000019761F7D801F0
:101D90005496FC93EE93539749873B832C839A8305
:101DA000898378940E94AC7CF8016787708B818B63
:101DB000928B29960FB6F894DEBF0FBECDBFDF9190
:101DC000CF911F910F91FF90EF90DF90CF900895EA
:101DD0009081982B98879081809589238F838F811C
:101DE0008E8388E08D8358856F8149853D812E8162
:101DF00089819A81D701508347FD252F00C000C0FB
:101E0000208300C000C000C000C000C0608300008C
:101E1000262F3A9541F0441F000000C000C000C0CA
:101E200000C000C0E8CF38E04D9100C0608300C022
:101E3000019709F7D8015496FC93EE93539749877D
:101E40003D832E83ACCFCF93DF93EC018E819F81B6
:101E500097FD0CC061E00E949E7B60E08E810E9435
:101E6000707B81E08983DF91CF910895198280E0B2
:101E7000FACF0F931F93CF93DF93DC01EB014D91CA
:101E80005D916D917C911397E881E427EF7084E078
:101E9000E89FF0011124EC57F74F0591159125911A
:101EA000349184E076956795579547958A95D1F753
:101EB00040275127622773274D935D936D937C9341
:101EC0001397E881E295EF70E427EF7084E0E89FD4
:101ED000F0011124EC57F74F05911591259134919C
:101EE00094E076956795579547959A95D1F7402751
:101EF0005127622773274D935D936D937C931397BE
:101F0000DF91CF911F910F910895853608F084E6F7
:101F10002FEF829FC001112464E670E00E9439BD5A
:101F2000862F08958091B7039091B803181619066B
:101F300094F48091890590918A050197039758F44C
:101F40006091E20C062E000C770B8091B903909102
:101F5000BA030E946A7889E20C942469FF920F9375
:101F60001F93CF93DF93EC01F62E08811981C801EE
:101F70000E9490BCF81621F06F2DC8010E9498BCF9
:101F8000CE01DF91CF911F910F91FF900895843082
:101F900008F080E09091E002E82FF0E080912002CC
:101FA000882399F0943141F0983261F09C3039F4F3
:101FB000EA56F24F84910895EE56F24FFBCFE25766
:101FC000F24FF8CFE657F24FF5CF943139F098320F
:101FD00059F09C3031F4EA57F24FECCFEE57F24F04
:101FE000E9CFE258F24FE6CFE658F24FE3CF88232D
:101FF000E9F1809197028823B9F18091FC039091D7
:10200000F503992339F1811127C0E0918417F0E09D
:10201000E35EF14F8081811125C08091F30381112E
:1020200021C080919702882311F18091FC03909147
:10203000F5039923F1F081111EC0E0918417F0E0BF
:10204000E35EF14F808181111CC08091F303811107
:1020500018C00895882309F3E0918417F0E0E05058
:10206000FD4FD8CF5F9ADDCF5F98DBCF5F98449864
:102070000895882351F3E0918417F0E0E050FD4F7C
:10208000E1CF449A08958823E9F18091970288234B
:10209000B9F18091FC039091F503992339F18111F5
:1020A00027C0E0918417F0E0E35EF14F8081811159
:1020B00025C08091F303811121C08091970288236C
:1020C00011F18091FC039091F5039923F1F08111B6
:1020D0001EC0E0918417F0E0E35EF14F8081811132
:1020E0001CC08091F303811118C00895882309F35F
:1020F000E0918417F0E0E050FD4FD8CF429ADDCF59
:102100004298DBCF4298A2980895882351F3E0913A
:102110008417F0E0E050FD4FE1CFA29A089580913E
:102120002202882349F081E02091C50E3091C60E2D
:10213000232B31F080E008958091B80491E0892745
:102140000895982F8091CC02882369F0923049F449
:1021500080911D02882351F081E09091E0029C3033
:1021600029F480E003C081E09230D9F70895E82F88
:10217000F0E08091E0028C3089F028F4843051F056
:10218000E652F34F09C0843161F08832C9F7EE544A
:10219000F34F02C0EE5AF24F84910895E65DF24F7C
:1021A000FBCFEE5FF24FF8CF8823D1F08091F5039B
:1021B000882341F0E0918417F0E0E35EF14F8081E5
:1021C000811108C08091FC03811104C08091FB0340
:1021D000882331F080910B01886080930B01089572
:1021E00080910B01877FF9CF1092490E10924A0E11
:1021F0008EE180939E0280918917853021F460E002
:102200008DE20C94707B90E080E00C94DA7B9091EE
:1022100089179330B9F09530D9F020912402222308
:1022200089F0882379F0923079F49091F50399231D
:1022300049F090919E02891759F080939E0290E098
:102240000C94DA7B0C94F41090919E029813F5CFC5
:102250000895BF92CF92DF92EF92FF920F931F9358
:10226000CF93DF93EC01809121020E94850FB82E5D
:10227000F0903917E0903A178FE297E10E94A2544C
:10228000882309F4A9C1FE188F2D0E94B710E82EEB
:1022900080919502882309F4B1C085E08093CF0234
:1022A0008FEF96E10E94274C882389F010929502C7
:1022B000D0939B02C0939A02AE0170E060E08FE27F
:1022C00097E10E94D25480E48093A2021BC08FEF5A
:1022D00096E10E94914C90939B0280939A02AC01EC
:1022E00070E060E08FE297E10E94D2548091A202F8
:1022F0008F5F8E3108F480C08093A2028091A20289
:10230000813408F78091F50381110CC08091FC03A2
:10231000811108C08091FB03811104C08091A20249
:102320000E940711809102029091E002943109F419
:10233000F9C0983209F4F6C09C3009F4F7C0823035
:1023400008F4DDC090E08C179D0709F4E8C0C81BB5
:10235000D90B809181170E94A11081113DC1EF2DF1
:10236000F0E0EB53FC4F808181111BC0EE20C9F0DF
:102370008091CC028823A9F029E1F29EC0011124AA
:102380009C01215D304F690160E0C9010E94F74E58
:102390009E0150E040E004E110E06B2DC6010E9478
:1023A000C44E80911C02882309F420C18091E00270
:1023B000843109F4C1C0883209F418C19091FD0339
:1023C0008C3009F4D5C091110DC080919502811116
:1023D00009C08091FB03811105C08091F20388231D
:1023E00009F40AC137E28BE1F31609F4D7C083E19F
:1023F000F812FEC08FE0D2C08EE17ECF8091FD0347
:102400008823B1F185E08093CF028FEF96E10E949F
:10241000274C882319F01092FD0374CF8FEF96E1BB
:102420000E94914C90939B0280939A02AC0170E0C1
:1024300060E08FE297E10E94D25420919A0230919D
:102440009B022932310568F08091A202833320F08B
:1024500081508093A20205C02536310510F08F31DE
:10246000B8F78091A2028E3108F04CCF8EE12CCFCC
:10247000D0939B02C0939A02809102029091E00255
:102480009C3031F1943121F18230E8F0282F30E096
:10249000AE01421B530B2C173D0711F450E040E0F6
:1024A0009091CC028B5F911101C085E08093CF02A7
:1024B0008091CF028B3018F08AE08093CF024115D3
:1024C000510591F013C085E08093CF02AE01F0CFAB
:1024D00095E09093CF02823080F090E0AE01481BEF
:1024E000590B8C179D0711F441E050E070E060E05B
:1024F0008FE297E10E94D25405CFAE01E0CF8091E8
:102500009502811109C08091FD03811105C0CE01A2
:10251000880F991FC80FD91F209709F01ACFC1E063
:10252000D0E017CF823008F00DCFF1CF823008F025
:1025300009CFCC0FDD1FF0CF8091FD0381110DC0BD
:1025400080919502811109C08091FB03811105C022
:102550008091F203882309F44FC092E29F1508F49A
:1025600049CF81EF8F0D853008F044C089E016C057
:1025700091110CC080919502811108C08091FB03DC
:10258000811104C08091F2038823B1F120E22F155C
:1025900068F383EF8F0D873088F585E02091200266
:1025A00090913917222309F454C0E11029C02091D9
:1025B000B604281728F52F5F2093B6042091391709
:1025C0008091E10290E087962817190629F024F0FF
:1025D00080913A1780933917DF91CF911F910F9116
:1025E000FF90EF90DF90CF90BF90089580E0D6CF1E
:1025F00085E1D4CF8BE0D2CF83E0D0CF87E0CECFC0
:102600001092B604C92FE11020C020913A17EC2E89
:10261000F12C822F90E087968E159F057CF28C2FEF
:10262000821B0E94B710882319F0C0933917C6CFB8
:102630008091E10290E08796E816F90621F48091F6
:102640003A1780933917CF5FE0CF9F5F9093391788
:10265000B5CFE11012C02091B604281770F42F5F97
:102660002093B6049091391780913A17981708F083
:10267000B3CF8091E102895DADCF1092B604C92F2E
:10268000E11010C080913A178C1760F73C2F381B6F
:10269000832F0E94B710882319F0C0933917E2CF17
:1026A000C150F0CF915090933917DCCF80918017B3
:1026B000853059F48091CC02811107C09091811727
:1026C00081E0992321F0973011F080E0089508957A
:1026D00081E0809395028093940280939302089501
:1026E00080918017823020F0843068F0853011F1BD
:1026F0008CE291E090939B0280939A0290939902CE
:10270000809398020895609190027091910290E0F8
:1027100080E00E9471BB26E636E646EA5FE30E944F
:10272000D2BB0E9467BE70939B0260939A028CE2B8
:1027300091E0E4CF88EC90E090939B0280939A0222
:10274000F6CFDF92EF92FF920F931F93CF93DF9319
:1027500085ECE82E83E0F82E0CE814E0D0E0C0E031
:10276000DD24D394F70111927F0160E0CE01895EF0
:102770009C4E0E94F74E60E0CE01815D904F0E941A
:10278000F74EF801D1928F016996C83EF3E0DF075A
:1027900049F7DF91CF911F910F91FF90EF90DF905C
:1027A000089580910202811103C081E080930202AA
:1027B00080910202853018F084E0809302028091BB
:1027C0000102811103C081E0809301028091010226
:1027D000853018F084E0809301028091000281111D
:1027E00003C081E08093000280910002853018F0E0
:1027F00084E08093000208950F931F93CF93DF939B
:1028000000D000D0CDB7DEB78FEF9FEFDC0189831A
:102810009A83AB83BC8310E000E01E830D83BE016E
:102820006B5F7F4FCE0101960E94390FBE016A5F38
:102830007F4FCE0101960E94390F0F5F1F4F023369
:10284000110559F78CE190E09E838D83BE016B5F8B
:102850007F4FCE0101960E94390FBE016A5F7F4F04
:10286000CE0101960E94390F86E190E09E838D8310
:10287000BE016B5F7F4FCE0101960E94390FBE01F2
:102880006A5F7F4FCE0101960E94390F69817A817C
:102890008B819C81609570958095909526960FB65A
:1028A000F894DEBF0FBECDBFDF91CF911F910F9186
:1028B0000895EF92FF920F931F93CF93DF9300D071
:1028C00000D0CDB7DEB70E94FC1369837A838B8377
:1028D0009C83CE0101967C010CEF1FE01E830D83CB
:1028E000F70161917F01CE0105960E94AE0F0F5F47
:1028F0001F4F0115F0E11F0789F726960FB6F894D0
:10290000DEBF0FBECDBFDF91CF911F910F91FF9022
:10291000EF9008952F923F924F925F926F927F9225
:102920008F929F92AF92BF92CF92DF92EF92FF92DF
:102930000F931F93CF93DF93CDB7DEB7A1970FB659
:10294000F894DEBF0FBECDBF6091E70C6C53770BE0
:102950008091E50C9B01281B310987FD339544E6E6
:10296000429FC001439F900D11240E9439BD262F24
:1029700069A38091820277247394882311F0E2E0A6
:102980007E2E8091B40388248394882311F072E012
:10299000872E8091200299249394882311F062E07D
:1029A000962E80911E02AA24A394882311F052E04F
:1029B000A52E80911C02BB24B394882311F042E021
:1029C000B42E80919702CC24C394882311F032E076
:1029D000C32E80918502DD24D394882311F092E0E8
:1029E000D92E809196028111C5C0E1E0EF8F8091D0
:1029F000EE038111C2C0E1E0E8A3E0902502F0906F
:102A00007E178091050401E0811102E08091BF03EF
:102A100012E0811111E08091220241E0811142E037
:102A20008091B30331E0811132E08091B50322241B
:102A30002394882311F082E0282E809186029091C1
:102A40008702E8EEF3E0BF010E9425BD362E80919B
:102A5000880290918902BF010E9425BD462E809177
:102A60008A0290918B02BF010E9425BD562E809153
:102A70008C0290918D02BF010E9425BD662E80912F
:102A80008E0290918F02BF010E9425BD8091D902D4
:102A9000A1E08111A2E08091DA0271E0811172E07F
:102AA0008091DB0251E0811152E08091DC0291E0E3
:102AB000811192E08091DD02811162C081E0E9A183
:102AC0002F5FE53608F025E6E0912302E150E5307E
:102AD00008F058C0F0E0E450FD4FE08179828A822E
:102AE0009B82AC82BD82CE82DF82FF8DF887F8A107
:102AF000F987EA86FB860C871D872E873F86488AE2
:102B0000598A6A8A6B8BAC8B7D8B5E8B9F8B888F8F
:102B1000E98F4A8F3B8F2C8ECE0101967C0106E116
:102B200010E01E8F0D8FF70161917F01CE014D9650
:102B30000E94AE0F0F5F1F4F0233110591F70E94E5
:102B40005914A1960FB6F894DEBF0FBECDBFDF912A
:102B5000CF911F910F91FF90EF90DF90CF90BF909A
:102B6000AF909F908F907F906F905F904F903F902D
:102B70002F900895F2E0FF8F3ACFF2E0F8A33DCF17
:102B800082E09DCFE4E0AACF0F931F93CF93DF9312
:102B90001F921F92CDB7DEB706E110E01A830983BA
:102BA0006FEFCE0101960E94AE0F0F5F1F4F0233F1
:102BB0001105A1F70E9459140F900F90DF91CF914A
:102BC0001F910F910895EF92FF920F931F93CF9350
:102BD000DF93CDB7DEB768970FB6F894DEBF0FBEB0
:102BE000CDBF8091B10371E0813009F472E0809132
:102BF000160293E0813021F094E0823009F092E0F7
:102C00002091190230911A0282E02115310529F034
:102C100083E02130310509F084E02091920261E0E7
:102C2000211162E020911F0251E0211152E0209118
:102C3000B00341E0211142E020911D0231E0211159
:102C400032E02091AF03211155C021E0E091E10273
:102C5000E983E091E002EA83E0911802EB837C8350
:102C60007091D5027D837091D3027E837091D102E1
:102C70007F837091D40278877091D20279877091A6
:102C8000D0027A87709115027B87709121027C8730
:102C9000709117027D8770911B027E877091B2033D
:102CA0007F87988B898B6A8B5B8B4C8B3D8B2E8BB4
:102CB000CE0101967C0110E000E0188F0F8BF70128
:102CC00061917F01CE0147960E94AE0F0F5F1F4FAB
:102CD0000631110591F70E94591468960FB6F894C1
:102CE000DEBF0FBECDBFDF91CF911F910F91FF903F
:102CF000EF90089522E0AACF0F931F93CF93DF9315
:102D00001F921F92CDB7DEB710E000E01A8309834F
:102D10006FEFCE0101960E94AE0F0F5F1F4F06317D
:102D20001105A1F70E9459140F900F90DF91CF91D8
:102D30001F910F910895CF93DF93CDB7DEB76497BE
:102D40000FB6F894DEBF0FBECDBF2091890530913C
:102D50008A05215031092230310580F4FE01319677
:102D600094E1DF011D929A95E9F795E0998381112D
:102D70000EC085E18D83CF010E94347264960FB638
:102D8000F894DEBF0FBECDBFDF91CF91089584E1EF
:102D9000F1CFCF93DF93CDB7DEB764970FB6F8943A
:102DA000DEBF0FBECDBF2091890530918A0521502D
:102DB00031092230310580F4FE01319694E1DF01C2
:102DC0001D929A95E9F795E0998381110EC083E1F0
:102DD0008D83CF010E94347264960FB6F894DEBFE3
:102DE0000FBECDBFDF91CF91089582E1F1CF8091E9
:102DF000890590918A050197039708F0BEC16091FB
:102E0000E30C062E000C770B8CE390E00E946A78AE
:102E10006091E30C062E000C770B89E491E00E9490
:102E20006A786091E30C062E000C770B8BE490E03F
:102E30000E946A786091E30C062E000C770B8EE7F7
:102E400090E00E946A786091E30C062E000C770BEC
:102E50008FE790E00E946A786091E30C062E000CE8
:102E6000770B83EB90E00E946A786091E30C062E6A
:102E7000000C770B82E090E00E946A7880918017C6
:102E80006091E30C062E000C770B853009F029C108
:102E900087E390E00E946A786091E30C062E000CB4
:102EA000770B80918017823009F41EC1833009F4BA
:102EB00067C16451710980E691E00E946A7880914F
:102EC00081176091E30C062E000C770B823009F01D
:102ED00063C16E51710981E090E00E946A7860914F
:102EE000E30C062E000C770B6E5171098FE090E019
:102EF0000E946A786091E30C062E000C770B6852F2
:102F0000710980E190E00E946A786091E30C062EDE
:102F1000000C770B6E5171098DE991E00E946A787F
:102F20006091E30C062E000C770B6852710985E95D
:102F300091E00E946A786091E30C062E000C770BFA
:102F40006852710982E190E00E946A786091E30C16
:102F5000062E000C770B6852710983E190E00E9405
:102F60006A786091E30C062E000C770B68527109A9
:102F700084E190E00E946A786091E30C062E000CD8
:102F8000770B6852710985E190E00E946A78609140
:102F9000E30C062E000C770B6852710986E190E075
:102FA0000E946A786091E30C062E000C770B685241
:102FB00071098DE890E00E946A786091E30C062E1A
:102FC000000C770B685271098FE890E00E946A78D4
:102FD0006091E30C062E000C770B6852710983E9AF
:102FE00090E00E946A786091E30C062E000C770B4B
:102FF000685271098EE890E00E946A786091E30C53
:10300000062E000C770B6852710980E990E00E944F
:103010006A786091E30C062E000C770B68527109F8
:1030200082E990E00E946A786091E30C062E000C21
:10303000770B6852710984E990E00E946A78609188
:10304000E30C062E000C770B6852710981E990E0C1
:103050000E946A786091E30C062E000C770B8CE5D9
:1030600091E00E946A786091E30C062E000C770BC9
:1030700082EA91E00E946A786091E30C062E000CCF
:10308000770B80E991E00E946A786091E30C062E4C
:10309000000C770B83E891E00E946A786091E30C62
:1030A000062E000C770B8AE691E00E946A78609108
:1030B000E30C062E000C770B89E691E00E946A78FB
:1030C0008091EF038823E9F06091E30C062E000C59
:1030D000770B8091B403882309F429C18AEB91E02E
:1030E0000EC08BE691E0D6CE8BE791E00E946A7825
:1030F0006091E30C062E000C770B8CE791E00E94A8
:103100006A7880918117823009F414C1833009F400
:1031100046C1813009F42DC18091F503882369F1FE
:103120006091E30C062E000C770B82E690E00E9483
:103130006A786091E30C062E000C770B8FE791E024
:103140000E946A786091E30C062E000C770B89E8E8
:1031500091E00E946A786091E30C062E000C770BD8
:1031600083E690E00E946A786091E30C062E000CE2
:10317000770B88E490E00E946A7889E20C942469D5
:1031800085E290E00E946A786091E30C062E000CC4
:10319000770B86E290E0B3CF81E090E00E946A78FE
:1031A0006091E30C062E000C770B8FE090E00E94FC
:1031B0006A786091E30C062E000C770B8DE991E0A4
:1031C0000E946A786091E30C062E000C770B645124
:1031D000710982E190E00E946A786091E30C062E0A
:1031E000000C770B6451710983E190E00E946A78CA
:1031F0006091E30C062E000C770B6451710984E199
:1032000090E00E946A786091E30C062E000C770B28
:103210006451710985E190E00E946A786091E30C45
:10322000062E000C770B6451710986E190E00E9434
:103230006A788091F5036091E30C062E000C770B01
:10324000882309F46AC06550710980E190E00E940A
:103250006A786091E30C062E000C770B65507109BB
:1032600085E991E00E946A786091E30C062E000CDB
:10327000770B8091EF0381119ACE645171098DE82B
:1032800090E00E946A786091E30C062E000C770BA8
:10329000645171098FE890E00E946A786091E30CB4
:1032A000062E000C770B6451710983E990E00E94AF
:1032B0006A786091E30C062E000C770B645171095B
:1032C0008EE890E00E946A786091E30C062E000C74
:1032D000770B6451710980E990E00E946A786091EF
:1032E000E30C062E000C770B6451710982E990E023
:1032F0000E946A786091E30C062E000C770B6451F3
:10330000710984E990E00E946A786091E30C062ECE
:10331000000C770B6451710999CE80E190E00E9416
:103320006A786091E30C062E000C770B99CF89EB3D
:1033300091E0E5CE6091E30C062E000C770B82E362
:1033400090E00E946A786091E30C062E000C770BE7
:1033500084E591E00E946A788091F503882309F45E
:103360000CCF6091E30C062E000C770B84E390E009
:1033700002CF6091E30C062E000C770B87E390E000
:103380000E946A788091F503882309F4F6CE609153
:10339000E30C062E000C770B8AE390E0ECCE6091F4
:1033A000E30C062E000C770B87E491E0E4CEAB0132
:1033B0002091890530918A0521503109233031054A
:1033C00028F421E06AEB7FEF0C94C273089580919A
:1033D00080178330D1F08530B1F168E873E1823035
:1033E000C9F48CE791E00E94D7198091811782304F
:1033F00009F43FC0833009F442C0813009F044C071
:1034000068E873E187E390E038C068E873E186E23A
:1034100090E0E9CF80E190E00E94D71968E873E17D
:103420008EE890E00E94D71968E873E180E990E0A7
:103430000E94D71968E873E180E691E00E94D719ED
:103440000E941655D2CF0E945613882351F08091C6
:10345000B40368E873E1882349F08AEB91E00E94A5
:10346000D71968E873E185E991E0D6CF89EB91E05F
:10347000F6CF68E873E182E390E00C94D71968E82E
:1034800073E187E491E0F9CF0895809189059091E7
:103490008A050197039798F48091B7039091B80338
:1034A0001816190654F48091B9039091BA03843F19
:1034B00021E0920710F00E9490780E94907910927B
:1034C000BB031092BD0361E070E085E20E941E62C2
:1034D0006091B9037091BA0386E40C94B25580915F
:1034E000B7039091B803181619060CF070C08091BC
:1034F000B9039091BA03843F21E0920708F467C0B2
:1035000021E02093BD032091890530918A05223066
:10351000310509F43FC02330310519F02130310560
:10352000F9F42091BC0361E0211101C060E00E9428
:1035300099736091E20C062E000C770B8091B90311
:103540009091BA030E946A7861E08091B9039091EA
:10355000BA030E9413780E94907981E08093570DFE
:1035600040E157E260E070E088EE9CE00E94D254B7
:103570008091BD0361E070E0882311F062E070E0AB
:1035800085E20E941E626091B9037091BA0385E4DE
:103590000C94B2552091BC0361E0211101C060E0A0
:1035A0000E9499736091E20C062E000C770B8091BB
:1035B000B9039091BA030E946A7850E040E061E05C
:1035C0008091B9039091BA030E943A78C4CF0895CC
:1035D000CF93DF93C091B903D091BA038091A20336
:1035E000882309F44CC0C45FD140BE0190E080E064
:1035F0000E94AD7620918804309189042617370700
:1036000031F580918604909187049093850480938E
:103610008404609184047091850490E080E00E94AD
:103620006077C091B703D091B8036C177D07B4F0F1
:1036300060918404709185046150710970938504D0
:103640006093840490E080E00E946077EECF615048
:1036500071097093850460938404DBCFEB01CC5037
:10366000DE4F8091BD038823B1F00E94451AD093AC
:10367000BA03C093B903DF91CF910C946F1A2197CD
:10368000C43F81E0D80768F7C091B703D091B80371
:10369000CD50DE4FE6CFD093BA03C093B903BE013D
:1036A00086E4DF91CF910C94B255CF93DF93609174
:1036B000B9037091BA03C091B703D091B803809158
:1036C000A203882309F43FC0645F714090E080E06A
:1036D0000E94AD7620918604309187042617370723
:1036E000D1F4109285041092840460918404709146
:1036F000850490E080E00E9460776C177D0794F06D
:1037000060918404709185046F5F7F4F709385048E
:1037100060938404EECF6F5F7F4F70938504609356
:103720008404E3CFEB01CC50DE4F8091BD038823AE
:10373000B1F00E94451AD093BA03C093B903DF9148
:10374000CF910C946F1A6F5F7F4FCD50DE4FC6172D
:10375000D70710F0EB01E9CFC4EFD1E0E6CFD0936B
:10376000BA03C093B903BE0186E4DF91CF910C94F4
:10377000B2552091890530918A05215031092330B5
:10378000310518F460E00C9499730895209189052F
:1037900030918A05215031092330310510F40C9401
:1037A00090780895809180178250823020F08AE6C8
:1037B00091E00C94C61B8CE390E0FBCF8DE890E089
:1037C0000E94C61B8EE890E00E94C61B8FE890E026
:1037D0000E94C61B80E990E00E94C61B81E990E030
:1037E0000E94C61B82E990E00E94C61B83E990E01C
:1037F0000E94C61B84E990E00E94C61B89E491E008
:103800000E94C61B8CE491E00C94C61B8FE891E0EB
:103810000E94C61B8DEB91E00E94C61B87E390E0DF
:103820000E94C61B8BE691E00E94C61B8CE691E0CD
:103830000C94C61BCF92DF92EF92FF920F931F93CF
:10384000CF93DF936C01F62EC42F14160CF4C0E056
:10385000CA3B0CF4CAEB8091890590918A058230AD
:10386000910591F18330910519F0019709F048C055
:103870000C2E000CDD0B222381F06AEB7FEFC601DA
:103880000E946A786E2DC6010E94137820E0A8017C
:10389000BE01C6010E94C27308C0BE01C6010E94DB
:1038A0006A786E2DC6010E94137861E0F11001C0A4
:1038B00060E0C601DF91CF911F910F91FF90EF90D3
:1038C000DF90CF900C9499730C2E000CDD0B22230B
:1038D00061F06AEB7FEFC6010E946A7850E040E039
:1038E0006E2DC6010E943A78D1CFBE01C6010E945A
:1038F0006A7850E040E06E2DC6010E943A78D5CF3C
:10390000DF91CF911F910F91FF90EF90DF90CF90BB
:103910000895EF920F931F938091F003882331F065
:1039200080E691E00E94C61B1092F0038091EF03A5
:10393000882361F08EE491E00E94C61B89EB91E040
:103940000E94C61B8AEB91E00E94C61B8091B503C2
:10395000882351F08091AE0D882331F01092AE0D86
:103960001092AF0D0E94E71980918117823009F4FF
:103970009BC1833009F4CCC1813009F4AFC180917F
:103980008017909184179150943008F028C190913D
:10399000BE03992309F40FC14091E30CE12C10E020
:1039A00000E020E060E08330A9F0853009F4FAC03F
:1039B000823009F0EEC08DE791E00E941A1CEE24DF
:1039C000E3940AEF10E021E04091E30C61E08FE71F
:1039D00091E00EC084E690E00E941A1CEE24E3946D
:1039E00004E619E121E04091E30C61E083E690E018
:1039F0000E941A1C81E08093A7038091A60388236C
:103A000009F4EAC0809180174091E30CE12C10E0AA
:103A100000E020E060E0833009F0D0C084E690E070
:103A20000E941A1CEE24E39404E619E121E040917F
:103A3000E30C61E088E490E00E941A1C81E080932E
:103A4000A503809180178450823008F580918417F7
:103A50008530E8F48AEB9DE00E945C542091811748
:103A600030918017683B7B408105910508F091C13A
:103A70006091E30C223009F08AC1685244E650E0BC
:103A8000343009F09BC180E190E00E945D79809123
:103A90008117853059F4E12C04E610E021E04091D3
:103AA000E30C60E083EA91E00E941A1C8091811788
:103AB000863059F4E12C04E610E021E04091E30C5B
:103AC00060E084EA91E00E941A1C81E08093F50393
:103AD00087E00E94D855809182028823F9F0809176
:103AE0008302909184020297C9F468E070E080E05C
:103AF00090E00E94510A695F7F4F8F4F9F4F28EEE1
:103B000033E0629FA001639F500D729F500D1124FE
:103B100070E060E084EC9DE00E94D25480E00E945E
:103B20004310809181178230A1F0E0918417E15019
:103B3000FF0BEE0FFF1FE351F44F4591549170E0DE
:103B400060E08DE29EE00E94D25410922B0E109203
:103B50002C0E1092490E10924A0E8FEF0E94071100
:103B60001092120E1092130E42E350E060E070E0EB
:103B700080E09EE00E94D2541092F40348E95AE398
:103B800060E070E08EEC9DE01F910F91EF900C943F
:103B9000D2548BE990E00E941A1CEE24E39403E1D6
:103BA00011E011CF8FE491E00E941A1CEE24E394FF
:103BB00008EC10E008CF1092A7031FCF853049F41E
:103BC0008FE491E00E941A1CEE24E3940CE211E0D1
:103BD0002DCF85E090E0F6CF1092A50332CF409133
:103BE000E30CE12C10E000E020E060E0833009F419
:103BF0003FC0853009F442C08230E9F587E891E0A2
:103C00000E941A1C8091BE03882309F445C080914C
:103C1000801791E09093A7034091E30CEE24E39486
:103C2000823079F504EA16E021E061E089E891E06C
:103C30000E941A1C8091A603882371F2809180173C
:103C400091E09093A5034091E30CEE24E3940CEBF8
:103C500012E0833021F10CE211E0823001F504EA38
:103C600016E021E061E089E891E00E941A1CE9CEAB
:103C700081E690E0C5CF8BE990E0C2CF8FE491E080
:103C8000BFCF0CE211E0833011F40CEB12E021E025
:103C900061E082E690E0CCCF1092A703CBCF21E089
:103CA00061E088E490E0E1CF85E390E00E94C61BEC
:103CB000E12C10E000E020E04091E30C60E083E3C1
:103CC00090E00E941A1CEE24E39402E513E021E048
:103CD0004091E30C61E084E390E0C7CF8BE390E098
:103CE0000E94C61BE12C10E000E020E04091E30CB4
:103CF00060E089E390E00E941A1CEE24E39408EE51
:103D000013E021E04091E30C61E08AE390E0ADCF65
:103D100080918705909188058D36910550F4E12CAE
:103D200010E000E020E04091E30C60E086E491E0E8
:103D30009CCF86E491E00E94C61B8091841783305B
:103D4000E1F050F4813091F0823009F07ACE609148
:103D5000E30C85EF90E00EC08430A1F0853009F0CF
:103D600070CE6091E30C8DE790E004C06091E30CAD
:103D700083E191E00E94117964CE6091E30C87EDBC
:103D800090E0F8CF6091E30C89EB90E0F3CF6550C1
:103D900075CE8AEB9DE02230A1F4343041F40E94CC
:103DA0005C542091E30C2852AB01622F6CCE0E9430
:103DB0005C542091E30C2852AB01622F85E991E01D
:103DC00064CE343031F40E945C542091E30C2550D1
:103DD000EBCF0E945C542091E30C2550EDCFEF9285
:103DE0000F931F9383E591E00E94C61B82E390E04E
:103DF0000E94C61B88E591E00E94C61BEE24E39456
:103E000010E000E020E04091E30C60E087E591E005
:103E10000E941A1C809181178230D1F420E04091D9
:103E2000E30C60E083E591E00E941A1C81E080933E
:103E3000F30340E050E0BA0187E39EE00E94D254D1
:103E40000E9402588FE01F910F91EF900C94D8556B
:103E50001092120E1092130E42E350E060E070E0F8
:103E600080E09EE00E94D254E1CFEF920F931F9327
:103E70004091E30C80918117EE24E39410E000E080
:103E800020E060E0823031F583E591E00E941A1C69
:103E900081E08093FC03809181178230B9F548EB73
:103EA0005BE060E070E087E39EE00E94D254809186
:103EB00080178250823040F48CE291E09093990216
:103EC000809398020E94A11381E11F910F91EF90BE
:103ED0000C94D85588E691E00E941A1C80918017B6
:103EE0008450823040F420E04091E30C61E089E6A8
:103EF00091E00E941A1CEE24E39410E000E020E020
:103F00004091E30C60E085E591E0C0CF40EA5FE0DE
:103F100060E070E087E39EE00E94D2541092080EA9
:103F20001092090E1092120E1092130E42E350E0FE
:103F300060E070E080E09EE0B8CFEF920F931F93B7
:103F4000CF93C82F81E090E0909302048093010406
:103F50001092FF031092FE03109200048091B503AB
:103F6000882309F476C040E355E760E070E086EA14
:103F70009DE00E94D254C1110EC00E948F10682F84
:103F800070E088E00E941E620E948F10682F70E02F
:103F900081E30E94B25580918917853041F4809168
:103FA0002402882321F061E08DE20E94707B8BE483
:103FB00090E00E94C61B8EE790E00E94C61B8FE730
:103FC00090E00E94C61B83E290E00E94C61B8CE535
:103FD00091E00E94C61B80E991E00E94C61B82EA24
:103FE00091E00E94C61B809180178330B9F1853023
:103FF00009F4ACC0823009F046C0EE24E39410E02E
:1040000000E020E04091E30C60E08BE791E00E944B
:104010001A1C08ED1EE021E04091E30C61E08CE702
:1040200091E00E941A1C80918117823009F427C107
:10403000833009F440C1813009F02DC1EE24E394AE
:1040400004E813E021E04091E30C61E087E390E0B5
:1040500020C11092AE0D1092AF0D8DCFEE24E394DF
:1040600010E000E020E04091E30C60E085E290E0A9
:104070000E941A1C08ED1EE021E04091E30C61E073
:1040800086E290E0CECF809181174091E30CCC2363
:1040900089F18230F9F44E51EE24E39410E000E00F
:1040A00020E060E08FE090E00E941A1C4091E30C59
:1040B000485200E516E421E061E080E190E00E94D2
:1040C0001A1C40E556E460E070E08AEB9DE00E9437
:1040D000D254A9CFEE24E39410E000E020E060E0A9
:1040E0008FE090E00E941A1C00E516E421E0409168
:1040F000E30CE2CF8230D1F44E51EE24E39410E091
:1041000000E020E060E081E090E00E941A1C409115
:10411000E30C485204EF11E021E061E080E190E01F
:104120000E941A1C40E050E0BA01CFCFEE24E39485
:1041300010E000E020E060E081E090E00E941A1CC6
:1041400004EF11E021E04091E30CE7CF0E94561309
:104150004091E30C8823D9F1EE24E39410E000E0D1
:1041600020E060E081E090E00E941A1C04EF11E082
:1041700021E04091E30C61E085E991E00E941A1C86
:104180008091B403882371F000ED17E021E04091A5
:10419000E30C61E08AEB91E00E941A1C81E08093BD
:1041A000EF03C0CFEE24E39410E000E020E0409164
:1041B000E30C60E08EE491E00E941A1C0CEF18E022
:1041C00021E04091E30C61E089EB91E0E5CF809143
:1041D0008117CC2369F18230D9F44E51EE24E39457
:1041E00010E000E020E060E08DE991E00E941A1C00
:1041F0004091E30C485200E117E221E061E085E9DB
:1042000091E00E941A1C40E157E260E070E05DCF4F
:10421000EE24E39410E000E020E060E08DE991E01E
:104220000E941A1C00E117E221E04091E30CE6CF66
:104230008230A9F44E51EE24E39410E000E020E037
:1042400060E081E090E00E941A1C4091E30C48522B
:1042500004EF11E021E061E085E991E061CFEE2417
:10426000E39410E000E020E060E081E090E00E9454
:104270001A1C04EF11E021E04091E30CECCFEE2496
:10428000E39404E813E021E04091E30C61E082E371
:1042900090E00E941A1C109223171092241710927B
:1042A000F90385E00E947C6282E3CF911F910F9118
:1042B000EF900C94D855EE24E39404E813E021E049
:1042C0004091E30C61E087E491E0E3CFEF920F933C
:1042D0001F9380918117823009F472C0833091F16D
:1042E000813009F474C080918017909184179150A7
:1042F000943008F04FC0833069F0853009F447C02E
:10430000823009F041C08DE791E00E94C61B8FE723
:1043100091E006C084E690E00E94C61B83E690E030
:104320000E94C61B80918202882321F089E090E0E0
:104330000E94C61B88E490E00E94C61B82E690E0C3
:104340000E94C61B8091830290918402009709F419
:1043500045C0019709F462C01092A7031092A5030B
:1043600080918117853021F483EA91E00E94C61B79
:1043700080918117863009F069C084EA91E01F912D
:104380000F91EF900C94C61B80E690E0BECF8FE4B7
:1043900091E0BBCF833059F0853079F0823051F411
:1043A00087E891E00E94C61B89E891E0B9CF81E6D9
:1043B00090E0B6CF8BE990E0B3CF8FE491E0B0CF3F
:1043C00083E390E00E94C61B84E390E0B9CF89E3C9
:1043D00090E00E94C61B8AE390E0B2CF82E090E0BA
:1043E00090938402809383028091890590918A053D
:1043F000039741F48AE490E00E94C61B89E490E0B0
:104400000E94C61BE12C10E000E020E04091E30C8C
:1044100060E089E490E00E941A1C9ECF82E090E068
:1044200090938402809383028EE690E00E94C61BE4
:104430008FE690E00E94C61BE12C10E000E020E037
:104440004091E30C60E08FE690E0E5CF1F910F9183
:10445000EF900895EF920F931F938091D6028530CD
:1044600020F51092D60280E490E00E94C61BEE2454
:10447000E39410E000E020E04091E60C60E080E48E
:1044800090E00E941A1C8091D60226E4829FC0010F
:10449000112464E670E00E9439BD66546093E20C1A
:1044A0001F910F91EF900C94920F85508093D6023C
:1044B000EACFEF920F931F938091D602803628F1B6
:1044C00084E68093D60280E490E00E94C61BEE242E
:1044D000E39410E000E020E04091E60C60E080E42E
:1044E00090E00E941A1C8091D60226E4829FC001AF
:1044F000112464E670E00E9439BD66546093E20CBA
:104500001F910F91EF900C94920F8B5F8093D602C6
:10451000EACFEF920F931F938091D702853020F559
:104520001092D70280E490E00E94C61BEE24E39430
:1045300010E000E020E04091E60C60E080E490E0D4
:104540000E941A1C8091D70226E4829FC001112488
:1045500064E670E00E9439BD66546093E30C1F91DD
:104560000F91EF900C94F71685508093D702EACF05
:10457000EF920F931F938091D702803628F184E643
:104580008093D70280E490E00E94C61BEE24E3945F
:1045900010E000E020E04091E30C60E080E490E077
:1045A0000E941A1C8091D70226E4829FC001112428
:1045B00064E670E00E9439BD66546093E30C1F917D
:1045C0000F91EF900C94F7168B5F8093D702EACF90
:1045D000EF920F931F93CF93C82F809189059091ED
:1045E0008A050197039738F48091E60C082E000C99
:1045F000990B0E949B7AC11131C080910104909166
:104600000204019721F18091F803811120C080E418
:1046100090E00E94C61BEE24E39410E000E020E04E
:104620004091E30C60E080E490E00E941A1C8091CD
:10463000D802823361F48FE390E00E94C61B20E031
:104640004091E30C60E08FE390E00E941A1C89E245
:10465000CF911F910F91EF900C942469CF911F91EE
:104660000F91EF9008959C019091E60C9A3B31F4E4
:104670008091E40C2230310539F408952130310560
:10468000E1F39093E40C8AEB8093E60C80E00C94C9
:10469000E8222091E70C822F8C53990BAC0180917A
:1046A000E60C082E000C990B84179507F1F0809109
:1046B000D8028530B0F41092D8023091D802349FDD
:1046C000C001359F900D11246CE97FEF0E9439BD28
:1046D0002C53620F6093E60C6093E40C80E00C9422
:1046E000E82285508093D802E8CF08958091E60CA7
:1046F000882319F18091D8028036E8F084E680930F
:10470000D8022091E70C822F8C53990BAC01309189
:10471000D802349FC001359F900D11246CE97FEFC2
:104720000E9439BD2C53620F6093E60C6093E40C39
:1047300080E00C94E8228B5FE2CF08950F931F93E3
:10474000122F202F0E945974AB01BC011123C9F014
:10475000B62FA52F942F882788279927BB27052FA9
:10476000162F272F3327002722273327802B912B23
:10477000A22BB32BBC01CD01642B1F910F910C9484
:104780002B0EBA01FACF2F923F924F925F926F9207
:104790007F928F929F92AF92BF92CF92DF92EF92D1
:1047A000FF920F931F93CF93DF9300D000D01F92FF
:1047B000CDB7DEB7809121020E94850F282E80910F
:1047C0001D0215E0882331F06091811781E00E947D
:1047D0003E55182F80E00E94C70F90913A17890F1D
:1047E000898381E00E94C70F30903A17380E82E02B
:1047F0000E94C70F20913A17280F2E8383E00E9452
:10480000C70F90913A17890F8F83809181172BEFF3
:10481000280F223008F4C6C0843009F4C3C0709059
:104820001E027110CEC000E020E0422D612F81E019
:104830000E949E232B013C0120E0422D612F81E04C
:104840000E949E234B015C0120E0422D612F81E0FC
:104850000E949E236B017C0120E0422D612F81E0AC
:104860000E949E236A837B838C839D83398130934E
:104870009E05C301B2010E942F7430929E05C501AE
:10488000B4010E942F746E8160939E05C701B6012A
:104890000E942F748F8180939E056A817B818C8119
:1048A0009D810E942F7480911F02811145C18981D1
:1048B0008F5F80939E05C301B2010E942F74809187
:1048C0003A179981891708F46FC080917D17885035
:1048D00080939E05C301B2010E942F7481E0830D75
:1048E00080939E05C501B4010E942F7480913A17F0
:1048F000831508F45CC030907D17E8EF3E0E3092CF
:104900009E05C501B4010E942F748E818F5F809334
:104910009E05C701B6010E942F7480913A172E811F
:10492000821708F446C030917D1738503983898149
:1049300080939E05C701B6010E942F748F818F5FFF
:1049400080939E056A817B818C819D810E942F745A
:1049500080913A179F81891780F1E0917D17E85087
:10496000E983398130939E056A817B818C819D81A9
:1049700027960FB6F894DEBF0FBECDBFDF91CF9163
:104980001F910F91FF90EF90DF90CF90BF90AF906D
:104990009F908F907F906F905F904F903F902F905F
:1049A0000C942F7415E03BCF8981815091CF3A94BC
:1049B000A6CF6E8161506983BACF2F8121502983A0
:1049C000D0CF6981862E912C892F90E0A32CB12C19
:1049D000EE81CE2ED12C2F81E22EF12CF401E81B9A
:1049E000F90BEB53FC4F20812223C1F0F501E81BAA
:1049F000F90BEB53FC4F2081222381F0F601E81BD9
:104A0000F90BEB53FC4F2081222341F0F701E81B07
:104A1000F90BEB53FC4F80818111A7C00E94A113B9
:104A2000609190027091910290E080E00E9471BBD1
:104A300020E030E040EC5FE30E94D2BB0E9467BE02
:104A40009B01AC0180913A17B401681B7109E9E13F
:104A50006E2E669EC001679E900D112401E010E04D
:104A6000622D815D904F0E94C44E609190027091C2
:104A7000910290E080E00E9471BB20E030E040ECC9
:104A80005FE30E94D2BB0E9467BE9B01AC01809194
:104A90003A17B501681B7109669EC001679E900DAB
:104AA0001124622D815D904F0E94C44E609190024E
:104AB0007091910290E080E00E9471BB20E030E0B4
:104AC00040EC5FE30E94D2BB0E9467BE9B01AC0139
:104AD00080913A17B601681B7109669EC001679EF6
:104AE000900D1124622D815D904F0E94C44E609103
:104AF00090027091910290E080E00E9471BB20E0F2
:104B000030E040EC5FE30E94D2BB0E9467BE9B0195
:104B1000AC0180913A17B701681B7109669EC0010C
:104B2000679E900D1124622D815D904F0E94C44EAE
:104B300080911F02882329F127960FB6F894DEBFD3
:104B40000FBECDBFDF91CF911F910F91FF90EF90DE
:104B5000DF90CF90BF90AF909F908F907F906F909D
:104B60005F904F903F902F900895712CE1CF3A9431
:104B70008DC03E8131503983DDC08F8181508A8361
:104B80002EC1772031F1609190027091910290E0F6
:104B900080E00E9471BB20E030E040EC5FE30E94C7
:104BA000D2BB0E9467BE9B01AC016FEF861A960ACA
:104BB00080913A17881A910869E1689DC001699D42
:104BC000900D112401E010E0622D815D904F0E9454
:104BD000C44E90903A17898110917D1718509816FD
:104BE00010F419811150772009F447C060919002A8
:104BF0007091910290E080E00E9471BB20E030E073
:104C000040EC5FE30E94D2BB0E9467BE9B01AC01F7
:104C1000812F8919990BBC0199E1992E969EC001AB
:104C2000979E900D112401E010E0622D815D904F60
:104C30000E94C44E609190027091910290E080E0D9
:104C40000E9471BB20E030E040EC5FE30E94D2BBE9
:104C50000E9467BE9B01AC019FEFA91AB90A80911F
:104C60003A17A81AB1089A9CC0019B9C900D112478
:104C7000622D815D904F0E94C44E10913A1713151A
:104C800008F475CF30907D17E8EF3E0E772009F4D9
:104C900047C0609190027091910290E080E00E9484
:104CA00071BB20E030E040EC5FE30E94D2BB0E9489
:104CB00067BE9B01AC01832D811B990BBC0189E16F
:104CC000B82EB69EC001B79E900D112401E010E0F1
:104CD000622D815D904F0E94C44E60919002709150
:104CE000910290E080E00E9471BB20E030E040EC57
:104CF0005FE30E94D2BB0E9467BE9B01AC019FEFA5
:104D0000C91AD90A80913A17C81AD108BC9CC001A7
:104D1000BD9C900D1124622D815D904F0E94C44E68
:104D200010913A17EE811E1708F423CF20917D17BA
:104D300028502983772009F447C060919002709130
:104D4000910290E080E00E9471BB20E030E040ECF6
:104D50005FE30E94D2BB0E9467BE9B01AC018981C8
:104D6000811B990BBC01E9E1E69FC001E79F900D13
:104D7000112401E010E0622D815D904F0E94C44E2D
:104D8000609190027091910290E080E00E9471BB6E
:104D900020E030E040EC5FE30E94D2BB0E9467BE9F
:104DA0009B01AC016FEFE61AF60A80913A17E81AF8
:104DB000F108E9E1EE9DC001EF9D900D1124622DF7
:104DC000815D904F0E94C44E20913A1729833F8104
:104DD000231708F4D2CE60917D1768506A8377203C
:104DE00009F4AACE609190027091910290E080E067
:104DF0000E9471BB20E030E040EC5FE30E94D2BB38
:104E00000E9467BE2A81E9812E1B330BA90129E18B
:104E1000249FF001259FF00D112401E010E09B017B
:104E2000AC01622DCF01815D904F0E94C44E84CEB3
:104E30008F929F92AF92BF92CF92DF92FF920F9389
:104E40001F93CF93DF93C82F809121020E94850F7B
:104E5000F82E0E94D11380911E0281113AC000E009
:104E600020E04FEF60E081E00E949E23C0939E050A
:104E70000E942F7480911F02811114C120E04FEF16
:104E800060E081E00E949E2321E02C0F20939E058C
:104E90000E942F7480913A178C17C8F0C0917D172B
:104EA000C85000E020E04FEF60E081E00E949E23C8
:104EB000C0939E05DF91CF911F910F91FF90DF90DE
:104EC000CF90BF90AF909F908F900C942F74C15053
:104ED000E8CFCC2ED12C80913A179601281B3109AE
:104EE000F901EB53FC4F80818F113DC0D9E1D29F76
:104EF000C001D39F900D11246F2D895E9C4E0E949E
:104F0000F74E609190027091910290E080E00E94D3
:104F100071BB20E030E040EC5FE30E94D2BB4B016C
:104F20005C016091020270E090E080E00E9473BB3F
:104F30009B01AC01C501B4010E94F5BD0E9467BE92
:104F40009B01AC0180913A17B601681B7109D69F8D
:104F5000C001D79F900D112401E010E060E0895E50
:104F60009C4E0E94C44E80911F0281119BC08601FD
:104F70000F5F1F4F80913A179801281B3109F901E3
:104F8000EB53FC4F80818F113DC0D9E1D29FC0010E
:104F9000D39F900D11246F2D895E9C4E0E94F74E79
:104FA000609190027091910290E080E00E9471BB4C
:104FB00020E030E040EC5FE30E94D2BB4B015C019B
:104FC0006091020270E090E080E00E9473BB9B0160
:104FD000AC01C501B4010E94F5BD0E9467BE9B01F2
:104FE000AC0180913A17B801681B7109D69FC001C6
:104FF000D79F900D112401E010E060E0895E9C4E87
:105000000E94C44E80913A1790E0C1508C159D05C6
:105010001CF0C0917D17C850D0E09E01281B390BB1
:10502000F901EB53FC4F80818F113CC019E1129FB5
:10503000C001139F900D11246F2D895E9C4E0E941C
:10504000F74E609190027091910290E080E00E9492
:1050500071BB20E030E040EC5FE30E94D2BB4B012B
:105060005C016091020270E090E080E00E9473BBFE
:105070009B01AC01C501B4010E94F5BD0E9467BE51
:105080009B01AC0180913A17C81BD1091C9FC0013C
:105090001D9F900D112401E010E060E0895E9C4EA0
:1050A0000E94C44EDF91CF911F910F91FF90DF902E
:1050B000CF90BF90AF909F908F900895CF92DF9246
:1050C000EF92FF920F931F93CF93DF93EC0185E054
:1050D0008093CF020E94D1138FE297E10E94A254E5
:1050E000882309F4B1C06091020270E0CE010E94F1
:1050F00025BDEB0180919502882309F4C2C08FEF92
:1051000096E10E94274C882309F4A7C010929502CB
:10511000AE0170E060E08FE297E10E94D254D0933C
:105120009B02C0939A0286E28093A2028091F503CB
:1051300081110CC08091FC03811108C08091FB0398
:10514000811104C08091A2020E94071180918117F1
:105150000E94A110811178C08091A1028111C1C06B
:105160008091CC02882321F0809139170E94182762
:105170008091B4048F5F843008F0B6C08093B4048B
:105180008091B4040E94C70FC0913A17C80FC09312
:1051900039178091CC02882309F456C080912102EE
:1051A0000E94850FD82F80911D02882309F49FC08B
:1051B0006091811781E00E943E559091E0029C3001
:1051C00009F482E200E020E04D2F682F81E00E9488
:1051D0009E236B017C01C0939E050E942F740C2FAF
:1051E00010E080913A17F801E81BF109EB53FC4FEE
:1051F000D08380911F02811127C081E08C0F8093A2
:105200009E05C701B6010E942F7480913A1790E065
:10521000F801E81BF90BEA53FC4FD083C15080170B
:1052200091071CF0C0917D17C850C0939E05C7011F
:10523000B6010E942F7480913A172C2F281B330B34
:10524000F901EB53FC4FD083DF91CF911F910F9168
:10525000FF90EF90DF90CF9008958FEF96E10E943E
:10526000914CAC0170E060E08FE297E10E94D25473
:105270008FEF96E10E94914C90939B0280939A024B
:1052800052CF8091FD03882321F18FEF96E10E9498
:10529000274C882319F01092FD0348CF8FEF96E139
:1052A0000E94914CAC0170E060E08FE297E10E94B7
:1052B000D2548FEF96E10E94914C90939B02809381
:1052C0009A028091A20281508E3108F02DCF8EE19A
:1052D0002BCFAB0170E060E08FE297E10E94D254E7
:1052E00025CF1092A10244CF1092B40449CF85E09B
:1052F00064CFCF92DF92EF92FF920F931F93CF93E1
:10530000DF9380911D0215E0882331F060918117B1
:1053100081E00E943E55182F8091E0028C3009F404
:1053200012E2809180178250823068F1D0E0C0E0B4
:105330008C2F0E94B7108823C9F000E020E0FE0106
:10534000EB53FC4F4081612F81E00E949E236B0153
:105350007C018C2F0E94B71090913A179150890FC1
:1053600080939E05C701B6010E942F742196C83212
:10537000D105F1F6DF91CF911F910F91FF90EF9042
:10538000DF90CF900895C0E08091E002C81790F7B9
:10539000EC2FF0E0EB53FC4F00E020E04081612F68
:1053A00081E00E949E2320913A172C0F20939E05A6
:1053B0000E942F74CF5FE8CFFF920F931F93CF937C
:1053C000DF93D82F809115020E94850FF82E8091CF
:1053D000B00314E1882331F06091811780E00E94CE
:1053E0003E55182F8091F103082E000C990BED2FDC
:1053F000F0E08E179F073CF12091E1022817190673
:10540000A9F0A4F0809192028823A9F02D3081F4B4
:10541000EA52F44FC49100E020E04F2D612F80E06C
:105420000E949E23C0939E050E942F74DF5FDACFF7
:10543000E953F44FEFCF2D3019F4E654F44FEACF8F
:10544000E555F44FE7CFDF91CF911F910F91FF907A
:1054500008950F931F93CF93DF938091CC02811116
:1054600075C280911D0215E0882331F0609181178B
:1054700084E00E943E55182F80911B020E94850FE8
:10548000C82FD0918B048091FB03882309F499C025
:10549000DD2309F464C0A59A739A809102018860A3
:1054A00080930201809102018061809302018091CA
:1054B00002018062809302018091020180648093E6
:1054C00002018091190290911A02009709F43EC2DC
:1054D000D0E0019779F500E020E04C2F65E084E012
:1054E0000E949E2310929D050E94447420E04C2F40
:1054F00065E084E00E949E2321E020939D050E94A8
:10550000447420E04C2F6BE084E00E949E2322E054
:1055100020939D050E94447420E04C2F6BE084E0B2
:105520000E949E2323E020939D050E94447420E066
:105530004C2FAFC08091DE028150990BD81719060D
:105540000CF004C200E020E04C2F65E084E00E94F3
:105550009E23D0939D050E944474DF5FEBCFA598F6
:10556000739880910201877F8093020180910201EC
:105570008F7E80930201809102018F7D80930201D2
:10558000809102018F7B809302018091190290919A
:105590001A02892B09F4DAC18091DE028150990B3D
:1055A000D81719060CF0D2C100E020E04FEF60E000
:1055B00084E00E949E23D0939D050E944474DF5F87
:1055C000EBCFD83008F0C2C1ED2FF0E08827E451CE
:1055D000F54D8F4F0C944DBDF42A272B6E2BAE2B1F
:1055E000EC2B222C4F2C7B2CA598739880910201D8
:1055F000877F80930201809102018F7E8093020158
:10560000809102018F7D80930201809102018F7B46
:10561000809302018091190290911A02892B09F45A
:1056200095C1C0E08091DE028150990BC817190620
:105630000CF08CC100E020E04FEF60E084E00E94BD
:105640009E23C0939D050E944474CF5FEBCFA59825
:10565000739880910201877F8093020180910201FB
:105660008F7E80930201809102018062809302010B
:1056700080910201806480930201809119029091CF
:105680001A02009709F462C100E020E04C2F019754
:1056900069F46FE084E00E949E2324E020939D053E
:1056A0000E94447420E04C2F6FE00CC0612F84E016
:1056B0000E949E2324E020939D050E94447420E0D4
:1056C0004C2F612F84E00E949E2325E020939D05AE
:1056D000DF91CF911F910F910C944474A59873980A
:1056E00080910201886080930201809102018061B3
:1056F0008093020180910201806280930201809177
:1057000002018064809302018091190290911A0233
:10571000009709F41BC100E020E04C2F019789F4A9
:105720006BE084E00E949E2322E020939D050E946E
:10573000447420E04C2F6BE084E00E949E2323E021
:10574000C5CF612F84E00E949E2322E020939D0517
:105750000E94447420E04C2F612FEECFA59A739ADB
:105760008091020188608093020180910201806132
:1057700080930201809102018062809302018091F6
:1057800002018064809302018091190290911A02B3
:10579000009709F4DBC000E020E04C2F019781F472
:1057A00065E084E00E949E2310929D050E9444744F
:1057B00020E04C2F65E084E00E949E2321E086CF0C
:1057C000612F84E00E949E2310929D050E944474E4
:1057D00020E04C2F612FEFCFA59A739A80910201A0
:1057E00088608093020180910201806180930201B0
:1057F00080910201806280930201809102018064A5
:10580000809302018091190290911A02009709F485
:105810009DC0D0E0019709F45ECE8091DE028150F8
:10582000990BD81719060CF091C000E020E04C2F1E
:10583000612F84E00E949E23D0939D050E944474B2
:10584000DF5FEBCFA59A739A809102018860809305
:105850000201809102018061809302018091020126
:105860008F7D80930201809102018F7B80930201E2
:105870008091190290911A02892B09F467C000E007
:1058800020E04FEF60E084E00E949E2324E020931C
:105890009D050E94447420E04FEF60E013CFA59A6D
:1058A000739A80910201877F8093020180910201A7
:1058B0008F7E80930201809102018F7D809302018F
:1058C000809102018F7B8093020180911902909157
:1058D0001A02892BD9F100E020E04FEF60E084E06C
:1058E0000E949E2322E020939D050E94447420E0A4
:1058F0004FEF60E021CFA598739880910201877FD8
:1059000080930201809102018F7E80930201809139
:1059100002018F7D80930201809102018F7B809331
:1059200002018091190290911A02892B79F000E00E
:1059300020E04FEF60E084E00E949E2310929D05DE
:105940000E94447420E04FEF60E035CFDF91CF91AB
:105950001F910F9108950F93CF931092FA03C0E017
:1059600000E020E04FEF60E080E00E949E23C093C3
:105970009E050E942F74CF5FC73391F7C091080F27
:105980008091070F8C1768F000E020E04FEF60E097
:1059900082E00E949E23C0939D050E944474CF5FC5
:1059A000EFCFCF910F9108950F93CF93A598739850
:1059B00080910201877F80930201809102018F7E96
:1059C00080930201809102018F7D8093020180917A
:1059D00002018F7B809302018091CC02882311F019
:1059E0002C982D9810928B048091190290911A0294
:1059F000892B51F18091CC02C0E0811114C08091BB
:105A0000DE028150990BC8171906F4F400E020E07B
:105A10004FEF60E082E00E949E23C0939D050E94AC
:105A20004474CF5FECCF8091DE028C1768F000E009
:105A300020E04FEF60E082E00E949E23C0939D052E
:105A40000E944474CF5FEFCFCF910F910895EF92F2
:105A50000F931F93CF93DF938BEF9EE00E94A2548E
:105A6000882309F45AC18091CC028111CCC00E94D4
:105A700056139091EF03882309F48DC08091FB03A6
:105A8000811189C08091FC03811185C08091FD0343
:105A9000811181C08091F20381117DC0911138C0C4
:105AA0004091E30C8091B403EE24E394882309F43D
:105AB00084C000ED17E021E061E08AEB91E00E94F4
:105AC0001A1C0E94F57A81E08093EF038091B50360
:105AD0008823F1F040E355E760E070E086EA9DE05E
