:100000000C947F080C94B0080C94B0080C94B008C1
:100010000C94B0080C94B0080C94B0080C94B00880
:100020000C94B0080C94B0080C94B0080C94B00870
:100030000C94B0080C94B0080C94B0080C94B00860
:100040000C94B0080C94B0080C94B0080C94B00850
:100050000C94B0080C94B0080C94B0080C94597F20
:100060000C94B0080C949E0C0C94740C0C94B00876
:100070000C94B0080C94B0080C94B0080C94B00820
:100080000C94B0080C94B0080C94B0080C94B00810
:100090000C944A0C0C94200C0C94B0080C94AC52A8
:1000A0000C94B0080C94B0080C94B0080C94B008F0
:1000B0000C94B0080C94B0080C94B0080C94B008E0
:1000C0000C94B0080C94B0080C94B0080C94F60B87
:1000D0000C94CC0B0C94B0080C94A20B0C94780BE1
:1000E0000C94B00805A84CCDB2D44EB93836A9024C
:1000F0000C50B9918688083CA6AAAA2ABE00000026
:10010000803F07634236B79BD8A71A39685618AEA6
:10011000BAAB558C1D3CB7CC5763BD6DEDFD753E3C
:10012000F6177231BF000000803F08000000BE9249
:100130002449123EABAAAA2ABECDCCCC4C3E00002C
:100140000080BEABAAAAAA3E00000000BF000000CB
:10015000803F0000000000084178D3BB4387D113E3
:100160003D190E3CC3BD4282AD2B3E68EC8276BE8B
:10017000D98FE1A93E4C80EFFFBE01C4FF7F3F0055
:10018000000000000C94FF450C9480460C94189AD3
:100190000C940B8B0C945F7C0C944C880C941E7C00
:1001A0000C94287C0C94B2080C9492950C94906B4F
:1001B0000C94EF8C0C944E730C945F960C94CC883A
:1001C0000C94489D0C9414850C9448760C94F80873
:1001D0000C94BF920C94F0A00C941F910C943A8153
:1001E0000C9480480C94A8890C94768C0C946E73B3
:1001F0000C94386F0C940F870C94E7860C94AC9E8B
:100200000C9420460C949F6C0C94A0740C94539AFC
:100210000C946F8D0C94329D0C94E0890C942A728E
:100220000C9419730C94396E0C94D4450C948783F8
:100230000C94D6810C945E9D0C94AD8A0C942A8704
:100240000C9461480C9479550C94E5710C94A2952A
:100250000C9453490C94129F0C947F550C94A36EEC
:100260000C94156D0C94199B0C9412B60C940A7294
:100270000C9419830C9441810C942A830C943E8C29
:100280000C9466860C94998D0C94096D0C94D79AF5
:100290000C94BD720C94BA8B0C9427870C944A76FC
:1002A0000C947F9A0C9494750C9438730C94DE72B1
:1002B0000C9436460C94C6950C94FF850C942DA096
:1002C0000C94E08B0C943E6D0C94069D0C94A06EE7
:1002D0000C94AB440C94009E0C946EA00C949E9BCA
:1002E0000C94BC820C945CA00C94B5860C943A716E
:1002F0000C94A66E0C9473470C947D8C0C94A2A065
:100300000C9449810C9466880C94C18F0C948B8654
:100310000C9455460C94458D0C947D550C94689E18
:100320000C943F950C9491920C9459880C94EA6C1F
:100330000C94986E0C94C18A0C9425920C94749D24
:100340000C941C730C94356D0C94C5840C947B6CCC
:100350000C94F4820C9469460C94A8820C94039B30
:100360000C9499720C947A950C9431860C940587B0
:100370000C9413930C94528A0C945A890C94047C18
:100380000C94A5930C94B0710C945F750C94347319
:100390000C943D9C0C9401970C94B6880C944C766C
:1003A0000C94F4970C94A38C0C94B69D0C946583D8
:1003B0000C9461930C94BD800C941C9D0C948393BD
:1003C0000C94D7440C9413710C94E69D0C94D09427
:1003D0000C94B6940C94979C0C94B6750C9426725D
:1003E0000C9474550C9431A00C94557C0C940072B0
:1003F0000C9446760C94F3710C9453760C94A88A62
:100400000C94D39B0C94F0450C94EE2A0C94F09C25
:100410000C94C98C0C9418720C94EF710C944B8B47
:100420000C94147C0C94AB820C94D2820C941B8D93
:100430000C94876C0C9477850C94EB710C94959AC2
:100440000C94F6720C94A3720C9451760C94014B9C
:100450000C94E5750C947A710C94697C0C94A09DB5
:100460000C9499710C944F940C94212B0C94577309
:100470000C9409910C9406A10C9489550C944F99F5
:100480000C9416750C9426A10C94AD440C94070999
:100490000C94D0440C94FA7B0C940E720C94566E0F
:1004A0000C9432750C94B78A0C9467710C94DA7BB7
:1004B0000C9451920C94536E0C94F7710C94E67B4F
:1004C0000C9420720C94CE9E0C94BC8A0C94699B64
:1004D0000C9476880C9450550C9411460C94949777
:1004E0000C943F830C94DA6C0C94D18D0C94D66CE4
:1004F0000C946C6F0C94E17B0C94E2880C940A824F
:100500000C9443950C94FD800C94CC090C94AC97FE
:100510000C9425720C9450830C94F26F0C946175BA
:100520000C94A2990C949D810C94B74A0C941C2CA9
:100530000C94AC710C94C4970C941B750C94E882C9
:100540000C94C7930C94327C0C9463860C943E7686
:100550000C9411810C94C0990C94B5750C9442764E
:100560000C94B4950C9473880C94FA710C942C8AA6
:100570000C94A2900C94A38A0C94BD440C94A36D8B
:100580000C9433920C94D9450C943B760C94C37123
:100590000C94D08A0C945E810C941B090C94CD822F
:1005A0000C9404450C94EC460C94D6750C94E99389
:1005B0000C94417C0C94BCA00C9424880C94596E2F
:1005C0000C9461710C9498850C9484750C947B55F3
:1005D0000C94DC970C94978E0C94C19A0C94290976
:1005E0000C94682B0C944E9E0C94029A0C94C68A20
:1005F0000C94E62B0C9467730C94766C0C94EA7252
:100600000C944D9F0C9422460C9413870C941C72EE
:100610000C9479880C9484990C9460730C946C4AB3
:100620000C94DF480C9486750C94D16F0C9435763D
:100630000C9433450C941A9E0C94D6990C94F88122
:100640000C946D920C94ED910C94D6470C94CC9D27
:100650000C94A9860C94058D0C94AC440C943B6FBF
:100660000C9437920C94634A0C94ED9A0C94207578
:100670000C94A9980C944A460C949D920C94BD6CD1
:100680000C941B920C94E1920C945B9C0C944B7C0C
:100690000C9448460C9435910C9415470C94D386D1
:1006A0000C9454710C94788A0C9446480C94A0884D
:1006B0000C9408830C9488A00C94B06F0C94492C73
:1006C0000C948D920C94DC6D0C9444760C944076D2
:1006D0000C949E8B0C949E8A0C949A4A0C94A4467B
:1006E0000C94574A0C94B28A0C9414840C94CD80C8
:1006F0000C9495460C94D2480C945A800C946471D6
:100700000C9433810C94A5820C944F760C94CB8A74
:100710000C9447950C9472710C943F4A0C940B9472
:100720000C943C730C94EC990C9434460C941CA1DE
:100730000C9412720C9425750C9498830C9473810C
:100740000C94EA940C94D7820C9476830C94EFB5B5
:100750000C94D3720C949C940C9433760C94C872C1
:100760000C94799C0C9467900C942F9B0C94BF91E3
:100770000C943F930C948D720C94A9720C94C480C9
:100780000C948F6F0C948A9D0C94F09E0C94937231
:100790000C943B460C947C8B0C9437760C943F75F0
:1007A0000C9430760C94A9470C94699A0C940C7CA8
:1007B0000C947F090C94A4890C946B710C942D9467
:1007C0000C9488810C94A5830C948A9E0C941370CD
:1007D0000C9447710C9429A00C9461940C949C6E19
:1007E0000C94A82B0C94737C0C9427460C9489923F
:1007F0000C9491910C9414900C942F750C9463911B
:100800000C9462750C9440750C94349E0C94AE4418
:100810000C942F920C94E7810C94889F0C94F07B9D
:100820000C94C39F0C9404720C94008C0C94F68A64
:100830000C9459A10C94089C0C943E6F0C946295F6
:100840000C94C7890C94068A0C94A0890C94B189E5
:100850000C94E3980C94B59C0C94FA6C0C94397637
:100860000C9495750C9435470C94AB9A0C94AE6E21
:100870000C9487720C94752C000000006410B71D56
:10088000C8206E3BAC30D9269041DC76F4516B6BBE
:100890005861B24D3C7105502083B8ED44930FF080
:1008A000E8A3D6D68CB361CBB0C2649BD4D2D38636
:1008B00078E20AA01CF2BDBD0000000000000000AC
:1008C0000000000000000000000000000000000028
:1008D0000101010101010101010101010202020204
:1008E00002020202030303030303040404040505D4
:1008F0000505050606060607070708080809090989
:100900000A0A0A0B0B0B0C0C0D0D0D0E0E0F0F101F
:100910001011111212131314141515161617181896
:1009200019191A1B1B1C1D1D1E1F1F2021222223EB
:10093000242526262728292A2A2B2C2D2E2F303114
:1009400032333435363738393A3B3C3D3E3F40410F
:10095000424445464748494B4C4D4E5051525455E0
:100960005658595A5C5D5E606163646667696A6C7B
:100970006D6F7072737577787A7C7D7F81828486E3
:1009800088898B8D8F91929496989A9C9EA0A2A410
:10099000A6A8AAACAEB0B2B4B6B8BABCBFC1C3C503
:1009A000C7CACCCED1D3D5D7DADCDFE1E3E6E8EBBA
:1009B000EDF0F2F5F7FAFCFF57616E642053796EA3
:1009C0006368726F6E697A656400526563762E2083
:1009D00057616E6420536D6F6B652050726566734E
:1009E00000526563762E2057616E6420436F6E66F9
:1009F000696720507265667300526563762E2057D2
:100A0000616E6420446174613A2000526563762E01
:100A10002057616E6420436F6D6D616E643A2000F3
:100A2000536176696E6720536D6F6B6520507265F8
:100A3000666572656E63657300536176696E6720E3
:100A400057616E6420507265666572656E6365738A
:100A500000436F6D706C65746564207570646174BB
:100A600065206F66207061636B2073657474696EB6
:100A700067730052756E6E696E672075706461747D
:100A8000652066756E6374696F6E732E2E2E005529
:100A900070646174696E6720706F7765722063653A
:100AA0006C6C207661726961626C65732E2E2E000B
:100AB0005570646174696E6720696E6E657220633B
:100AC00079636C6F74726F6E207661726961626CAB
:100AD00065732E2E2E005570646174696E67206FE9
:100AE00075746572206379636C6F74726F6E2076B3
:100AF00061726961626C65732E2E2E00557064619F
:100B000074696E672067656E6572616C20766172CC
:100B10006961626C65732E2E2E00536176696E6773
:100B2000205061636B20507265666572656E636507
:100B30007300526563762E20536D6F6B6520436F93
:100B40006E66696700526563762E2057616E642079
:100B5000436F6E66696700526563762E205061634D
:100B60006B20436F6E66696700526563762E204185
:100B70007474656E7561746F72204D65737361670F
:100B8000653A2000526563762E20417474656E7557
:100B900061746F7220436F6D6D616E643A20000066
:100BA0000102030405060708090A0B0C0D0E0001DB
:100BB00002030405060708090A0B0C0E0D0C0B0AAC
:100BC000090807060504030201000C0B0A090807BF
:100BD00006050403020100B80BB80BAC0DAC0DA068
:100BE0000F3075983A10274C1D70173D0064016551
:100BF00001660167015761726E696E673A20436151
:100C00006C63756C61746564206D757369632063D2
:100C10006F756E742065786365656473206D6178A7
:100C2000696D756D20706F737369626C653B2053DD
:100C300044206361726420636F7272757074696FAF
:100C40006E206C696B656C7921005761726E696EFC
:100C5000673A20547261636B20636F756E74206411
:100C60006F6573206E6F74206D61746368206669B0
:100C7000726D776172652120506C656173652075B6
:100C8000706461746520746865206D6963726F5368
:100C900044206361726420736F756E6420656666BC
:100CA000656374732E000102030405060708090A30
:100CB0000B0C0D0E0F101112131415161718191A0C
:100CC0001B1C1D1E1F20212223242526272801024C
:100CD00003040506070809000A0B0C0D0E0F10117E
:100CE0001200131415161718191A1B001C1D1E1FAD
:100CF000202122232400010203040500000000003B
:100D0000060708090A00000000000B0C0D0E0F007A
:100D10000000000010111213140000000000010276
:100D200003000000000000000405060000000000B1
:100D30000000070809000000000000000A0B0C007A
:100D400000000000000001000000000000000000A2
:100D5000020000000000000000000300000000008E
:100D60000000000004000000000000000000001C63
:100D7000120A041F160D02110C07010A0704000ACB
:100D8000121C040D161F02070C110104070A4174FE
:100D900074656E7561746F722053796E6320456E51
:100DA0006400417474656E7561746F722053796E5E
:100DB00063205374617274005468656D65206368C4
:100DC000616E67656420746F2046726F7A656E206D
:100DD000456D7069726520283230323429005468BC
:100DE000656D65206368616E67656420746F20417E
:100DF000667465726C69666520283230323129006C
:100E00005468656D65206368616E67656420746F02
:100E10002047423220283139383929005468656D1D
:100E200065206368616E67656420746F2047423196
:100E30002028313938342900417474656E75617425
:100E40006F722053796E6368726F6E697A656400A1
:100E500047657474696E67205061636B20507265DA
:100E6000666572656E6365730047657474696E6765
:100E700020536D6F6B6520507265666572656E6399
:100E8000657300436F6D6D616E6420746F205761F0
:100E90006E643A200057616E642053796E6320457A
:100EA0006E640057616E642053796E6320537461E1
:100EB0007274004E6F20417564696F2044657669D5
:100EC0006365005761726E696E673A205253505FD6
:100ED00053595354454D5F494E464F206E6F742011
:100EE000726563656976656421005573696E672074
:100EF0005741562054726967676572005573696E71
:100F0000672047505374617220417564696F2056A1
:100F1000657273696F6E3A2000436F6E666967751C
:100F2000726520506F776572204D6574657200554B
:100F30006E61626C6520746F2066696E6420706FEC
:100F4000776572206D6F6E69746F72696E67206469
:100F50006576696365206F6E206932632E20506F5D
:100F6000776572206D65746572206665617475724F
:100F700065732077696C6C206265206469736162B7
:100F80006C65642E00506F776572204D65746572D4
:100F900020526573756C743A2000496E6974207034
:100FA0006F776572206D657465722E2E2E00455226
:100FB000524F523A204E6F2063616C6C6261636BDA
:100FC00020617661696C61626C6520666F72207069
:100FD00061636B65742049442000000021002400F7
:100FE00027002A002D003000330001010000040119
:100FF00007010A01000020002300260029002C0020
:101000002F00320000010000030106010901010266
:10101000102020080810204010204080020102010A
:1010200008040201010204081020408080402010C2
:10103000080402018004020180402010080402011B
:101040000804020101020408102040800102040883
:101050001020408000002200250028002B002E00D8
:101060003100340002010000050108010B010505F3
:101070000505070508080808020202020A0A08080E
:10108000040404040101010101010101030303033C
:1010900003030303040707070C0C0C0C0C0C0C0CCB
:1010A0000202020206060606060606060B0B0B0BDC
:1010B0000B0B0B0B00000A0B02090C0D0E080703AB
:1010C000040100000000000000000000000000001B
:1010D0000000000000000000000000000000000010
:1010E00012111000000000000000000000000000CD
:1010F0000000000000000000000012B6EFB511244F
:101100001FBECFEFD1E2DEBFCDBF00E00CBF13E0CA
:10111000A0E0B2E0E6E8F5E801E00BBF02C007900E
:101120000D92A03AB107D9F727E1A0EAB3E001C0D8
:101130001D92AE39B207E1F718E0CEE7D8E000E043
:1011400006C021970109802FFE010E9419BDCD37ED
:10115000D10780E00807A9F70E94A37F0C94B1C2D1
:101160000C940000AF92BF92CF92DF92EF92FF9269
:101170000F931F93CF93DF936C017B018B01040FBF
:10118000151FEB015E01AE18BF08C017D10759F05B
:101190006991D601ED91FC910190F081E02DC6019D
:1011A0001995892B79F7C501DF91CF911F910F9187
:1011B000FF90EF90DF90CF90BF90AF900895FC012B
:1011C000A089B1898C91A689B78982FD0FC09C91B5
:1011D000818D8F5F8F73228D821749F0A18DAE0FA5
:1011E000BF2FB11D5D969C93818F08958C910895BA
:1011F000FC01538D448D252F30E0842F90E0821B1D
:10120000930B541710F0CF96089501970895FC01A1
:10121000918D828D981761F0A28DAE0FBF2FB11DF9
:101220005D968C91928D9F5F9F73928F90E0089551
:101230008FEF9FEF0895FC01918D828D981731F00B
:10124000828DE80FF11D858D90E008958FEF9FEF5F
:101250000895FC01918D228D892F90E0805C9F4F35
:10126000821B91098F73992708958FE995E00E9459
:10127000290921E0892B09F420E0822F08958CE3CD
:1012800096E00E94290921E0892B09F420E0822FB1
:10129000089589ED96E00E94290921E0892B09F43F
:1012A00020E0822F089586E797E00E94290921E037
:1012B000892B09F420E0822F0895FC01A48DA80F4A
:1012C000B92FB11DA35ABF4F2C91848D90E0019688
:1012D0008F739927848FA689B7892C93A089B189A8
:1012E0008C91837080648C93938D848D981306C049
:1012F0000288F389E02D80818F7D80830895EF92AD
:10130000FF920F931F93CF93DF93EC0181E0888FBF
:101310009B8D8C8D98131AC0E889F989808185FF8F
:1013200015C09FB7F894EE89FF896083E889F98931
:1013300080818370806480839FBF81E090E0DF9133
:10134000CF911F910F91FF90EF900895F62E0B8D86
:1013500010E00F5F1F4F0F731127E02E8C8D8E1141
:101360000CC00FB607FCFACFE889F989808185FFA8
:10137000F5CFCE010E945D09F1CFEB8DEC0FFD2F73
:10138000F11DE35AFF4FF0829FB7F8940B8FEA8963
:10139000FB8980818062CFCFCF93DF93EC01888D72
:1013A0008823B9F0AA89BB89E889F9898C9185FDE0
:1013B00003C0808186FD0DC00FB607FCF7CF8C916E
:1013C00085FFF2CF808185FFEDCFCE010E945D09C0
:1013D000E9CFDF91CF91089580E090E0892B29F04B
:1013E0000E94530981110E94000080E090E0892B47
:1013F00029F00E94490981110E94000080E090E0DC
:10140000892B29F00E943F0981110E94000080E091
:1014100090E0892B29F00E94350981110C9400007D
:1014200008950F931F93CF93DF93EC0188819981E7
:10143000009759F02A813B812617370730F081E069
:10144000DF91CF911F910F9108958B016F5F7F4FB7
:101450000E94B9C1009759F0998388831B830A833E
:101460002C813D81232B59F7FC011082E8CF80E0CD
:10147000E7CFCF93DF93EC0188819981009711F03A
:101480000E9430C1198218821D821C821B821A821E
:10149000DF91CF910895CF92DF92EF92FF926B018F
:1014A0007C01C114D104E104F10441F00E94A6BA08
:1014B000A70196010E9472BC6B017C01C701B601B5
:1014C000FF90EF90DF90CF900895EF92FF920F93EF
:1014D0001F93CF93DF93EC01FB01E080F180E114D7
:1014E000F10411F10481158101151105A9F08C8118
:1014F0009D81080F191FB801CE010E94110A88238F
:1015000099F0288139818C819D81B701820F931FC9
:101510000E94AAC21D830C83CE01DF91CF911F913F
:101520000F91FF90EF900895CE010E94390AF4CFF9
:10153000EF92FF920F931F93CF93DF93EC017B0108
:101540008A01BA010E94110A81110BC0CE010E94CA
:10155000390ACE01DF91CF911F910F91FF90EF904B
:1015600008951D830C83B701888199810E94AAC2C6
:10157000F0CFFC0180819181009711F00C9430C173
:101580000895EF92FF920F931F93CF93DF93EC0197
:101590008B01198218821B821A821D821C82CB0148
:1015A0000E9405BB7C01BC01CE010E94110A811181
:1015B00009C0CE01DF91CF911F910F91FF90EF9065
:1015C0000C94390AFD82EC82B80188819981DF91FF
:1015D000CF911F910F91FF90EF900C94FEBAFB01F9
:1015E000DC0111961C921E9213961C921E92129769
:1015F00015961C921E9214978617970749F06081E2
:1016000071816115710521F0448155810C94980A0E
:101610000895FB0101900020E9F73197AF01461BC7
:10162000570BDC01ED91FC910280F381E02D1994C0
:101630008F929F92AF92BF92EF92FF920F931F9360
:10164000CF93DF93CDB7DEB7A1970FB6F894DEBF87
:101650000FBECDBF7C01FA01CB0119A2223008F4E4
:101660002AE08E010F5D1F4F822E912CB12CA12CF0
:10167000BF01A50194010E94A4BCF901CA016A300E
:101680000CF5605DD8016E938D01232B242B252B47
:1016900079F790E080E0109721F0BD01C7010E942A
:1016A000090BA1960FB6F894DEBF0FBECDBFDF9138
:1016B000CF911F910F91FF90EF90BF90AF909F90AF
:1016C0008F900895695CDECF0F931F93CF93DF93C4
:1016D000EC010E94090B8C0163E373E0CE010E94D0
:1016E000090B800F911FDF91CF911F910F910895EA
:1016F0001F920F920FB60F9211240BB60F922F93D9
:101700003F934F935F936F937F938F939F93AF9389
:10171000BF93EF93FF938FE995E00E945D09FF91DE
:10172000EF91BF91AF919F918F917F916F915F9159
:101730004F913F912F910F900BBE0F900FBE0F90C6
:101740001F9018951F920F920FB60F9211240BB68F
:101750000F922F933F934F935F936F937F938F934A
:101760009F93AF93BF93EF93FF938FE995E00E9410
:10177000DF08FF91EF91BF91AF919F918F917F9182
:101780006F915F914F913F912F910F900BBE0F90F2
:101790000FBE0F901F9018951F920F920FB60F92C9
:1017A00011240BB60F922F933F934F935F936F9338
:1017B0007F938F939F93AF93BF93EF93FF938CE3AC
:1017C00096E00E945D09FF91EF91BF91AF919F91CB
:1017D0008F917F916F915F914F913F912F910F90DA
:1017E0000BBE0F900FBE0F901F9018951F920F9277
:1017F0000FB60F9211240BB60F922F933F934F9376
:101800005F936F937F938F939F93AF93BF93EF9368
:10181000FF938CE396E00E94DF08FF91EF91BF9168
:10182000AF919F918F917F916F915F914F913F9178
:101830002F910F900BBE0F900FBE0F901F90189519
:101840001F920F920FB60F9211240BB60F922F9387
:101850003F934F935F936F937F938F939F93AF9338
:10186000BF93EF93FF9389ED96E00E945D09FF918E
:10187000EF91BF91AF919F918F917F916F915F9108
:101880004F913F912F910F900BBE0F900FBE0F9075
:101890001F9018951F920F920FB60F9211240BB63E
:1018A0000F922F933F934F935F936F937F938F93F9
:1018B0009F93AF93BF93EF93FF9389ED96E00E94C0
:1018C000DF08FF91EF91BF91AF919F918F917F9131
:1018D0006F915F914F913F912F910F900BBE0F90A1
:1018E0000FBE0F901F9018951F920F920FB60F9278
:1018F00011240BB60F922F933F934F935F936F93E7
:101900007F938F939F93AF93BF93EF93FF9386E75C
:1019100097E00E945D09FF91EF91BF91AF919F9178
:101920008F917F916F915F914F913F912F910F9088
:101930000BBE0F900FBE0F901F9018951F920F9225
:101940000FB60F9211240BB60F922F933F934F9324
:101950005F936F937F938F939F93AF93BF93EF9317
:10196000FF9386E797E00E94DF08FF91EF91BF9118
:10197000AF919F918F917F916F915F914F913F9127
:101980002F910F900BBE0F900FBE0F901F901895C8
:101990004F925F926F927F928F929F92AF92BF927F
:1019A000EF92FF92CF93DF93DC011E968C911E97EE
:1019B0001B969C911B9719964D915C911A971896BE
:1019C0008C901897282F30E01C96EC911C97F0E033
:1019D0001D96AC91B0E0891364C0CB01880F991FAC
:1019E000680F791F460F571F240F351FE901288103
:1019F000E40FF51FF080A40FB51FCC91882009F4E7
:101A000045C0912CB12CA12C622F70E0762F662757
:101A1000072E000C880B990BA50194010E94A4BC11
:101A20003901552444246F2D70E0762F6627072E48
:101A3000000C880B990BA50194010E94A4BCB42F43
:101A4000A32F922F8827482A592A6A2A7B2A6C2F8B
:101A500070E0762F6627072E000C880B990BA501E6
:101A600094010E94A4BCC301B201622B732B842B8E
:101A7000952BDF91CF91FF90EF90BF90AF909F900B
:101A80008F907F906F905F904F9008956F2D70E0D2
:101A900090E080E0982F872F762F6627822B6C2B83
:101AA000E8CF660F771F660F771F640F751F260F2D
:101AB000371FE9013881EB01C90FD11DF880E60F0E
:101AC000F71FC081A60FB71FEC90882009F44BC008
:101AD000912CB12CA12C632F70E0762F6627072E56
:101AE000000C880B990BA50194010E94A4BC722ED6
:101AF0006624552444246F2D70E0762F6627072E28
:101B0000000C880B990BA50194010E94A4BCA901AB
:101B100033272227422A532A642A752A6E2D70E021
:101B2000762F6627072E000C880B990BA5019401D0
:101B30000E94A4BC422A532A642A752A6C2F70E0A2
:101B4000762F6627072E000C880B990BA5019401B0
:101B50000E94A4BC942F832F722F662764297529B5
:101B60008629972986CF6F2D70E090E080E0CB0129
:101B700077276627932B6E297C2B7BCF8F929F92A2
:101B8000AF92BF92CF92DF92EF92FF921F93CF93CB
:101B9000DF93FC014A01AA24BB24C82DC32ED42EF6
:101BA000E52EFF241C2DD22F8085882361F0889E8E
:101BB00040011124C92D8C9D600111241D2D829F8F
:101BC000D0011124DB2FA685E184F2849385A9132B
:101BD00022C0CB01880F991F680F791F6E0D7F1DE2
:101BE000A385A60FB72FB11DCC93A485A60FB72F41
:101BF000B11D1C938585680F711DFB01D083DF919A
:101C0000CF911F91FF90EF90DF90CF90BF90AF905A
:101C10009F908F900895660F771F660F771F6E0D48
:101C20007F1D252F332744275527882349F090E02F
:101C3000829F7001839FF00C929FF00C11242F2D36
:101C4000A60FB72FB11D2C93CBCFCF93DF9300D02E
:101C50001F92CDB7DEB769837A838B839C83DE01C5
:101C60001196CE010596ED91F0E0E854F74F4491BE
:101C70009D0121503109F90140838A179B0799F78B
:101C800069817A818B819C810F900F900F900F90CA
:101C9000DF91CF910895CF92DF92EF92FF920F9351
:101CA0001F93CF93DF9300D000D000D0CDB7DEB725
:101CB0008C01DC0119968D919C91892B09F473C0DC
:101CC0000E94787CF801C784D088E188F2886C157E
:101CD0007D058E059F0520F46787708B818B928B25
:101CE000F801C784D088E188F2886C197D098E09D3
:101CF0009F096C3271408105910510F3F894D80169
:101D000014968D919C9115979A8389831996ED91DC
:101D1000FC917F01BFEFEB1AFB0A80818987F801F4
:101D200090810388F489E02DD80155968C919923F0
:101D300009F448C09081982B9887908180958923D9
:101D40008F838F818C8388E08B8358856F81498551
:101D50003B812C8189819A81D701508347FD252FB2
:101D60003A952083262F39F0441F00C0000060837D
:101D7000000000C0F2CF38E04D9160830000019771
:101D800061F7D8015496FC93EE93539749873B83B0
:101D90002C839A83898378940E94787CF8016787E2
:101DA000708B818B928B29960FB6F894DEBF0FBE95
:101DB000CDBFDF91CF911F910F91FF90EF90DF90FA
:101DC000CF9008959081982B988790818095892352
:101DD0008F838F818E8388E08D8358856F814985BD
:101DE0003D812E8189819A81D701508347FD252F1E
:101DF00000C000C0208300C000C000C000C000C000
:101E000060830000262F3A9541F0441F000000C077
:101E100000C000C000C000C0E8CF38E04D9100C055
:101E2000608300C0019709F7D8015496FC93EE93A4
:101E3000539749873D832E83ACCFCF93DF93EC013B
:101E40008E819F8197FD0CC061E00E946A7B60E0FB
:101E50008E810E943C7B81E08983DF91CF91089540
:101E6000198280E0FACF0F931F93CF93DF93DC01A9
:101E7000EB014D915D916D917C911397E881E42781
:101E8000EF7084E0E89FF0011124E858F74F0591C6
:101E900015912591349184E07695679557954795EE
:101EA0008A95D1F740275127622773274D935D9379
:101EB0006D937C931397E881E295EF70E427EF70C0
:101EC00084E0E89FF0011124E858F74F059115913F
:101ED0002591349194E076956795579547959A9515
:101EE000D1F740275127622773274D935D936D9358
:101EF0007C931397DF91CF911F910F9108958536B1
:101F000008F084E62FEF829FC001112464E670E0A0
:101F10000E9405BD862F08958091B7039091B80364
:101F20001816190694F48091890590918A050197F5
:101F3000039758F46091E20C062E000C770B809109
:101F4000B9039091BA030E94377889E20C941E6914
:101F5000FF920F931F93CF93DF93EC01F62E08812E
:101F60001981C8010E945CBCF81621F06F2DC801D0
:101F70000E9464BCCE01DF91CF911F910F91FF9021
:101F80000895843008F080E09091E002E82FF0E0BE
:101F900080912002882399F0943141F0983261F0C9
:101FA0009C3039F4E657F24F84910895EA57F24F86
:101FB000FBCFEE57F24FF8CFE258F24FF5CF943106
:101FC00039F0983259F09C3031F4E658F24FECCFAA
:101FD000EA58F24FE9CFEE58F24FE6CFE259F24F0E
:101FE000E3CF8823E9F1809197028823B9F18091AA
:101FF000FC039091F503992339F1811127C0E091F9
:102000008417F0E0E35EF14F8081811125C080915B
:10201000F303811121C080919702882311F18091EF
:10202000FC039091F5039923F1F081111EC0E0911A
:102030008417F0E0E35EF14F808181111CC0809134
:10204000F303811118C00895882309F3E0918417E0
:10205000F0E0E050FD4FD8CF5F9ADDCF5F98DBCF47
:102060005F9844980895882351F3E0918417F0E035
:10207000E050FD4FE1CF449A08958823E9F1809123
:1020800097028823B9F18091FC039091F50399237D
:1020900039F1811127C0E0918417F0E0E35EF14F40
:1020A0008081811125C08091F303811121C080912D
:1020B0009702882311F18091FC039091F5039923F5
:1020C000F1F081111EC0E0918417F0E0E35EF14F62
:1020D000808181111CC08091F303811118C0089583
:1020E000882309F3E0918417F0E0E050FD4FD8CF4A
:1020F000429ADDCF4298DBCF4298A2980895882378
:1021000051F3E0918417F0E0E050FD4FE1CFA29A47
:10211000089580912202882349F081E02091C50E24
:102120003091C60E232B31F080E008958091B804E1
:1021300091E089270895982F8091CC02882369F037
:10214000923049F480911D02882351F081E09091F2
:10215000E0029C3029F480E003C081E09230D9F79E
:102160000895E82FF0E08091E0028C3089F028F4A7
:10217000843051F0E253F34F09C0843161F088326A
:10218000C9F7EA55F34F02C0EA5BF24F8491089514
:10219000E25EF24FFBCFEA50F34FF8CF8823D1F045
:1021A0008091F503882341F0E0918417F0E0E35E2D
:1021B000F14F8081811108C08091FC03811104C01E
:1021C0008091FB03882331F080910B01886080931C
:1021D0000B01089580910B01877FF9CF1092490E72
:1021E00010924A0E8EE180939E028091891785306D
:1021F00021F460E08DE20C943C7B90E080E00C9454
:10220000A67B909189179330B9F09530D9F0209141
:102210002402222389F0882379F0923079F4909176
:10222000F503992349F090919E02891759F0809304
:102230009E0290E00C94A67B0C94EE1090919E026E
:102240009813F5CF0895BF92CF92DF92EF92FF924D
:102250000F931F93CF93DF93EC01809121020E9493
:102260007F0FB82EF0903917E0903A178FE297E180
:102270000E949C54882309F4A9C1FE188F2D0E9446
:10228000B110E82E80919502882309F4B1C085E051
:102290008093CF028FEF96E10E94214C882389F032
:1022A00010929502D0939B02C0939A02AE0170E007
:1022B00060E08FE297E10E94CC5480E48093A20218
:1022C0001BC08FEF96E10E948B4C90939B028093F2
:1022D0009A02AC0170E060E08FE297E10E94CC547A
:1022E0008091A2028F5F8E3108F480C08093A20299
:1022F0008091A202813408F78091F50381110CC00E
:102300008091FC03811108C08091FB03811104C0FE
:102310008091A2020E940111809102029091E0023C
:10232000943109F4F9C0983209F4F6C09C3009F4EC
:10233000F7C0823008F4DDC090E08C179D0709F4E7
:10234000E8C0C81BD90B809181170E949B10811196
:102350003DC1EF2DF0E0EB53FC4F808181111BC09C
:10236000EE20C9F08091CC028823A9F029E1F29EE9
:10237000C00111249C01215D304F690160E0C90159
:102380000E94F14E9E0150E040E004E110E06B2D10
:10239000C6010E94BE4E80911C02882309F420C110
:1023A0008091E002843109F4C1C0883209F418C177
:1023B0009091FD038C3009F4D5C091110DC080912E
:1023C0009502811109C08091FB03811105C08091A4
:1023D000F203882309F40AC137E28BE1F31609F40A
:1023E000D7C083E1F812FEC08FE0D2C08EE17ECF6D
:1023F0008091FD038823B1F185E08093CF028FEFB8
:1024000096E10E94214C882319F01092FD0374CFAD
:102410008FEF96E10E948B4C90939B0280939A02DF
:10242000AC0170E060E08FE297E10E94CC54209113
:102430009A0230919B022932310568F08091A20204
:10244000833320F081508093A20205C025363105E8
:1024500010F08F31B8F78091A2028E3108F04CCF86
:102460008EE12CCFD0939B02C0939A0280910202FE
:102470009091E0029C3031F1943121F18230E8F00A
:10248000282F30E0AE01421B530B2C173D0711F4EF
:1024900050E040E09091CC028B5F911101C085E04B
:1024A0008093CF028091CF028B3018F08AE0809326
:1024B000CF024115510591F013C085E08093CF0202
:1024C000AE01F0CF95E09093CF02823080F090E0A3
:1024D000AE01481B590B8C179D0711F441E050E0E9
:1024E00070E060E08FE297E10E94CC5405CFAE012E
:1024F000E0CF80919502811109C08091FD03811187
:1025000005C0CE01880F991FC80FD91F209709F069
:102510001ACFC1E0D0E017CF823008F00DCFF1CF55
:10252000823008F009CFCC0FDD1FF0CF8091FD0382
:1025300081110DC080919502811109C08091FB032A
:10254000811105C08091F203882309F44FC092E203
:102550009F1508F449CF81EF8F0D853008F044C0F6
:1025600089E016C091110CC080919502811108C0BC
:102570008091FB03811104C08091F2038823B1F1A3
:1025800020E22F1568F383EF8F0D873088F585E003
:102590002091200290913917222309F454C0E110B0
:1025A00029C02091B604281728F52F5F2093B60480
:1025B000209139178091E10290E08796281719063B
:1025C00029F024F080913A1780933917DF91CF9149
:1025D0001F910F91FF90EF90DF90CF90BF900895E3
:1025E00080E0D6CF85E1D4CF8BE0D2CF83E0D0CFCF
:1025F00087E0CECF1092B604C92FE11020C0209101
:102600003A17EC2EF12C822F90E087968E159F05BD
:102610007CF28C2F821B0E94B110882319F0C0938A
:102620003917C6CF8091E10290E08796E816F90647
:1026300021F480913A1780933917CF5FE0CF9F5FE5
:1026400090933917B5CFE11012C02091B604281726
:1026500070F42F5F2093B6049091391780913A1748
:10266000981708F0B3CF8091E102895DADCF109249
:10267000B604C92FE11010C080913A178C1760F78B
:102680003C2F381B832F0E94B110882319F0C09370
:102690003917E2CFC150F0CF915090933917DCCF6A
:1026A00080918017853059F48091CC02811107C048
:1026B0009091811781E0992321F0973011F080E00B
:1026C0000895089581E08093950280939402809309
:1026D0009302089580918017823020F0843068F052
:1026E000853011F18CE291E090939B0280939A02E5
:1026F000909399028093980208956091900270914E
:10270000910290E080E00E943DBB26E636E646EA74
:102710005FE30E949EBB0E9433BE70939B02609356
:102720009A028CE291E0E4CF88EC90E090939B02D7
:1027300080939A02F6CFDF92EF92FF920F931F934E
:10274000CF93DF9385ECE82E83E0F82E0CE814E0BD
:10275000D0E0C0E0DD24D394F70111927F0160E066
:10276000CE01895E9C4E0E94F14E60E0CE01815DFB
:10277000904F0E94F14EF801D1928F016996C83EA8
:10278000F3E0DF0749F7DF91CF911F910F91FF90A1
:10279000EF90DF90089580910202811103C081E0E3
:1027A0008093020280910202853018F084E08093C9
:1027B000020280910102811103C081E08093010235
:1027C00080910102853018F084E0809301028091AD
:1027D0000002811103C081E0809300028091000219
:1027E000853018F084E08093000208950F931F93C2
:1027F000CF93DF9300D000D0CDB7DEB78FEF9FEF40
:10280000DC0189839A83AB83BC8310E000E01E83E4
:102810000D83BE016B5F7F4FCE0101960E94330F87
:10282000BE016A5F7F4FCE0101960E94330F0F5F9A
:102830001F4F0233110559F78CE190E09E838D8381
:10284000BE016B5F7F4FCE0101960E94330FBE0128
:102850006A5F7F4FCE0101960E94330F86E190E0C0
:102860009E838D83BE016B5F7F4FCE0101960E94D8
:10287000330FBE016A5F7F4FCE0101960E94330F76
:1028800069817A818B819C81609570958095909506
:1028900026960FB6F894DEBF0FBECDBFDF91CF9165
:1028A0001F910F910895EF92FF920F931F93CF9373
:1028B000DF9300D000D0CDB7DEB70E94F613698356
:1028C0007A838B839C83CE0101967C010CEF1FE001
:1028D0001E830D83F70161917F01CE0105960E9451
:1028E000A80F0F5F1F4F0115F0E11F0789F726960C
:1028F0000FB6F894DEBF0FBECDBFDF91CF911F9111
:102900000F91FF90EF9008952F923F924F925F9218
:102910006F927F928F929F92AF92BF92CF92DF92EF
:10292000EF92FF920F931F93CF93DF93CDB7DEB754
:10293000A1970FB6F894DEBF0FBECDBF6091E70C34
:102940006C53770B8091E50C9B01281B310987FDA7
:10295000339544E6429FC001439F900D11240E948D
:1029600005BD262F69A38091820277247394882362
:1029700011F0E2E07E2E8091B403882483948823B2
:1029800011F072E0872E809120029924939488237D
:1029900011F062E0962E80911E02AA24A39488234F
:1029A00011F052E0A52E80911C02BB24B394882321
:1029B00011F042E0B42E80919702CC24C394882376
:1029C00011F032E0C32E80918502DD24D394882358
:1029D00011F092E0D92E809196028111C5C0E1E0FC
:1029E000EF8F8091EE038111C2C0E1E0E8A3E09097
:1029F0002502F0907E178091050401E0811102E02C
:102A00008091BF0312E0811111E08091220241E028
:102A1000811142E08091B30331E0811132E0809175
:102A2000B50322242394882311F082E0282E80917C
:102A3000860290918702E8EEF3E0BF010E94F1BCAC
:102A4000362E8091880290918902BF010E94F1BCCC
:102A5000462E80918A0290918B02BF010E94F1BCA8
:102A6000562E80918C0290918D02BF010E94F1BC84
:102A7000662E80918E0290918F02BF010E94F1BC60
:102A80008091D902A1E08111A2E08091DA0271E087
:102A9000811172E08091DB0251E0811152E080915E
:102AA000DC0291E0811192E08091DD02811162C02F
:102AB00081E0E9A12F5FE53608F025E6E0912302E9
:102AC000E150E53008F058C0F0E0E450FD4FE081FF
:102AD00079828A829B82AC82BD82CE82DF82FF8D28
:102AE000F887F8A1F987EA86FB860C871D872E8771
:102AF0003F86488A598A6A8A6B8BAC8B7D8B5E8B4A
:102B00009F8B888FE98F4A8F3B8F2C8ECE01019649
:102B10007C0106E110E01E8F0D8FF70161917F01AE
:102B2000CE014D960E94A80F0F5F1F4F0233110573
:102B300091F70E945314A1960FB6F894DEBF0FBE12
:102B4000CDBFDF91CF911F910F91FF90EF90DF905C
:102B5000CF90BF90AF909F908F907F906F905F903D
:102B60004F903F902F900895F2E0FF8F3ACFF2E020
:102B7000F8A33DCF82E09DCFE4E0AACF0F931F934F
:102B8000CF93DF931F921F92CDB7DEB706E110E01F
:102B90001A8309836FEFCE0101960E94A80F0F5F81
:102BA0001F4F02331105A1F70E9453140F900F908D
:102BB000DF91CF911F910F910895EF92FF920F93A4
:102BC0001F93CF93DF93CDB7DEB768970FB6F89416
:102BD000DEBF0FBECDBF8091B10371E0813009F43B
:102BE00072E08091160293E0813021F094E082300F
:102BF00009F092E02091190230911A0282E0211529
:102C0000310529F083E02130310509F084E020917D
:102C1000920261E0211162E020911F0251E0211136
:102C200052E02091B00341E0211142E020911D02C9
:102C300031E0211132E02091AF03211155C021E094
:102C4000E091E102E983E091E002EA83E091180279
:102C5000EB837C837091D5027D837091D3027E8358
:102C60007091D1027F837091D40278877091D202E3
:102C700079877091D0027A87709115027B87709165
:102C800021027C87709117027D8770911B027E87DD
:102C90007091B2037F87988B898B6A8B5B8B4C8B8F
:102CA0003D8B2E8BCE0101967C0110E000E0188F49
:102CB0000F8BF70161917F01CE0147960E94A80F0B
:102CC0000F5F1F4F0631110591F70E94531468964C
:102CD0000FB6F894DEBF0FBECDBFDF91CF911F912D
:102CE0000F91FF90EF90089522E0AACF0F931F93CA
:102CF000CF93DF931F921F92CDB7DEB710E000E0B5
:102D00001A8309836FEFCE0101960E94A80F0F5F0F
:102D10001F4F06311105A1F70E9453140F900F9019
:102D2000DF91CF911F910F910895CF93DF93CDB78E
:102D3000DEB764970FB6F894DEBF0FBECDBF20910B
:102D4000890530918A05215031092230310580F4FE
:102D5000FE01319694E1DF011D929A95E9F795E025
:102D6000998381110EC085E18D83CF010E942E725F
:102D700064960FB6F894DEBF0FBECDBFDF91CF9142
:102D8000089584E1F1CFCF93DF93CDB7DEB7649799
:102D90000FB6F894DEBF0FBECDBF209189053091EC
:102DA0008A05215031092230310580F4FE01319627
:102DB00094E1DF011D929A95E9F795E099838111DD
:102DC0000EC083E18D83CF010E942E7264960FB6F0
:102DD000F894DEBF0FBECDBFDF91CF91089582E1A1
:102DE000F1CF8091890590918A050197039708F0AA
:102DF000BEC16091E30C062E000C770B8CE390E0D3
:102E00000E9437786091E30C062E000C770B89E462
:102E100091E00E9437786091E30C062E000C770B4E
:102E20008BE490E00E9437786091E30C062E000C52
:102E3000770B8EE790E00E9437786091E30C062EC6
:102E4000000C770B8FE790E00E9437786091E30CDD
:102E5000062E000C770B83EB90E00E943778609190
:102E6000E30C062E000C770B82E090E00E9437788E
:102E7000809180176091E30C062E000C770B853053
:102E800009F029C187E390E00E9437786091E30C54
:102E9000062E000C770B80918017823009F41EC13A
:102EA000833009F467C16451710980E691E00E94A2
:102EB0003778809181176091E30C062E000C770B18
:102EC000823009F063C16E51710981E090E00E9487
:102ED00037786091E30C062E000C770B6E51710968
:102EE0008FE090E00E9437786091E30C062E000C92
:102EF000770B6852710980E190E00E943778609109
:102F0000E30C062E000C770B6E5171098DE991E0F0
:102F10000E9437786091E30C062E000C770B685204
:102F2000710985E991E00E9437786091E30C062EE3
:102F3000000C770B6852710982E190E00E943778AB
:102F40006091E30C062E000C770B6852710983E147
:102F500090E00E9437786091E30C062E000C770B0E
:102F60006852710984E190E00E9437786091E30C27
:102F7000062E000C770B6852710985E190E00E94E3
:102F800037786091E30C062E000C770B68527109BC
:102F900086E190E00E9437786091E30C062E000CE9
:102FA000770B685271098DE890E00E943778609144
:102FB000E30C062E000C770B685271098FE890E045
:102FC0000E9437786091E30C062E000C770B685254
:102FD000710983E990E00E9437786091E30C062E36
:102FE000000C770B685271098EE890E00E943778E8
:102FF0006091E30C062E000C770B6852710980E992
:1030000090E00E9437786091E30C062E000C770B5D
:103010006852710982E990E00E9437786091E30C70
:10302000062E000C770B6852710984E990E00E942B
:1030300037786091E30C062E000C770B685271090B
:1030400081E990E00E9437786091E30C062E000C35
:10305000770B8CE591E00E9437786091E30C062EA7
:10306000000C770B82EA91E00E9437786091E30CC4
:10307000062E000C770B80E991E00E943778609172
:10308000E30C062E000C770B83E891E00E94377862
:103090006091E30C062E000C770B8AE691E00E940B
:1030A00037786091E30C062E000C770B89E691E0EF
:1030B0000E9437788091EF038823E9F06091E30C58
:1030C000062E000C770B8091B403882309F429C1E4
:1030D0008AEB91E00EC08BE691E0D6CE8BE791E0D3
:1030E0000E9437786091E30C062E000C770B8CE77A
:1030F00091E00E94377880918117823009F414C1E1
:10310000833009F446C1813009F42DC18091F50363
:10311000882369F16091E30C062E000C770B82E6A0
:1031200090E00E9437786091E30C062E000C770B3C
:103130008FE791E00E9437786091E30C062E000C37
:10314000770B89E891E00E9437786091E30C062EB6
:10315000000C770B83E690E00E9437786091E30CD7
:10316000062E000C770B88E490E00E94377889E205
:103170000C941E6985E290E00E9437786091E30C20
:10318000062E000C770B86E290E0B3CF81E090E052
:103190000E9437786091E30C062E000C770B8FE0CD
:1031A00090E00E9437786091E30C062E000C770BBC
:1031B0008DE991E00E9437786091E30C062E000CB7
:1031C000770B6451710982E190E00E943778609139
:1031D000E30C062E000C770B6451710983E190E03B
:1031E0000E9437786091E30C062E000C770B645137
:1031F000710984E190E00E9437786091E30C062E1B
:10320000000C770B6451710985E190E00E943778DA
:103210006091E30C062E000C770B6451710986E176
:1032200090E00E9437788091F5036091E30C062EC0
:10323000000C770B882309F46AC06550710980E19E
:1032400090E00E9437786091E30C062E000C770B1B
:103250006550710985E991E00E9437786091E30C2F
:10326000062E000C770B8091EF0381119ACE6451EA
:1032700071098DE890E00E9437786091E30C062E8A
:10328000000C770B645171098FE890E00E94377849
:103290006091E30C062E000C770B6451710983E9F1
:1032A00090E00E9437786091E30C062E000C770BBB
:1032B000645171098EE890E00E9437786091E30CC8
:1032C000062E000C770B6451710980E990E00E9492
:1032D00037786091E30C062E000C770B645171096E
:1032E00082E990E00E9437786091E30C062E000C92
:1032F000770B6451710984E990E00E9437786091FE
:10330000E30C062E000C770B6451710999CE80E115
:1033100090E00E9437786091E30C062E000C770B4A
:1033200099CF89EB91E0E5CE6091E30C062E000C7D
:10333000770B82E390E00E9437786091E30C062ED1
:10334000000C770B84E591E00E9437788091F503BB
:10335000882309F40CCF6091E30C062E000C770B48
:1033600084E390E002CF6091E30C062E000C770B13
:1033700087E390E00E9437788091F503882309F471
:10338000F6CE6091E30C062E000C770B8AE390E0FA
:10339000ECCE6091E30C062E000C770B87E491E0F5
:1033A000E4CEAB012091890530918A052150310985
:1033B0002330310528F421E06AEB7FEF0C94BC73D5
:1033C0000895809180178330D1F08530B1F168E89D
:1033D00073E18230C9F48CE791E00E94D1198091A9
:1033E0008117823009F43FC0833009F442C0813034
:1033F00009F044C068E873E187E390E038C068E80A
:1034000073E186E290E0E9CF80E190E00E94D1197B
:1034100068E873E18EE890E00E94D11968E873E1F2
:1034200080E990E00E94D11968E873E180E691E0BC
:103430000E94D1190E941055D2CF0E9450138823A8
:1034400051F08091B40368E873E1882349F08AEB76
:1034500091E00E94D11968E873E185E991E0D6CF47
:1034600089EB91E0F6CF68E873E182E390E00C9499
:10347000D11968E873E187E491E0F9CF089580916C
:10348000890590918A050197039798F48091B70375
:103490009091B8031816190654F48091B9039091CD
:1034A000BA03843F21E0920710F00E945D780E94E9
:1034B0005C791092BB031092BD0361E070E085E27D
:1034C0000E9418626091B9037091BA0386E40C946B
:1034D000AC558091B7039091B803181619060CF0FB
:1034E00070C08091B9039091BA03843F21E09207A4
:1034F00008F467C021E02093BD0320918905309135
:103500008A052230310509F43FC02330310519F016
:1035100021303105F9F42091BC0361E0211101C093
:1035200060E00E9493736091E20C062E000C770B12
:103530008091B9039091BA030E94377861E080913D
:10354000B9039091BA030E94E0770E945C7981E010
:103550008093570D40E157E260E070E088EE9CE018
:103560000E94CC548091BD0361E070E0882311F08B
:1035700062E070E085E20E9418626091B903709188
:10358000BA0385E40C94AC552091BC0361E0211191
:1035900001C060E00E9493736091E20C062E000C63
:1035A000770B8091B9039091BA030E94377850E06D
:1035B00040E061E08091B9039091BA030E940778DE
:1035C000C4CF0895CF93DF93C091B903D091BA03CC
:1035D0008091A203882309F44CC0C45FD140BE018E
:1035E00090E080E00E947A762091880430918904EE
:1035F0002617370731F580918604909187049093C0
:10360000850480938404609184047091850490E023
:1036100080E00E942D77C091B703D091B8036C175A
:103620007D07B4F060918404709185046150710944
:10363000709385046093840490E080E00E942D776D
:10364000EECF615071097093850460938404DBCFE1
:10365000EB01CC50DE4F8091BD038823B1F00E9476
:103660003F1AD093BA03C093B903DF91CF910C9462
:10367000691A2197C43F81E0D80768F7C091B70362
:10368000D091B803CD50DE4FE6CFD093BA03C093AC
:10369000B903BE0186E4DF91CF910C94AC55CF9372
:1036A000DF936091B9037091BA03C091B703D091D1
:1036B000B8038091A203882309F43FC0645F71407E
:1036C00090E080E00E947A76209186043091870411
:1036D00026173707D1F41092850410928404609164
:1036E00084047091850490E080E00E942D776C172F
:1036F0007D0794F060918404709185046F5F7F4F23
:103700007093850460938404EECF6F5F7F4F709356
:10371000850460938404E3CFEB01CC50DE4F8091AD
:10372000BD038823B1F00E943F1AD093BA03C0931F
:10373000B903DF91CF910C94691A6F5F7F4FCD5021
:10374000DE4FC617D70710F0EB01E9CFC4EFD1E089
:10375000E6CFD093BA03C093B903BE0186E4DF91EC
:10376000CF910C94AC552091890530918A05215058
:1037700031092330310518F460E00C9493730895F7
:103780002091890530918A05215031092330310576
:1037900010F40C945D7808958091801782508230E7
:1037A00020F08AE691E00C94C01B8CE390E0FBCF04
:1037B0008DE890E00E94C01B8EE890E00E94C01B44
:1037C0008FE890E00E94C01B80E990E00E94C01B3F
:1037D00081E990E00E94C01B82E990E00E94C01B3A
:1037E00083E990E00E94C01B84E990E00E94C01B26
:1037F00089E491E00E94C01B8CE491E00C94C01B12
:103800008FE891E00E94C01B8DEB91E00E94C01BED
:1038100087E390E00E94C01B8BE691E00E94C01BF2
:103820008CE691E00C94C01BCF92DF92EF92FF9256
:103830000F931F93CF93DF936C01F62EC42F1416B2
:103840000CF4C0E0CA3B0CF4CAEB8091890590915E
:103850008A058230910591F18330910519F0019725
:1038600009F048C00C2E000CDD0B222381F06AEB1E
:103870007FEFC6010E9437786E2DC6010E94E07767
:1038800020E0A801BE01C6010E94BC7308C0BE01B1
:10389000C6010E9437786E2DC6010E94E07761E074
:1038A000F11001C060E0C601DF91CF911F910F912F
:1038B000FF90EF90DF90CF900C9493730C2E000C40
:1038C000DD0B222361F06AEB7FEFC6010E9437789F
:1038D00050E040E06E2DC6010E940778D1CFBE01B6
:1038E000C6010E94377850E040E06E2DC6010E946C
:1038F0000778D5CFDF91CF911F910F91FF90EF9077
:10390000DF90CF900895EF920F931F938091F00373
:10391000882331F080E691E00E94C01B1092F003F2
:103920008091EF03882361F08EE491E00E94C01B38
:1039300089EB91E00E94C01B8AEB91E00E94C01BC2
:103940008091B503882351F08091AE0D882331F02A
:103950001092AE0D1092AF0D0E94E1198091811767
:10396000823009F49BC1833009F4CCC1813009F461
:10397000AFC180918017909184179150943008F0D6
:1039800028C19091BE03992309F40FC14091E30C23
:10399000E12C10E000E020E060E08330A9F0853009
:1039A00009F4FAC0823009F0EEC08DE791E00E9480
:1039B000141CEE24E3940AEF10E021E04091E30CA4
:1039C00061E08FE791E00EC084E690E00E94141C55
:1039D000EE24E39404E619E121E04091E30C61E078
:1039E00083E690E00E94141C81E08093A7038091FD
:1039F000A603882309F4EAC0809180174091E30C64
:103A0000E12C10E000E020E060E0833009F0D0C05D
:103A100084E690E00E94141CEE24E39404E619E18D
:103A200021E04091E30C61E088E490E00E94141CE6
:103A300081E08093A503809180178450823008F53F
:103A4000809184178530E8F48AEB9DE00E945654FB
:103A50002091811730918017683B7B40810591054B
:103A600008F091C16091E30C223009F08AC16852DC
:103A700044E650E0343009F09BC180E190E00E94C0
:103A8000297980918117853059F4E12C04E610E002
:103A900021E04091E30C60E083EA91E00E94141C75
:103AA00080918117863059F4E12C04E610E021E082
:103AB0004091E30C60E084EA91E00E94141C81E0F4
:103AC0008093F50387E00E94D2558091820288237B
:103AD000F9F080918302909184020297C9F468E022
:103AE00070E080E090E00E944B0A695F7F4F8F4F4B
:103AF0009F4F28EE33E0629FA001639F500D729F9D
:103B0000500D112470E060E084EC9DE00E94CC54E4
:103B100080E00E943D10809181178230A1F0E091F9
:103B20008417E150FF0BEE0FFF1FEF51F44F45914B
:103B3000549170E060E08DE29EE00E94CC541092BF
:103B40002B0E10922C0E1092490E10924A0E8FEFEF
:103B50000E9401111092120E1092130E42E350E0D7
:103B600060E070E080E09EE00E94CC541092F4038C
:103B700048E95AE360E070E08EEC9DE01F910F9100
:103B8000EF900C94CC548BE990E00E94141CEE242E
:103B9000E39403E111E011CF8FE491E00E94141C43
:103BA000EE24E39408EC10E008CF1092A7031FCF97
:103BB000853049F48FE491E00E94141CEE24E394D4
:103BC0000CE211E02DCF85E090E0F6CF1092A50336
:103BD00032CF4091E30CE12C10E000E020E060E007
:103BE000833009F43FC0853009F442C08230E9F5E2
:103BF00087E891E00E94141C8091BE03882309F499
:103C000045C08091801791E09093A7034091E30C09
:103C1000EE24E394823079F504EA16E021E061E0D5
:103C200089E891E00E94141C8091A603882371F218
:103C30008091801791E09093A5034091E30CEE24CE
:103C4000E3940CEB12E0833021F10CE211E08230BE
:103C500001F504EA16E021E061E089E891E00E94C4
:103C6000141CE9CE81E690E0C5CF8BE990E0C2CF8D
:103C70008FE491E0BFCF0CE211E0833011F40CEB44
:103C800012E021E061E082E690E0CCCF1092A70341
:103C9000CBCF21E061E088E490E0E1CF85E390E0E4
:103CA0000E94C01BE12C10E000E020E04091E30CFA
:103CB00060E083E390E00E94141CEE24E39402E5AC
:103CC00013E021E04091E30C61E084E390E0C7CF92
:103CD0008BE390E00E94C01BE12C10E000E020E0AC
:103CE0004091E30C60E089E390E00E94141CEE2414
:103CF000E39408EE13E021E04091E30C61E08AE3F5
:103D000090E0ADCF80918705909188058D36910523
:103D100050F4E12C10E000E020E04091E30C60E082
:103D200086E491E09CCF86E491E00E94C01B8091E4
:103D300084178330E1F050F4813091F0823009F043
:103D40007ACE6091E30C85EF90E00EC08430A1F054
:103D5000853009F070CE6091E30C8DE790E004C0EF
:103D60006091E30C83E191E00E94DD7864CE609184
:103D7000E30C87ED90E0F8CF6091E30C89EB90E0E5
:103D8000F3CF655075CE8AEB9DE02230A1F434303C
:103D900041F40E9456542091E30C2852AB01622F4B
:103DA0006CCE0E9456542091E30C2852AB01622F36
:103DB00085E991E064CE343031F40E94565420916C
:103DC000E30C2550EBCF0E9456542091E30C255074
:103DD000EDCFEF920F931F9383E591E00E94C01BFC
:103DE00082E390E00E94C01B88E591E00E94C01B26
:103DF000EE24E39410E000E020E04091E30C60E06A
:103E000087E591E00E94141C809181178230D1F4E3
:103E100020E04091E30C60E083E591E00E94141CF7
:103E200081E08093F30340E050E0BA0187E39EE035
:103E30000E94CC540E94FC578FE01F910F91EF908D
:103E40000C94D2551092120E1092130E42E350E0D1
:103E500060E070E080E09EE00E94CC54E1CFEF9201
:103E60000F931F934091E30C80918117EE24E3940C
:103E700010E000E020E060E0823031F583E591E081
:103E80000E94141C81E08093FC0380918117823092
:103E9000B9F548EB5BE060E070E087E39EE00E94EC
:103EA000CC54809180178250823040F48CE291E0B3
:103EB00090939902809398020E949B1381E11F9135
:103EC0000F91EF900C94D25588E691E00E94141C5B
:103ED000809180178450823040F420E04091E30CC0
:103EE00061E089E691E00E94141CEE24E39410E066
:103EF00000E020E04091E30C60E085E591E0C0CF78
:103F000040EA5FE060E070E087E39EE00E94CC540E
:103F10001092080E1092090E1092120E1092130EAB
:103F200042E350E060E070E080E09EE0B8CFEF92C6
:103F30000F931F93CF93C82F81E090E090930204DA
:103F4000809301041092FF031092FE03109200046C
:103F50008091B503882309F476C040E355E760E01B
:103F600070E086EA9DE00E94CC54C1110EC00E9410
:103F70008910682F70E088E00E9418620E94891002
:103F8000682F70E081E30E94AC55809189178530DD
:103F900041F480912402882321F061E08DE20E94A7
:103FA0003C7B8BE490E00E94C01B8EE790E00E9477
:103FB000C01B8FE790E00E94C01B83E290E00E944C
:103FC000C01B8CE591E00E94C01B80E991E00E943B
:103FD000C01B82EA91E00E94C01B80918017833051
:103FE000B9F1853009F4ACC0823009F046C0EE2446
:103FF000E39410E000E020E04091E30C60E08BE708
:1040000091E00E94141C08ED1EE021E04091E30CB9
:1040100061E08CE791E00E94141C8091811782304E
:1040200009F427C1833009F440C1813009F02DC162
:10403000EE24E39404E813E021E04091E30C61E016
:1040400087E390E020C11092AE0D1092AF0D8DCF9E
:10405000EE24E39410E000E020E04091E30C60E007
:1040600085E290E00E94141C08ED1EE021E04091E2
:10407000E30C61E086E290E0CECF80918117409121
:10408000E30CCC2389F18230F9F44E51EE24E39411
:1040900010E000E020E060E08FE090E00E94141C5F
:1040A0004091E30C485200E516E421E061E080E134
:1040B00090E00E94141C40E556E460E070E08AEB5A
:1040C0009DE00E94CC54A9CFEE24E39410E000E0E0
:1040D00020E060E08FE090E00E94141C00E516E410
:1040E00021E04091E30CE2CF8230D1F44E51EE2436
:1040F000E39410E000E020E060E081E090E00E94C6
:10410000141C4091E30C485204EF11E021E061E0FF
:1041100080E190E00E94141C40E050E0BA01CFCF53
:10412000EE24E39410E000E020E060E081E090E025
:104130000E94141C04EF11E021E04091E30CE7CF52
:104140000E9450134091E30C8823D9F1EE24E394AC
:1041500010E000E020E060E081E090E00E94141CAC
:1041600004EF11E021E04091E30C61E085E991E08A
:104170000E94141C8091B403882371F000ED17E0B5
:1041800021E04091E30C61E08AEB91E00E94141C75
:1041900081E08093EF03C0CFEE24E39410E000E0D1
:1041A00020E04091E30C60E08EE491E00E94141C5A
:1041B0000CEF18E021E04091E30C61E089EB91E025
:1041C000E5CF80918117CC2369F18230D9F44E512B
:1041D000EE24E39410E000E020E060E08DE991E05F
:1041E0000E94141C4091E30C485200E117E221E0C8
:1041F00061E085E991E00E94141C40E157E260E033
:1042000070E05DCFEE24E39410E000E020E060E099
:104210008DE991E00E94141C00E117E221E0409139
:10422000E30CE6CF8230A9F44E51EE24E39410E083
:1042300000E020E060E081E090E00E94141C4091EA
:10424000E30C485204EF11E021E061E085E991E0E0
:1042500061CFEE24E39410E000E020E060E081E034
:1042600090E00E94141C04EF11E021E04091E30C67
:10427000ECCFEE24E39404E813E021E04091E30C5A
:1042800061E082E390E00E94141C109223171092C8
:1042900024171092F90385E00E94766282E3CF91A1
:1042A0001F910F91EF900C94D255EE24E39404E803
:1042B00013E021E04091E30C61E087E491E0E3CF7B
:1042C000EF920F931F9380918117823009F472C08F
:1042D000833091F1813009F474C0809180179091FE
:1042E00084179150943008F04FC0833069F08530C6
:1042F00009F447C0823009F041C08DE791E00E9487
:10430000C01B8FE791E006C084E690E00E94C01BCE
:1043100083E690E00E94C01B80918202882321F0F6
:1043200089E090E00E94C01B88E490E00E94C01BDE
:1043300082E690E00E94C01B8091830290918402EB
:10434000009709F445C0019709F462C01092A703D1
:104350001092A50380918117853021F483EA91E0C2
:104360000E94C01B80918117863009F069C084EAE1
:1043700091E01F910F91EF900C94C01B80E690E0AC
:10438000BECF8FE491E0BBCF833059F0853079F018
:10439000823051F487E891E00E94C01B89E891E0E7
:1043A000B9CF81E690E0B6CF8BE990E0B3CF8FE450
:1043B00091E0B0CF83E390E00E94C01B84E390E0E3
:1043C000B9CF89E390E00E94C01B8AE390E0B2CFAE
:1043D00082E090E09093840280938302809189052B
:1043E00090918A05039741F48AE490E00E94C01BF3
:1043F00089E490E00E94C01BE12C10E000E020E086
:104400004091E30C60E089E490E00E94141C9ECF90
:1044100082E090E090938402809383028EE690E0A5
:104420000E94C01B8FE690E00E94C01BE12C10E0B0
:1044300000E020E04091E30C60E08FE690E0E5CF03
:104440001F910F91EF900895EF920F931F9380911A
:10445000D602853020F51092D60280E490E00E94CA
:10446000C01BEE24E39410E000E020E04091E60C55
:1044700060E080E490E00E94141C8091D60226E463
:10448000829FC001112464E670E00E9405BD66545D
:104490006093E20C1F910F91EF900C948C0F85505C
:1044A0008093D602EACFEF920F931F938091D602AA
:1044B000803628F184E68093D60280E490E00E9462
:1044C000C01BEE24E39410E000E020E04091E60CF5
:1044D00060E080E490E00E94141C8091D60226E403
:1044E000829FC001112464E670E00E9405BD6654FD
:1044F0006093E20C1F910F91EF900C948C0F8B5FE7
:104500008093D602EACFEF920F931F938091D70248
:10451000853020F51092D70280E490E00E94C01B05
:10452000EE24E39410E000E020E04091E60C60E02F
:1045300080E490E00E94141C8091D70226E4829FC0
:10454000C001112464E670E00E9405BD66546093CA
:10455000E30C1F910F91EF900C94F116855080930E
:10456000D702EACFEF920F931F938091D702803644
:1045700028F184E68093D70280E490E00E94C01B7B
:10458000EE24E39410E000E020E04091E30C60E0D2
:1045900080E490E00E94141C8091D70226E4829F60
:1045A000C001112464E670E00E9405BD665460936A
:1045B000E30C1F910F91EF900C94F1168B5F809399
:1045C000D702EACFEF920F931F93CF93C82F80911A
:1045D000890590918A050197039738F48091E60C3C
:1045E000082E000C990B0E94677AC11131C080918E
:1045F000010490910204019721F18091F803811147
:1046000020C080E490E00E94C01BEE24E39410E000
:1046100000E020E04091E30C60E080E490E00E9444
:10462000141C8091D802823361F48FE390E00E94E1
:10463000C01B20E04091E30C60E08FE390E00E941B
:10464000141C89E2CF911F910F91EF900C941E6979
:10465000CF911F910F91EF9008959C019091E60CDE
:104660009A3B31F48091E40C2230310539F40895FD
:1046700021303105E1F39093E40C8AEB8093E60C52
:1046800080E00C94E2222091E70C822F8C53990B4E
:10469000AC018091E60C082E000C990B841795074D
:1046A000F1F08091D8028530B0F41092D8023091A8
:1046B000D802349FC001359F900D11246CE97FEF23
:1046C0000E9405BD2C53620F6093E60C6093E40CCE
:1046D00080E00C94E22285508093D802E8CF0895C0
:1046E0008091E60C882319F18091D8028036E8F099
:1046F00084E68093D8022091E70C822F8C53990B8B
:10470000AC013091D802349FC001359F900D112427
:104710006CE97FEF0E9405BD2C53620F6093E60C9D
:104720006093E40C80E00C94E2228B5FE2CF08956A
:104730000F931F93122F202F0E945374AB01BC01C3
:104740001123C9F0B62FA52F942F882788279927E2
:10475000BB27052F162F272F332700272227332784
:10476000802B912BA22BB32BBC01CD01642B1F916D
:104770000F910C94250EBA01FACF2F923F924F92CF
:104780005F926F927F928F929F92AF92BF92CF92E1
:10479000DF92EF92FF920F931F93CF93DF9300D09E
:1047A00000D01F92CDB7DEB7809121020E947F0F0B
:1047B000282E80911D0215E0882331F06091811729
:1047C00081E00E943855182F80E00E94C10F90911F
:1047D0003A17890F898381E00E94C10F30903A1700
:1047E000380E82E00E94C10F20913A17280F2E83C5
:1047F00083E00E94C10F90913A17890F8F838091B7
:1048000081172BEF280F223008F4C6C0843009F43A
:10481000C3C070901E027110CEC000E020E0422D97
:10482000612F81E00E9498232B013C0120E0422D62
:10483000612F81E00E9498234B015C0120E0422D12
:10484000612F81E00E9498236B017C0120E0422DC2
:10485000612F81E00E9498236A837B838C839D83F0
:10486000398130939E05C301B2010E9429743092B0
:104870009E05C501B4010E9429746E8160939E0556
:10488000C701B6010E9429748F8180939E056A81B9
:104890007B818C819D810E94297480911F028111EE
:1048A00045C189818F5F80939E05C301B2010E943B
:1048B000297480913A179981891708F46FC0809103
:1048C0007D17885080939E05C301B2010E94297410
:1048D00081E0830D80939E05C501B4010E94297477
:1048E00080913A17831508F45CC030907D17E8EF8B
:1048F0003E0E30929E05C501B4010E9429748E813E
:104900008F5F80939E05C701B6010E942974809134
:104910003A172E81821708F446C030917D1738501F
:104920003983898180939E05C701B6010E9429744D
:104930008F818F5F80939E056A817B818C819D81B1
:104940000E94297480913A179F81891780F1E09124
:104950007D17E850E983398130939E056A817B8118
:104960008C819D8127960FB6F894DEBF0FBECDBF18
:10497000DF91CF911F910F91FF90EF90DF90CF903B
:10498000BF90AF909F908F907F906F905F904F906F
:104990003F902F900C94297415E03BCF8981815072
:1049A00091CF3A94A6CF6E8161506983BACF2F819F
:1049B00021502983D0CF6981862E912C892F90E0B8
:1049C000A32CB12CEE81CE2ED12C2F81E22EF12CF6
:1049D000F401E81BF90BEB53FC4F20812223C1F0BB
:1049E000F501E81BF90BEB53FC4F2081222381F0EA
:1049F000F601E81BF90BEB53FC4F2081222341F019
:104A0000F701E81BF90BEB53FC4F80818111A7C024
:104A10000E949B13609190027091910290E080E05F
:104A20000E943DBB20E030E040EC5FE30E949EBB73
:104A30000E9433BE9B01AC0180913A17B401681B00
:104A40007109E9E16E2E669EC001679E900D1124EA
:104A500001E010E0622D815D904F0E94BE4E60919A
:104A600090027091910290E080E00E943DBB20E0B6
:104A700030E040EC5FE30E949EBB0E9433BE9B018E
:104A8000AC0180913A17B501681B7109669EC0019F
:104A9000679E900D1124622D815D904F0E94BE4E45
:104AA000609190027091910290E080E00E943DBB85
:104AB00020E030E040EC5FE30E949EBB0E9433BEEA
:104AC0009B01AC0180913A17B601681B7109669E83
:104AD000C001679E900D1124622D815D904F0E9450
:104AE000BE4E609190027091910290E080E00E9431
:104AF0003DBB20E030E040EC5FE30E949EBB0E94A3
:104B000033BE9B01AC0180913A17B701681B710954
:104B1000669EC001679E900D1124622D815D904FAD
:104B20000E94BE4E80911F02882329F127960FB65E
:104B3000F894DEBF0FBECDBFDF91CF911F910F91D3
:104B4000FF90EF90DF90CF90BF90AF909F908F90AD
:104B50007F906F905F904F903F902F900895712CB1
:104B6000E1CF3A948DC03E8131503983DDC08F81D1
:104B700081508A832EC1772031F16091900270912B
:104B8000910290E080E00E943DBB20E030E040ECEC
:104B90005FE30E949EBB0E9433BE9B01AC016FEF9E
:104BA000861A960A80913A17881A910869E1689DD9
:104BB000C001699D900D112401E010E0622D815D1E
:104BC000904F0E94BE4E90903A17898110917D17A8
:104BD0001850981610F419811150772009F447C025
:104BE000609190027091910290E080E00E943DBB44
:104BF00020E030E040EC5FE30E949EBB0E9433BEA9
:104C00009B01AC01812F8919990BBC0199E1992E67
:104C1000969EC001979E900D112401E010E0622D38
:104C2000815D904F0E94BE4E609190027091910202
:104C300090E080E00E943DBB20E030E040EC5FE38C
:104C40000E949EBB0E9433BE9B01AC019FEFA91A3C
:104C5000B90A80913A17A81AB1089A9CC0019B9C86
:104C6000900D1124622D815D904F0E94BE4E1091D7
:104C70003A17131508F475CF30907D17E8EF3E0E04
:104C8000772009F447C0609190027091910290E002
:104C900080E00E943DBB20E030E040EC5FE30E94FA
:104CA0009EBB0E9433BE9B01AC01832D811B990BDF
:104CB000BC0189E1B82EB69EC001B79E900D1124AB
:104CC00001E010E0622D815D904F0E94BE4E609128
:104CD00090027091910290E080E00E943DBB20E044
:104CE00030E040EC5FE30E949EBB0E9433BE9B011C
:104CF000AC019FEFC91AD90A80913A17C81AD10896
:104D0000BC9CC001BD9C900D1124622D815D904F13
:104D10000E94BE4E10913A17EE811E1708F423CF61
:104D200020917D1728502983772009F447C060918E
:104D300090027091910290E080E00E943DBB20E0E3
:104D400030E040EC5FE30E949EBB0E9433BE9B01BB
:104D5000AC018981811B990BBC01E9E1E69FC0018F
:104D6000E79F900D112401E010E0622D815D904FCE
:104D70000E94BE4E609190027091910290E080E09E
:104D80000E943DBB20E030E040EC5FE30E949EBB10
:104D90000E9433BE9B01AC016FEFE61AF60A8091C8
:104DA0003A17E81AF108E9E1EE9DC001EF9D900D78
:104DB0001124622D815D904F0E94BE4E20913A17C2
:104DC00029833F81231708F4D2CE60917D17685064
:104DD0006A83772009F4AACE6091900270919102C3
:104DE00090E080E00E943DBB20E030E040EC5FE3DB
:104DF0000E949EBB0E9433BE2A81E9812E1B330B89
:104E0000A90129E1249FF001259FF00D112401E063
:104E100010E09B01AC01622DCF01815D904F0E949B
:104E2000BE4E84CE8F929F92AF92BF92CF92DF926E
:104E3000FF920F931F93CF93DF93C82F809121028E
:104E40000E947F0FF82E0E94CB1380911E028111C9
:104E50003AC000E020E04FEF60E081E00E9498233C
:104E6000C0939E050E94297480911F02811114C174
:104E700020E04FEF60E081E00E94982321E02C0FBA
:104E800020939E050E94297480913A178C17C8F0D0
:104E9000C0917D17C85000E020E04FEF60E081E056
:104EA0000E949823C0939E05DF91CF911F910F918F
:104EB000FF90DF90CF90BF90AF909F908F900C9419
:104EC0002974C150E8CFCC2ED12C80913A1796018D
:104ED000281B3109F901EB53FC4F80818F113DC034
:104EE000D9E1D29FC001D39F900D11246F2D895E0F
:104EF0009C4E0E94F14E609190027091910290E060
:104F000080E00E943DBB20E030E040EC5FE30E9487
:104F10009EBB4B015C016091020270E090E080E07A
:104F20000E943FBB9B01AC01C501B4010E94C1BD01
:104F30000E9433BE9B01AC0180913A17B601681BF9
:104F40007109D69FC001D79F900D112401E010E098
:104F500060E0895E9C4E0E94BE4E80911F028111CE
:104F60009BC086010F5F1F4F80913A179801281B45
:104F70003109F901EB53FC4F80818F113DC0D9E11C
:104F8000D29FC001D39F900D11246F2D895E9C4E3E
:104F90000E94F14E609190027091910290E080E049
:104FA0000E943DBB20E030E040EC5FE30E949EBBEE
:104FB0004B015C016091020270E090E080E00E9491
:104FC0003FBB9B01AC01C501B4010E94C1BD0E9461
:104FD00033BE9B01AC0180913A17B801681B71097F
:104FE000D69FC001D79F900D112401E010E060E032
:104FF000895E9C4E0E94BE4E80913A1790E0C1504F
:105000008C159D051CF0C0917D17C850D0E09E0105
:10501000281B390BF901EB53FC4F80818F113CC0E9
:1050200019E1129FC001139F900D11246F2D895E0D
:105030009C4E0E94F14E609190027091910290E01E
:1050400080E00E943DBB20E030E040EC5FE30E9446
:105050009EBB4B015C016091020270E090E080E039
:105060000E943FBB9B01AC01C501B4010E94C1BDC0
:105070000E9433BE9B01AC0180913A17C81BD10935
:105080001C9FC0011D9F900D112401E010E060E005
:10509000895E9C4E0E94BE4EDF91CF911F910F9171
:1050A000FF90DF90CF90BF90AF909F908F9008952A
:1050B000CF92DF92EF92FF920F931F93CF93DF93E4
:1050C000EC0185E08093CF020E94CB138FE297E141
:1050D0000E949C54882309F4B1C06091020270E0E0
:1050E000CE010E94F1BCEB0180919502882309F466
:1050F000C2C08FEF96E10E94214C882309F4A7C01B
:1051000010929502AE0170E060E08FE297E10E949C
:10511000CC54D0939B02C0939A0286E28093A20261
:105120008091F50381110CC08091FC03811108C0AE
:105130008091FB03811104C08091A2020E940111A1
:10514000809181170E949B10811178C08091A102EB
:105150008111C1C08091CC02882321F08091391740
:105160000E9412278091B4048F5F843008F0B6C08B
:105170008093B4048091B4040E94C10FC0913A1787
:10518000C80FC09339178091CC02882309F456C008
:10519000809121020E947F0FD82F80911D028823C9
:1051A00009F49FC06091811781E00E943855909169
:1051B000E0029C3009F480E200E020E04D2F682FEF
:1051C00081E00E9498236B017C01C0939E050E94A0
:1051D00029740C2F10E080913A17F801E81BF109AF
:1051E000EB53FC4FD08380911F02811127C081E0D7
:1051F0008C0F80939E05C701B6010E94297480918F
:105200003A1790E0F801E81BF90BEA53FC4FD08302
:10521000C150801791071CF0C0917D17C850C093F2
:105220009E05C701B6010E94297480913A172C2F60
:10523000281B330BF901EB53FC4FD083DF91CF9147
:105240001F910F91FF90EF90DF90CF9008958FEF17
:1052500096E10E948B4CAC0170E060E08FE297E138
:105260000E94CC548FEF96E10E948B4C90939B024E
:1052700080939A0252CF8091FD03882321F18FEF12
:1052800096E10E94214C882319F01092FD0348CF2B
:105290008FEF96E10E948B4CAC0170E060E08FE2F2
:1052A00097E10E94CC548FEF96E10E948B4C909333
:1052B0009B0280939A028091A20281508E3108F065
:1052C0002DCF8EE12BCFAB0170E060E08FE297E154
:1052D0000E94CC5425CF1092A10244CF1092B40466
:1052E00049CF85E064CFCF92DF92EF92FF920F9388
:1052F0001F93CF93DF9380911D0215E0882331F037
:105300006091811781E00E943855182F8091E0024A
:105310008C3009F410E2809180178250823068F15D
:10532000D0E0C0E08C2F0E94B1108823C9F000E0CB
:1053300020E0FE01EB53FC4F4081612F81E00E9491
:1053400098236B017C018C2F0E94B11090913A1729
:105350009150890F80939E05C701B6010E94297460
:105360002196C832D105F1F6DF91CF911F910F91AF
:10537000FF90EF90DF90CF900895C0E08091E00221
:10538000C81790F7EC2FF0E0EB53FC4F00E020E063
:105390004081612F81E00E94982320913A172C0FC1
:1053A00020939E050E942974CF5FE8CFFF920F9350
:1053B0001F93CF93DF93D82F809115020E947F0F08
:1053C000F82E8091B00314E1882331F060918117A9
:1053D00080E00E943855182F8091F103082E000CB0
:1053E000990BED2FF0E08E179F073CF12091E10221
:1053F00028171906A9F0A4F0809192028823A9F039
:105400002D3081F4E653F44FC49100E020E04F2D9D
:10541000612F80E00E949823C0939E050E9429740A
:10542000DF5FDACFE554F44FEFCF2D3019F4E255BA
:10543000F44FEACFE156F44FE7CFDF91CF911F91C0
:105440000F91FF9008950F931F93CF93DF93809157
:10545000CC02811175C280911D0215E0882331F0C4
:105460006091811784E00E943855182F80911B02AB
:105470000E947F0FC82FD0918B048091FB0388235B
:1054800009F499C0DD2309F464C0A59A739A809148
:105490000201886080930201809102018061809303
:1054A00002018091020180628093020180910201D9
:1054B0008064809302018091190290911A020097F2
:1054C00009F43EC2D0E0019779F500E020E04C2FCE
:1054D00065E084E00E94982310929D050E943E742E
:1054E00020E04C2F65E084E00E94982321E0209387
:1054F0009D050E943E7420E04C2F6BE084E00E94EA
:10550000982322E020939D050E943E7420E04C2FBA
:105510006BE084E00E94982323E020939D050E9485
:105520003E7420E04C2FAFC08091DE028150990B79
:10553000D81719060CF004C200E020E04C2F65E0FB
:1055400084E00E949823D0939D050E943E74DF5F03
:10555000EBCFA598739880910201877F8093020119
:10556000809102018F7E80930201809102018F7DE4
:1055700080930201809102018F7B809302018091D0
:10558000190290911A02892B09F4DAC18091DE0286
:105590008150990BD81719060CF0D2C100E020E019
:1055A0004FEF60E084E00E949823D0939D050E9415
:1055B0003E74DF5FEBCFD83008F0C2C1ED2FF0E0D2
:1055C0008827EA51F54D8F4F0C9419BDEE2A212BF7
:1055D000682BA82BE62B1C2C492C752CA5987398AE
:1055E00080910201877F80930201809102018F7E6A
:1055F00080930201809102018F7D8093020180914E
:1056000002018F7B809302018091190290911A020E
:10561000892B09F495C1C0E08091DE028150990B7D
:10562000C81719060CF08CC100E020E04FEF60E0D5
:1056300084E00E949823C0939D050E943E74CF5F32
:10564000EBCFA598739880910201877F8093020128
:10565000809102018F7E809302018091020180621D
:105660008093020180910201806480930201809105
:10567000190290911A02009709F462C100E020E03B
:105680004C2F019769F46FE084E00E94982324E096
:1056900020939D050E943E7420E04C2F6FE00CC0CB
:1056A000612F84E00E94982324E020939D050E94AE
:1056B0003E7420E04C2F612F84E00E94982325E067
:1056C00020939D05DF91CF911F910F910C943E7413
:1056D000A59873988091020188608093020180915F
:1056E00002018061809302018091020180628093B7
:1056F000020180910201806480930201809119026D
:1057000090911A02009709F41BC100E020E04C2F91
:10571000019789F46BE084E00E94982322E02093B3
:105720009D050E943E7420E04C2F6BE084E00E94B7
:10573000982323E0C5CF612F84E00E94982322E0C4
:1057400020939D050E943E7420E04C2F612FEECFE8
:10575000A59A739A809102018860809302018091DA
:105760000201806180930201809102018062809336
:1057700002018091020180648093020180911902EC
:1057800090911A02009709F4DBC000E020E04C2F52
:10579000019781F465E084E00E94982310929D05B2
:1057A0000E943E7420E04C2F65E084E00E94982324
:1057B00021E086CF612F84E00E94982310929D05FE
:1057C0000E943E7420E04C2F612FEFCFA59A739A70
:1057D00080910201886080930201809102018061C2
:1057E0008093020180910201806280930201809186
:1057F00002018064809302018091190290911A0243
:10580000009709F49DC0D0E0019709F45ECE809125
:10581000DE028150990BD81719060CF091C000E0F8
:1058200020E04C2F612F84E00E949823D0939D05A7
:105830000E943E74DF5FEBCFA59A739A80910201BC
:10584000886080930201809102018061809302014F
:10585000809102018F7D80930201809102018F7BF4
:10586000809302018091190290911A02892B09F408
:1058700067C000E020E04FEF60E084E00E949823E2
:1058800024E020939D050E943E7420E04FEF60E0ED
:1058900013CFA59A739A80910201877F80930201AA
:1058A000809102018F7E80930201809102018F7DA1
:1058B00080930201809102018F7B8093020180918D
:1058C000190290911A02892BD9F100E020E04FEFE4
:1058D00060E084E00E94982322E020939D050E94CE
:1058E0003E7420E04FEF60E021CFA598739880913F
:1058F0000201877F80930201809102018F7E809355
:105900000201809102018F7D80930201809102014A
:105910008F7B809302018091190290911A02892B4A
:1059200079F000E020E04FEF60E084E00E949823EF
:1059300010929D050E943E7420E04FEF60E035CF4D
:10594000DF91CF911F910F9108950F93CF931092F4
:10595000FA03C0E000E020E04FEF60E080E00E944A
:105960009823C0939E050E942974CF5FC73391F797
:10597000C091080F8091070F8C1768F000E020E0BD
:105980004FEF60E082E00E949823C0939D050E9443
:105990003E74CF5FEFCFCF910F9108950F93CF93C8
:1059A000A598739880910201877F8093020180916E
:1059B00002018F7E80930201809102018F7D80938E
:1059C0000201809102018F7B809302018091CC02C1
:1059D000882311F02C982D9810928B048091190235
:1059E00090911A02892B51F18091CC02C0E0811173
:1059F00014C08091DE028150990BC8171906F4F487
:105A000000E020E04FEF60E082E00E949823C09326
:105A10009D050E943E74CF5FECCF8091DE028C1713
:105A200068F000E020E04FEF60E082E00E94982301
:105A3000C0939D050E943E74CF5FEFCFCF910F9131
:105A40000895EF920F931F93CF93DF938BEF9EE018
:105A50000E949C54882309F45AC18091CC02811180
:105A6000CCC00E9450139091EF03882309F48DC09D
:105A70008091FB03811189C08091FC03811185C055
:105A80008091FD03811181C08091F20381117DC05D
:105A9000911138C04091E30C8091B403EE24E3945B
:105AA000882309F484C000ED17E021E061E08AEB6F
:105AB00091E00E94141C0E94C17A81E08093EF0360
:105AC0008091B5038823F1F040E355E760E070E092
:105AD00086EA9DE00E94CC548091EF03811112C0B0
