:100000000C9406070C9437070C9437070C943707A9
:100010000C9437070C9437070C9437070C94370768
:100020000C9437070C9437070C9437070C94370758
:100030000C9437070C9437070C9437070C94370748
:100040000C9437070C9437070C9437070C94370738
:100050000C9437070C9437070C9437070C9451997C
:100060000C9437070C947F9B0C94559B0C9437078A
:100070000C9437070C9437070C9437070C94370708
:100080000C9437070C9437070C9437070C943707F8
:100090000C942B9B0C94019B0C9437070C941CA282
:1000A0000C9437070C9437070C9437070C943707D8
:1000B0000C9437070C9437070C9437070C943707C8
:1000C0000C9437070C9437070C9437070C943707B8
:1000D0000C9437070C9437070C94D79A0C94AD9A6C
:1000E0000C94370705A84CCDB2D44EB93836A902C6
:1000F0000C50B9918688083CA6AAAA2ABE00000026
:10010000803F07634236B79BD8A71A39685618AEA6
:10011000BAAB558C1D3CB7CC5763BD6DEDFD753E3C
:10012000F6177231BF000000803F08000000BE9249
:100130002449123EABAAAA2ABECDCCCC4C3E00002C
:100140000080BEABAAAAAA3E00000000BF000000CB
:10015000803F0000000000084178D3BB4387D113E3
:100160003D190E3CC3BD4282AD2B3E68EC8276BE8B
:10017000D98FE1A93E4C80EFFFBE01C4FF7F3F0055
:10018000000000000C94DF960C94579D0C9433866D
:100190000C94158C0C947E7B0C94785E0C944765C3
:1001A0000C94537C0C9486960C94818B0C94795A05
:1001B0000C94B39C0C941E860C94407C0C94C350FD
:1001C0000C94CA5D0C94FC570C94CF3F0C942B59A3
:1001D0000C941B570C94B5590C944B980C94557C6B
:1001E0000C94985C0C9448570C946F7C0C94BE2330
:1001F0000C94AD540C94670B0C94F85C0C944787EA
:100200000C94165E0C94345D0C9453170C940F9D53
:100210000C94613C0C94770D0C9417600C942B0C8F
:100220000C94F1590C94A4420C9434620C941A86E8
:100230000C943F0D0C947C9C0C94BA5E0C943D89FC
:100240000C948A540C94295B0C94A09D0C94FC8B08
:100250000C94825C0C9469220C941C8C0C943D9F31
:100260000C94685D0C94CB960C94E3540C945E1142
:100270000C943D860C948B9C0C94A1550C945B9C27
:100280000C94809D0C943F9C0C94EB0C0C94930D5F
:100290000C94DF5E0C94457C0C94EA8B0C946011FA
:1002A0000C942B980C94BB5A0C9402610C945559E5
:1002B0000C94815B0C94EC690C94FD5A0C945C7C5E
:1002C0000C94B59C0C94C0580C94C23F0C94703C98
:1002D0000C94587C0C94C6540C940F5A0C94D35123
:1002E0000C94B0230C94C0170C94C45C0C940E8C2A
:1002F0000C948E960C94E70D0C9440590C94ED865A
:100300000C9464110C94C3890C9408610C94C7502C
:100310000C949F5B0C9484860C94CB560C946B7C51
:100320000C943E890C94B5690C94988B0C94C5562A
:100330000C94E68B0C94EC550C944D5A0C942F0BAA
:100340000C944B860C94EE540C94C78B0C943B8B02
:100350000C94A19C0C945B540C94BB500C946611AF
:100360000C94AB4C0C947E650C94EA160C94470CE0
:100370000C94B30C0C94D9860C94BC7C0C94E84F70
:100380000C94B0090C94C09C0C94CF570C94FB8631
:100390000C940E610C945F980C94230D0C94CA8BF2
:1003A0000C94419E0C94367D0C9469180C94A45EB8
:1003B0000C9494540C94DB5B0C946A9C0C94AE5C8F
:1003C0000C94BD550C943E7C0C9497590C946B592D
:1003D0000C94C5160C94578B0C94D1690C94E75A65
:1003E0000C94625E0C94F95B0C94E1580C948E6949
:1003F0000C942B600C94970C0C94215A0C94571865
:100400000C9444110C94149E0C94518B0C94418BBD
:100410000C94D57C0C9446540C9415170C945E7C6B
:100420000C94A7960C9429860C94B9960C94B19EC2
:100430000C94C1960C94CB0D0C945A7C0C941659C8
:100440000C9427600C94EA170C94A55A0C946789B5
:100450000C94A9230C9447860C9422860C947969F9
:100460000C946D7C0C9494870C9410540C94478BD2
:100470000C94387D0C9487160C949D960C9492697C
:100480000C940A540C9420970C94EB9E0C94713F9E
:100490000C94000B0C94E40A0C94AFA70C94E28B20
:1004A0000C9402970C94F55E0C9440180C94B323B2
:1004B0000C94387C0C94555B0C942A5C0C944F86FD
:1004C0000C948F5A0C94357C0C94CC3F0C94DF54D4
:1004D0000C94D2090C943B7D0C94CA860C94C86988
:1004E0000C94929C0C944B0B0C94D70B0C94DE9DAB
:1004F0000C94BF690C94AF160C943C7C0C9426862B
:100500000C94165D0C94CC090C94BE9F0C947557FA
:100510000C94477C0C94375A0C94B7090C944C6596
:100520000C9483860C9460890C9479650C94EC5837
:100530000C94D5960C94FA600C9404580C9458566C
:100540000C94F30B0C947D0C0C9414610C94497C6A
:100550000C9497580C9462110C941B600C944B11E2
:100560000C941C580C9416970C94F75F0C946C5CCC
:100570000C947E5D0C94940A0C9480540C94B656A2
:100580000C9481590C94405C0C94058C0C94F65698
:100590000C94DA5C0C9494690C94C1500C945B0D2F
:1005A0000C94D15A0C941B980C94B6230C949398E9
:1005B0000C949F0B0C941F600C94635A0C942F8620
:1005C0000C9401590C94D3590C94CA090C94565CA0
:1005D0000C9431540C94D49C0C9462550C9496A6B3
:1005E0000C948C170C9414860C941A610C94525D24
:1005F0000C9445580C94327C0C94997C0C94070D07
:100600000C943A7C0C94768B0C946B5B0C9439862E
:100610000C94A69C0C94CF550C940C580C94C5507B
:100620000C94F05D0C94EB540C9414180C94CC9E28
:100630000C948E5E0C94CE090C948C8B0C941458F4
:100640000C94B80A0C9469540C94EE960C946B8B31
:100650000C94F8960C945D3C0C943F5B0C942E62C9
:100660000C9459860C94135B0C9411600C94C8562E
:100670000C94BB0B0C94358B0C94EB9C0C943C5E53
:100680000C946E580C943B550C9423600C94828609
:100690000C94F07C0C9425980C944D890C94A48BAC
:1006A0000C940C970C94009D0C9455860C94CF0CD4
:1006B0000C9490690C9441860C94AF0D0C94125CD0
:1006C0000C94FF7C0C94E7540C94A2570C949489DE
:1006D0000C94830B0C949F9C0C9454860C94B196B0
:1006E0000C94449C0C948D9C0C9493960C94CC503C
:1006F0000C9402980C94D0090C940F0C0C94427C2E
:100700000C94A45D0C9472180C94BD5B0C944A9FDD
:100710000C94F22300000000000000000000000024
:1007200001010101010101010202020202020303AF
:100730000303040404040505050506060607070768
:100740000808080909090A0A0B0B0B0C0C0D0D0E01
:100750000E0F0F1010111112121313141415151679
:1007600017171818191A1A1B1C1C1D1E1E1F2020D3
:1007700021222323242526262728292A2A2B2C2D0B
:100780002E2F2F30313233343536373838393A3B23
:100790003C3D3E3F4041424344454647494A4B4C1D
:1007A0004D4E4F5051525455565758595B5C5D5EF3
:1007B0005F61626364666768696B6C6D6F707173AB
:1007C00074757778797B7C7E7F8082838586888943
:1007D0008B8C8E8F9192949597989A9B9D9EA0A2B8
:1007E000A3A5A6A8AAABADAFB0B2B4B5B7B9BABC11
:1007F000BEC0C1C3C5C7C8CACCCECFD1D3D5D7D947
:10080000DADCDEE0E2E4E6E8E9EBEDEFF1F3F5F760
:10081000F9FBFDFF47657474696E672057616E646C
:1008200020507265666572656E636573004461741D
:100830006120746F205061636B3A200053617669C8
:100840006E672057616E6420507265666572656ED2
:10085000636573005061636B2053796E6320456E4E
:1008600064005061636B2053796E6320537461722E
:100870007400526563762E2053796E63205061793F
:100880006C6F616400526563762E20536D6F6B65EB
:1008900020436F6E66696700526563762E2057614C
:1008A0006E6420436F6E66696700526563762E2022
:1008B0004D6573736167653A2000526563762E203B
:1008C000436F6D6D616E643A200000191830011A93
:1008D000172F021B162E031C152D041D142C051E8C
:1008E000132B061F122A072011290821102809227C
:1008F0000F270A230E260B240D25000102030405F1
:10090000060708090A0B0C0D0E0F1011121314150F
:10091000161718191A1B1C1D1E1F202122233130E7
:100920002F2E2D2C2B2A292827260000000000001E
:1009300000000000000000000000000000000000B7
:100940000000010101010101010101010101020297
:100950000202020202020303030303030404040469
:100960000505050505060606060707070808080920
:1009700009090A0A0A0B0B0B0C0C0D0D0D0E0E0FBC
:100980000F10101111121213131414151516161737
:10099000181819191A1B1B1C1D1D1E1F1F20212290
:1009A0002223242526262728292A2A2B2C2D2E2FC0
:1009B000303132333435363738393A3B3C3D3E3FBF
:1009C0004041424445464748494B4C4D4E50515298
:1009D00054555658595A5C5D5E6061636466676938
:1009E0006A6C6D6F7072737577787A7C7D7F8182A7
:1009F000848688898B8D8F91929496989A9C9EA0DC
:100A0000A2A4A6A8AAACAEB0B2B4B6B8BABCBFC1D4
:100A1000C3C5C7CACCCED1D3D5D7DADCDFE1E3E694
:100A2000E8EBEDF0F2F5F7FAFCFF5761726E696ED4
:100A3000673A2043616C63756C61746564206D7501
:100A400073696320636F756E742065786365656490
:100A500073206D6178696D756D20706F7373696255
:100A60006C653B205344206361726420636F727233
:100A7000757074696F6E206C696B656C79210057B5
:100A800061726E696E673A20547261636B20636FA6
:100A9000756E7420646F6573206E6F74206D617461
:100AA0006368206669726D776172652120506C659C
:100AB0006173652075706461746520746865206D6C
:100AC0006963726F5344206361726420736F756E43
:100AD0006420656666656374732E005761726E6983
:100AE0006E673A2043616C63756C61746564206D58
:100AF0007573696320636F756E74206578636565CF
:100B00006473206D6178696D756D20706F737369A2
:100B1000626C653B205344206361726420636F7292
:100B200072757074696F6E206C696B656C792100E9
:100B30005761726E696E673A20547261636B20630D
:100B40006F756E7420646F6573206E6F74206D61B5
:100B5000746368206669726D776172652120506CDC
:100B600065617365207570646174652074686520C3
:100B70006D6963726F5344206361726420736F7593
:100B80006E6420656666656374732E004E6F204147
:100B90007564696F20446576696365005761726E9C
:100BA000696E673A205253505F53595354454D5F15
:100BB000494E464F206E6F74207265636569766595
:100BC0006421005573696E6720574156205472693D
:100BD00067676572005573696E672047505374618B
:100BE0007220417564696F2056657273696F6E3A41
:100BF00020004505152535443424140443332313BC
:100C000003021222324241312111010010203040F2
:100C100040302010000111213141423222120203E2
:100C2000132333430414243444352515054537383C
:100C3000393A3B3B3A393837001020300111213125
:100C400002122232031323330414243405152535EC
:100C500006162636362616063525150534241404C0
:100C600033231303322212023121110130201000EC
:100C700000050B11171D00040B10161B00000000CF
:100C80006410B71DC8206E3BAC30D9269041DC768D
:100C9000F4516B6B5861B24D3C7105502083B8ED37
:100CA00044930FF0E8A3D6D68CB361CBB0C2649B5B
:100CB000D4D2D38678E20AA01CF2BDBD0000210088
:100CC000240027002A002D0030003300010100001D
:100CD000040107010A01000020002300260029006A
:100CE0002C002F0032000001000003010601090161
:100CF00000000A0B02090C0D0E0807030401000096
:100D000000000000000000000000000000000000E3
:100D100000000000000000000000000012111000A0
:100D200000000000000000000000000000000000C3
:100D30000000000000004552524F523A204E6F20F2
:100D400063616C6C6261636B20617661696C616286
:100D50006C6520666F72207061636B657420494416
:100D600020000102102020080810204010204080A0
:100D7000020102010804020101020408102040805F
:100D800080402010080402018004020180402010ED
:100D90000804020108040201010204081020408036
:100DA00001020408102040800000220025002800D5
:100DB0002B002E0031003400020100000501080163
:100DC0000B010505050507050808080802020202CF
:100DD0000A0A0808040404040101010101010101D7
:100DE0000303030303030303040707070C0C0C0CA2
:100DF0000C0C0C0C0202020206060606060606068B
:100E00000B0B0B0B0B0B0B0BAFA796A611241FBEE6
:100E1000CFEFD1E2DEBFCDBF00E00CBF13E0A0E01A
:100E2000B2E0E6EDFDE601E00BBF02C007900D92D7
:100E3000AE33B107D9F72CE0AEE3B3E001C01D92A9
:100E4000A339B207E1F717E0C5E0D7E000E006C03C
:100E500021970109802FFE010E9441B1C430D107C2
:100E600080E00807A9F70E944AAB0C94D9B60C940D
:100E70000000EF92FF920F931F93CF93DF93D82F31
:100E8000C62F60915002653011F0623071F44FEF5F
:100E90008C2F0E943E7DD093BB03DF91CF911F9199
:100EA0000F91FF90EF900C94168E603309F082C082
:100EB000823009F453C018F510E000E0813009F4E5
:100EC00039C00AEC18E086EDE82E88E0F82E4FEFE6
:100ED000609150028C2F0E943E7DF8012491209356
:100EE000BB030E94168E0F5F1F4FE016F10679F7C5
:100EF000DF91CF911F910F91FF90EF900895833074
:100F000009F442C010E000E08430D9F64FEF609160
:100F100050028C2F0E943E7DF801E251F74FE49180
:100F2000E093BB030E94168E0F5F1F4F0C3011051C
:100F300069F7DECF4FEF609150028C2F0E943E7D0B
:100F4000F801EA52F74FE491E093BB030E94168E3A
:100F50000F5F1F4F0830110569F7CACF10E000E09E
:100F60004FEF609150028C2F0E943E7DF801E252BB
:100F7000F74FE491E093BB030E94168E0F5F1F4F63
:100F80000830110569F7B4CF10E000E04FEF609131
:100F900050028C2F0E943E7DF801EA51F74FE491F8
:100FA000E093BB030E94168E0F5F1F4F08301105A0
:100FB00069F79ECF623309F09BCF823009F449C0B4
:100FC000C8F410E000E0813081F10AEF18E04FEF43
:100FD000609150028C2F0E943E7DF8012491209355
:100FE000BB030E94168E0F5F1F4FF9E006301F07EC
:100FF00071F77ECF833009F442C010E000E0843006
:1010000021F74FEF609150028C2F0E943E7DF80136
:10101000E25EF64FE491E093BB030E94168E0F5FF1
:101020001F4F0C30110569F763CF4FEF60915002ED
:101030008C2F0E943E7DF801EA5FF64FE491E09329
:10104000BB030E94168E0F5F1F4F0830110569F712
:101050004FCF10E000E04FEF609150028C2F0E94C4
:101060003E7DF801E25FF64FE491E093BB030E94FE
:10107000168E0F5F1F4F0830110569F739CF10E04A
:1010800000E04FEF609150028C2F0E943E7DF801EE
:10109000EA5EF64FE491E093BB030E94168E0F5F69
:1010A0001F4F0830110569F723CFEF920F931F935D
:1010B00090910602981771F1943060F58430E1F454
:1010C0008FE00E94FC280E94DF6A8250EE24E394A5
:1010D00010E000E020E040917B0661E08230B8F053
:1010E0008AE691E00E94E16F44E650E060E070E043
:1010F0008DEC97E00E94D8A1809106028F5F8093CB
:1011000006028EE01F910F91EF900C94FC288CE367
:1011100090E0E8CF1F910F91EF9008951F93CF9328
:10112000DF9380915002803349F0823339F0C091CF
:101130004F02C150823019F4C0E001C0C4E2809176
:101140007003811105C080917103882309F4E8C000
:101150008FEA97E00E94A8A1882309F480C110912A
:101160000102112309F47BC10E94DF6A853041F43A
:101170008091770A811104C080914903DEE08111DA
:10118000DCE060915002603309F462C0623359F0D0
:10119000623009F096C0412F62E08D2F0E943E7DA3
:1011A000C093BB0383C0412F62E38D2F0E943E7D1D
:1011B000C093BB030E94168E4091010260915002C1
:1011C0008D2F0E943E7D2FEF2C0F2093BB030E949A
:1011D000168E40910102609150028D2F0E943E7D3B
:1011E0002EEF2C0F2093BB030E94168E409101021C
:1011F000609150028D2F0E943E7D2DEF2C0F209389
:10120000BB030E94168E40910102609150028D2F07
:101210000E943E7D21E02C0F2093BB030E94168E7E
:1012200040910102609150028D2F0E943E7DCE5F61
:10123000C093BB030E94168E8091010290914103DE
:10124000911144C0803509F044C00E94757D41C0B1
:10125000412F60E38D2F0E943E7DC093BB030E940F
:10126000168E40910102609150028D2F0E943E7DAA
:1012700029EE2C0F2093BB030E94168E4091010291
:10128000609150028D2F0E943E7D28EE2C0F2093FE
:10129000BB030E94168E40910102609150028D2F77
:1012A0000E943E7D27EE2C0F2093BB030E94168EDA
:1012B00040910102609150028D2F0E943E7DCF5FD0
:1012C000B7CF412F8D2F0E943E7DB2CF8C3309F4D2
:1012D000BCCF809101029BEF980F90930102865042
:1012E000883C50F080914103109240039BE490931E
:1012F00001028F5F8093410380914103833058F452
:1013000045E050E060E070E08FEA97E0DF91CF9138
:101310001F910C94D8A1DF91CF911F910C94BD7DAA
:101320008FEA97E00E94A8A1882309F493C0109146
:101330000102112309F48EC0E091770AE150D1E057
:10134000E730B0F4F0E08827E755F64F8F4F0C9464
:1013500041B1D209B009B709CA09CC09CE09D009EF
:101360000E94DF6AD4E0833019F0DFE001C0DDE0E5
:1013700060915002603309F476C06233A9F06230A4
:1013800009F0AAC0412F62E08D2F0E943E7DC093DC
:10139000BB0397C0DBE1ECCFD9E1EACFD8E1E8CFDE
:1013A000DCE1E6CFD6E1E4CF412F62E38D2F0E944E
:1013B0003E7DC093BB030E94168E40910102609156
:1013C00050028D2F0E943E7D2FEF2C0F2093BB03E8
:1013D0000E94168E40910102609150028D2F0E9452
:1013E0003E7D2EEF2C0F2093BB030E94168E409162
:1013F0000102609150028D2F0E943E7D2DEF2C0F37
:101400002093BB030E94168E40910102609150020E
:101410008D2F0E943E7D21E02C0F2093BB030E9464
:10142000168E40910102609150028D2F0E943E7DE8
:10143000CE5FC093BB030E94168E80910102815043
:101440008093010245E050E060E070E08FEA97E0B1
:101450000E94D8A180910102882309F45CCFDF911A
:10146000CF911F910895412F60E38D2F0E943E7D03
:10147000C093BB030E94168E4091010260915002FE
:101480008D2F0E943E7D29EE2C0F2093BB030E94DE
:10149000168E40910102609150028D2F0E943E7D78
:1014A00028EE2C0F2093BB030E94168E4091010260
:1014B000609150028D2F0E943E7D27EE2C0F2093CD
:1014C000BB030E94168E40910102609150028D2F45
:1014D0000E943E7DCF5FADCF412F8D2F0E943E7D7C
:1014E000A8CF80919C038C3109F4EDC18E3109F0B5
:1014F0007FC3E0915003EF3008F010C4F0E088277C
:10150000EB57F54F8F4F0C9441B1940AB80AE40A97
:10151000000B2F0B4B0B670B830B9F0BBB0BD70BDE
:10152000F30B0F0C2B0C470C8EE00E948B630E9478
:101530004D928FE00E948B630E944D9280915003E8
:101540008F5F8093500380914F0381110AC08DE01B
:101550000E948B630E942F9280E10E948B630E9405
:101560002F9281E080934F030E949F950C94EF810E
:101570008DE00E948B630E944D9280E10E948B63FC
:101580000E944D9280914F03882371F08EE00E945B
:101590008B630E942F928FE00E948B630E942F9298
:1015A000809150038F5F0DC08CE00E948B630E947E
:1015B0002F9281E10E948B630E942F9280915003B1
:1015C000815080935003D0CF8CE00E948B630E94A7
:1015D0004D9281E10E948B630E944D9280914F0356
:1015E000882339F08DE00E948B630E942F9280E166
:1015F000D3CF8BE00E948B630E942F9282E1DACFDF
:101600008BE00E948B630E944D9282E10E948B636B
:101610000E944D9280914F03882371F08CE00E94CC
:101620008B630E942F9281E10E948B630E942F9214
:10163000809150038F5F0DC08AE00E948B630E94EF
:101640002F9283E10E948B630E942F92809150031E
:101650008150809350030E949F950C94757D8AE081
:101660000E948B630E944D9283E10E948B630E94D3
:101670004D9280914F03882339F08BE00E948B6359
:101680000E942F9282E1D0CF89E00E948B630E945A
:101690002F9284E1D7CF89E00E948B630E944D9204
:1016A00084E10E948B630E944D9280914F038823B6
:1016B00039F08AE00E948B630E942F9283E16CCF05
:1016C00088E00E948B630E942F9285E173CF88E0AF
:1016D0000E948B630E944D9285E10E948B630E9461
:1016E0004D9280914F03882339F089E00E948B63EB
:1016F0000E942F9284E150CF87E00E948B630E946A
:101700002F9286E157CF87E00E948B630E944D9213
:1017100086E10E948B630E944D9280914F03882343
:1017200039F088E00E948B630E942F9285E17CCF84
:1017300086E00E948B630E942F9287E183CF86E030
:101740000E948B630E944D9287E10E948B630E94EE
:101750004D9280914F03882339F087E00E948B637C
:101760000E942F9286E160CF85E00E948B630E94E9
:101770002F9288E167CF85E00E948B630E944D9293
:1017800088E10E948B630E944D9280914F038823D1
:1017900039F086E00E948B630E942F9287E1FCCE95
:1017A00084E00E948B630E942F9289E103CF84E042
:1017B0000E948B630E944D9289E10E948B630E947C
:1017C0004D9280914F03882339F085E00E948B630E
:1017D0000E942F9288E1E0CE83E00E948B630E94FA
:1017E0002F928AE1E7CE83E00E948B630E944D92A4
:1017F0008AE10E948B630E944D9280914F0388235F
:1018000039F084E00E948B630E942F9289E10CCF13
:1018100082E00E948B630E942F928BE113CF82E0C3
:101820000E948B630E944D928BE10E948B630E9409
:101830004D9280914F03882339F083E00E948B639F
:101840000E942F928AE1F0CE81E00E948B630E9479
:101850002F928CE1F7CE81E00E948B630E944D9223
:101860008CE10E948B630E944D9280914F038823EC
:1018700039F082E00E948B630E942F928BE18CCE24
:1018800080E00E948B630E942F928DE193CE80E0D6
:101890000E948B630E944D928DE10E948B630E9497
:1018A0004D9281E00E948B630E942F928CE10E94F6
:1018B0008B630E942F92809150038150809350033C
:1018C00010924F0351CEE0915003EE3008F026C243
:1018D000F0E08827E159F34F8F4F0C9441B17D0C14
:1018E000970CB30CCF0CEB0C070D230D3F0D5B0DCC
:1018F000770D930DAF0DCB0DE70D8DE00E948B633F
:101900000E944D928EE00E948B630E944D928091C6
:1019100050038F5F8093500380914F03811121CE3C
:101920008CE00E948B630E942F928FE016CE8CE099
:101930000E948B630E944D928FE00E948B630E94F5
:101940004D9280914F03882339F08DE00E948B6384
:101950000E942F928EE020CE8BE00E948B630E942B
:101960002F9280E127CE8BE00E948B630E944D92E4
:1019700080E10E948B630E944D9280914F038823E7
:1019800039F08CE00E948B630E942F928FE04CCE46
:101990008AE00E948B630E942F9281E153CE8AE0FD
:1019A0000E948B630E944D9281E10E948B630E9492
:1019B0004D9280914F03882339F08BE00E948B6316
:1019C0000E942F9280E130CE89E00E948B630E94BA
:1019D0002F9282E137CE89E00E948B630E944D9264
:1019E00082E10E948B630E944D9280914F03882375
:1019F00039F08AE00E948B630E942F9281E1CCCD66
:101A000088E00E948B630E942F9283E1D3CD88E00F
:101A10000E948B630E944D9283E10E948B630E941F
:101A20004D9280914F03882339F089E00E948B63A7
:101A30000E942F9282E1B0CD87E00E948B630E94CA
:101A40002F9284E1B7CD87E00E948B630E944D9274
:101A500084E10E948B630E944D9280914F03882302
:101A600039F088E00E948B630E942F9283E1DCCDE5
:101A700086E00E948B630E942F9285E1E3CD86E091
:101A80000E948B630E944D9285E10E948B630E94AD
:101A90004D9280914F03882339F087E00E948B6339
:101AA0000E942F9284E1C0CD85E00E948B630E944A
:101AB0002F9286E1C7CD85E00E948B630E944D92F4
:101AC00086E10E948B630E944D9280914F03882390
:101AD00039F086E00E948B630E942F9285E15CCDF5
:101AE00084E00E948B630E942F9287E163CD84E0A3
:101AF0000E948B630E944D9287E10E948B630E943B
:101B00004D9280914F03882339F085E00E948B63CA
:101B10000E942F9286E140CD83E00E948B630E9459
:101B20002F9288E147CD83E00E948B630E944D9203
:101B300088E10E948B630E944D9280914F0388231D
:101B400039F084E00E948B630E942F9287E16CCD74
:101B500082E00E948B630E942F9289E173CD82E024
:101B60000E948B630E944D9289E10E948B630E94C8
:101B70004D9280914F03882339F083E00E948B635C
:101B80000E942F9288E150CD81E00E948B630E94D9
:101B90002F928AE157CD81E00E948B630E944D9283
:101BA0008AE10E948B630E944D9280914F038823AB
:101BB00039F082E00E948B630E942F9289E1ECCC85
:101BC00080E00E948B630E942F928BE1F3CC80E037
:101BD0000E948B630E944D928BE10E948B630E9456
:101BE0004D9281E00E948B630E942F928AE15FCE2A
:101BF00080915203833009F454C028F4813049F0B5
:101C0000823059F10895843041F1853009F466C07D
:101C1000089580E00E948B6360E00E94119481E04F
:101C20000E948B6361E00E94119482E00E948B63AA
:101C300061E00E94119483E00E948B6361E00E9446
:101C4000119484E00E948B6360E00E941194809163
:101C500052038F5F8093520389CC80E00E948B6394
:101C600061E00E94119481E00E948B6360E00E9419
:101C7000119482E00E948B6361E00E94119483E0E2
:101C80000E948B6360E00E94119484E00E948B6349
:101C900061E00E941194809152038F5F8093520300
:101CA000DCCC80E00E948B6361E00E94119481E0B3
:101CB0000E948B6361E00E94119482E00E948B631A
:101CC00060E00E94119483E00E948B6361E00E94B7
:101CD000119484E00E948B6361E0B7CF80E00E94A2
:101CE0008B6360E00E94119481E00E948B6361E04D
:101CF0000E94119482E00E948B6361E00E94119423
:101D000083E00E948B6361E00E94119484E00E9452
:101D10008B6360E00E94119481E09CCF0895EF9264
:101D20000F931F930E94F47F82E090E090939B03B7
:101D300080939A0387E090E09093990380939803AF
:101D400080917003811141C040E456E060E070E092
:101D50008DEC97E00E94D8A140E951E060E070E08E
:101D600083EC97E00E94D8A140E951E060E070E088
:101D70008DE297E00E94D8A180915102882331F032
:101D800089EB0E94FC2888EB0E94FC28E12C10E0E3
:101D900000E020E040917B0660E083E490E00E9458
:101DA000E16F20E040917B0660E08FE390E00E94CD
:101DB000E16F20E040917B0660E084E490E00E94C7
:101DC000E16F1F910F91EF9008951F910F91EF9088
:101DD0000C94F26EEF920F931F939091740A8823E4
:101DE00009F456C0913009F48EC08091750A8111B2
:101DF0008AC081E08093750A10920D0710920E0739
:101E00002091980330919903232B09F07CC02091F5
:101E10009A0330919B03232B09F075C0923009F08F
:101E200072C09091440980913F0998136CC09091C1
:101E3000FF088091FA08981366C0809151028823A8
:101E400031F08CEB0E94FC288BEB0E94FC288BEF7E
:101E500090E00E94E66E8CEF90E00E94E66EEE2429
:101E6000E39410E000E020E040917B0660E08CEF1E
:101E700090E00E94E16F80919C038D7F8C3119F47A
:101E800080E00E9402631F910F91EF900C94F06923
:101E9000913021F08091750A8130A9F51092750A70
:101EA000923089F59091440980913F09981324C09C
:101EB0009091FF088091FA0898131EC080915102FA
:101EC000882331F08AEB0E94FC288DEB0E94FC28CD
:101ED0008BEF90E00E94E66E8CEF90E00E94E66E41
:101EE000EE24E39410E000E020E040917B0660E007
:101EF0008BEF90E00E94E16F0E94536A1F910F9157
:101F0000EF900C94997D1F910F91EF900895CF93CE
:101F1000C0E06091500280914F02C81750F44FEF1B
:101F20008CE10E943E7DC093BB030E94168ECF5F62
:101F3000F0CF603359F44FEF8CE10E943E7D209149
:101F40004F022093BB03CF910C94168E623399F30A
:101F5000CF91089580916103909162038130910542
:101F600029F10297D1F481E090E09093540280939C
:101F7000530280915D0390915E0381309105D9F009
:101F8000029721F08091740A8230A9F481E090E0F8
:101F900090936E0380936D0312C08091740A823017
:101FA00011F30E94A06A82508230E8F61092540227
:101FB00010925302DECF10926E0310926D030C94B8
:101FC0005B63EF920F931F93EE24E39410E000E025
:101FD00020E040917B0660E084E490E00E94E16FA5
:101FE00010926B0310926A030E94536A80919D03C2
:101FF00081111092750A85E080935702109299031F
:10200000109298030E94997D0E944A7D0E94757DDE
:102010000E94AA0F0E9412296091790A70E089E05B
:102020000E94B0288FEA0E94FC2880EB1F910F913C
:10203000EF900C94FC281F93CF93DF938091500274
:10204000803349F0823339F0C0914F02C150823061
:1020500019F4C0E001C0C4E2809140039091700384
:10206000911105C090917103992309F4EAC09091F0
:102070004103911107C0853638F0DF91CF911F9150
:102080000C948E088C34C8F78FEA97E00E94A8A1C0
:10209000882341F09091410380914003911106C043
:1020A000853630F0DF91CF911F9108958C34D0F7B1
:1020B0000E94DF6A853041F48091770A811104C063
:1020C00080914903DEE08111DCE0609150026033D1
:1020D00009F464C0623361F0623009F099C0409144
:1020E000400362E08D2F0E943E7DC093BB0385C0FC
:1020F0004091400362E38D2F0E943E7DC093BB035D
:102100000E94168E40914003609150028D2F0E94D4
:102110003E7D2FEF2C0F2093BB030E94168E409123
:102120004003609150028D2F0E943E7D2EEF2C0FB8
:102130002093BB030E94168E409140036091500291
:102140008D2F0E943E7D2DEF2C0F2093BB030E940C
:10215000168E40914003609150028D2F0E943E7D6B
:1021600021E02C0F2093BB030E94168E4091400368
:10217000609150028D2F0E943E7DCE5FC093BB03C5
:102180000E94168E8091400390914103911146C0A8
:10219000803509F046C00E94EF8143C04091400362
:1021A00060E38D2F0E943E7DC093BB030E94168E7C
:1021B00040914003609150028D2F0E943E7D29EE98
:1021C0002C0F2093BB030E94168E40914003609118
:1021D00050028D2F0E943E7D28EE2C0F2093BB03D2
:1021E0000E94168E40914003609150028D2F0E94F4
:1021F0003E7D27EE2C0F2093BB030E94168E40914C
:102200004003609150028D2F0E943E7DCF5FB6CF7C
:10221000409140038D2F0E943E7DB0CF8C3309F456
:10222000BACF809140038B5F8093400345E050E03C
:1022300060E070E08FEA97E0DF91CF911F910C94FE
:10224000D8A1853608F019CF8FEA97E00E94A8A19F
:10225000882309F427CF10914003153608F022CFC8
:10226000E091770AE150D1E0E730B0F4F0E0882760
:10227000E35CFE4E8F4F0C9441B1661144114B113B
:102280005E116011621164110E94DF6AD4E0833034
:1022900019F0DFE001C0DDE060915002603309F425
:1022A00064C06233A9F0623009F098C0412F62E047
:1022B0008D2F0E943E7DC093BB0385C0DBE1ECCF38
:1022C000D9E1EACFD8E1E8CFDCE1E6CFD6E1E4CF4F
:1022D000412F62E38D2F0E943E7DC093BB030E947D
:1022E000168E40914003609150028D2F0E943E7DDA
:1022F0002FEF2C0F2093BB030E94168E40914003BA
:10230000609150028D2F0E943E7D2EEF2C0F209366
:10231000BB030E94168E40914003609150028D2FA6
:102320000E943E7D2DEF2C0F2093BB030E94168E42
:1023300040914003609150028D2F0E943E7D21E02C
:102340002C0F2093BB030E94168E40914003609196
:1023500050028D2F0E943E7DCE5FC093BB030E9432
:10236000168E809140038F5F5FCF412F60E38D2FEA
:102370000E943E7DC093BB030E94168E4091400395
:10238000609150028D2F0E943E7D29EE2C0F2093EC
:10239000BB030E94168E40914003609150028D2F26
:1023A0000E943E7D28EE2C0F2093BB030E94168EC8
:1023B00040914003609150028D2F0E943E7D27EE98
:1023C0002C0F2093BB030E94168E40914003609116
:1023D00050028D2F0E943E7DCF5FBFCF412F8D2FAA
:1023E0000E943E7DBACFCF92DF92EF92FF920F9381
:1023F0001F93CF93DF936B017C0180915002803358
:1024000009F46CC1823309F034C387E897E00E9475
:10241000A8A1882309F424C380916903882359F172
:1024200090914F02981738F1C09150028091770A2D
:102430008730D0F5833008F079C0813009F472C05C
:10244000823009F465C0809168038823A9F10E9455
:10245000E76A4FEF6C2F882369F18EE00E943E7D82
:10246000E0916903E150FF0BE650F74FE491E093F0
:10247000BB030E94168EE091690380914F02E8131E
:1024800059C0109269038091770A833009F4E8C239
:1024900080917A0A823009F400C208F0F7C18130D5
:1024A00009F410C289E0FAC1873069F64FEF6C2F4A
:1024B0008CE1D4CF81E0D2CF0E94DF6A90917A0A7A
:1024C000833089F49230E1F030F4913089F04FEFAD
:1024D0006C2F85E0C3CF9330B9F09430C1F74FEF44
:1024E0006C2F87E0BBCF9230D1F330F4913079F389
:1024F0004FEF6C2F8AE0B2CF933031F09430C1F7B8
:102500004FEF6C2F89E0AACF4FEF6C2F88E0A6CF5A
:102510000E94DF6A4FEF6C2F833011F484E09ECF6E
:1025200080E19CCF4FEF6C2F86E198CF4FEF6C2F5F
:1025300080E094CFE81708F093C2F0E0E650F74F40
:10254000E491E093BB03C701B6010E94168E80910F
:10255000770A20914F02882309F457C0833009F08D
:1025600094C0E0916903F0E031962E171F0651F0F8
:102570004CF0E650F74FE491E093BB03C701B6017E
:102580000E94168EE0916903F0E0329680914F022E
:102590008E171F0651F04CF0E650F74FE491E09390
:1025A000BB03C701B6010E94168EE0916903F0E0FB
:1025B000339680914F028E171F0651F04CF0E65073
:1025C000F74FE491E093BB03C701B6010E94168E5A
:1025D0009091770A923009F414C280917A0A93306C
:1025E00009F4DDC1911115C247E050E060E070E0F0
:1025F000823009F4F4C108F0FBC148E050E060E02B
:1026000070E0813009F4EBC1DFC18BEA289F212DF6
:102610001124269530E050E040E060E070E0CB010E
:102620000E948F9A80917A0A823059F110F5813098
:1026300051F1665F109169031F5FC62FD0E0E12F53
:10264000F0E0809169038C0F9D2F911DE817F90729
:102650000CF0BECF80914F02181748F4E650F74FA8
:10266000E491E093BB03C701B6010E94168E1F5F81
:10267000E6CF833021F08430E1F6685FDBCF6A5F1C
:10268000D9CF6D5FD7CF6E5FD5CF2695269530E039
:1026900050E040E060E070E0CB010E948F9AC09172
:1026A0006903CF5F062F10E0EC2FF0E08091690303
:1026B000800F912F911DE817F9070CF089CF8091B9
:1026C0004F02C81748F4E650F74FE491E093BB037C
:1026D000C701B6010E94168ECF5FE6CF87E897E06C
:1026E0000E94A8A1882309F4BBC1809169038823B3
:1026F00069F190914F02981748F18091770A8730DD
:1027000008F074C0833008F0BCC0813009F4B4C054
:10271000823009F4A6C080916803882309F470C050
:102720000E94E76A4FEF60915002882309F466C067
:102730008EE00E943E7DE0916903E150FF0BE6537D
:10274000F74FE491E093BB030E94168EE09169037A
:1027500080914F02E81709F494CEE81708F080C181
:10276000F0E0E653F74FE491E093BB03C701B601F5
:102770000E94168E8091770A20914F02882309F4D7
:10278000A5C0833009F0E2C0E0916903F0E0319622
:102790002E171F0651F04CF0E653F74FE491E093EB
:1027A000BB03C701B6010E94168EE0916903F0E0F9
:1027B000329680914F028E171F0651F04CF0E6536F
:1027C000F74FE491E093BB03C701B6010E94168E58
:1027D000E0916903F0E0339680914F028E171F0657
:1027E00009F00CF4F5CEE653F74FEBCE873009F045
:1027F00092CF4FEF609150028CE19BCF81E099CF57
:102800000E94DF6A90917A0A833099F49230F9F04D
:1028100038F4913099F04FEF6091500285E089CF04
:102820009330D1F09430B9F74FEF6091500287E0C8
:1028300080CF9230C9F338F4913069F34FEF609153
:1028400050028AE076CF933039F09430B9F74FEFE9
:102850006091500289E06DCF4FEF6091500288E0A7
:1028600068CF0E94DF6A4FEF60915002833011F40D
:1028700084E05FCF80E15DCF4FEF6091500286E151
:1028800058CF4FEF6091500280E053CF8330E1F09A
:10289000843009F007CE88E001C086E04AE050E0CD
:1028A000481B5109052E000C660B770B87E897E053
:1028B000DF91CF911F910F91FF90EF90DF90CF901C
:1028C0000C94D8A185E0EACF87E0E8CF8BEA289F77
:1028D000212D1124269530E050E040E060E070E0CA
:1028E000CB010E948F9A80917A0A823059F110F5BB
:1028F000813051F1665F109169031F5FC62FD0E0F0
:10290000E12FF0E0809169038C0F9D2F911DE81756
:10291000F9070CF05DCE80914F02181748F4E6538A
:10292000F74FE491E093BB03C701B6010E94168EF6
:102930001F5FE6CF833021F08430E1F6685FDBCFA4
:102940006A5FD9CF6D5FD7CF6E5FD5CF26952695BD
:1029500030E050E040E060E070E0CB010E948F9AF0
:10296000C0916903CF5F062F10E0EC2FF0E080915B
:102970006903800F912F911DE817F9070CF028CEFD
:1029800080914F02C81748F4E653F74FE491E09363
:10299000BB03C701B6010E94168ECF5FE6CF82301F
:1029A000C1F050F4813071F087E080935B0242E027
:1029B00050E060E070E013C08330B1F08430A1F7E4
:1029C00086E013C090935B0244E050E060E070E06A
:1029D00006C090935B0243E050E060E070E087E85F
:1029E00097E00E94D8A137C084E080935B02F3CFC8
:1029F0008330A1F0843041F745E050E060E070E0C2
:102A0000EECF8091980390919903039789F4809178
:102A10007A0A823089F338F4813049F646E050E092
:102A200060E070E0DCCF833079F28430A1F2BFCF78
:102A300041E050E060E070E087E897E00E94D8A1B4
:102A40008091690390E0049620914F02281719069F
:102A500011F40E94EF81809169038F5F8093690375
:102A6000DF91CF911F910F91FF90EF90DF90CF906A
:102A7000089587E897E00E94A8A1882389F38091B0
:102A80006903882341F190914F02981720F18091BA
:102A9000770A873008F043C0833008F08AC081305D
:102AA00009F482C0823009F474C0809168038823DD
:102AB00009F43EC00E94E76A4FEF609150028823FC
:102AC000A9F18EE00E943E7D209169032150209360
:102AD000BB030E94168E8091690390914F02891367
:102AE0007CC0109269038091770A833009F4B8CFD3
:102AF00080917A0A45E550E060E070E0823009F4A8
:102B0000D5CE08F05BC044E650E060E070E0813074
:102B100009F4CCCE48E250E060E070E0C7CE8730E8
:102B200021F64FEF609150028CE1CCCF81E0CACF0B
:102B30000E94DF6A90917A0A8330C1F4923021F1C9
:102B400038F49130C1F04FEF6091500285E0BACF78
:102B5000933039F09430B9F74FEF6091500287E02D
:102B6000B1CF4FEF6091500288E0ACCF9230A1F32B
:102B700038F4913041F34FEF609150028AE0A2CFD8
:102B8000933079F39430B9F74FEF6091500289E0B8
:102B900099CF0E94DF6A4FEF60915002833011F4A9
:102BA00084E090CF80E18ECF4FEF6091500286E1BC
:102BB00089CF4FEF6091500280E084CF46E450E02F
:102BC00060E070E0833009F471CE47E350E060E0EC
:102BD00070E0843009F46ACE9DCF891708F040CFA9
:102BE0008093BB03C701B6010E94168E80917A0ABA
:102BF0004CE150E060E070E0823009F4F0CE60F427
:102C00004EE150E060E070E0813009F4E8CE48E148
:102C100050E060E070E0E3CE4AE150E060E070E058
:102C2000833009F4DCCE49E150E060E070E08430AC
:102C300009F4D5CEECCF8091420381111BC0809165
:102C40007A0A8150209153023091540280935203AA
:102C5000109250032130310509F052C080916D036C
:102C600090916E03019709F040C00E9444670E9452
:102C70002866109A8091770A8230F1F440E050E0A3
:102C8000BA0187E897E00E94D8A10E94DF6A4FEF5F
:102C900060915002833009F038C081E00E943E7D8F
:102CA0000E94F31140E050E0BA0181E997E00E94F0
:102CB000D8A18EE080934203E0914203EE3070F59C
:102CC000F0E08827E959F94E8F4F0C9441B18716EF
:102CD000AF16C516EA16151753178C17C017EA1743
:102CE000141840185718691872180E94816385E0FB
:102CF00090E090930302809302020E94AA67B9CFEA
:102D00000E94816383E090E0F4CF8FE0C7CF809191
:102D1000770A8130F1F0B8F08330F1F0809142030E
:102D20008F5F809342038E3008F0DFC18091770A75
:102D300042E1811101C044E250E070E060E08DE7C3
:102D400097E00C94D8A165E070E080E00E9439071C
:102D5000E5CF65E170E0F9CF6DE070E0F6CF8091EE
:102D6000770A813079F028F08330C1F66BE070E0AB
:102D7000ECCF67E070E080E00E94390765E070E02A
:102D800081E0E4CF64E170E0E0CF8091770A8130A8
:102D9000C9F050F0833011F669E070E080E00E94E5
:102DA00039076DE070E0ECCF61E070E080E00E94F8
:102DB000390767E070E081E00E94390765E070E064
:102DC00082E0C4CF63E170E080E00E94390765E1F2
:102DD00070E0D6CF8091770A8130F9F058F08330D7
:102DE00009F09CCF67E070E080E00E9439076BE05B
:102DF00070E0C6CF67E070E080E00E94390761E0D4
:102E000070E081E00E94390767E070E082E00E9494
:102E1000390765E070E083E099CF66E170E080E01B
:102E20000E94390764E170E0ABCF8091770A81306E
:102E300069F180F0833009F071CF65E070E080E0E7
:102E40000E94390769E070E081E00E9439076DE077
:102E500070E0B6CF65E070E080E00E94390767E07F
:102E600070E081E00E94390761E070E082E00E943A
:102E7000390767E070E083E00E94390765E070E0A1
:102E800084E00E9439070E94EF8148CF61E070E042
:102E900080E00E94390763E170E081E00E94390719
:102EA00065E170E08DCF8091770A813041F180F04B
:102EB000833009F033CF70E060E080E00E94390792
:102EC00067E070E081E00E9439076BE070E078CF46
:102ED00070E060E080E00E94390765E070E081E02A
:102EE0000E94390767E070E082E00E94390761E0E4
:102EF00070E083E00E94390767E070E0BFC070E0D7
:102F000060E080E00E94390766E170E081E00E94A5
:102F1000390764E170E054CF8091770A813019F16C
:102F200080F0833009F0FACE65E070E081E00E9425
:102F3000390769E070E082E00E9439076DE070E0D7
:102F40006ACF70E060E081E00E94390765E070E0E0
:102F500082E00E94390767E070E083E00E94390751
:102F600061E070E08BC061E070E081E00E943907B1
:102F700063E170E082E00E94390765E170E04BCFC9
:102F80008091770A8130C9F080F0833009F0C6CE95
:102F900070E060E081E00E94390767E070E082E065
:102FA0000E9439076BE070E036CF70E060E082E0AD
:102FB0000E94390765E070E09CCF70E060E081E03E
:102FC0000E94390766E170E082E00E94390764E1FF
:102FD00070E021CF8091770A8130C9F080F0833092
:102FE00009F09CCE65E070E082E00E94390769E05C
:102FF00070E083E00E9439076DE070E041CF70E03F
:1030000060E083E00E94390765E070E037C061E06E
:1030100070E082E00E94390763E170E083E00E9483
:10302000390765E170E02CCF8091770A8130D1F0CB
:1030300080F0833009F072CE70E060E082E00E94A0
:10304000390767E070E083E00E9439076BE070E0C9
:1030500015C070E060E084E00E9439078EE0809344
:1030600042035CCE70E060E082E00E94390766E1D6
:1030700070E083E00E94390764E170E084E066CE8E
:103080008091770A813059F0833009F047CE65E0AE
:1030900070E083E00E94390769E070E0EFCF61E003
:1030A00070E083E00E94390763E170E0E7CF809130
:1030B000770A813031F0833009F030CE70E060E083
:1030C00018CF70E060E083E00E94390766E170E0AD
:1030D000D5CF8091770A813009F442CF833009F44B
:1030E00093CF1CCE70E060E0C9CF0E94757D109236
:1030F000850710928607109242030E94A06A8250B0
:10310000823058F48091980390919903039729F0A5
:103110008091770A823009F0109808958F929F92DB
:10312000AF92BF92CF92DF92EF92FF92CF93DF9355
:1031300080916D0390916E03892B09F04DC00E9420
:10314000710A80919C038D7FC8E78C3109F4C8E235
:1031500090913508992309F442C78DE298E00E94C6
:1031600062A16B017C01E0917A0AE150FF0BEE0F46
:10317000FF1FE05FF74F8081918166E070E00E9461
:1031800019B1CB01B0E0A0E0C816D906EA06FB06EB
:1031900008F0EFC580919C038D7F8C3109F0E0C56C
:1031A0004C2F46954695469550E04E5F5F4F052E55
:1031B000000C660B770B8CEF97E00E94D8A186E09D
:1031C000DF91CF91FF90EF90DF90CF90BF90AF90C5
:1031D0009F908F900C94550880919C038C3109F43A
:1031E00062C0D0E08E3109F45FC08091520381113A
:1031F00016C080917A0A823009F4EFC308F0D8C370
:10320000813009F4F1C364E070E080E090E00E9456
:10321000759A6E5F7F4F8F4F9F4F60935203C0E050
:103220008C2F0E948B630E94E893019729F4809170
:1032300052038C1708F0DDC3CF5FC53089F781E0FA
:1032400090917A0A923009F4DDC408F0D4C3913029
:1032500009F42DC5882309F405C4C5E08091520303
:10326000C81708F4DEC08C1312C080910602835088
:10327000833008F0ECC365E070E080E090E00E94ED
:10328000759A6F5F7F4F8F4F9F4F60935203C1506E
:103290008C2F0E948B630E94E893892BF9F68C2F68
:1032A0000E94AE63BEC0D2E0CEE18C2E912C8D1A6E
:1032B000910880915003811114C080917A0A823064
:1032C000D9F100F5813069F09401092C000C440B10
:1032D000550B62E170E080E090E00E948F9A60936D
:1032E0005003C0E0C815190494F58C2F0E948B631D
:1032F0000E946A92811104C090915003C91740F155
:10330000CF5FF0CF833069F08430F1F66CE070E08D
:1033100080E090E00E94759A635F7F4F8F4F9F4FD0
:10332000DECF6AE070E080E090E00E94759A675F0F
:103330007F4F8F4F9F4FD3CF6AE070E080E090E0E7
:103340000E94759A6D5F7F4F8F4F9F4FC8CF81E06E
:1033500090917A0A923009F43CC220F5913009F438
:10336000C2C2882309F47BC08DE1F82EFD1A092C16
:10337000000CAA08BB0880915003F81608F44FC04F
:103380008F1141C080910602833009F458C068F55E
:10339000823009F45BC0A501940162E170E080E035
:1033A00090E02DC0933009F454C19430D1F68823B5
:1033B00009F4F0C0C9E180915003C81780F18C1363
:1033C000B2C080910602833009F4C1C008F09AC0EF
:1033D000813009F4D2C0823009F4C4C069E170E0E0
:1033E00080E090E00E94759A9CC0843009F185309D
:1033F00091F6A501940166E070E080E090E00E9403
:103400008F9A609350038F2D0E948B630E946A9263
:10341000882319F18F2D0E948B630E942F920E94A6
:103420009F958091690380FD98C40E94EF8189CEA9
:10343000A501940169E070E080E090E0E0CFA50193
:1034400094016CE070E080E090E0D9CFA501940198
:103450006FE070E080E090E0D2CFFA948CCFC0E0D3
:10346000092C000CAA08BB08809150038C17B8F2F5
:103470008C131DC080910602833069F150F48130B5
:10348000C1F1823079F1A501940160E070E0CB01D7
:103490000AC08430C9F08530B1F7A501940168E015
:1034A00070E080E090E00E948F9A609350038C2F30
:1034B0000E948B630E946A92811122C08C2F0E940D
:1034C0008B630E944D92ABCFA50194016CE070E03C
:1034D00080E090E0E8CFA50194016EE070E080E02C
:1034E00090E0E1CFA501940160E170E080E090E020
:1034F000DACFA501940162E170E080E090E0D3CFE3
:10350000CF5FB2CF8430C1F0853009F067CF68E17A
:1035100070E080E090E00E94759A6F5F7F4F8F4F60
:103520009F4F609350038C2F0E948B630E946A927E
:10353000882371F18C2F6FCF65E170E080E090E01F
:103540000E94759A6C5F7F4F8F4F9F4FEACF62E169
:1035500070E080E090E00E94759A695F7F4F8F4F26
:103560009F4FDFCF6FE070E080E090E00E94759A9F
:10357000665F7F4F8F4F9F4FD4CF6CE070E080E04D
:1035800090E00E94759A635F7F4F8F4F9F4FC9CF26
:10359000C15011CFC0E0809150038C1708F43FCF89
:1035A0008C1321C080910602833091F160F4813048
:1035B00009F444C08230B9F169E170E080E090E044
:1035C0000E94759A0EC08430C1F08530A9F768E179
:1035D00070E080E090E00E94759A6F5F7F4F8F4FA0
:1035E0009F4F609350038C2F0E948B630E946A92BE
:1035F000882309F463CFCF5FCECF65E170E080E030
:1036000090E00E94759A6C5F7F4F8F4F9F4FE9CF7C
:1036100062E170E080E090E00E94759A695F7F4F00
:103620008F4F9F4FDECF6FE070E080E090E00E9410
:10363000759A665F7F4F8F4F9F4FD3CF6CE070E0DE
:1036400080E090E00E94759A635F7F4F8F4F9F4F9D
:10365000C8CF882309F45EC0C3E180915003C81726
:1036600008F4DDCE8C1321C080910602833089F1ED
:1036700060F4813009F443C08230B1F163E170E05D
:1036800080E090E00E94759A0EC08430B9F08530D9
:10369000A9F762E170E080E090E00E94759A6F5FA8
:1036A0007F4F8F4F9F4F609350038C2F0E948B63EF
:1036B0000E946A9281113ECFC150CFCF60E170E08D
:1036C00080E090E00E94759A6D5F7F4F8F4F9F4F13
:1036D000EACF6EE070E080E090E00E94759A6B5F48
:1036E0007F4F8F4F9F4FDFCF6CE070E080E090E026
:1036F0000E94759A695F7F4F8F4F9F4FD4CF6AE0CA
:1037000070E080E090E00E94759A675F7F4F8F4F76
:103710009F4FC9CFC0E0809150038C1708F47FCE33
:103720008C1321C080910602833091F160F48130C6
:1037300009F444C08230B9F163E170E080E090E0C8
:103740000E94759A0EC08430C1F08530A9F762E1FD
:1037500070E080E090E00E94759A6F5F7F4F8F4F1E
:103760009F4F609350038C2F0E948B630E946A923C
:10377000882309F4A3CECF5FCECF60E170E080E074
:1037800090E00E94759A6D5F7F4F8F4F9F4FE9CFFA
:103790006EE070E080E090E00E94759A6B5F7F4F72
:1037A0008F4F9F4FDECF6CE070E080E090E00E9492
:1037B000759A695F7F4F8F4F9F4FD3CF6AE070E05C
:1037C00080E090E00E94759A675F7F4F8F4F9F4F18
:1037D000C8CF882309F443C0CDE080915003C817B7
:1037E00008F41DCE8C131CC080910602843009F1B0
:1037F00048F4813048F56DE070E080E090E00E9490
:10380000759A0CC08530B9F76CE070E080E090E00C
:103810000E94759A6F5F7F4F8F4F9F4F6093500349
:103820008C2F0E948B630E946A92811183CEC150BB
:10383000D4CF6BE070E080E090E00E94759A6E5FFC
:103840007F4F8F4F9F4FEACF6AE070E080E090E0BB
:103850000E94759A6D5F7F4F8F4F9F4FDFCFC0E003
:10386000809150038C1708F4DACD8C131CC0809122
:103870000602843011F148F4813050F56DE070E0BB
:1038800080E090E00E94759A0CC08530B9F76CE03A
:1038900070E080E090E00E94759A6F5F7F4F8F4FDD
:1038A0009F4F609350038C2F0E948B630E946A92FB
:1038B000882309F403CECF5FD3CF6BE070E080E0C4
:1038C00090E00E94759A6E5F7F4F8F4F9F4FE9CFB8
:1038D0006AE070E080E090E00E94759A6D5F7F4F33
:1038E0008F4F9F4FDECF882389F1C7E0809150032F
:1038F000C81708F494CD8C1316C08091060284304A
:10390000D9F038F48130E8F467E070E080E090E0CE
:1039100006C08530C9F76AE070E080E090E00E9460
:10392000759A609350038C2F0E948B630E946A9259
:10393000811100CEC150DACF69E070E080E090E004
:10394000EECF68E070E080E090E0E9CFC0E08091E9
:1039500050038C1708F463CD8C1316C080910602B7
:103960008430E1F038F48130F0F467E070E080E01A
:1039700090E006C08530C9F76AE070E080E090E032
:103980000E94759A609350038C2F0E948B630E9453
:103990006A92882309F492CDCF5FD9CF69E070E0B5
:1039A00080E090E0EDCF68E070E080E090E0E8CF6C
:1039B000833041F0843009F026CC63E070E080E091
:1039C00090E025CC63E070E080E090E00E94759A82
:1039D0006F5F7F4F8F4F9F4F20CC63E070E080E0A0
:1039E00090E00E94759A19CC62E070E080E090E06F
:1039F000F8CF80E025CC933009F4ABC0943009F0C7
:103A000029CC882309F46FC0C5E080915203C81700
:103A100008F407CD8C1312C08091060283508330C6
:103A200008F056C065E070E080E090E00E94759A72
:103A30006F5F7F4F8F4F9F4F60935203C1508C2F0A
:103A40000E948B630E94E893892BF9F628CC64E0EE
:103A500070E080E090E00E94759A6E5F7F4F8F4F1C
:103A60009F4F13CCC0E0809152038C1708F4D9CC3F
:103A70008C130FC0809106028330A1F0F0F08630E5
:103A8000E0F466E070E080E090E00E94759A609358
:103A900052038C2F0E948B630E94E893CF5F0197A3
:103AA00011F7FDCB65E070E080E090E00E94759A30
:103AB0006F5F7F4F8F4F9F4FEACF64E070E080E0F1
:103AC00090E00E94759A6E5F7F4F8F4F9F4FDFCFC0
:103AD00064E070E080E090E00E94759A6E5F7F4F36
:103AE0008F4F9F4FA9CFC0E0809152038C1708F4ED
:103AF00098CC8C130FC0809106028330A1F0F0F0B7
:103B00008630E0F466E070E080E090E00E94759A14
:103B1000609352038C2F0E948B630E94E893CF5FC7
:103B2000019711F7BCCB65E070E080E090E00E9467
:103B3000759A6F5F7F4F8F4F9F4FEACF64E070E0C1
:103B400080E090E00E94759A6E5F7F4F8F4F9F4F8D
:103B5000DFCF882339F1C5E080915203C81708F4FC
:103B600060CC8C1311C08091060283508330A8F47E
:103B700065E070E080E090E00E94759A6F5F7F4F93
:103B80008F4F9F4F60935203C1508C2F0E948B63C5
:103B90000E94E893892B01F782CB63E070E080E01C
:103BA00090E0EACFC0E0809152038C1708F439CC42
:103BB0008C130FC0809106028330A1F0F0F08630A4
:103BC000E0F466E070E080E090E00E94759A609317
:103BD00052038C2F0E948B630E94E893CF5F019762
:103BE00011F75DCB65E070E080E090E00E94759A8F
:103BF0006F5F7F4F8F4F9F4FEACF63E070E080E0B1
:103C000090E0F4CF882319F1C5E080915203C817E2
:103C100008F407CC8C130DC08091060282508430CA
:103C200088F466E070E080E090E00E94759A60930E
:103C30005203C1508C2F0E948B630E94E893892B02
:103C400021F72DCB63E070E080E090E0EECFC0E0A4
:103C5000809152038C1708F4E4CB8C131AC0809126
:103C60000602833051F0F0F08630E0F466E070E058
:103C700080E090E00E94759A0AC065E070E080E004
:103C800090E00E94759A6F5F7F4F8F4F9F4F6093B8
:103C900052038C2F0E948B630E94E893CF5F0197A1
:103CA000B9F6FDCA63E070E080E090E0E3CF8823DE
:103CB00051F1C5E080915203C81708F4B2CB8C13C0
:103CC0000FC0809106028330A1F0C0F08630B0F4BE
:103CD00066E070E080E090E00E94759A6093520385
:103CE000C1508C2F0E948B630E94E893892B11F79F
:103CF000D6CA65E070E080E090E0EECF63E070E06F
:103D000080E090E0E9CFC0E0809152038C1708F486
:103D100088CB8C130FC0809106028330A1F0C0F0D5
:103D20008630B0F466E070E080E090E00E94759A22
:103D3000609352038C2F0E948B630E94E893CF5FA5
:103D4000019711F7ACCA65E070E080E090E0EECF3B
:103D500063E070E080E090E0E9CF0E94757DF1C9FA
:103D60008C2F65E00E94FFB0482F50E070E060E0CB
:103D700022CA8DE298E00E9462A16B017C01E09171
:103D80007A0AE150FF0BEE0FFF1FE05FF74F8081D3
:103D9000918165E070E00E9419B1CB01B0E0A0E034
:103DA000C816D906EA06FB06E0F480919C038D7FD5
:103DB0004C2F8C3181F446954695469550E04C5FEA
:103DC0005F4F052E000C660B770B8CEF97E00E947F
:103DD000D8A185E0F5C94695469550E070E060E0D1
:103DE000F4CF8DE298E00E9462A1E0917A0AE1505E
:103DF000FF0BEE0FFF1FE05FF74F208131813695FB
:103E00002795369527956901F12CE12C6C157D05D8
:103E10008E059F05F0F480919C038D7F8C3181F499
:103E20004C2F4695469550E04F5F5F4F052E000C96
:103E3000660B770B8CEF97E00E94D8A184E0C0C995
:103E40008C2F63E00E940BB1482F50E070E060E0DF
:103E5000F1CF8DE298E00E9462A16B017C01E091BC
:103E60007A0AE150FF0BEE0FFF1FE05FF74F8081F2
:103E7000918163E070E00E9419B1CB01B0E0A0E055
:103E8000C816D906EA06FB06C8F480919C038D7F0C
:103E90004C2F8C3179F44695469550E04D5F5F4F3D
:103EA000052E000C660B770B8CEF97E00E94D8A1D3
:103EB00083E086C946954A50550BF2CF8DE298E0D3
:103EC0000E9462A1A0917A0A2A2F2150330BF90196
:103ED000EE0FFF1FE05FF74F4081518156954795E8
:103EE0006A01F12CE12C20919C036C157D058E0557
:103EF0009F05C8F4922F9D7F4C2F9C3179F44695F5
:103F0000469550E04B5F5F4F052E000C660B770B1C
:103F10008CEF97E00E94D8A182E052C9469550E00C
:103F200070E060E0F5CF922F9D7F9C3199F54C2F8A
:103F30004695A23039F1D0F4A13041F14550550BEE
:103F4000052E000C660B770B8CEF97E00E94D8A132
:103F500081E080930602DF91CF91FF90EF90DF9098
:103F6000CF90BF90AF909F908F900895A33031F085
:103F7000A43021F750E070E060E0E6CF50E04B5F06
:103F80005F4FDECF50E0465F5F4FDACF50E0415FDA
:103F90005F4FD6CF20916D0330916E0321303105F4
:103FA00029F4A23091F028F4A130A1F04C2F4695CD
:103FB000E1CFA33041F0A430C9F74C2F469550E033
:103FC000425E5F4FBDCF4C2FD5CF4C2F50E0440FFA
:103FD000551FB6CF33E0C39FA0011124B1CF8C3160
:103FE00061F54C2F469580917A0A8230F1F0B0F459
:103FF0008130F9F04750550B052E000C660B770BFE
:104000008CEF97E0DF91CF91FF90EF90DF90CF9012
:10401000BF90AF909F908F900C94D8A1833041F1C6
:10402000843041F74350550BE7CF50E0495F5F4F75
:10403000E3CF50E0445F5F4FDFCF80916D039091FD
:104040006E03019739F480917A0A8230A9F028F43E
:104050008130B9F04C2F46950BC0833041F084304D
:10406000C9F74C2F469550E0425E5F4FC5CF4C2FAD
:1040700050E070E060E0C4CF4C2F50E0440F551F7B
:10408000BBCF83E0C89FA0011124B6CFCF92DF92AF
:10409000EF92FF920F931F93CF938091470381116B
:1040A0000E94646F80915303882339F180914E03FD
:1040B00081113DC081E080934E0380917C0A833062
:1040C000B1F58091770A811132C085E10E94FC2808
:1040D0000E94DF6AEE24E39410E000E020E04091CB
:1040E0007B0661E0823009F06EC189E891E00E94B0
:1040F000E16F8091530381111AC080914E03882390
:10410000B1F010924E0380917C0A833081F480914B
:10411000770A81110CC086E10E94FC280E94DF6AA8
:10412000823009F053C189E891E00E94E66E8091E7
:104130005103882309F440C080914D03811138C098
:1041400081E080934D0380917C0A833089F58091D2
:10415000770A81112DC087E10E94FC2880917A0A9C
:104160008530D1F00E94DF6A833009F032C183E6E6
:1041700090E00E94E66E0E94DF6A40917B06EE248A
:10418000E39410E000E020E061E0823009F024C117
:1041900089E891E00E94E16FEE24E39410E000E0F2
:1041A00020E040917B0661E088E490E00E94E16FAE
:1041B00080915103811138C080914D03882379F19A
:1041C00010924D0380917C0A833049F58091770AE3
:1041D000811125C088E10E94FC2888E490E00E94BB
:1041E000E66E80917A0A8530D1F00E94DF6A8230D3
:1041F00009F0F5C089E891E00E94E66E0E94DF6A4E
:1042000040917B06EE24E39410E000E020E061E0C2
:10421000833009F0E7C083E690E00E94E16F80916F
:104220005103882309F45AC080915303882309F469
:1042300051C080913F0381114DC08091680381116D
:1042400049C081E08093680380933F0380915B03C2
:1042500090915C038130910509F4D1C0029709F077
:10426000C8C08EE690E00E94E66E8FE690E00E9465
:10427000E66EE12C10E000E020E040917B0660E07B
:104280008EE690E00E94E16F80917C0A833009F015
:10429000ACC08DE10E94FC28809148028823B1F0D7
:1042A00066E070E080E090E00E94759A9B01AC01AE
:1042B000265F3F4F4F4F5F4FA8EEB3E00E94ABB079
:1042C000AB01BC0183E797E00E94D8A18091510324
:1042D000882321F08091530381114DC080916803A0
:1042E000882309F448C080917C0A833009F043C0D8
:1042F0001092680310923F0380915B0390915C03DE
:104300008130910509F4A0C0029709F097C08EE6AC
:1043100090E00E94E66E8FE690E00E94E66EE12C4F
:1043200010E000E020E040917B0660E08FE690E046
:104330000E94E16F8EE10E94FC2880914802882350
:10434000D1F080919D038823B1F068E070E080E0B7
:1043500090E00E94759A9B01AC01295F3F4F4F4F3F
:104360005F4FA8EEB3E00E94ABB0AB01BC018FE59C
:1043700097E00E94D8A180917C0A8D7F209135081A
:10438000813029F480915103882309F478C0809109
:104390004702882309F473C080917A0A8150990BEF
:1043A000FC01E35EF74F3081311170C0222309F424
:1043B0007CC010923508109236080E94B66A8DE0D3
:1043C0000E94FC2872C082E690E091CE82E690E0E6
:1043D000ACCE8EE791E0CDCE82E690E0DBCE82E6F9
:1043E00090E00ACF8EE791E018CF8CE153CF89E1BE
:1043F00051CF0E94DF6A8250823008F032CF809124
:10440000AC039091AD03039741F48AE490E00E94DD
:10441000E66E89E490E00E94E66EE12C10E000E098
:1044200020E040917B0660E08AE490E00E94E16F2A
:1044300080917C0A8330D9F68AE12CCF0E94DF6A12
:104440008250823008F063CF8091AC039091AD032D
:10445000039741F48AE490E00E94E66E89E490E0DC
:104460000E94E66EE12C10E000E020E040917B0627
:1044700060E089E490E00E94E16F8BE15CCF222351
:10448000A1F0109235081092360899CF21110DC075
:10449000880F991FFC01E05FF74F4081518170E068
:1044A00060E08DE298E00E94D8A1E091770AE150A7
:1044B000E73008F01BC1F0E08827EE59FD4D8F4F23
:1044C0000C9441B1BE23A923F2236922B023B32364
:1044D000B623CBE18BE14FEF609150020E943E7D0D
:1044E0006B017C0185EA97E00E94A8A1882309F46A
:1044F00066C0E091690380914F02E81708F05FC041
:1045000080915002803309F447C1823309F065C1BC
:10451000F0E0E650F74FE491E093BB03C701B6012A
:104520000E94168E8091690390E0029620914F02BE
:104530002817190689F084F04FEF6091500280E04F
:104540000E943E7DE0916903F0E0E450F74FE49172
:10455000E093BB030E94168E80915002803331F0AD
:1045600044E150E060E070E0823321F443E050E049
:1045700060E070E085EA97E00E94D8A1809169032D
:104580008F5F8093690390914F02891318C08091C7
:104590005002109269031092AD071092AE0780335B
:1045A00031F044E650E060E070E0823321F444E012
:1045B00050E060E070E087E897E00E94D8A14FEFFC
:1045C000609150028C2F0E943E7D0E94F3118CEF6F
:1045D00097E00E94A8A181110E948E1883E797E0BE
:1045E0000E94A8A1882369F18091770A811129C0CE
:1045F00080916803811125C080914802882309F1C8
:10460000E12C10E000E020E040917B0660E089E0D2
:1046100090E00E94E16F66E070E080E090E00E9430
:10462000759A9B01AC01265F3F4F4F4F5F4FA8EE3D
:10463000B3E00E94ABB0AB01BC0183E797E00E94FE
:10464000D8A18FE597E00E94A8A1882309F42BC187
:104650008091770A811127C180916803811123C15C
:1046600080914802882309F41EC1809144039091EF
:1046700045038637910509F4B7C08737910509F4DA
:10468000B8C0C0E08537910539F463E070E080E0A0
:1046900090E00E94759AC62F62E070E080E090E0A2
:1046A0000E94759A6E5F7F4F8F4F9F4F28EE33E0C9
:1046B000629F6001639FD00C729FD00C1124C230A6
:1046C00009F4C0C0C33009F499C0C13009F0CDC0AD
:1046D000E12C10E000E020E040917B0660E086E7FE
:1046E00090E00E94E16F86E790E0B9C08091680396
:1046F000882341F00E94E76A882309F442C0CBE096
:104700008EE0E9CE0E94DF6A90917A0A833099F4B4
:10471000923071F030F4C3E1913099F0C6E185E058
:10472000DACE933089F19430C9F7C6E187E0D3CE71
:10473000C4E189E0D0CE9230C1F328F4913071F316
:10474000C1E08AE0C8CE933011F19430C9F7C3E1DB
:10475000F0CF0E94DF6A8330E1F4C1E084E0BBCE99
:10476000C9E189E1B8CEC8E188E1B5CE80915502B2
:10477000C6E18E3F08F0C1E08CE1ADCEC5E186E137
:10478000AACECDE081E0A7CEC4E188E0A4CEC3E10B
:10479000FCCFCFE080E19FCEF0E0E653F74FE4910D
:1047A000E093BB03C701B6010E94168E8091690396
:1047B00090E0029620914F022817190609F00CF498
:1047C000CBCE4FEF6091500280E00E943E7DE091A1
:1047D0006903F0E0E453F74FBACEE093BB03C7019F
:1047E000B601B8CECDE0EBCE62E070E080E090E0C4
:1047F00050CF61E070E080E090E04BCFE12C10E022
:1048000000E020E040917B0660E084E790E00E94B9
:10481000E16F84E790E0909345038093440385E043
:104820008C9DA0018D9D500D112470E060E08FE5FE
:1048300097E0CF911F910F91FF90EF90DF90CF9075
:104840000C94D8A1E12C10E000E020E040917B0620
:1048500060E087E790E00E94E16F87E790E0909347
:10486000450380934403A601E0CFE12C10E000E073
:1048700020E040917B0660E085E790E00E94E16FD8
:1048800020E040917B0660E088E790E00E94E16FC5
:1048900088E790E0909345038093440348E057E015
:1048A00060E070E0C4CFCF911F910F91FF90EF9027
:1048B000DF90CF900895EF920F931F93CF93DF93E4
:1048C0008091980390919903AC0144505109309123
:1048D0008909209184094330510508F452C340915D
:1048E000710341114EC3321761F081E090E0909363
:1048F000990380939803DF91CF911F910F91EF90CF
:10490000089580916C03833008F4F9C081E08093AE
:1049100070030E948F0E8091770A813009F4BFC026
:10492000823009F4B9C00E94DF6A833009F49BC069
:10493000853009F4AEC0823009F0A0C080917A0AB7
:10494000853009F485C08AE090E00E94E66E87E435
:1049500090E00E94E66E80E891E00E94E66E89E4B5
:1049600090E00E94E66E8AE490E00E94E66E8FE698
:1049700090E00E94E66E8EE690E00E94E66E0E9455
:10498000446A0E94DF6AC8EBDBE0853091F40E9444
:10499000E76A882361F0EE24E39410E000E020E071
:1049A00040917B0660E08DEB91E00E94E16FC0E7F3
:1049B000D7E180917A0A823009F47FC008F072C092
:1049C000813011F0C053D84FAE0170E060E083E257
:1049D00097E00E94D8A1BE0188E00E94B0280E9402
:1049E000DF6A853009F06CC0EE24E39404EC19E032
:1049F00021E040917B0661E084E991E00E94E16F53
:104A000080914C02882309F476CF8091740A81301A
:104A100009F071CF9091FF088091FA08981709F476
:104A20006ACF9091440980913F09981364CF809197
:104A30004702882309F45FCF8091D309882309F4C2
:104A400094C2DF91CF911F910F91EF900C9459A7D1
:104A500088E891E00E94E66E8BE891E00E94E66EA5
:104A60008AE891E07ACF8BE090E00E94E66E87E4DE
:104A700090E00E94E66E8AE090E06FCF81E891E0DE
:104A80000E94E66E82E891E00E94E66E83E891E083
:104A900064CF82E891E061CF85E390E06ECF8BE355
:104AA00090E06BCF833031F0843009F08BCFC4526B
:104AB000DA4F8ACFC851DC4F87CFCC50DE4F84CF3E
:104AC00080915102882331F087EB0E94FC2883EC0F
:104AD0000E94FC28EE24E39410E000E020E04091E6
:104AE0007B0660E08EE591E00E94E16F04EC19E046
:104AF00021E040917B0661E08BE691E07FCF8091E1
:104B000043038823B1F085E597E00E9462A1672BFB
:104B1000682B692B71F4109243030E94A06A8250A3
:104B2000823038F48091980390919903039709F0AB
:104B3000109880917E0A823079F19091FF088091DF
:104B4000FA08981329C09091440980913F0998135D
:104B500023C084EA99E00E94EE9F811106C080E99B
:104B600098E00E94EE9F8823B9F08091510288233B
:104B700019F083ED0E94FC288CE290E00E94E66E22
:104B8000EE24E39410E000E020E040917B0660E03A
:104B90008CE290E00E94E16F9091CE098091C9096A
:104BA000981346C09091FF088091FA08981340C06E
:104BB0009091440980913F0998133AC080917E0AF0
:104BC0008230B1F5C091770AC13009F498C0C33082
:104BD00009F4B6C083E297E00E9462A1672B682BBC
:104BE000692B51F410926C0348EE53E060E070E0E2
:104BF00083E297E00E94D8A180915303811105C000
:104C000080916C038F5F80936C0380916C03833081
:104C100078F48091980390919903039731F083E0A1
:104C200090E0909399038093980381E080935303DD
:104C30002091BA089091B50880917C0A8D7F8130CF
:104C400009F4A0C08091770A882321F03CEF380F47
:104C5000343040F44091980350919903433051050A
:104C600009F40FC12913CEC02091FF089091FA08D2
:104C70002913C8C02091440990913F092913C2C04B
:104C800090917E0A923009F0BDC0813041F008F465
:104C900024C1823009F43CC1833009F0B3C083E2FF
:104CA00097E00E9462A1672B682B692B51F4109248
:104CB0006C0348EE53E060E070E083E297E00E940E
:104CC000D8A180916C0390915303911103C08F5F21
:104CD00080936C0380916C03833008F093C08091C3
:104CE000980390919903039731F083E090E09093BB
:104CF00099038093980381E08093530383C080914C
:104D00003E03811195CF85E597E00E9462A1672B54
:104D1000682B692B09F08CCF8091980390919903AF
:104D2000039709F485CF48E552E060E070E085E53F
:104D300097E00E94D8A10E9479A3C0933E0378CF48
:104D400080913E03811174CF85E597E00E9462A1B6
:104D5000672B682B692B09F06BCF8091980390919A
:104D60009903039709F464CF4AEF50E060E070E0E4
:104D700085E597E00E94D8A10E9479A381E0809305
:104D80003E0356CF29136CC09091FF088091FA081A
:104D9000981338C09091440980913F09981332C00C
:104DA00080917E0A823071F583E297E00E9462A1D1
:104DB000672B682B692B51F410926C0348EE53E07B
:104DC00060E070E083E297E00E94D8A180915103F7
:104DD000811105C080916C038F5F80936C0380917B
:104DE0006C03833078F48091980390919903039732
:104DF00031F083E090E0909399038093980381E0F1
:104E0000809351039091CE098091C909981348C0AD
:104E10009091BA088091B508981709F4F1CD809166
:104E20007C0A8111EDCD8091770A813041F008F440
:104E300099C0823009F496C0833009F0E1CD8091A9
:104E40006F03882309F4DCCD80915303882309F490
:104E5000D7CD109299031092980310925303D0CD9E
:104E60008091530381110AC0809198039091990316
:104E7000039721F410929903109298031092510312
:104E8000C1CF291709F4BBCF0E94E76A882309F430
:104E9000B9CF9091CE098091C909981709F4AFCF85
:104EA0008091770A813009F45AC0833009F457C0E1
:104EB00080916F03882309F4ABCF8091530388233B
:104EC00009F4A6CF80915103811144C01092990337
:104ED00010929803109253039BCF80913E0381114F
:104EE00091CF85E597E00E9462A1672B682B692B23
:104EF00009F088CF40ED57E060E070E085E597E08D
:104F00000E94D8A10E9479A381E080933E037ACFCA
:104F100080913E03811176CF8091980390919903FF
:104F2000039709F46FCF80914303811110C04EEEB7
:104F300052E060E070E085E597E00E94D8A10E9411
:104F400079A3809143038F5F80934303DDCF823049
:104F5000D8F6F5CF0E9483778111B8CFBBCF1092DE
:104F60003E0356CF10923E034BCD8091D00988234B
:104F700009F4C1CCDF91CF911F910F91EF900C9468
:104F800060813213B2CC892B09F0B5CC84EA99E068
:104F90000E94EE9F81110DC080917C0A8D7F81302F
:104FA00009F0A9CC80E998E00E94EE9F882309F4DB
:104FB000A2CC8091B70781119ECC90914409809139
:104FC0003F09981398CC9091FF088091FA089813A4
:104FD00092CC80915102882319F087EB0E94FC2823
:104FE0008EE591E00E94E66EEE24E39410E000E08E
:104FF00020E040917B0660E08EE591E00E94E16F49
:10500000DF91CF911F910F91EF900C94446AEF9232
:105010000F931F93CF9310926C031092700381E053
:105020008093000210920D0710920E079091740A5F
:10503000923079F581E090E090939B0380939A03FE
:10504000109299031092980380918A09811117C0D8
:1050500080915102882319F08BEB0E94FC288CEF81
:1050600090E00E94E66EEE24E39410E000E020E081
:1050700040917B0660E08CEF90E00E94E16F84E05D
:105080000E94FC2880E0CF911F910F91EF900C942B
:10509000AE742091FF089091FA0829130BC09091EB
:1050A0006503992339F080934A030E948F0EC0E074
:1050B0008C2FE9CF81E090E090939B0380939A033B
:1050C0001092990310929803C091960384E00E9475
:1050D000FC28EECFCF938091A903811101C02E98B7
:1050E000C1E0C093BA030E94408E81112DC080910F
:1050F0005202882339F08091770A853039F180F4A3
:105100008430B1F00E94A06A825040E06FEF82309C
:1051100028F582E00E943A7B21E02093BA030FC079
:105120008630C1F0873071F740E06FEF8CE103C04B
:1051300040E06FEF8BE10E943A7BC093BA030E947C
:105140002B8E81E08093A803CF91089540E06FEF0C
:1051500089E1F1CF40E06FEF88E1EDCF81E0DACF78
:10516000CF93DF931F921F92CDB7DEB71A821982B9
:1051700090919D0391113BC092E0909374038093B2
:105180007503709377036093760385E080937803CB
:105190008091A6039091A703019761F4409137078E
:1051A000509138076091390770913A0787E397E08B
:1051B0000E94D8A180917403809359048091750353
:1051C00080935A048091760380935B0480917703E7
:1051D00080935C048091780380935D0485E090E087
:1051E0009A83898361E0CE0101960E940C930F900F
:1051F0000F90DF91CF91089570E060E00C94B0289B
:10520000EDE1F8E080912208808380911C08818381
:1052100080911B08828380911A08838380916A029F
:10522000848308950E94A06A8250823070F4E091D5
:105230009703F0E0EE0FFF1FEB58FD4F8081918147
:105240009093050280930402089582E990E0F8CFDC
:10525000CF939091A903992309F467C0C82F8DE0DB
:105260000E94E893019729F06FEF70E08DE00E94B3
:105270004E96C931A0F41092BA030E94408E882342
:1052800061F040E06FEF80E00E943A7B1092BA0339
:105290000E942B8E81E08093A803CF910895809186
:1052A0005202882351F08091770A843061F170F4C2
:1052B0008230D9F020F58130A1F00E94A06A82509E
:1052C00040E06C2F823078F581E0DECF863019F136
:1052D000F0F0873021F1803481F740E060E885E02C
:1052E000D3CF40E06C2F84E1CFCF0E94DF6A40E053
:1052F0006C2F833011F484E0C7CF8FE0C5CF40E03E
:105300006C2F8DE0C1CF40E06C2F8BE1BDCF40E032
:105310006C2F89E1B9CF40E06C2F88E1B5CF40E038
:105320006C2F8CE1B1CF82E0AFCFE82FF0E0EC5EE4
:10533000F84FE4916FEF70E06E1B71098DE0CF9133
:105340000C944E96EF920F931F93CF9342E350E04D
:1053500060E070E08CE09AE00E94D8A18091980310
:10536000909199038830910509F418C3893091050B
:1053700009F443C08630910509F054C5809190032B
:105380008B30E1F480915702843009F05AC42091A7
:10539000720330917303232B09F057C42091CE0977
:1053A0009091C909291351C42091BA089091B50868
:1053B000291709F44AC480E40E94FC2880919003D4
:1053C000873009F0FFC180915702843009F0C3C4CF
:1053D0002091720330917303232B09F0F0C12091C7
:1053E000CE099091C9092913EAC12091BA08909178
:1053F000B508291709F4E3C122C4809190038B30CA
:1054000009F046C0209172033091730380915702D6
:105410002230310509F093C0853009F0CCC6909157
:10542000D109992309F491C02091BA089091B50847
:10543000291709F48AC080919D03882309F487C045
:1054400080917D068D3D21F180915F02853008F0CD
:1054500089C010925F0280917F062DED3FEF281BDF
:10546000310987FD339540915F02429FC001439F00
:10547000900D11246CE97FEF0E942DB1635260936F
:105480007D0660937E0660937C0680E00E94FA7A37
:1054900080919003873009F095C12091720330917B
:1054A0007303809157022230310509F082C18530A3
:1054B00009F05CC78091D109882309F46CC39091ED
:1054C000BA088091B508981709F465C380919D03C7
:1054D000811107C080918E0390918F03019709F08D
:1054E00078C190917F0680917D06891709F46AC181
:1054F00080915F02803608F46AC184E680935F027F
:105500002DED3FEF291B310997FD339540915F0247
:10551000429FC001439F900D11246CE97FEF0E94D0
:105520002DB1635260937D0660937E0660937C0686
:1055300080E0CF911F910F91EF900C94FA7A233075
:105540003105A1F0823008F49DC08150A3C0809144
:105550008E0390918F03019709F472CF82EA0E9423
:10556000FC2896CF855080935F0275CF853079F403
:105570002091CE099091C90929134BC04091BA08D6
:105580003091B508431709F444C08EE7E8CF843062
:1055900079F42091CE099091C909291347C040910F
:1055A000BA083091B508431709F440C08DE7D7CF4A
:1055B000833071F42091CE099091C909291341C01B
:1055C0004091BA083091B5084317D9F18CE7C7CF9D
:1055D000823071F42091CE099091C90929133CC001
:1055E0004091BA083091B5084317B1F18BE7B7CFB6
:1055F000813009F029C69091CE098091C90998138C
:1056000036C03091BA082091B508321781F18AE787
:10561000A6CF291709F499CF2091BA089091B5081F
:10562000291393CF85E00E94FFA332CF291709F4F5
:105630008CCF2091BA089091B508291386CF84E0C9
:10564000F2CF291709F481CF2091BA089091B508BB
:1056500029137BCF83E0E7CF291709F476CF209178
:10566000BA089091B508291370CF82E0DCCF981763
:1056700009F4EDC59091BA088091B5089813E7C573
:1056800081E0D1CF2115310541F02130310509F4F8
:105690004AC081E080935702FBCE81E090E0909376
:1056A00073038093720385E0809357028091020117
:1056B00080628093020180E00E9428290E948192EA
:1056C000809102018F7B809302018FE390E00E9422
:1056D000E66EEE24E39410E000E020E040917B06CB
:1056E00060E08FE390E00E94E16F85EF90E00E9420
:1056F000E66E86EF90E00E94E66E87EF90E00E94F3
:10570000E66E88EF90E00E94E66E89EF90E00E94DE
:10571000E66E20E040917B0660E086EF90E00E941C
:10572000E16F8AE31CCF82E090E090937303809353
:10573000720385E08093570280910201806280931A
:1057400002018FEF0E9428290E948192809102011C
:105750008F7B809302018FE390E00E94E66EEE243F
:10576000E39410E000E020E040917B0660E08FE3EE
:1057700090E00E94E16F85EF90E00E94E66E86EF78
:1057800090E00E94E66E87EF90E00E94E66E88EF60
:1057900090E00E94E66E89EF90E00E94E66E20E0C5
:1057A00040917B0660E087EF90E00E94E16F8BE321
:1057B000D6CE23303105A1F0853008F0A1C08F5F2F
:1057C00080935702CF911F910F91EF9008958B5FB7
:1057D00095CE83EACF911F910F91EF900C94FC2806
:1057E000853079F49091CE098091C90998134CC005
:1057F0003091BA082091B508321709F445C089E7FD
:10580000E9CF843079F42091CE099091C909291308
:105810004BC04091BA083091B508431709F444C011
:1058200088E7D8CF833079F42091CE099091C909C7
:10583000291345C04091BA083091B508431709F4BF
:105840003EC087E7C7CF823071F42091CE09909196
:10585000C90929133FC04091BA083091B5084317D0
:10586000C9F186E7B7CF813009F037C52091CE095D
:105870009091C909291339C04091BA083091B508EF
:10588000431799F185E7A6CF981709F429C5909198
:10589000BA088091B508981323C585E0CF911F9170
:1058A0000F91EF900C946DA4291709F488CF2091E3
:1058B000BA089091B508291382CF84E0EFCF291759
:1058C00009F47DCF2091BA089091B508291377CFBC
:1058D00083E0E4CF291709F472CF2091BA089091A0
:1058E000B50829136CCF82E0D9CF291709F467CF07
:1058F0002091BA089091B508291361CF81E0CECFED
:105900002130310509F4CBC52430310509F00EC62C
:1059100083E090E0909373038093720381E080931F
:105920005702809102018062809302018FEF0E94F2
:1059300028290E946A28809102018F7B80930201AE
:105940008FE390E00E94E66EEE24E39410E000E026
:1059500020E040917B0660E08FE390E00E94E16FE1
:1059600085EF90E00E94E66E86EF90E00E94E66E82
:1059700087EF90E00E94E66E88EF90E00E94E66E6E
:1059800089EF90E00E94E66E20E040917B0660E0A7
:1059900088EF90E00E94E16F8CE31CCF8091900330
:1059A0008B3039F520917203309173038091570247
:1059B0002115310509F085C0843009F04EC02091D1
:1059C000CE099091C909291709F480C02091BA081D
:1059D0009091B50829137AC0909156028091550292
:1059E000923078F18E3F68F19150909356020E9468
:1059F000870F80919003873009F0E4CE20917203E5
:105A000030917303809157022115310509F0B8C018
:105A1000843009F081C02091CE099091C9092917DD
:105A200009F4CDCE2091BA089091B5082913C7CEBC
:105A3000809155028E3F08F05EC08F5F80935502C3
:105A400061C091E090935602823020F081508093A3
:105A50005502CDCF90935502CACF833081F4209167
:105A6000CE099091C909291789F12091BA0890911E
:105A7000B50829132BC08DE50E94FC28BACF8230CF
:105A800071F42091CE099091C9092917F9F020915C
:105A9000BA089091B508291319C08CE5EDCF813073
:105AA00009F068C49091CE098091C909981709F44A
:105AB00064C49091BA088091B50898135EC48BE5D0
:105AC000DBCF2130310521F0823088F0815010C0C9
:105AD000853009F098C42091CE099091C909291701
