:100000000C940A070C943B070C943B070C943B0799
:100010000C943B070C943B070C943B070C943B0758
:100020000C943B070C943B070C943B070C943B0748
:100030000C943B070C943B070C943B070C943B0738
:100040000C943B070C943B070C943B070C943B0728
:100050000C943B070C943B070C943B070C949D9924
:100060000C943B070C94CB9B0C94A19B0C943B07EA
:100070000C943B070C943B070C943B070C943B07F8
:100080000C943B070C943B070C943B070C943B07E8
:100090000C94779B0C944D9B0C943B070C9468A29A
:1000A0000C943B070C943B070C943B070C943B07C8
:1000B0000C943B070C943B070C943B070C943B07B8
:1000C0000C943B070C943B070C943B070C943B07A8
:1000D0000C943B070C943B070C94239B0C94F99ACB
:1000E0000C943B0705A84CCDB2D44EB93836A902C2
:1000F0000C50B9918688083CA6AAAA2ABE00000026
:10010000803F07634236B79BD8A71A39685618AEA6
:10011000BAAB558C1D3CB7CC5763BD6DEDFD753E3C
:10012000F6177231BF000000803F08000000BE9249
:100130002449123EABAAAA2ABECDCCCC4C3E00002C
:100140000080BEABAAAAAA3E00000000BF000000CB
:10015000803F0000000000084178D3BB4387D113E3
:100160003D190E3CC3BD4282AD2B3E68EC8276BE8B
:10017000D98FE1A93E4C80EFFFBE01C4FF7F3F0055
:10018000000000000C945D7C0C944B0C0C94E80A6D
:100190000C941A5D0C946D540C943A970C9420585E
:1001A0000C9498540C94BF0B0C94C18B0C94BF50BE
:1001B0000C9477980C944A540C9472580C944958A7
:1001C0000C94A39D0C94D03F0C94EB5A0C94C458FF
:1001D0000C9492870C9415870C948D9E0C94040BB0
:1001E0000C94E35E0C9421970C94D33F0C94CA5466
:1001F0000C9424870C94AB980C94CD860C94753F8A
:100200000C94B9690C9496690C94DF5B0C94FE60B5
:100210000C94BA560C9498690C94FBA70C94D7597B
:100220000C94C85C0C94F45D0C9458970C942F605B
:100230000C94B70C0C947A860C941B600C94397C4B
:100240000C944E980C947D5A0C943B5A0C94E9965D
:100250000C942B600C94CC8B0C947E860C94508C5C
:100260000C940AA00C94928B0C94255A0C94F3963F
:100270000C948C8B0C94FA560C946D220C94598C23
:100280000C946F590C94565D0C94C9160C944459F7
:100290000C949C5C0C94417C0C944A7D0C94ED9CD9
:1002A0000C94F0690C9476180C943D7C0C943B7C77
:1002B0000C94C5500C9417970C94D0500C94445C3B
:1002C0000C944C570C94899F0C94C3690C946F5BED
:1002D0000C94BC0A0C94A4860C94613C0C948B9CEA
:1002E0000C9467980C94D2090C946D860C9423603E
:1002F0000C94F0580C94A6570C94547C0C94870BD7
:100300000C94808B0C9465860C9444970C942E5C12
:100310000C94925E0C947C5E0C94019D0C94855917
:100320000C94CF860C9497980C94467C0C94D4092A
:100330000C94437C0C946C7C0C94487C0C94F29C44
:100340000C94675A0C94385D0C9432620C94E2A6BB
:100350000C9466550C94EC9D0C94969F0C942A9EDC
:100360000C9405590C94358C0C94B4090C94468764
:100370000C940C9D0C946D180C9406610C94F97CF3
:100380000C9482650C94608C0C9418580C94BF5A91
:100390000C94B30D0C94BA230C94D55A0C94EF54CE
:1003A0000C944A7C0C9488860C94130C0C94F05595
:1003B0000C9462970C94158C0C94C7500C943B7D54
:1003C0000C94C1550C941E610C94855B0C94CB501D
:1003D0000C94B68B0C94D78B0C94C63F0C94705C29
:1003E0000C9479570C94478C0C94CC9D0C947D659F
:1003F0000C942B970C940E540C94C4170C94B28943
:100400000C94015B0C94165C0C9438870C948E54FD
:100410000C944E970C94FB5F0C94B4230C94209D89
:100420000C94A30B0C942D5B0C94AF4C0C94135AAE
:100430000C945C560C94678C0C94CF0D0C949A869B
:100440000C94A95A0C9410580C94C89C0C946C975A
:100450000C9484540C9488890C9418180C94A84219
:100460000C94D7510C94867D0C945F540C94946931
:100470000C94CC690C94868B0C9408580C94DF96E1
:100480000C940E8A0C945F860C94FD960C94EE16D8
:100490000C9471980C949F860C9469860C94CE5D94
:1004A0000C94EB0D0C94CF560C94817D0C9412613E
:1004B0000C94515A0C94C15B0C943F7C0C94865C58
:1004C0000C94E5580C941F570C9468110C94CE09A9
:1004D0000C9474860C94937C0C94379F0C945F7CE2
:1004E0000C94B1540C94DF870C94270D0C94CE8699
:1004F0000C94A0860C945B9D0C940B0D0C94F6232D
:100500000C94435B0C9448110C94E38B0C94DE9C8C
:100510000C94175B0C9418610C94CC560C943F55BA
:100520000C947B0D0C946A110C94F95E0C94D569B3
:100530000C942F590C94970D0C94B7230C94595B81
:100540000C94DE5C0C94405E0C94FC5C0C94A28BCE
:100550000C94D99C0C94DF980C94128C0C94189FDA
:100560000C94D79C0C94430D0C9450650C9400583B
:100570000C94F5590C94707C0C94D0090C94A555EE
:100580000C94C9500C94EF8B0C948C860C94C22361
:100590000C94BB090C94EC4F0C9490170C942760AE
:1005A0000C945F0D0C94A79C0C94BE5E0C948B165F
:1005B0000C940D970C94318C0C946B0B0C949C8BBD
:1005C0000C9464110C94D30C0C94E7540C94059780
:1005D0000C9492690C94A85D0C94DC7C0C94597C6E
:1005E0000C94810C0C9414540C941F600C94898905
:1005F0000C9496860C94567C0C94980A0C94F70BE9
:100600000C94AD230C9462110C94EB9C0C94386206
:100610000C94825D0C946E7C0C94F2540C944F0BF1
:100620000C94A85E0C94D2960C942D8C0C94D60944
:100630000C946C5D0C94D3570C94665E0C9492866B
:100640000C94E3540C94DF890C94837D0C94DB0BA5
:100650000C949B0C0C94AB890C94B97C0C94D355E2
:100660000C94FD5B0C9459590C94EE170C94A35BFD
:100670000C949B580C944C9D0C94C9560C94367D4C
:100680000C94609E0C94EB540C94379D0C94FD9E3E
:100690000C94847B0C945B180C94935A0C942F0C40
:1006A0000C94DA960C94B3160C94B9590C943554F6
:1006B0000C9498890C94330B0C9466110C94877BE2
:1006C0000C9444180C945B7C0C9419170C944B6597
:1006D0000C94B69C0C941B7D0C949B590C941A5949
:1006E0000C9457170C94B25C0C94EF0C0C94743C63
:1006F0000C9484860C94909C0C941A5E0C944F116C
:100700000C945A5C0C9471860C9415600C94653CA6
:100710000C94FF9C0C947D690C940C61000000000B
:1007200000000000000000000101010101010101C1
:100730000202020202020303030304040404050587
:1007400005050606060707070808080909090A0A31
:100750000B0B0B0C0C0D0D0E0E0F0F1010111112B8
:10076000121313141415151617171818191A1A1B23
:100770001C1C1D1E1E1F202021222323242526266B
:100780002728292A2A2B2C2D2E2F2F303132333493
:100790003536373838393A3B3C3D3E3F404142439D
:1007A00044454647494A4B4C4D4E4F505152545583
:1007B000565758595B5C5D5E5F616263646667684B
:1007C000696B6C6D6F70717374757778797B7C7EF3
:1007D0007F808283858688898B8C8E8F9192949579
:1007E00097989A9B9D9EA0A2A3A5A6A8AAABADAFE1
:1007F000B0B2B4B5B7B9BABCBEC0C1C3C5C7C8CA28
:10080000CCCECFD1D3D5D7D9DADCDEE0E2E4E6E84E
:10081000E9EBEDEFF1F3F5F7F9FBFDFF47657474D4
:10082000696E672057616E642050726566657265F7
:100830006E636573004461746120746F205061635E
:100840006B3A2000536176696E672057616E6420B1
:10085000507265666572656E636573005061636BA7
:100860002053796E6320456E64005061636B2053A2
:10087000796E6320537461727400526563762E2022
:1008800053796E63205061796C6F616400526563C7
:10089000762E20536D6F6B6520436F6E666967001F
:1008A000526563762E2057616E6420436F6E6669D1
:1008B0006700526563762E204D6573736167653AF4
:1008C0002000526563762E20436F6D6D616E643A31
:1008D000200000191830011A172F021B162E031CB6
:1008E000152D041D142C051E132B061F122A07207C
:1008F00011290821102809220F270A230E260B246C
:100900000D25000102030405060708090A0B0C0D5A
:100910000E0F101112131415161718191A1B1C1D7F
:100920001E1F2021222331302F2E2D2C2B2A292847
:10093000272600000000000000000000000000006A
:1009400000000000000000000000010101010101A1
:10095000010101010101020202020202020203037B
:100960000303030304040404050505050506060640
:10097000060707070808080909090A0A0A0B0B0BEA
:100980000C0C0D0D0D0E0E0F0F1010111112121375
:100990001314141515161617181819191A1B1B1CE1
:1009A0001D1D1E1F1F202122222324252626272825
:1009B000292A2A2B2C2D2E2F30313233343536373D
:1009C00038393A3B3C3D3E3F40414244454647482A
:1009D000494B4C4D4E50515254555658595A5C5DE6
:1009E0005E606163646667696A6C6D6F707273756F
:1009F00077787A7C7D7F8182848688898B8D8F91C0
:100A0000929496989A9C9EA0A2A4A6A8AAACAEB0D6
:100A1000B2B4B6B8BABCBFC1C3C5C7CACCCED1D3B5
:100A2000D5D7DADCDFE1E3E6E8EBEDF0F2F5F7FA53
:100A3000FCFF5761726E696E673A2043616C6375A3
:100A40006C61746564206D7573696320636F756E86
:100A5000742065786365656473206D6178696D7570
:100A60006D20706F737369626C653B205344206323
:100A700061726420636F7272757074696F6E206C3E
:100A8000696B656C7921005761726E696E673A20F7
:100A9000547261636B20636F756E7420646F65734D
:100AA000206E6F74206D61746368206669726D7763
:100AB0006172652120506C65617365207570646199
:100AC000746520746865206D6963726F5344206398
:100AD00061726420736F756E642065666665637409
:100AE000732E005761726E696E673A2043616C63C2
:100AF000756C61746564206D7573696320636F75CF
:100B00006E742065786365656473206D6178696DC6
:100B1000756D20706F737369626C653B2053442060
:100B20006361726420636F7272757074696F6E2096
:100B30006C696B656C7921005761726E696E673AFA
:100B400020547261636B20636F756E7420646F65EF
:100B500073206E6F74206D61746368206669726DB6
:100B6000776172652120506C6561736520757064D2
:100B700061746520746865206D6963726F534420E9
:100B80006361726420736F756E6420656666656369
:100B900074732E004E6F20417564696F2044657632
:100BA000696365005761726E696E673A20525350EF
:100BB0005F53595354454D5F494E464F206E6F74F5
:100BC00020726563656976656421005573696E6797
:100BD00020574156205472696767657200557369E2
:100BE0006E672047505374617220417564696F20AD
:100BF00056657273696F6E3A2000450515253544B8
:100C000034241404433323130302122232424131A9
:100C1000211101001020304040302010000111212E
:100C20003141423222120203132333430414243489
:100C30004435251505453738393A3B3B3A3938377D
:100C4000001020300111213102122232031323330C
:100C500004142434051525350616263636261606C0
:100C600035251505342414043323130332221202CC
:100C7000312111013020100000050B11171D000457
:100C80000B10161B000000006410B71DC8206E3B3F
:100C9000AC30D9269041DC76F4516B6B5861B24D83
:100CA0003C7105502083B8ED44930FF0E8A3D6D6ED
:100CB0008CB361CBB0C2649BD4D2D38678E20AA055
:100CC0001CF2BDBD00002100240027002A002D00D9
:100CD0003000330001010000040107010A01000097
:100CE00020002300260029002C002F0032000001E4
:100CF000000003010601090100000A0B02090C0DA6
:100D00000E080703040100000000000000000000BE
:100D100000000000000000000000000000000000D3
:100D20000000000012111000000000000000000090
:100D3000000000000000000000000000000045521C
:100D4000524F523A204E6F2063616C6C6261636B4C
:100D500020617661696C61626C6520666F722070DB
:100D600061636B6574204944200001021020200853
:100D700008102040102040800201020108040201F6
:100D80000102040810204080804020100804020165
:100D900080040201804020100804020108040201BE
:100DA0000102040810204080010204081020408045
:100DB00000002200250028002B002E003100340006
:100DC00002010000050108010B01050505050705E5
:100DD00008080808020202020A0A080804040404B7
:100DE00001010101010101010303030303030303E3
:100DF000040707070C0C0C0C0C0C0C0C0202020272
:100E000006060606060606060B0B0B0B0B0B0B0B5A
:100E1000FBA7E2A611241FBECFEFD1E2DEBFCDBFFC
:100E200000E00CBF13E0A0E0B2E0EEE6FEE601E079
:100E30000BBF02C007900D92AE33B107D9F72CE07B
:100E4000AEE3B3E001C01D92A339B207E1F717E0AA
:100E5000C9E0D7E000E006C021970109802FFE011C
:100E60000E948DB1C830D10780E00807A9F70E9421
:100E700096AB0C9425B70C940000EF92FF920F9361
:100E80001F93CF93DF93D82FC62F60915002653008
:100E900011F0623071F44FEF8C2F0E94897DD09356
:100EA000BB03DF91CF911F910F91FF90EF900C94B6
:100EB000618E603309F082C0823009F453C018F5A6
:100EC00010E000E0813009F439C002ED18E08EED49
:100ED000E82E88E0F82E4FEF609150028C2F0E9490
:100EE000897DF80124912093BB030E94618E0F5FDE
:100EF0001F4FE016F10679F7DF91CF911F910F9107
:100F0000FF90EF900895833009F442C010E000E0B4
:100F10008430D9F64FEF609150028C2F0E94897D6A
:100F2000F801EA50F74FE491E093BB030E94618E11
:100F30000F5F1F4F0C30110569F7DECF4FEF609147
:100F400050028C2F0E94897DF801E252F74FE49104
:100F5000E093BB030E94618E0F5F1F4F08301105A5
:100F600069F7CACF10E000E04FEF609150028C2F7C
:100F70000E94897DF801EA51F74FE491E093BB03A9
:100F80000E94618E0F5F1F4F0830110569F7B4CFC3
:100F900010E000E04FEF609150028C2F0E94897D9D
:100FA000F801E251F74FE491E093BB030E94618E98
:100FB0000F5F1F4F0830110569F79ECF623309F0AC
:100FC0009BCF823009F449C0C8F410E000E08130C2
:100FD00081F102E019E04FEF609150028C2F0E94E6
:100FE000897DF80124912093BB030E94618E0F5FDD
:100FF0001F4FF9E00E301F0771F77ECF833009F4E1
:1010000042C010E000E0843021F74FEF60915002C1
:101010008C2F0E94897DF801EA5DF64FE491E09300
:10102000BB030E94618E0F5F1F4F0C30110569F7E3
:1010300063CF4FEF609150028C2F0E94897DF801A1
:10104000E25FF64FE491E093BB030E94618E0F5F75
:101050001F4F0830110569F74FCF10E000E04FEF48
:10106000609150028C2F0E94897DF801EA5EF64F54
:10107000E491E093BB030E94618E0F5F1F4F083025
:10108000110569F739CF10E000E04FEF6091500291
:101090008C2F0E94897DF801E25EF64FE491E09387
:1010A000BB030E94618E0F5F1F4F0830110569F767
:1010B00023CFEF920F931F9390910602981771F12F
:1010C000943060F58430E1F48FE00E9400290E94A2
:1010D000E36A8250EE24E39410E000E020E04091C7
:1010E0007B0661E08230B8F08AE691E00E94E56F0D
:1010F00044E650E060E070E08DEC97E00E9424A2AE
:10110000809106028F5F809306028EE01F910F91FF
:10111000EF900C9400298CE390E0E8CF1F910F91A1
:10112000EF9008951F93CF93DF9380915002803307
:1011300049F0823339F0C0914F02C150823019F426
:10114000C0E001C0C4E280917003811105C08091AC
:101150007103882309F4E8C08FEA97E00E94F4A1A4
:10116000882309F480C110910102112309F47BC185
:101170000E94E36A853041F48091770A811104C0AE
:1011800080914903DEE08111DCE060915002603320
:1011900009F462C0623359F0623009F096C0412F01
:1011A00062E08D2F0E94897DC093BB0383C0412FD5
:1011B00062E38D2F0E94897DC093BB030E94618EE4
:1011C00040910102609150028D2F0E94897D2FEF86
:1011D0002C0F2093BB030E94618E4091010260910D
:1011E00050028D2F0E94897D2EEF2C0F2093BB0380
:1011F0000E94618E40910102609150028D2F0E94E9
:10120000897D2DEF2C0F2093BB030E94618E4091AE
:101210000102609150028D2F0E94897D21E02C0FE8
:101220002093BB030E94618E4091010260915002A5
:101230008D2F0E94897DCE5FC093BB030E94618E7B
:101240008091010290914103911144C0803509F0D1
:1012500044C00E94C07D41C0412F60E38D2F0E9499
:10126000897DC093BB030E94618E40910102609111
:1012700050028D2F0E94897D29EE2C0F2093BB03F5
:101280000E94618E40910102609150028D2F0E9458
:10129000897D28EE2C0F2093BB030E94618E409124
:1012A0000102609150028D2F0E94897D27EE2C0F44
:1012B0002093BB030E94618E409101026091500215
:1012C0008D2F0E94897DCF5FB7CF412F8D2F0E9438
:1012D000897DB2CF8C3309F4BCCF809101029BEFA2
:1012E000980F909301028650883C50F08091410302
:1012F000109240039BE4909301028F5F809341031F
:1013000080914103833058F445E050E060E070E0A4
:101310008FEA97E0DF91CF911F910C9424A2DF9187
:10132000CF911F910C94087E8FEA97E00E94F4A160
:10133000882309F493C010910102112309F48EC08F
:10134000E091770AE150D1E0E730B0F4F0E088278F
:10135000E355F64F8F4F0C948DB1D609B409BB09F4
:10136000CE09D009D209D4090E94E36AD4E08330BF
:1013700019F0DFE001C0DDE060915002603309F454
:1013800076C06233A9F0623009F0AAC0412F62E052
:101390008D2F0E94897DC093BB0397C0DDE1ECCF08
:1013A000DAE1EACFD9E1E8CFDEE1E6CFD6E1E4CF7A
:1013B000412F62E38D2F0E94897DC093BB030E9461
:1013C000618E40910102609150028D2F0E94897DB3
:1013D0002FEF2C0F2093BB030E94618E40910102DE
:1013E000609150028D2F0E94897D2EEF2C0F20934B
:1013F000BB030E94618E40910102609150028D2FCB
:101400000E94897D2DEF2C0F2093BB030E94618EDB
:1014100040910102609150028D2F0E94897D21E050
:101420002C0F2093BB030E94618E409101026091BA
:1014300050028D2F0E94897DCE5FC093BB030E9416
:10144000618E8091010281508093010245E050E05D
:1014500060E070E08FEA97E00E9424A28091010290
:10146000882309F45CCFDF91CF911F910895412F1C
:1014700060E38D2F0E94897DC093BB030E94618E23
:1014800040910102609150028D2F0E94897D29EECA
:101490002C0F2093BB030E94618E4091010260914A
:1014A00050028D2F0E94897D28EE2C0F2093BB03C4
:1014B0000E94618E40910102609150028D2F0E9426
:1014C000897D27EE2C0F2093BB030E94618E4091F3
:1014D0000102609150028D2F0E94897DCF5FADCFB8
:1014E000412F8D2F0E94897DA8CF80919C038C3144
:1014F00009F4EDC18E3109F07FC3E0915003EF3064
:1015000008F010C4F0E08827E757F54F8F4F0C9490
:101510008DB1980ABC0AE80A040B330B4F0B6B0B16
:10152000870BA30BBF0BDB0BF70B130C2F0C4B0C18
:101530008EE00E948F630E9499928FE00E948F63D9
:101540000E949992809150038F5F80935003809105
:101550004F0381110AC08DE00E948F630E947B922D
:1015600080E10E948F630E947B9281E080934F0311
:101570000E94EB950C943A828DE00E948F630E944A
:10158000999280E10E948F630E94999280914F030B
:10159000882371F08EE00E948F630E947B928FE01F
:1015A0000E948F630E947B92809150038F5F0DC0D9
:1015B0008CE00E948F630E947B9281E10E948F6386
:1015C0000E947B9280915003815080935003D0CF32
:1015D0008CE00E948F630E94999281E10E948F6348
:1015E0000E94999280914F03882339F08DE00E94E8
:1015F0008F630E947B9280E1D3CF8BE00E948F6348
:101600000E947B9282E1DACF8BE00E948F630E947E
:10161000999282E10E948F630E94999280914F0378
:10162000882371F08CE00E948F630E947B9281E19D
:101630000E948F630E947B92809150038F5F0DC048
:101640008AE00E948F630E947B9283E10E948F63F5
:101650000E947B92809150038150809350030E949E
:10166000EB950C94C07D8AE00E948F630E94999252
:1016700083E10E948F630E94999280914F03882397
:1016800039F08BE00E948F630E947B9282E1D0CF81
:1016900089E00E948F630E947B9284E1D7CF89E02A
:1016A0000E948F630E94999284E10E948F630E943E
:1016B000999280914F03882339F08AE00E948F63CA
:1016C0000E947B9283E16CCF88E00E948F630E942E
:1016D0007B9285E173CF88E00E948F630E9499928C
:1016E00085E10E948F630E94999280914F03882325
:1016F00039F089E00E948F630E947B9284E150CF91
:1017000087E00E948F630E947B9286E157CF87E03B
:101710000E948F630E94999286E10E948F630E94CB
:10172000999280914F03882339F088E00E948F635B
:101730000E947B9285E17CCF86E00E948F630E94AD
:101740007B9287E183CF86E00E948F630E9499920B
:1017500087E10E948F630E94999280914F038823B2
:1017600039F087E00E948F630E947B9286E160CF10
:1017700085E00E948F630E947B9288E167CF85E0BD
:101780000E948F630E94999288E10E948F630E9459
:10179000999280914F03882339F086E00E948F63ED
:1017A0000E947B9287E1FCCE84E00E948F630E94BE
:1017B0007B9289E103CF84E00E948F630E9499921B
:1017C00089E10E948F630E94999280914F03882340
:1017D00039F085E00E948F630E947B9288E1E0CE21
:1017E00083E00E948F630E947B928AE1E7CE83E0D0
:1017F0000E948F630E9499928AE10E948F630E94E7
:10180000999280914F03882339F084E00E948F637E
:101810000E947B9289E10CCF82E00E948F630E943C
:101820007B928BE113CF82E00E948F630E9499929A
:101830008BE10E948F630E94999280914F038823CD
:1018400039F083E00E948F630E947B928AE1F0CEA0
:1018500081E00E948F630E947B928CE1F7CE81E051
:101860000E948F630E9499928CE10E948F630E9474
:10187000999280914F03882339F082E00E948F6310
:101880000E947B928BE18CCE80E00E948F630E944D
:101890007B928DE193CE80E00E948F630E949992AB
:1018A0008DE10E948F630E94999281E00E948F6374
:1018B0000E947B928CE10E948F630E947B928091B8
:1018C000500381508093500310924F0351CEE0910A
:1018D0005003EE3008F026C2F0E08827ED58F34FB1
:1018E0008F4F0C948DB1810C9B0CB70CD30CEF0C6B
:1018F0000B0D270D430D5F0D7B0D970DB30DCF0D18
:10190000EB0D8DE00E948F630E9499928EE00E9401
:101910008F630E949992809150038F5F8093500350
:1019200080914F03811121CE8CE00E948F630E9431
:101930007B928FE016CE8CE00E948F630E9499927A
:101940008FE00E948F630E94999280914F038823B9
:1019500039F08DE00E948F630E947B928EE020CE52
:101960008BE00E948F630E947B9280E127CE8BE008
:101970000E948F630E94999280E10E948F630E946F
:10198000999280914F03882339F08CE00E948F63F5
:101990000E947B928FE04CCE8AE00E948F630E946F
:1019A0007B9281E153CE8AE00E948F630E949992DC
:1019B00081E10E948F630E94999280914F03882356
:1019C00039F08BE00E948F630E947B9280E130CEE1
:1019D00089E00E948F630E947B9282E137CE89E08A
:1019E0000E948F630E94999282E10E948F630E94FD
:1019F000999280914F03882339F08AE00E948F6387
:101A00000E947B9281E1CCCD88E00E948F630E948E
:101A10007B9283E1D3CD88E00E948F630E949992EC
:101A200083E10E948F630E94999280914F038823E3
:101A300039F089E00E948F630E947B9282E1B0CDF1
:101A400087E00E948F630E947B9284E1B7CD87E09C
:101A50000E948F630E94999284E10E948F630E948A
:101A6000999280914F03882339F088E00E948F6318
:101A70000E947B9283E1DCCD86E00E948F630E940E
:101A80007B9285E1E3CD86E00E948F630E9499926C
:101A900085E10E948F630E94999280914F03882371
:101AA00039F087E00E948F630E947B9284E1C0CD71
:101AB00085E00E948F630E947B9286E1C7CD85E01E
:101AC0000E948F630E94999286E10E948F630E9418
:101AD000999280914F03882339F086E00E948F63AA
:101AE0000E947B9285E15CCD84E00E948F630E941E
:101AF0007B9287E163CD84E00E948F630E9499927C
:101B000087E10E948F630E94999280914F038823FE
:101B100039F085E00E948F630E947B9286E140CD80
:101B200083E00E948F630E947B9288E147CD83E02F
:101B30000E948F630E94999288E10E948F630E94A5
:101B4000999280914F03882339F084E00E948F633B
:101B50000E947B9287E16CCD82E00E948F630E949D
:101B60007B9289E173CD82E00E948F630E949992FB
:101B700089E10E948F630E94999280914F0388238C
:101B800039F083E00E948F630E947B9288E150CD00
:101B900081E00E948F630E947B928AE157CD81E0B1
:101BA0000E948F630E9499928AE10E948F630E9433
:101BB000999280914F03882339F082E00E948F63CD
:101BC0000E947B9289E1ECCC80E00E948F630E94AE
:101BD0007B928BE1F3CC80E00E948F630E9499920C
:101BE0008BE10E948F630E94999281E00E948F6333
:101BF0000E947B928AE15FCE80915203833009F488
:101C000054C028F4813049F0823059F1089584306D
:101C100041F1853009F466C0089580E00E948F6329
:101C200060E00E945D9481E00E948F6361E00E9409
:101C30005D9482E00E948F6361E00E945D9483E086
:101C40000E948F6361E00E945D9484E00E948F6334
:101C500060E00E945D94809152038F5F80935203F5
:101C600089CC80E00E948F6361E00E945D9481E0F6
:101C70000E948F6360E00E945D9482E00E948F6307
:101C800061E00E945D9483E00E948F6360E00E94A7
:101C90005D9484E00E948F6361E00E945D94809176
:101CA00052038F5F80935203DCCC80E00E948F63ED
:101CB00061E00E945D9481E00E948F6361E00E9478
:101CC0005D9482E00E948F6360E00E945D9483E0F7
:101CD0000E948F6361E00E945D9484E00E948F63A4
:101CE00061E0B7CF80E00E948F6360E00E945D9466
:101CF00081E00E948F6361E00E945D9482E00E9417
:101D00008F6361E00E945D9483E00E948F6361E0D5
:101D10000E945D9484E00E948F6360E00E945D9465
:101D200081E09CCF0895EF920F931F930E943F8014
:101D300082E090E090939B0380939A0387E090E089
:101D4000909399038093980380917003811141C00F
:101D500040E456E060E070E08DEC97E00E9424A241
:101D600040E951E060E070E083EC97E00E9424A23B
:101D700040E951E060E070E08DE297E00E9424A22B
:101D800080915102882331F089EB0E94002988EB71
:101D90000E940029E12C10E000E020E040917B0649
:101DA00060E083E490E00E94E56F20E040917B06D4
:101DB00060E08FE390E00E94E56F20E040917B06B9
:101DC00060E084E490E00E94E56F1F910F91EF9036
:101DD00008951F910F91EF900C94F66EEF920F9370
:101DE0001F939091740A882309F456C0913009F426
:101DF0008EC08091750A81118AC081E08093750A36
:101E000010920D0710920E072091980330919903BC
:101E1000232B09F07CC020919A0330919B03232B44
:101E200009F075C0923009F072C090914409809118
:101E30003F0998136CC09091FF088091FA0898139D
:101E400066C080915102882331F08CEB0E940029FA
:101E50008BEB0E9400298BEF90E00E94EA6E8CEFE2
:101E600090E00E94EA6EEE24E39410E000E020E0AF
:101E700040917B0660E08CEF90E00E94E56F8091DE
:101E80009C038D7F8C3119F480E00E9406631F91C2
:101E90000F91EF900C94F469913021F08091750AC4
:101EA0008130A9F51092750A923089F59091440914
:101EB00080913F09981324C09091FF088091FA08FF
:101EC00098131EC080915102882331F08AEB0E9442
:101ED00000298DEB0E9400298BEF90E00E94EA6EB2
:101EE0008CEF90E00E94EA6EEE24E39410E000E0B4
:101EF00020E040917B0660E08BEF90E00E94E56F70
:101F00000E94576A1F910F91EF900C94E47D1F91EE
:101F10000F91EF900895CF93C0E0609150028091AF
:101F20004F02C81750F44FEF8EE10E94897DC09395
:101F3000BB030E94618ECF5FF0CF603359F44FEF47
:101F40008EE10E94897D20914F022093BB03CF91A7
:101F50000C94618E623399F3CF910895809161035F
:101F6000909162038130910529F10297D1F481E0CB
:101F700090E0909354028093530280915D0390917E
:101F80005E0381309105D9F0029721F08091740AA7
:101F90008230A9F481E090E090936E0380936D030A
:101FA00012C08091740A823011F30E94A46A825098
:101FB0008230E8F61092540210925302DECF109253
:101FC0006E0310926D030C945F63EF920F931F9357
:101FD000EE24E39410E000E020E040917B0660E016
:101FE00084E490E00E94E56F10926B0310926A0304
:101FF0000E94576A80919D0381111092750A85E0B5
:102000008093570210929903109298030E94E47DE6
:102010000E94957D0E94C07D0E94AE0F0E941629ED
:102020006091790A70E089E00E94B4288FEA0E94EA
:10203000002980EB1F910F91EF900C9400291F93C2
:10204000CF93DF9380915002803349F0823339F08F
:10205000C0914F02C150823019F4C0E001C0C4E207
:102060008091400390917003911105C0909171038C
:10207000992309F4EAC090914103911107C0853674
:1020800038F0DF91CF911F910C9492088C34C8F7EF
:102090008FEA97E00E94F4A1882341F090914103D8
:1020A00080914003911106C0853630F0DF91CF91C9
:1020B0001F9108958C34D0F70E94E36A853041F473
:1020C0008091770A811104C080914903DEE081117B
:1020D000DCE060915002603309F464C0623361F067
:1020E000623009F099C04091400362E08D2F0E9458
:1020F000897DC093BB0385C04091400362E38D2F6F
:102100000E94897DC093BB030E94618E4091400371
:10211000609150028D2F0E94897D2FEF2C0F20930C
:10212000BB030E94618E40914003609150028D2F4D
:102130000E94897D2EEF2C0F2093BB030E94618E9D
:1021400040914003609150028D2F0E94897D2DEFB8
:102150002C0F2093BB030E94618E4091400360913D
:1021600050028D2F0E94897D21E02C0F2093BB030C
:102170000E94618E40914003609150028D2F0E9419
:10218000897DCE5FC093BB030E94618E8091400326
:1021900090914103911146C0803509F046C00E94DC
:1021A0003A8243C04091400360E38D2F0E94897DB5
:1021B000C093BB030E94618E409140036091500226
:1021C0008D2F0E94897D29EE2C0F2093BB030E9446
:1021D000618E40914003609150028D2F0E94897D55
:1021E00028EE2C0F2093BB030E94618E4091400388
:1021F000609150028D2F0E94897D27EE2C0F209335
:10220000BB030E94618E40914003609150028D2F6C
:102210000E94897DCF5FB6CF409140038D2F0E94F1
:10222000897DB0CF8C3309F4BACF809140038B5FA6
:102230008093400345E050E060E070E08FEA97E073
:10224000DF91CF911F910C9424A2853608F019CF0D
:102250008FEA97E00E94F4A1882309F427CF109118
:102260004003153608F022CFE091770AE150D1E023
:10227000E730B0F4F0E08827EF5BFE4E8F4F0C9410
:102280008DB16A1148114F11621164116611681104
:102290000E94E36AD4E0833019F0DFE001C0DDE0A2
:1022A00060915002603309F464C06233A9F0623077
:1022B00009F098C0412F62E08D2F0E94897DC09364
:1022C000BB0385C0DDE1ECCFDAE1EACFD9E1E8CFAD
:1022D000DEE1E6CFD6E1E4CF412F62E38D2F0E940D
:1022E000897DC093BB030E94618E40914003609141
:1022F00050028D2F0E94897D2FEF2C0F2093BB035E
:102300000E94618E40914003609150028D2F0E9487
:10231000897D2EEF2C0F2093BB030E94618E40918C
:102320004003609150028D2F0E94897D2DEF2C0F6C
:102330002093BB030E94618E409140036091500244
:102340008D2F0E94897D21E02C0F2093BB030E94DA
:10235000618E40914003609150028D2F0E94897DD3
:10236000CE5FC093BB030E94618E809140038F5F5C
:102370005FCF412F60E38D2F0E94897DC093BB0307
:102380000E94618E40914003609150028D2F0E9407
:10239000897D29EE2C0F2093BB030E94618E409112
:1023A0004003609150028D2F0E94897D28EE2C0FF2
:1023B0002093BB030E94618E4091400360915002C4
:1023C0008D2F0E94897D27EE2C0F2093BB030E9446
:1023D000618E40914003609150028D2F0E94897D53
:1023E000CF5FBFCF412F8D2F0E94897DBACFCF9273
:1023F000DF92EF92FF920F931F93CF93DF936B01C6
:102400007C0180915002803309F46CC1823309F061
:1024100034C387E897E00E94F4A1882309F424C319
:1024200080916903882359F190914F02981738F1F0
:10243000C09150028091770A8730D0F5833008F040
:1024400079C0813009F472C0823009F465C080918E
:1024500068038823A9F10E94EB6A4FEF6C2F882351
:1024600069F18EE00E94897DE0916903E150FF0BE4
:10247000EE5FF64FE491E093BB030E94618EE09122
:10248000690380914F02E81359C01092690380914B
:10249000770A833009F4E8C280917A0A823009F41D
:1024A00000C208F0F7C1813009F410C289E0FAC116
:1024B000873069F64FEF6C2F8EE1D4CF81E0D2CF19
:1024C0000E94E36A90917A0A833089F49230E1F0B5
:1024D00030F4913089F04FEF6C2F85E0C3CF93300B
:1024E000B9F09430C1F74FEF6C2F87E0BBCF92303B
:1024F000D1F330F4913079F34FEF6C2F8AE0B2CF03
:10250000933031F09430C1F74FEF6C2F89E0AACFB0
:102510004FEF6C2F88E0A6CF0E94E36A4FEF6C2F3D
:10252000833011F484E09ECF80E19CCF4FEF6C2F7D
:1025300086E198CF4FEF6C2F80E094CFE81708F03A
:1025400093C2F0E0EE5FF64FE491E093BB03C70166
:10255000B6010E94618E8091770A20914F028823F4
:1025600009F457C0833009F094C0E0916903F0E0AA
:1025700031962E171F0651F04CF0EE5FF64FE491A6
:10258000E093BB03C701B6010E94618EE09169032D
:10259000F0E0329680914F028E171F0651F04CF0FA
:1025A000EE5FF64FE491E093BB03C701B6010E94D2
:1025B000618EE0916903F0E0339680914F028E17AF
:1025C0001F0651F04CF0EE5FF64FE491E093BB0331
:1025D000C701B6010E94618E9091770A923009F48A
:1025E00014C280917A0A933009F4DDC1911115C2A9
:1025F00047E050E060E070E0823009F4F4C108F098
:10260000FBC148E050E060E070E0813009F4EBC1CC
:10261000DFC18BEA289F212D1124269530E050E060
:1026200040E060E070E0CB010E94DB9A80917A0A82
:10263000823059F110F5813051F1665F10916903D4
:102640001F5FC62FD0E0E12FF0E0809169038C0F6F
:102650009D2F911DE817F9070CF0BECF80914F0216
:10266000181748F4EE5FF64FE491E093BB03C701FF
:10267000B6010E94618E1F5FE6CF833021F0843067
:10268000E1F6685FDBCF6A5FD9CF6D5FD7CF6E5F52
:10269000D5CF2695269530E050E040E060E070E030
:1026A000CB010E94DB9AC0916903CF5F062F10E037
:1026B000EC2FF0E080916903800F912F911DE817B6
:1026C000F9070CF089CF80914F02C81748F4EE5FEC
:1026D000F64FE491E093BB03C701B6010E94618EFF
:1026E000CF5FE6CF87E897E00E94F4A1882309F442
:1026F000BBC180916903882369F190914F029817BB
:1027000048F18091770A873008F074C0833008F070
:10271000BCC0813009F4B4C0823009F4A6C08091F5
:102720006803882309F470C00E94EB6A4FEF609140
:102730005002882309F466C08EE00E94897DE091F2
:102740006903E150FF0BEE52F74FE491E093BB03B6
:102750000E94618EE091690380914F02E81709F4AD
:1027600094CEE81708F080C1F0E0EE52F74FE49104
:10277000E093BB03C701B6010E94618E8091770A86
:1027800020914F02882309F4A5C0833009F0E2C0EC
:10279000E0916903F0E031962E171F0651F04CF0DE
:1027A000EE52F74FE491E093BB03C701B6010E94DC
:1027B000618EE0916903F0E0329680914F028E17AE
:1027C0001F0651F04CF0EE52F74FE491E093BB033B
:1027D000C701B6010E94618EE0916903F0E0339673
:1027E00080914F028E171F0609F00CF4F5CEEE52C1
:1027F000F74FEBCE873009F092CF4FEF6091500248
:102800008EE19BCF81E099CF0E94E36A90917A0A92
:10281000833099F49230F9F038F4913099F04FEF19
:102820006091500285E089CF9330D1F09430B9F7B0
:102830004FEF6091500287E080CF9230C9F338F4B7
:10284000913069F34FEF609150028AE076CF933078
:1028500039F09430B9F74FEF6091500289E06DCFB5
:102860004FEF6091500288E068CF0E94E36A4FEF1B
:1028700060915002833011F484E05FCF80E15DCF3E
:102880004FEF6091500286E158CF4FEF60915002B8
:1028900080E053CF8330E1F0843009F007CE88E048
:1028A00001C086E04AE050E0481B5109052E000CAB
:1028B000660B770B87E897E0DF91CF911F910F911F
:1028C000FF90EF90DF90CF900C9424A285E0EACFA8
:1028D00087E0E8CF8BEA289F212D1124269530E050
:1028E00050E040E060E070E0CB010E94DB9A809114
:1028F0007A0A823059F110F5813051F1665F1091FA
:1029000069031F5FC62FD0E0E12FF0E080916903DB
:102910008C0F9D2F911DE817F9070CF05DCE80916B
:102920004F02181748F4EE52F74FE491E093BB03BF
:10293000C701B6010E94618E1F5FE6CF833021F090
:102940008430E1F6685FDBCF6A5FD9CF6D5FD7CFA8
:102950006E5FD5CF2695269530E050E040E060E0F0
:1029600070E0CB010E94DB9AC0916903CF5F062F14
:1029700010E0EC2FF0E080916903800F912F911D02
:10298000E817F9070CF028CE80914F02C81748F4D9
:10299000EE52F74FE491E093BB03C701B6010E94EA
:1029A000618ECF5FE6CF8230C1F050F4813071F09C
:1029B00087E080935B0242E050E060E070E013C08B
:1029C0008330B1F08430A1F786E013C090935B02AE
:1029D00044E050E060E070E006C090935B0243E0AA
:1029E00050E060E070E087E897E00E9424A237C0E2
:1029F00084E080935B02F3CF8330A1F0843041F711
:102A000045E050E060E070E0EECF80919803909157
:102A10009903039789F480917A0A823089F338F414
:102A2000813049F646E050E060E070E0DCCF833072
:102A300079F28430A1F2BFCF41E050E060E070E075
:102A400087E897E00E9424A28091690390E00496B1
:102A500020914F022817190611F40E943A828091A2
:102A600069038F5F80936903DF91CF911F910F916D
:102A7000FF90EF90DF90CF90089587E897E00E9455
:102A8000F4A1882389F380916903882341F190910F
:102A90004F02981720F18091770A873008F043C0E1
:102AA000833008F08AC0813009F482C0823009F492
:102AB00074C080916803882309F43EC00E94EB6AC9
:102AC0004FEF609150028823A9F18EE00E94897D2A
:102AD0002091690321502093BB030E94618E809155
:102AE000690390914F0289137CC010926903809111
:102AF000770A833009F4B8CF80917A0A45E550E02F
:102B000060E070E0823009F4D5CE08F05BC044E6A6
:102B100050E060E070E0813009F4CCCE48E250E053
:102B200060E070E0C7CE873021F64FEF6091500231
:102B30008EE1CCCF81E0CACF0E94E36A90917A0AFD
:102B40008330C1F4923021F138F49130C1F04FEF6D
:102B50006091500285E0BACF933039F09430B9F7E4
:102B60004FEF6091500287E0B1CF4FEF609150027C
:102B700088E0ACCF9230A1F338F4913041F34FEFBD
:102B8000609150028AE0A2CF933079F39430B9F784
:102B90004FEF6091500289E099CF0E94E36A4FEFB6
:102BA00060915002833011F484E090CF80E18ECFA9
:102BB0004FEF6091500286E189CF4FEF6091500254
:102BC00080E084CF46E450E060E070E0833009F4B8
:102BD00071CE47E350E060E070E0843009F46ACEE3
:102BE0009DCF891708F040CF8093BB03C701B60182
:102BF0000E94618E80917A0A4CE150E060E070E0C2
:102C0000823009F4F0CE60F44EE150E060E070E014
:102C1000813009F4E8CE48E150E060E070E0E3CEB6
:102C20004AE150E060E070E0833009F4DCCE49E135
:102C300050E060E070E0843009F4D5CEECCF8091B4
:102C4000420381111BC080917A0A81502091530266
:102C50003091540280935203109250032130310579
:102C600009F052C080916D0390916E03019709F0B5
:102C700040C00E9448670E942C66109A8091770A93
:102C80008230F1F440E050E0BA0187E897E00E941A
:102C900024A20E94E36A4FEF60915002833009F052
:102CA00038C081E00E94897D0E94F71140E050E029
:102CB000BA0181E997E00E9424A28EE0809342034A
:102CC000E0914203EE3070F5F0E08827E559F94EC7
:102CD0008F4F0C948DB18B16B316C916EE161917BB
:102CE00057179017C417EE17181844185B186D186B
:102CF00076180E94856385E090E0909303028093AC
:102D000002020E94AE67B9CF0E94856383E090E023
:102D1000F4CF8FE0C7CF8091770A8130F1F0B8F01F
:102D20008330F1F0809142038F5F809342038E30B5
:102D300008F0DFC18091770A42E1811101C044E2CD
:102D400050E070E060E08DE797E00C9424A265E02D
:102D500070E080E00E943D07E5CF65E170E0F9CFCB
:102D60006DE070E0F6CF8091770A813079F028F03D
:102D70008330C1F66BE070E0ECCF67E070E080E09C
:102D80000E943D0765E070E081E0E4CF64E170E01F
:102D9000E0CF8091770A8130C9F050F0833011F68E
:102DA00069E070E080E00E943D076DE070E0ECCFEC
:102DB00061E070E080E00E943D0767E070E081E044
:102DC0000E943D0765E070E082E0C4CF63E170E0FF
:102DD00080E00E943D0765E170E0D6CF8091770AE0
:102DE0008130F9F058F0833009F09CCF67E070E053
:102DF00080E00E943D076BE070E0C6CF67E070E0C6
:102E000080E00E943D0761E070E081E00E943D07A4
:102E100067E070E082E00E943D0765E070E083E0DB
:102E200099CF66E170E080E00E943D0764E170E0C8
:102E3000ABCF8091770A813069F180F0833009F05F
:102E400071CF65E070E080E00E943D0769E070E0CE
:102E500081E00E943D076DE070E0B6CF65E070E074
:102E600080E00E943D0767E070E081E00E943D073E
:102E700061E070E082E00E943D0767E070E083E07F
:102E80000E943D0765E070E084E00E943D070E94DB
:102E90003A8248CF61E070E080E00E943D0763E144
:102EA00070E081E00E943D0765E170E08DCF809188
:102EB000770A813041F180F0833009F033CF70E040
:102EC00060E080E00E943D0767E070E081E00E94E2
:102ED0003D076BE070E078CF70E060E080E00E943A
:102EE0003D0765E070E081E00E943D0767E070E02B
:102EF00082E00E943D0761E070E083E00E943D07B0
:102F000067E070E0BFC070E060E080E00E943D07D5
:102F100066E170E081E00E943D0764E170E054CF1B
:102F20008091770A813019F180F0833009F0FACE70
:102F300065E070E081E00E943D0769E070E082E0BA
:102F40000E943D076DE070E06ACF70E060E081E0D4
:102F50000E943D0765E070E082E00E943D0767E067
:102F600070E083E00E943D0761E070E08BC061E0AB
:102F700070E081E00E943D0763E170E082E00E9422
:102F80003D0765E170E04BCF8091770A8130C9F051
:102F900080F0833009F0C6CE70E060E081E00E94EE
:102FA0003D0767E070E082E00E943D076BE070E063
:102FB00036CF70E060E082E00E943D0765E070E09F
:102FC0009CCF70E060E081E00E943D0766E170E028
:102FD00082E00E943D0764E170E021CF8091770A92
:102FE0008130C9F080F0833009F09CCE65E070E05C
:102FF00082E00E943D0769E070E083E00E943D07A7
:103000006DE070E041CF70E060E083E00E943D073A
:1030100065E070E037C061E070E082E00E943D074B
:1030200063E170E083E00E943D0765E170E02CCF32
:103030008091770A8130D1F080F0833009F072CE30
:1030400070E060E082E00E943D0767E070E083E0AE
:103050000E943D076BE070E015C070E060E084E026
:103060000E943D078EE0809342035CCE70E060E0FA
:1030700082E00E943D0766E170E083E00E943D0728
:1030800064E170E084E066CE8091770A813059F087
:10309000833009F047CE65E070E083E00E943D0791
:1030A00069E070E0EFCF61E070E083E00E943D07EF
:1030B00063E170E0E7CF8091770A813031F08330AF
:1030C00009F030CE70E060E018CF70E060E083E09F
:1030D0000E943D0766E170E0D5CF8091770A81308C
:1030E00009F442CF833009F493CF1CCE70E060E046
:1030F000C9CF0E94C07D109285071092860710925A
:1031000042030E94A46A8250823058F4809198034E
:1031100090919903039729F08091770A823009F002
:10312000109808958F929F92AF92BF92CF92DF92A4
:10313000EF92FF92CF93DF9380916D0390916E0396
:10314000892B09F04DC00E94750A80919C038D7FE8
:10315000C8E78C3109F4C8E290913508992309F445
:1031600042C78DE298E00E94AEA16B017C01E09124
:103170007A0AE150FF0BEE0FFF1FE05FF74F8081EF
:10318000918166E070E00E9465B1CB01B0E0A0E003
:10319000C816D906EA06FB0608F0EFC580919C0325
:1031A0008D7F8C3109F0E0C54C2F469546954695AC
:1031B00050E04E5F5F4F052E000C660B770B8CEFD7
:1031C00097E00E9424A286E0DF91CF91FF90EF90DC
:1031D000DF90CF90BF90AF909F908F900C94590844
:1031E00080919C038C3109F462C0D0E08E3109F4E7
:1031F0005FC080915203811116C080917A0A82309B
:1032000009F4EFC308F0D8C3813009F4F1C364E0D6
:1032100070E080E090E00E94C19A6E5F7F4F8F4F18
:103220009F4F60935203C0E08C2F0E948F630E94D7
:103230003494019729F4809152038C1708F0DDC370
:10324000CF5FC53089F781E090917A0A923009F416
:10325000DDC408F0D4C3913009F42DC5882309F4E6
:1032600005C4C5E080915203C81708F4DEC08C1372
:1032700012C0809106028350833008F0ECC365E0F1
:1032800070E080E090E00E94C19A6F5F7F4F8F4FA7
:103290009F4F60935203C1508C2F0E948F630E94F6
:1032A0003494892BF9F68C2F0E94B263BEC0D2E011
:1032B000CEE18C2E912C8D1A9108809150038111B2
:1032C00014C080917A0A8230D9F100F5813069F01A
:1032D0009401092C000C440B550B62E170E080E076
:1032E00090E00E94DB9A60935003C0E0C815190477
:1032F00094F58C2F0E948F630E94B692811104C0B6
:1033000090915003C91740F1CF5FF0CF833069F03F
:103310008430F1F66CE070E080E090E00E94C19AA9
:10332000635F7F4F8F4F9F4FDECF6AE070E080E09A
:1033300090E00E94C19A675F7F4F8F4F9F4FD3CF1E
:103340006AE070E080E090E00E94C19A6D5F7F4F7C
:103350008F4F9F4FC8CF81E090917A0A923009F445
:103360003CC220F5913009F4C2C2882309F47BC025
:103370008DE1F82EFD1A092C000CAA08BB088091DB
:103380005003F81608F44FC08F1141C08091060217
:10339000833009F458C068F5823009F45BC0A50198
:1033A000940162E170E080E090E02DC0933009F478
:1033B00054C19430D1F6882309F4F0C0C9E180915A
:1033C0005003C81780F18C13B2C08091060283307D
:1033D00009F4C1C008F09AC0813009F4D2C082302B
:1033E00009F4C4C069E170E080E090E00E94C19AF5
:1033F0009CC0843009F1853091F6A501940166E006
:1034000070E080E090E00E94DB9A609350038F2D83
:103410000E948F630E94B692882319F18F2D0E941B
:103420008F630E947B920E94EB958091690380FDDF
:1034300098C40E943A8289CEA501940169E070E0A7
:1034400080E090E0E0CFA50194016CE070E080E0C6
:1034500090E0D9CFA50194016FE070E080E090E0AA
:10346000D2CFFA948CCFC0E0092C000CAA08BB087C
:10347000809150038C17B8F28C131DC08091060206
:10348000833069F150F48130C1F1823079F1A501C6
:10349000940160E070E0CB010AC08430C9F085304F
:1034A000B1F7A501940168E070E080E090E00E942F
:1034B000DB9A609350038C2F0E948F630E94B69218
:1034C000811122C08C2F0E948F630E949992ABCFF2
:1034D000A50194016CE070E080E090E0E8CFA501E8
:1034E00094016EE070E080E090E0E1CFA5019401EE
:1034F00060E170E080E090E0DACFA501940162E144
:1035000070E080E090E0D3CFCF5FB2CF8430C1F0E5
:10351000853009F067CF68E170E080E090E00E94BC
:10352000C19A6F5F7F4F8F4F9F4F609350038C2FD7
:103530000E948F630E94B692882371F18C2F6FCF07
:1035400065E170E080E090E00E94C19A6C5F7F4F7F
:103550008F4F9F4FEACF62E170E080E090E00E94E1
:10356000C19A695F7F4F8F4F9F4FDFCF6FE070E051
:1035700080E090E00E94C19A665F7F4F8F4F9F4F1F
:10358000D4CF6CE070E080E090E00E94C19A635F6D
:103590007F4F8F4F9F4FC9CFC15011CFC0E0809157
:1035A00050038C1708F43FCF8C1321C08091060282
:1035B000833091F160F4813009F444C08230B9F174
:1035C00069E170E080E090E00E94C19A0EC0843012
:1035D000C1F08530A9F768E170E080E090E00E94DA
:1035E000C19A6F5F7F4F8F4F9F4F609350038C2F17
:1035F0000E948F630E94B692882309F463CFCF5F45
:10360000CECF65E170E080E090E00E94C19A6C5FEF
:103610007F4F8F4F9F4FE9CF62E170E080E090E0F5
:103620000E94C19A695F7F4F8F4F9F4FDECF6FE03F
:1036300070E080E090E00E94C19A665F7F4F8F4FFC
:103640009F4FD3CF6CE070E080E090E00E94C19A81
:10365000635F7F4F8F4F9F4FC8CF882309F45EC0B1
:10366000C3E180915003C81708F4DDCE8C1321C04C
:1036700080910602833089F160F4813009F443C0FF
:103680008230B1F163E170E080E090E00E94C19A85
:103690000EC08430B9F08530A9F762E170E080E0B7
:1036A00090E00E94C19A6F5F7F4F8F4F9F4F609352
:1036B00050038C2F0E948F630E94B69281113ECFDF
:1036C000C150CFCF60E170E080E090E00E94C19AED
:1036D0006D5F7F4F8F4F9F4FEACF6EE070E080E0CD
:1036E00090E00E94C19A6B5F7F4F8F4F9F4FDFCF5B
:1036F0006CE070E080E090E00E94C19A695F7F4FCB
:103700008F4F9F4FD4CF6AE070E080E090E00E943E
:10371000C19A675F7F4F8F4F9F4FC9CFC0E08091A5
:1037200050038C1708F47FCE8C1321C080910602C1
:10373000833091F160F4813009F444C08230B9F1F2
:1037400063E170E080E090E00E94C19A0EC0843096
:10375000C1F08530A9F762E170E080E090E00E945E
:10376000C19A6F5F7F4F8F4F9F4F609350038C2F95
:103770000E948F630E94B692882309F4A3CECF5F84
:10378000CECF60E170E080E090E00E94C19A6D5F72
:103790007F4F8F4F9F4FE9CF6EE070E080E090E069
:1037A0000E94C19A6B5F7F4F8F4F9F4FDECF6CE0BF
:1037B00070E080E090E00E94C19A695F7F4F8F4F78
:1037C0009F4FD3CF6AE070E080E090E00E94C19A02
:1037D000675F7F4F8F4F9F4FC8CF882309F443C047
:1037E000CDE080915003C81708F41DCE8C131CC087
:1037F00080910602843009F148F4813048F56DE08B
:1038000070E080E090E00E94C19A0CC08530B9F76A
:103810006CE070E080E090E00E94C19A6F5F7F4FA3
:103820008F4F9F4F609350038C2F0E948F630E9495
:10383000B692811183CEC150D4CF6BE070E080E0AE
:1038400090E00E94C19A6E5F7F4F8F4F9F4FEACFEB
:103850006AE070E080E090E00E94C19A6D5F7F4F67
:103860008F4F9F4FDFCFC0E0809150038C1708F43B
:10387000DACD8C131CC080910602843011F148F41B
:10388000813050F56DE070E080E090E00E94C19AD8
:103890000CC08530B9F76CE070E080E090E00E94E9
:1038A000C19A6F5F7F4F8F4F9F4F609350038C2F54
:1038B0000E948F630E94B692882309F403CECF5FE3
:1038C000D3CF6BE070E080E090E00E94C19A6E5F21
:1038D0007F4F8F4F9F4FE9CF6AE070E080E090E02C
:1038E0000E94C19A6D5F7F4F8F4F9F4FDECF88231D
:1038F00089F1C7E080915003C81708F494CD8C1368
:1039000016C0809106028430D9F038F48130E8F492
:1039100067E070E080E090E006C08530C9F76AE0BB
:1039200070E080E090E00E94C19A609350038C2F79
:103930000E948F630E94B692811100CEC150DACFEF
:1039400069E070E080E090E0EECF68E070E080E059
:1039500090E0E9CFC0E0809150038C1708F463CD6C
:103960008C1316C0809106028430E1F038F4813067
:10397000F0F467E070E080E090E006C08530C9F7C1
:103980006AE070E080E090E00E94C19A609350038A
:103990008C2F0E948F630E94B692882309F492CDE7
:1039A000CF5FD9CF69E070E080E090E0EDCF68E0D4
:1039B00070E080E090E0E8CF833041F0843009F09F
:1039C00026CC63E070E080E090E025CC63E070E01E
:1039D00080E090E00E94C19A6F5F7F4F8F4F9F4FB2
:1039E00020CC63E070E080E090E00E94C19A19CCA6
:1039F00062E070E080E090E0F8CF80E025CC93308A
:103A000009F4ABC0943009F029CC882309F46FC0C5
:103A1000C5E080915203C81708F407CD8C1312C07B
:103A2000809106028350833008F056C065E070E054
:103A300080E090E00E94C19A6F5F7F4F8F4F9F4F51
:103A400060935203C1508C2F0E948F630E94349464
:103A5000892BF9F628CC64E070E080E090E00E94C9
:103A6000C19A6E5F7F4F8F4F9F4F13CCC0E0809104
:103A700052038C1708F4D9CC8C130FC08091060226
:103A80008330A1F0F0F08630E0F466E070E080E092
:103A900090E00E94C19A609352038C2F0E948F6322
:103AA0000E943494CF5F019711F7FDCB65E070E081
:103AB00080E090E00E94C19A6F5F7F4F8F4F9F4FD1
:103AC000EACF64E070E080E090E00E94C19A6E5F0F
:103AD0007F4F8F4F9F4FDFCF64E070E080E090E03A
:103AE0000E94C19A6E5F7F4F8F4F9F4FA9CFC0E05A
:103AF000809152038C1708F498CC8C130FC08091DE
:103B000006028330A1F0F0F08630E0F466E070E069
:103B100080E090E00E94C19A609352038C2F0E9433
:103B20008F630E943494CF5F019711F7BCCB65E09F
:103B300070E080E090E00E94C19A6F5F7F4F8F4FEE
:103B40009F4FEACF64E070E080E090E00E94C19A6D
:103B50006E5F7F4F8F4F9F4FDFCF882339F1C5E0D6
:103B600080915203C81708F460CC8C1311C0809167
:103B7000060283508330A8F465E070E080E090E0B6
:103B80000E94C19A6F5F7F4F8F4F9F4F6093520388
:103B9000C1508C2F0E948F630E943494892B01F7AF
:103BA00082CB63E070E080E090E0EACFC0E08091FB
:103BB00052038C1708F439CC8C130FC08091060285
:103BC0008330A1F0F0F08630E0F466E070E080E051
:103BD00090E00E94C19A609352038C2F0E948F63E1
:103BE0000E943494CF5F019711F75DCB65E070E0E0
:103BF00080E090E00E94C19A6F5F7F4F8F4F9F4F90
:103C0000EACF63E070E080E090E0F4CF882319F120
:103C1000C5E080915203C81708F407CC8C130DC07F
:103C2000809106028250843088F466E070E080E083
:103C300090E00E94C19A60935203C1508C2F0E9461
:103C40008F630E943494892B21F72DCB63E070E0C1
:103C500080E090E0EECFC0E0809152038C1708F432
:103C6000E4CB8C131AC080910602833051F0F0F03F
:103C70008630E0F466E070E080E090E00E94C19A57
:103C80000AC065E070E080E090E00E94C19A6F5F3A
:103C90007F4F8F4F9F4F609352038C2F0E948F63F3
:103CA0000E943494CF5F0197B9F6FDCA63E070E0DB
:103CB00080E090E0E3CF882351F1C5E0809152038A
:103CC000C81708F4B2CB8C130FC080910602833062
:103CD000A1F0C0F08630B0F466E070E080E090E0E3
:103CE0000E94C19A60935203C1508C2F0E948F632F
:103CF0000E943494892B11F7D6CA65E070E080E009
:103D000090E0EECF63E070E080E090E0E9CFC0E0CB
:103D1000809152038C1708F488CB8C130FC08091CC
:103D200006028330A1F0C0F08630B0F466E070E0A7
:103D300080E090E00E94C19A609352038C2F0E9411
:103D40008F630E943494CF5F019711F7ACCA65E08E
:103D500070E080E090E0EECF63E070E080E090E023
:103D6000E9CF0E94C07DF1C98C2F65E00E944BB164
:103D7000482F50E070E060E022CA8DE298E00E9497
:103D8000AEA16B017C01E0917A0AE150FF0BEE0FCE
:103D9000FF1FE05FF74F8081918165E070E00E9436
:103DA00065B1CB01B0E0A0E0C816D906EA06FB0673
:103DB000E0F480919C038D7F4C2F8C3181F44695EB
:103DC0004695469550E04C5F5F4F052E000C660B04
:103DD000770B8CEF97E00E9424A285E0F5C9469509
:103DE000469550E070E060E0F4CF8DE298E00E94EC
:103DF000AEA1E0917A0AE150FF0BEE0FFF1FE05FEA
:103E0000F74F2081318136952795369527956901A1
:103E1000F12CE12C6C157D058E059F05F0F4809149
:103E20009C038D7F8C3181F44C2F4695469550E054
:103E30004F5F5F4F052E000C660B770B8CEF97E002
:103E40000E9424A284E0C0C98C2F63E00E9457B175
:103E5000482F50E070E060E0F1CF8DE298E00E94E2
:103E6000AEA16B017C01E0917A0AE150FF0BEE0FED
:103E7000FF1FE05FF74F8081918163E070E00E9457
:103E800065B1CB01B0E0A0E0C816D906EA06FB0692
:103E9000C8F480919C038D7F4C2F8C3179F446952A
:103EA000469550E04D5F5F4F052E000C660B770B7B
:103EB0008CEF97E00E9424A283E086C946954A5081
:103EC000550BF2CF8DE298E00E94AEA1A0917A0A44
:103ED0002A2F2150330BF901EE0FFF1FE05FF74F40
:103EE00040815181569547956A01F12CE12C209132
:103EF0009C036C157D058E059F05C8F4922F9D7F50
:103F00004C2F9C3179F44695469550E04B5F5F4FBE
:103F1000052E000C660B770B8CEF97E00E9424A215
:103F200082E052C9469550E070E060E0F5CF922FF4
:103F30009D7F9C3199F54C2F4695A23039F1D0F4F4
:103F4000A13041F14550550B052E000C660B770B47
:103F50008CEF97E00E9424A281E080930602DF911B
:103F6000CF91FF90EF90DF90CF90BF90AF909F9058
:103F70008F900895A33031F0A43021F750E070E025
:103F800060E0E6CF50E04B5F5F4FDECF50E0465F32
:103F90005F4FDACF50E0415F5F4FD6CF20916D0386
:103FA00030916E032130310529F4A23091F028F4CC
:103FB000A130A1F04C2F4695E1CFA33041F0A430C1
:103FC000C9F74C2F469550E0425E5F4FBDCF4C2F56
:103FD000D5CF4C2F50E0440F551FB6CF33E0C39FD1
:103FE000A0011124B1CF8C3161F54C2F4695809101
:103FF0007A0A8230F1F0B0F48130F9F04750550B75
:10400000052E000C660B770B8CEF97E0DF91CF91BC
:10401000FF90EF90DF90CF90BF90AF909F908F90E8
:104020000C9424A2833041F1843041F74350550B66
:10403000E7CF50E0495F5F4FE3CF50E0445F5F4F11
:10404000DFCF80916D0390916E03019739F48091D9
:104050007A0A8230A9F028F48130B9F04C2F4695C5
:104060000BC0833041F08430C9F74C2F469550E0A7
:10407000425E5F4FC5CF4C2F50E070E060E0C4CF90
:104080004C2F50E0440F551FBBCF83E0C89FA001C9
:104090001124B6CFCF92DF92EF92FF920F931F932E
:1040A000CF938091470381110E94686F80915303E1
:1040B000882339F180914E0381113DC081E08093C6
:1040C0004E0380917C0A8330B1F58091770A81118B
:1040D00032C085E10E9400290E94E36AEE24E39445
:1040E00010E000E020E040917B0661E0823009F0C2
:1040F0006EC189E891E00E94E56F809153038111C0
:104100001AC080914E038823B1F010924E03809123
:104110007C0A833081F48091770A81110CC086E19A
:104120000E9400290E94E36A823009F053C189E8A5
:1041300091E00E94EA6E80915103882309F440C007
:1041400080914D03811138C081E080934D038091AF
:104150007C0A833089F58091770A81112DC087E12F
:104160000E94002980917A0A8530D1F00E94E36A8A
:10417000833009F032C183E690E00E94EA6E0E942B
:10418000E36A40917B06EE24E39410E000E020E037
:1041900061E0823009F024C189E891E00E94E56F76
:1041A000EE24E39410E000E020E040917B0661E023
:1041B00088E490E00E94E56F80915103811138C03E
:1041C00080914D03882379F110924D0380917C0AF0
:1041D000833049F58091770A811125C088E10E94DA
:1041E000002988E490E00E94EA6E80917A0A853086
:1041F000D1F00E94E36A823009F0F5C089E891E0CD
:104200000E94EA6E0E94E36A40917B06EE24E394EA
:1042100010E000E020E061E0833009F0E7C083E6D1
:1042200090E00E94E56F80915103882309F45AC001
:1042300080915303882309F451C080913F03811179
:104240004DC080916803811149C081E0809368036B
:1042500080933F0380915B0390915C0381309105D3
:1042600009F4D1C0029709F0C8C08EE690E00E9420
:10427000EA6E8FE690E00E94EA6EE12C10E000E02A
:1042800020E040917B0660E08EE690E00E94E56FC2
:1042900080917C0A833009F0ACC08DE10E94002936
:1042A000809148028823B1F066E070E080E090E001
:1042B0000E94C19A9B01AC01265F3F4F4F4F5F4F59
:1042C000A8EEB3E00E94F7B0AB01BC0183E797E032
:1042D0000E9424A280915103882321F080915303EE
:1042E00081114DC080916803882309F448C08091F2
:1042F0007C0A833009F043C01092680310923F0398
:1043000080915B0390915C038130910509F4A0C01A
:10431000029709F097C08EE690E00E94EA6E8FE661
:1043200090E00E94EA6EE12C10E000E020E0409175
:104330007B0660E08FE690E00E94E56F8EE10E94D0
:104340000029809148028823D1F080919D03882321
:10435000B1F068E070E080E090E00E94C19A9B01BB
:10436000AC01295F3F4F4F4F5F4FA8EEB3E00E9473
:10437000F7B0AB01BC018FE597E00E9424A28091C9
:104380007C0A8D7F20913508813029F4809151037A
:10439000882309F478C080914702882309F473C008
:1043A00080917A0A8150990BFC01E35EF74F3081CE
:1043B000311170C0222309F47CC01092350810928C
:1043C00036080E94BA6A8DE00E94002972C082E617
:1043D00090E091CE82E690E0ACCE8EE791E0CDCE3B
:1043E00082E690E0DBCE82E690E00ACF8EE791E0B5
:1043F00018CF8CE153CF89E151CF0E94E36A8250FC
:10440000823008F032CF8091AC039091AD030397D6
:1044100041F48AE490E00E94EA6E89E490E00E9410
:10442000EA6EE12C10E000E020E040917B0660E0C5
:104430008AE490E00E94E56F80917C0A8330D9F68F
:104440008AE12CCF0E94E36A8250823008F063CF69
:104450008091AC039091AD03039741F48AE490E01E
:104460000E94EA6E89E490E00E94EA6EE12C10E07E
:1044700000E020E040917B0660E089E490E00E944B
:10448000E56F8BE15CCF2223A1F0109235081092EA
:10449000360899CF21110DC0880F991FFC01E05FEC
:1044A000F74F4081518170E060E08DE298E00E941A
:1044B00024A2E091770AE150E73008F01BC1F0E058
:1044C0008827EA59FD4D8F4F0C948DB1C223AD233F
:1044D000F6236D22B423B723BA23CDE18DE14FEF4C
:1044E000609150020E94897D6B017C0185EA97E012
:1044F0000E94F4A1882309F466C0E09169038091C9
:104500004F02E81708F05FC080915002803309F431
:1045100047C1823309F065C1F0E0EE5FF64FE491E8
:10452000E093BB03C701B6010E94618E80916903CD
:1045300090E0029620914F022817190689F084F026
:104540004FEF6091500280E00E94897DE091690305
:10455000F0E0EC5FF64FE491E093BB030E94618EC4
:1045600080915002803331F044E150E060E070E02F
:10457000823321F443E050E060E070E085EA97E0A8
:104580000E9424A2809169038F5F809369039091B8
:104590004F02891318C08091500210926903109243
:1045A000AD071092AE07803331F044E650E060E092
:1045B00070E0823321F444E050E060E070E087E88E
:1045C00097E00E9424A24FEF609150028C2F0E942E
:1045D000897D0E94F7118CEF97E00E94F4A1811170
:1045E0000E94921883E797E00E94F4A1882369F162
:1045F0008091770A811129C080916803811125C0BB
:1046000080914802882309F1E12C10E000E020E0CD
:1046100040917B0660E089E090E00E94E56F66E0F3
:1046200070E080E090E00E94C19A9B01AC01265F9F
:104630003F4F4F4F5F4FA8EEB3E00E94F7B0AB0182
:10464000BC0183E797E00E9424A28FE597E00E94D7
:10465000F4A1882309F42BC18091770A811127C125
:1046600080916803811123C180914802882309F455
:104670001EC180914403909145038637910509F44A
:10468000B7C08737910509F4B8C0C0E085379105F8
:1046900039F463E070E080E090E00E94C19AC62F98
:1046A00062E070E080E090E00E94C19A6E5F7F4F10
:1046B0008F4F9F4F28EE33E0629F6001639FD00CC5
:1046C000729FD00C1124C23009F4C0C0C33009F469
:1046D00099C0C13009F0CDC0E12C10E000E020E02D
:1046E00040917B0660E086E790E00E94E56F86E7F8
:1046F00090E0B9C080916803882341F00E94EB6A82
:10470000882309F442C0CBE08EE0E9CE0E94E36A40
:1047100090917A0A833099F4923071F030F4C3E1C9
:10472000913099F0C6E185E0DACE933089F194308A
:10473000C9F7C6E187E0D3CEC4E189E0D0CE92309C
:10474000C1F328F4913071F3C1E08AE0C8CE933010
:1047500011F19430C9F7C3E1F0CF0E94E36A8330CE
:10476000E1F4C1E084E0BBCECAE18AE1B8CEC9E1A0
:1047700089E1B5CE80915502C6E18E3F08F0C1E0D7
:104780008EE1ADCEC5E186E1AACECDE081E0A7CE37
:10479000C4E188E0A4CEC3E1FCCFCFE080E19FCEAE
:1047A000F0E0EE52F74FE491E093BB03C701B6018E
:1047B0000E94618E8091690390E0029620914F02E1
:1047C0002817190609F00CF4CBCE4FEF6091500278
:1047D00080E00E94897DE0916903F0E0EC52F74FA0
:1047E000BACEE093BB03C701B601B8CECDE0EBCEA5
:1047F00062E070E080E090E050CF61E070E080E047
:1048000090E04BCFE12C10E000E020E040917B06EF
:1048100060E084E790E00E94E56F84E790E0909389
:1048200045038093440385E08C9DA0018D9D500D30
:10483000112470E060E08FE597E0CF911F910F9118
:10484000FF90EF90DF90CF900C9424A2E12C10E029
:1048500000E020E040917B0660E087E790E00E9466
:10486000E56F87E790E09093450380934403A601AA
:10487000E0CFE12C10E000E020E040917B0660E01A
:1048800085E790E00E94E56F20E040917B0660E0C4
:1048900088E790E00E94E56F88E790E090934503F9
:1048A0008093440348E057E060E070E0C4CFCF91CC
:1048B0001F910F91FF90EF90DF90CF900895EF92AE
:1048C0000F931F93CF93DF93809198039091990357
:1048D000AC01445051093091890920918409433039
:1048E000510508F452C34091710341114EC3321770
:1048F00061F081E090E09093990380939803DF91B9
:10490000CF911F910F91EF90089580916C038330A8
:1049100008F4F9C081E0809370030E94930E8091A7
:10492000770A813009F4BFC0823009F4B9C00E940F
:10493000E36A833009F49BC0853009F4AEC082304D
:1049400009F0A0C080917A0A853009F485C08AE018
:1049500090E00E94EA6E87E490E00E94EA6E80E8B0
:1049600091E00E94EA6E89E490E00E94EA6E8AE497
:1049700090E00E94EA6E8FE690E00E94EA6E8EE67A
:1049800090E00E94EA6E0E94486A0E94E36AC8EBC7
:10499000DBE0853091F40E94EB6A882361F0EE241D
:1049A000E39410E000E020E040917B0660E08DEBB6
:1049B00091E00E94E56FC0E7D7E180917A0A8230EA
:1049C00009F47FC008F072C0813011F0C053D84F95
:1049D000AE0170E060E083E297E00E9424A2BE0195
:1049E00088E00E94B4280E94E36A853009F06CC018
:1049F000EE24E39404EC19E021E040917B0661E0B1
:104A000084E991E00E94E56F80914C02882309F4CB
:104A100076CF8091740A813009F071CF9091FF08B0
:104A20008091FA08981709F46ACF9091440980910F
:104A30003F09981364CF80914702882309F45FCF20
:104A40008091D309882309F494C2DF91CF911F91FB
:104A50000F91EF900C94A5A788E891E00E94EA6E70
:104A60008BE891E00E94EA6E8AE891E07ACF8BE0D1
:104A700090E00E94EA6E87E490E00E94EA6E8AE08D
:104A800090E06FCF81E891E00E94EA6E82E891E0C9
:104A90000E94EA6E83E891E064CF82E891E061CF02
:104AA00085E390E06ECF8BE390E06BCF833031F005
:104AB000843009F08BCFC452DA4F8ACFC851DC4F13
:104AC00087CFCC50DE4F84CF80915102882331F0C4
:104AD00087EB0E94002983EC0E940029EE24E394D6
:104AE00010E000E020E040917B0660E08EE591E080
:104AF0000E94E56F04EC19E021E040917B0661E043
:104B00008BE691E07FCF809143038823B1F085E568
:104B100097E00E94AEA1672B682B692B71F410926D
:104B200043030E94A46A8250823038F48091980333
:104B300090919903039709F0109880917E0A823032
:104B400079F19091FF088091FA08981329C090910B
:104B5000440980913F09981323C084EA99E00E9498
:104B60003AA0811106C080E998E00E943AA088230B
:104B7000B9F080915102882319F083ED0E94002939
:104B80008CE290E00E94EA6EEE24E39410E000E0F4
:104B900020E040917B0660E08CE290E00E94E56FAF
:104BA0009091CE098091C909981346C09091FF0851
:104BB0008091FA08981340C09091440980913F0970
:104BC00098133AC080917E0A8230B1F5C091770A7D
:104BD000C13009F498C0C33009F4B6C083E297E04D
:104BE0000E94AEA1672B682B692B51F410926C03C5
:104BF00048EE53E060E070E083E297E00E9424A278
:104C000080915303811105C080916C038F5F809365
:104C10006C0380916C03833078F4809198039091B9
:104C20009903039731F083E090E090939903809388
:104C3000980381E0809353032091BA089091B508BE
:104C400080917C0A8D7F813009F4A0C08091770A21
:104C5000882321F03CEF380F343040F44091980322
:104C6000509199034330510509F40FC12913CEC067
:104C70002091FF089091FA082913C8C02091440997
:104C800090913F092913C2C090917E0A923009F099
:104C9000BDC0813041F008F424C1823009F43CC128
:104CA000833009F0B3C083E297E00E94AEA1672B86
:104CB000682B692B51F410926C0348EE53E060E0CE
:104CC00070E083E297E00E9424A280916C039091AF
:104CD0005303911103C08F5F80936C0380916C0329
:104CE000833008F093C080919803909199030397C3
:104CF00031F083E090E0909399038093980381E0F2
:104D00008093530383C080913E03811195CF85E545
:104D100097E00E94AEA1672B682B692B09F08CCF1E
:104D20008091980390919903039709F485CF48E502
:104D300052E060E070E085E597E00E9424A20E94C6
:104D4000C5A3C0933E0378CF80913E03811174CFF9
:104D500085E597E00E94AEA1672B682B692B09F0CF
:104D60006BCF8091980390919903039709F464CFD6
:104D70004AEF50E060E070E085E597E00E9424A2F1
:104D80000E94C5A381E080933E0356CF29136CC0D7
:104D90009091FF088091FA08981338C090914409C7
:104DA00080913F09981332C080917E0A823071F55C
:104DB00083E297E00E94AEA1672B682B692B51F428
:104DC00010926C0348EE53E060E070E083E297E0FD
:104DD0000E9424A280915103811105C080916C032F
:104DE0008F5F80936C0380916C03833078F48091A3
:104DF000980390919903039731F083E090E09093AA
:104E000099038093980381E0809351039091CE0998
:104E10008091C909981348C09091BA088091B5084B
:104E2000981709F4F1CD80917C0A8111EDCD809124
:104E3000770A813041F008F499C0823009F496C0B5
:104E4000833009F0E1CD80916F03882309F4DCCD34
:104E500080915303882309F4D7CD109299031092BF
:104E6000980310925303D0CD8091530381110AC04F
:104E70008091980390919903039721F410929903DC
:104E80001092980310925103C1CF291709F4BBCF98
:104E90000E94EB6A882309F4B9CF9091CE098091E2
:104EA000C909981709F4AFCF8091770A813009F4C6
:104EB0005AC0833009F457C080916F03882309F4E6
:104EC000ABCF80915303882309F4A6CF809151037F
:104ED000811144C0109299031092980310925303C9
:104EE0009BCF80913E03811191CF85E597E00E9491
:104EF000AEA1672B682B692B09F088CF40ED57E0F6
:104F000060E070E085E597E00E9424A20E94C5A3BE
:104F100081E080933E037ACF80913E03811176CF6A
:104F20008091980390919903039709F46FCF809132
:104F30004303811110C04EEE52E060E070E085E561
:104F400097E00E9424A20E94C5A3809143038F5F33
:104F500080934303DDCF8230D8F6F5CF0E94877768
:104F60008111B8CFBBCF10923E0356CF10923E03B3
:104F70004BCD8091D009882309F4C1CCDF91CF912A
:104F80001F910F91EF900C94AB813213B2CC892B0F
:104F900009F0B5CC84EA99E00E943AA081110DC0D5
:104FA00080917C0A8D7F813009F0A9CC80E998E05E
:104FB0000E943AA0882309F4A2CC8091B7078111FE
:104FC0009ECC9091440980913F09981398CC909180
:104FD000FF088091FA08981392CC8091510288239F
:104FE00019F087EB0E9400298EE591E00E94EA6E9D
:104FF000EE24E39410E000E020E040917B0660E0C6
:105000008EE591E00E94E56FDF91CF911F910F91A6
:10501000EF900C94486AEF920F931F93CF931092E6
:105020006C031092700381E08093000210920D07D0
:1050300010920E079091740A923079F581E090E019
:1050400090939B0380939A03109299031092980374
:1050500080918A09811117C080915102882319F02B
:105060008BEB0E9400298CEF90E00E94EA6EEE2408
:10507000E39410E000E020E040917B0660E08CEFDC
:1050800090E00E94E56F84E00E94002980E0CF91CB
:105090001F910F91EF900C94B2742091FF089091A2
:1050A000FA0829130BC090916503992339F0809376
:1050B0004A030E94930EC0E08C2FE9CF81E090E07C
:1050C00090939B0380939A031092990310929803F4
:1050D000C091960384E00E940029EECFCF93809187
:1050E000A903811101C02E98C1E0C093BA030E94A8
:1050F0008B8E81112DC080915202882339F08091CE
:10510000770A853039F180F48430B1F00E94A46AC6
:10511000825040E06FEF823028F582E00E943E7BB3
:1051200021E02093BA030FC08630C1F0873071F7B9
:1051300040E06FEF8EE103C040E06FEF8DE10E9431
:105140003E7BC093BA030E94768E81E08093A803D1
:10515000CF91089540E06FEF8AE1F1CF40E06FEF2B
:1051600089E1EDCF81E0DACFCF93DF931F921F92D9
:10517000CDB7DEB71A82198290919D0391113BC081
:1051800092E0909374038093750370937703609318
:10519000760385E0809378038091A6039091A7031E
:1051A000019761F4409137075091380760913907B2
:1051B00070913A0787E397E00E9424A280917403DC
:1051C000809359048091750380935A0480917603EB
:1051D00080935B048091770380935C0480917803D3
:1051E00080935D0485E090E09A83898361E0CE013D
:1051F00001960E9458930F900F90DF91CF910895E0
:1052000070E060E00C94B428EDE1F8E080912208B1
:10521000808380911C08818380911B088283809108
:105220001A08838380916A02848308950E94A46A85
:105230008250823070F4E0919703F0E0EE0FFF1F90
:10524000EB58FD4F80819181909305028093040279
:10525000089582E990E0F8CFCF939091A903992324
:1052600009F467C0C82F8DE00E943494019729F09B
:105270006FEF70E08DE00E949A96C931A0F4109211
:10528000BA030E948B8E882361F040E06FEF80E0CC
:105290000E943E7B1092BA030E94768E81E080933A
:1052A000A803CF91089580915202882351F08091F4
:1052B000770A843061F170F48230D9F020F58130C2
:1052C000A1F00E94A46A825040E06C2F823078F5F1
:1052D00081E0DECF863019F1F0F0873021F18034A3
:1052E00081F740E060E885E0D3CF40E06C2F84E1B7
:1052F000CFCF0E94E36A40E06C2F833011F484E04A
:10530000C7CF8FE0C5CF40E06C2F8DE0C1CF40E02C
:105310006C2F8DE1BDCF40E06C2F8AE1B9CF40E02A
:105320006C2F89E1B5CF40E06C2F8EE1B1CF82E0E8
:10533000AFCFE82FF0E0E45EF84FE4916FEF70E05C
:105340006E1B71098DE0CF910C949A96EF920F939A
:105350001F93CF9342E350E060E070E08CE09AE06E
:105360000E9424A28091980390919903883091051E
:1053700009F418C38930910509F443C086309105BA
:1053800009F054C5809190038B30E1F4809157026D
:10539000843009F05AC42091720330917303232B97
:1053A00009F057C42091CE099091C909291351C41D
:1053B0002091BA089091B508291709F44AC480E4ED
:1053C0000E94002980919003873009F0FFC18091ED
:1053D0005702843009F0C3C42091720330917303E3
:1053E000232B09F0F0C12091CE099091C90929130E
:1053F000EAC12091BA089091B508291709F4E3C1D0
:1054000022C4809190038B3009F046C02091720332
:1054100030917303809157022230310509F093C017
:10542000853009F0CCC69091D109992309F491C037
:105430002091BA089091B508291709F48AC0809183
:105440009D03882309F487C080917D068D3D21F15D
:1054500080915F02853008F089C010925F028091D0
:105460007F062DED3FEF281B310987FD33954091D5
:105470005F02429FC001439F900D11246CE97FEFB2
:105480000E9479B1635260937D0660937E066093BB
:105490007C0680E00E94FE7A80919003873009F0BC
:1054A00095C120917203309173038091570222308D
:1054B000310509F082C1853009F05CC78091D109BE
:1054C000882309F46CC39091BA088091B5089817A5
:1054D00009F465C380919D03811107C080918E03FB
:1054E00090918F03019709F078C190917F06809188
:1054F0007D06891709F46AC180915F02803608F43D
:105500006AC184E680935F022DED3FEF291B3109CC
:1055100097FD339540915F02429FC001439F900DDC
:1055200011246CE97FEF0E9479B1635260937D068C
:1055300060937E0660937C0680E0CF911F910F916F
:10554000EF900C94FE7A23303105A1F0823008F4FC
:105550009DC08150A3C080918E0390918F030197CD
:1055600009F472CF82EA0E94002996CF8550809379
:105570005F0275CF853079F42091CE099091C909E9
:1055800029134BC04091BA083091B508431709F46C
:1055900044C08EE7E8CF843079F42091CE09909111
:1055A000C909291347C04091BA083091B50843177B
:1055B00009F440C08DE7D7CF833071F42091CE0934
:1055C0009091C909291341C04091BA083091B5089A
:1055D0004317D9F18CE7C7CF823071F42091CE09FF
:1055E0009091C90929133CC04091BA083091B5087F
:1055F0004317B1F18BE7B7CF813009F029C69091FD
:10560000CE098091C909981336C03091BA0820910B
:10561000B508321781F18AE7A6CF291709F499CF87
:105620002091BA089091B508291393CF85E00E9484
:105630004BA432CF291709F48CCF2091BA0890914E
:10564000B508291386CF84E0F2CF291709F481CF5A
:105650002091BA089091B50829137BCF83E0E7CF5A
:10566000291709F476CF2091BA089091B50829132B
:1056700070CF82E0DCCF981709F4EDC59091BA089D
:105680008091B5089813E7C581E0D1CF2115310588
:1056900041F02130310509F44AC081E0809357027E
:1056A000FBCE81E090E0909373038093720385E0DA
:1056B000809357028091020180628093020180E012
:1056C0000E942C290E94CD92809102018F7B8093B1
:1056D00002018FE390E00E94EA6EEE24E39410E072
:1056E00000E020E040917B0660E08FE390E00E94C4
:1056F000E56F85EF90E00E94EA6E86EF90E00E94F1
:10570000EA6E87EF90E00E94EA6E88EF90E00E94D8
:10571000EA6E89EF90E00E94EA6E20E040917B06FD
:1057200060E086EF90E00E94E56F8AE31CCF82E0A4
:1057300090E0909373038093720385E08093570207
:10574000809102018062809302018FEF0E942C29D8
:105750000E94CD92809102018F7B809302018FE3A2
:1057600090E00E94EA6EEE24E39410E000E020E076
:1057700040917B0660E08FE390E00E94E56F85EF4B
:1057800090E00E94EA6E86EF90E00E94EA6E87EF5A
:1057900090E00E94EA6E88EF90E00E94EA6E89EF46
:1057A00090E00E94EA6E20E040917B0660E087EF87
:1057B00090E00E94E56F8BE3D6CE23303105A1F057
:1057C000853008F0A1C08F5F80935702CF911F9161
:1057D0000F91EF9008958B5F95CE83EACF911F9143
:1057E0000F91EF900C940029853079F49091CE09B7
:1057F0008091C90998134CC03091BA082091B5081E
:10580000321709F445C089E7E9CF843079F4209153
:10581000CE099091C90929134BC04091BA08309123
:10582000B508431709F444C088E7D8CF833079F42A
:105830002091CE099091C909291345C04091BA0819
:105840003091B508431709F43EC087E7C7CF8230CF
:1058500071F42091CE099091C90929133FC040915C
:10586000BA083091B5084317C9F186E7B7CF813040
:1058700009F037C52091CE099091C909291339C083
:105880004091BA083091B508431799F185E7A6CF42
:10589000981709F429C59091BA088091B508981312
:1058A00023C585E0CF911F910F91EF900C94B9A47F
:1058B000291709F488CF2091BA089091B5082913C7
:1058C00082CF84E0EFCF291709F47DCF2091BA0869
:1058D0009091B508291377CF83E0E4CF291709F415
:1058E00072CF2091BA089091B50829136CCF82E04D
:1058F000D9CF291709F467CF2091BA089091B5083C
:10590000291361CF81E0CECF2130310509F4CBC519
:105910002430310509F00EC683E090E090937303C4
:105920008093720381E0809357028091020180622C
:10593000809302018FEF0E942C290E946E28809193
:1059400002018F7B809302018FE390E00E94EA6E58
:10595000EE24E39410E000E020E040917B0660E05C
:105960008FE390E00E94E56F85EF90E00E94EA6E81
:1059700086EF90E00E94EA6E87EF90E00E94EA6E68
:1059800088EF90E00E94EA6E89EF90E00E94EA6E54
:1059900020E040917B0660E088EF90E00E94E56F98
:1059A0008CE31CCF809190038B3039F520917203EA
:1059B00030917303809157022115310509F085C09C
:1059C000843009F04EC02091CE099091C909291761
:1059D00009F480C02091BA089091B50829137AC0C3
:1059E0009091560280915502923078F18E3F68F185
:1059F0009150909356020E948B0F809190038730B4
:105A000009F0E4CE20917203309173038091570224
:105A10002115310509F0B8C0843009F081C020910A
:105A2000CE099091C909291709F4CDCE2091BA0861
:105A30009091B5082913C7CE809155028E3F08F08A
:105A40005EC08F5F8093550261C091E090935602D3
:105A5000823020F0815080935502CDCF9093550233
:105A6000CACF833081F42091CE099091C9092917BA
:105A700089F12091BA089091B50829132BC08DE5C2
:105A80000E940029BACF823071F42091CE09909102
:105A9000C9092917F9F02091BA089091B50829137E
:105AA00019C08CE5EDCF813009F068C49091CE0922
:105AB0008091C909981709F464C49091BA0880913B
:105AC000B50898135EC48BE5DBCF2130310521F09A
:105AD000823088F0815010C0853009F098C4209140
