:100000000C9486000C94920C0C946B0C0C94AE0027
:100010000C94AE000C94AE000C94AE000C94AE00A8
:100020000C94AE000C94AE000C94AE000C94AE0098
:100030000C94AE000C94AE000C94AE000C94AE0088
:100040000C94210C0C94AE000C94DF0C0C94B90CA5
:100050000C94AE000C94AE000C94AE000C94AE0068
:100060000C94110D0C94AE000010203001112131C0
:1000700002122232031323330414243405152535C8
:100080000616263600000000240027002A00000083
:100090000000250028002B0000000000230026009F
:1000A00029000404040404040404020202020202FB
:1000B000030303030303010204081020408001022C
:1000C00004081020010204081020000000080002AB
:1000D000010000030407000000000000000045527A
:1000E000524F523A204E6F2063616C6C6261636BB9
:1000F00020617661696C61626C6520666F72207048
:1001000061636B65742049442000740E11241FBE86
:10011000CFEFD8E0DEBFCDBF26E0A8EAB1E001C056
:100120001D92AD36B207E1F711E0A0E0B1E0E6EBD9
:10013000F0E302C005900D92A83AB107D9F710E09C
:10014000C6E8D0E004C02197FE010E941A17C53806
:10015000D107C9F70E9451100C9459180C94000053
:10016000FC01DB019C919150492F4F3FC9F0242F96
:1001700030E0DF01A20FB31F8C918E3711F0415098
:10018000F4CF9F3F69F0492F50E0DF01A40FB51F66
:100190008C918E3719F4291B2C93292F9150F1CF74
:1001A00008950F931F93CF93DF931F92CDB7DEB7C0
:1001B00010926002809361021092630210926202B8
:1001C00093E0909364021092990380939A031092A3
:1001D0009B0310929C0390939D038FEF8093A8053F
:1001E00009E913E0F80180E091919E3709F05BC0C6
:1001F0008093A80585E08983BE016F5F7F4F89E901
:1002000093E00E94B0008091560390915703E0E084
:10021000D8012D918D01E227E80FF92FF11DE08122
:10022000B3E00E391B07A1F781E08093960580911A
:10023000A8058093970585E080939805E09399053C
:100240008091B4059091B505DC01ED91FC9102809F
:10025000F381E02D44E050E065E975E00995809177
:10026000B4059091B505DC01ED91FC910280F3811C
:10027000E02D45E050E069E973E009958091B4050F
:100280009091B505DC01ED91FC910280F381E02DA8
:1002900042E050E069E975E009950F90DF91CF9158
:1002A0001F910F9108958F5F853009F09DCFA2CFE8
:1002B000833081F028F4813099F08230A9F00895DC
:1002C0008730A9F08830C9F08430B1F48091800083
:1002D0008F7D03C0809180008F7780938000089588
:1002E00084B58F7784BD089584B58F7DFBCF8091D1
:1002F000B0008F778093B00008958091B0008F7D1B
:10030000F9CFCF93DF93282F30E0F901E653FF4F69
:100310008491F901EA54FF4FD491F901EE55FF4F52
:10032000C491CC23A1F081110E945801EC2FF0E080
:10033000EE0FFF1FE856FF4FA591B491EC91ED230E
:1003400081E090E009F480E0DF91CF91089580E0B2
:1003500090E0FACF1F93CF93DF93282F30E0F9017D
:10036000E653FF4F8491F901EA54FF4FD491F9010C
:10037000EE55FF4FC491CC23A9F0162F81110E9496
:100380005801EC2FF0E0EE0FFF1FE257FF4FA59151
:10039000B4918FB7F894EC91111108C0D095DE2379
:1003A000DC938FBFDF91CF911F910895DE2BF8CFA3
:1003B000CF93DF9390E0FC01EA54FF4F24918E55D8
:1003C0009F4FFC0184918823C9F090E0880F991F0A
:1003D000FC01EC57FF4FA591B491FC01E257FF4F90
:1003E000C591D49161110DC09FB7F8948C9120955F
:1003F00082238C938881282328839FBFDF91CF910C
:100400000895623051F49FB7F8943C91822F809503
:1004100083238C93E8812E2BEFCF8FB7F894EC9148
:100420002E2B2C938FBFEACF3FB7F89480915C02BC
:1004300090915D02A0915E02B0915F0226B5A89BEB
:1004400005C02F3F19F00196A11DB11D3FBFBA2F66
:10045000A92F982F8827BC01CD01620F711D811D26
:10046000911D42E0660F771F881F991F4A95D1F7AB
:1004700008958F929F92AF92BF92CF92DF92EF92A8
:10048000FF924B015C010E9414026B017C010E94EF
:1004900014026C197D098E099F09683E734081051D
:1004A0009105A8F321E0821A9108A108B10888EE0D
:1004B000C80E83E0D81EE11CF11C81149104A10434
:1004C000B10429F7FF90EF90DF90CF90BF90AF90ED
:1004D0009F908F9008952FB7F89460915802709173
:1004E000590280915A0290915B022FBF0895CF93D9
:1004F000DF9382E00E948101EC0183E00E94810190
:100500002091CE013091CF01C817D907F9F42F5FA0
:100510003F4F3093CF012093CE016091CE01709177
:10052000CF01072E000C880B990B0E94A41520E028
:1005300030E040E250E40E9452160E94C4167093CC
:10054000480260934702DF91CF910895215031090D
:10055000E0CF089508950895AF92BF92CF92DF92B1
:10056000EF92FF920F931F93CF93DF936C017B0168
:100570008B01040F151FEB015E01AE18BF08C017F9
:10058000D10759F06991D601ED91FC910190F0816C
:10059000E02DC6010995892B79F7C501DF91CF912F
:1005A0001F910F91FF90EF90DF90CF90BF90AF9091
:1005B0000895FC01538D448D252F30E0842F90E069
:1005C000821B930B541710F0CF960895019708954E
:1005D000FC01918D828D981761F0A28DAE0FBF2F17
:1005E000B11D5D968C91928D9F5F9F73928F90E06D
:1005F00008958FEF9FEF0895FC01918D828D9817DC
:1006000031F0828DE80FF11D858D90E008958FEF18
:100610009FEF0895FC01918D228D892F90E0805CE1
:100620009F4F821B91098F739927089585EB92E064
:100630000E940A0321E0892B09F420E0822F08950B
:1006400080E090E0892B29F00E94160381110C9420
:1006500000000895FC01A48DA80FB92FB11DA35A65
:10066000BF4F2C91848D90E001968F739927848FD2
:10067000A689B7892C93A089B1898C9183708064F5
:100680008C93938D848D981306C00288F389E02D96
:1006900080818F7D80830895EF92FF920F931F9347
:1006A000CF93DF93EC0181E0888F9B8D8C8D981325
:1006B0001AC0E889F989808185FF15C09FB7F89431
:1006C000EE89FF896083E889F9898081837080647D
:1006D00080839FBF81E090E0DF91CF911F910F91C8
:1006E000FF90EF900895F62E0B8D10E00F5F1F4FD7
:1006F0000F731127E02E8C8D8E110CC00FB607FCE6
:10070000FACFE889F989808185FFF5CFCE010E9473
:100710002A03F1CFEB8DEC0FFD2FF11DE35AFF4FB4
:10072000F0829FB7F8940B8FEA89FB898081806201
:10073000CFCFCF93DF93EC01888D8823B9F0AA89BE
:10074000BB89E889F9898C9185FD03C0808186FD8C
:100750000DC00FB607FCF7CF8C9185FFF2CF8081DB
:1007600085FFEDCFCE010E942A03E9CFDF91CF9123
:10077000089520911102260F3327331F21323105AE
:10078000ECF420918B02FC0190E080E0243069F0D1
:1007900082E00895A09111022191AC014F505E4F6B
:1007A000A40FB52FB11D2C930196861798F3809155
:1007B0001102680F6093110280E0089581E00895AE
:1007C00010928B0281E080938A021092650261E0B0
:1007D00082E10E94AA0161E083E10E94AA01E9EBA3
:1007E000F0E080818E7F808380818D7F808388E4AC
:1007F0008093B80085E48093BC000895CF93DF9385
:1008000091E09093F0018823B9F0C091B800D091A5
:10081000BA008091BC008A7B8093BC0060E082E1DA
:100820000E94AA0160E083E10E94AA010E94E00305
:10083000D093BA00C093B800DF91CF910895CF92C2
:10084000DF92EF92FF920F931F93CF93DF93D0919C
:10085000B40281E0D13208F09CC0C091B3020E9482
:1008600014026B017C0180918B0281116CC082E0CB
:1008700080938B0281E080938A028FEF80938902BC
:1008800010928802D0938702A3E9B2E0E7E6F2E093
:1008900080E0D8138DC01092660280916602CC0F62
:1008A000C82BC093660280916502813009F084C034
:1008B000109265020E9414026B017C018091660215
:1008C0008093BB0080918D0290918E02A0918F0247
:1008D000B0919002892B8A2B8B2BA1F00E941402DD
:1008E00000918D0210918E0220918F023091900222
:1008F0006C197D098E099F09061717072807390704
:1009000008F442C08091BC0083FDD8CF85EC809371
:10091000BC000E9414026B017C0180918B0282302A
:1009200009F44CC0809189028F3F09F469C080911D
:100930008902803209F466C080918902803309F40B
:1009400063C084E026C080918D0290918E02A091B8
:100950008F02B0919002892B8A2B8B2B09F483CFC5
:100960000E94140200918D0210918E0220918F023C
:10097000309190026C197D098E099F09061717079F
:100980002807390708F06FCF80918C020E94FE0380
:1009900085E0109292021092B40210929102DF91BF
:1009A000CF911F910F91FF90EF90DF90CF9008951E
:1009B0009D9191938F5F6DCF85EEA9CF80918D0230
:1009C00090918E02A0918F02B0919002892B8A2B78
:1009D0008B2B09F4A2CF0E94140200918D0210917A
:1009E0008E0220918F02309190026C197D098E0940
:1009F0009F09061717072807390708F08ECFC4CFBD
:100A000080E0C7CF82E0C5CF83E0C3CF0895E091F7
:100A1000390280913802E81730F4F0E0E053FE4FDD
:100A2000808190E008958FEF9FEF089590913902B3
:100A3000809138022FEF3FEF981748F4E92FF0E04C
:100A4000E053FE4F208130E09F5F90933902C9014F
:100A500008958091380290913902891B990B08956D
:100A6000CF92DF92EF92FF920F931F93CF93DF937A
:100A70007C01CB018A0120919102222389F0EB01B4
:100A80006B01C40ED51ECC15DD0569F06991D70147
:100A9000ED91FC910190F081E02DC7010995F3CF14
:100AA000642F0E94B903C801DF91CF911F910F916C
:100AB000FF90EF90DF90CF900895CF93DF931F9238
:100AC000CDB7DEB76983209191022223F9F02091FE
:100AD000B402203258F021E030E0FC01338322835D
:100AE00090E080E00F90DF91CF9108958091920285
:100AF000E82FF0E0ED56FD4F998190838F5F809352
:100B000092028093B40281E090E0ECCF61E0CE01EC
:100B100001960E94B903F7CF9091500621E02093EF
:100B200091029093B302109292021092B402682F35
:100B300088E593E00E945D050C941F04CF92DF923C
:100B4000EF92FF920F931F93CF93DF93EC01888175
:100B50000E9481018C010E946B022C893D89201723
:100B6000310731F06E8B7F8B888F998F1D8B0C8BAB
:100B7000CE88DF88E88CF98C6C197D098E099F0975
:100B8000CA80DB80EC80FD806C157D058E059F059D
:100B900030F08A899B89998B888B1B8B0A8B2889DB
:100BA00039898A899B892817390781F04A855B85AD
:100BB00042305105A1F48E819F81A885B9850196A7
:100BC000A11DB11D8E839F83A887B987DF91CF9127
:100BD0001F910F91FF90EF90DF90CF9008954115F6
:100BE000510531F42130310589F7892B21F3EECFFE
:100BF0004130510559F7232B49F7019739F7DBCFDE
:100C0000CF92DF92EF92FF920F931F93CF93DF93D8
:100C1000EC010E946B02AB01BC018985811128C0E7
:100C20008C819D81AE81BF81088119812A813B81A0
:100C30006A017B01C81AD90AEA0AFB0AC016D10662
:100C4000E206F306A8F4800F911FA21FB31F8C01C8
:100C50009D01041B150B260B370BC901B801DF9151
:100C6000CF911F910F91FF90EF90DF90CF9008955B
:100C700060E070E0CB01F3CFCF92DF92EF92FF9272
:100C80001F93CF93DF93FC01108511110AC010E070
:100C9000812FDF91CF911F91FF90EF90DF90CF9048
:100CA0000895EC018185882319F018861986F0CF04
:100CB0000E946B02CC80DD80EE80FF806C197D0984
:100CC0008E099F09C880D980EA80FB806C157D055C
:100CD0008E059F0550F7DBCFCF93DF93EC01488360
:100CE00059836A837B830E946B026C837D838E832E
:100CF0009F8381E088871986DF91CF91089590E0E6
:100D000080E00895089585E993E00C948C0685E9C8
:100D100093E00C948F06089590E080E0089590E0B1
:100D200080E0089586E196E00E949E058CEF95E0B4
:100D30000E949E0582EE95E00C949E05CF93DF9372
:100D4000E82F80913A02882331F1EC310CF0EBE18D
:100D5000E7FDE0E00E2E000CFF0BE859FF4F662385
:100D6000E9F0E491E7FD17C0AE2FA695A695A695EC
:100D7000B0E0ED01C65CD94FE77081E090E0A0E003
:100D8000B0E004C0880F991FAA1FBB1FEA95D2F7D5
:100D90002881822B8883DF91CF910895E491E7FD2C
:100DA000FACFCE2FC695C695C695D0E0C65CD94F72
:100DB000E77081E090E0A0E0B0E004C0880F991FE8
:100DC000AA1FBB1FEA95D2F7809598818923E2CFAD
:100DD0000F931F93CF93DF938C018091500691E086
:100DE000909391028093B302109292021092B402F7
:100DF00060E088E593E00E945D05E801005F1F4F19
:100E0000699188E593E00E945D050C171D07C1F705
:100E1000DF91CF911F910F910C941F048AE396E00C
:100E20000C94E806EAE3F6E080E1DF011D928A9582
:100E3000E9F7CF010C94E80680913A0281110E94F3
:100E4000120710924B0210924A0282E090E09093B7
:100E500053028093520208950E941C0710924B0285
:100E600010924A0210924902E0E3F6E010861186E1
:100E7000109253021092520208958EEFE9E9F3E0C6
:100E8000DF01982F1D929A95E9F7E7E9F4E0DF0179
:100E90001D928A95E9F710929B051092AA0510926F
:100EA000AB051092AC051092AD0508958091B40584
:100EB0009091B505DC01ED91FC910084F185E02D68
:100EC0000995892B61F08091B4059091B505DC01FD
:100ED000ED91FC910284F385E02D0995E7CF0E9406
:100EE0003D0780919C058093B3050895FB01019017
:100EF0000020E9F73197AF01461B570BDC01ED915C
:100F0000FC910280F381E02D09948F929F92AF9221
:100F1000BF92EF92FF920F931F93CF93DF93CDB7C2
:100F2000DEB7A1970FB6F894DEBF0FBECDBF7C0130
:100F3000FA01CB0119A2223008F42AE08E010F5DDC
:100F40001F4F822E912CB12CA12CBF01A501940121
:100F50000E943016F901CA016A300CF5605DD801B3
:100F60006E938D01232B242B252B79F790E080E0C5
:100F7000109721F0BD01C7010E947607A1960FB618
:100F8000F894DEBF0FBECDBFDF91CF911F910F91BF
:100F9000FF90EF90BF90AF909F908F900895695C05
:100FA000DECF0F931F93CF93DF93EC010E94760760
:100FB0008C016CE371E0CE010E947607800F911FD7
:100FC000DF91CF911F910F910895CF92DF92EF9211
:100FD000FF920F931F93CF93DF93EC017B018091DE
:100FE000AA059091AB05A091AC05B091AD05892BF8
:100FF0008A2B8B2B41F4D7018C9181113EC010922A
:101000009B0581E063C00E946B020091AA051091CC
:10101000AB052091AC053091AD05601B710B820BC7
:10102000930B0091AE051091AF052091B005309162
:10103000B1056017710782079307E8F28091A40554
:10104000882341F06FE371E08091A2059091A305A0
:101050000E94D10710929B0510929E0510929D054B
:101060008DEF80939C051092AA051092AB0510920B
:10107000AC051092AD0580E0E4C0E0919D05F091D3
:101080009E05E730F10508F01EC1E75BF74F0C94B1
:101090001A1750086908730879089908AD08E1081B
:1010A00088818E3781F481E090E090939E05809353
:1010B0009D050E946B026093AA057093AB05809317
:1010C000AC059093AD0510929B0583E080939C0541
:1010D000D2CF88818093A70582E090E090939E050F
:1010E00080939D05F0CF88818093A90583E090E0EF
:1010F000F5CF88819FEF980F9E3F38F48093A50528
:101100001092A60584E090E0E9CF10929B05109222
:101110009E0510929D058FEF80939C058091A405FC
:1011200063E571E0811146C00E943D0780919B05F7
:1011300088C08091A6059091A505891720F6288181
:10114000E82FF0E0E956FB4F20838F5F8093A605E0
:101150009813B9CF85E090E0C1CF4091A50560918B
:10116000560370915703A7E9B4E030E020E080E037
:1011700050E02417350748F4ED91E827E60FF72FE4
:10118000F11D80812F5F3F4FF4CF9881981303C0EA
:1011900086E090E0A3CF10929B0510929E051092DE
:1011A0009D0510929C058091A40568E671E0882356
:1011B00009F4BACF8091A2059091A3050E94D107AE
:1011C000B3CF10929E0510929D058881813809F059
:1011D0006DC08091A9058F3F69F02EE7E82FF0E000
:1011E000E956FB4F9081992319F02083890FF6CFA0
:1011F0008EE780838091A50580939B0582E0809394
:101200009C0520919F053091A0052115310579F0AD
:101210008091A7059091A1058917E0F490E0880FCF
:10122000991F820F931FDC01ED91FC91099510929B
:10123000AA051092AB051092AC051092AD058091F5
:10124000A505DF91CF911F910F91FF90EF90DF9057
:10125000CF9008958091A405882349F3E090A205DA
:10126000F090A305CEEDD0E0FE016491662359F025
:10127000D701ED91FC910190F081E02DC701099516
:101280002196892B89F7C091A205D091A3054091A1
:10129000A70550E070E060E02AE0CE010E948507DB
:1012A0006CE371E0CE010E947607C1CF10929B05DE
:1012B0008EEF80939C058091A405882309F434CF98
:1012C00069E771E077CF8091A405882389F160E90F
:1012D00071E08091A2059091A3050E947607C091CC
:1012E000A205D091A305C0909D05D0909E050D2C20
:1012F000000CEE08FF082AE0B701A601F7FE10C0B7
:10130000E881F9810190F081E02D6DE2CE0109952F
:1013100044275527BA014C195D096E097F092AE057
:10132000CE010E9485076CE371E0CE010E94760732
:101330000E943D0710929E0510929D05C4CE1F93FA
:10134000CF93DF9300D0CDB7DEB71A828FEF8983BA
:101350008091B4059091B505DC01ED91FC9100847C
:10136000F185E02D0995892B99F181E08A8380919F
:10137000B4059091B505DC01ED91FC910084F185F7
:10138000E02D0995892BF1F08091B4059091B50578
:10139000DC01ED91FC910284F385E02D09958983B0
:1013A000BE016E5F7F4FCE0101960E94E5078093DC
:1013B000B20580919C058093B3058330C1F287FD0F
:1013C0000E9456078091B205811110C010E0D3C071
:1013D000BE016E5F7F4FCE0101960E94E5078093AC
:1013E000B20580919C058093B305E9CF1091A705C4
:1013F000112361F38091C205882309F489C080918B
:1014000056028111E2C14091BA055091BB0560912D
:10141000BC057091BD058AEB95E00E946C06123008
:1014200009F47DC0163009F46EC1113079F690913F
:1014300097049093C901E0919804E093CA018091C8
:1014400099048093CB0180919A048093CC01809180
:101450009B048093CD01EE2309F4B8CF913009F0BD
:10146000B5CF843009F0B2CFE150EB3408F0AECF05
:10147000F0E0E35CF54F0C941A17B40AE609E609AC
:10148000C60AD50ADB0A500B5A0BE609E609D30A4D
:10149000D30AD30AD30AD30AD30AE609D30A3D0BE7
:1014A000430B460B4A0BE609E609E609760B700B7F
:1014B000180B1D0B240B270B2A0BE609E609E6097E
:1014C000E609E609E609E609E609E609E609E609A4
:1014D000E6090E0B040BFA0AEC0A2D0B330BD50AA6
:1014E000DB0AE609E609E609E609E609E609E6098E
:1014F000E609E609E609E609E609E609E609E60974
:10150000E609E609E609E609E609E609D30AD30A87
:10151000123009F087CF80915602811157CF209168
:1015200097042093C301809198048093C401909103
:1015300099049093C50190919A049093C60190915B
:101540009B049093C70190919C049093C8018823B9
:1015500009F43CCF213009F039CF943009F036CF6F
:10156000813109F033CF1FC01091560211110AC00A
:1015700081E00E94D100812F0F900F90DF91CF91D9
:101580001F91089582E00E94D10020CF1092560250
:1015900040E45FE160E070E08AEB95E00E946C0659
:1015A00084E00E94D10011E0E6CF81E080935402F4
:1015B00084E090E00CC0109254028091520290910D
:1015C0005302892B11F00E94300E81E090E090933D
:1015D0004F0280934E02E7CF80913B0290913C02F4
:1015E000029709F4F3CE82E090E090933C0280935E
:1015F0003B02D9CF80913B0290913C02039709F4C2
:10160000E5CE83E090E0F1CF80913B0290913C02E7
:10161000049709F4DBCE84E090E0E7CF80913B02B1
:1016200090913C02059709F4D1CE85E090E0DDCFA2
:1016300010924D0210924C02B6CF81E090E0909350
:101640004D0280934C02AFCF82E090E0F8CF83E070
:1016500090E0F5CF84E090E0F2CF1092440281E078
:1016600080935002B0CF1092500280915402882390
:1016700009F499CF0E941C079BCF81E0809305015C
:1016800080935102F7CF109251028DCF81E0809369
:10169000510299CF1092510281E080930501EACF67
:1016A00081E080934402809354020E941C0782E0F0
:1016B00090E08DCF1092440280915102811103C0BD
:1016C00081E08093050110915002112399F20E944C
:1016D000300E81E090E090934F0280934E024BCF0A
:1016E000809105018F5F809305015DCF81E080933C
:1016F000050110914402112309F4BCCF0E941C077C
:1017000082E090E0E8CFA7E9B4E0E8EAF1E08D916B
:10171000819381E0E33CF807D1F78091AB018230FF
:10172000D1F158F5813081F18091AD01833009F418
:1017300046C0B8F58230E1F110924D0210924C0291
:1017400081E09091AC01913009F080E080935402E7
:1017500081E09091B101913009F080E080934402E2
:1017600081E09091B201913009F080E080935102C4
:101770008091B3018093050129CE833079F08430C4
:1017800099F685E090E002C082E090E090933C0200
:1017900080933B02C9CF83E090E0F8CF84E090E0F3
:1017A000F5CF843079F0853039F684E090E002C0DE
:1017B00081E090E090934D0280934C02C1CF82E093
:1017C00090E0F8CF83E090E0F5CF123009F02ACE18
:1017D000FDCD85ED8093BC0080918D0290918E02AD
:1017E000A0918F02B09190020796A11DB11D23E038
:1017F000B695A795979587952A95D1F72091BC0026
:1018000024FD03C010928B02089540918D025091E7
:101810008E0260918F0270919002452B462B472BD0
:1018200069F30097A105B10541F02AE22A95F1F785
:1018300000C00197A109B109E1CF80918C020C94FD
:10184000FE031F920F920FB60F9211242F933F9316
:101850008F939F93AF93BF938091580290915902B9
:10186000A0915A02B0915B023091570223E0230FFE
:101870002D3758F50196A11DB11D20935702809375
:10188000580290935902A0935A02B0935B02809140
:101890005C0290915D02A0915E02B0915F020196A0
:1018A000A11DB11D80935C0290935D02A0935E0226
:1018B000B0935F02BF91AF919F918F913F912F9114
:1018C0000F900FBE0F901F90189526E8230F0296D9
:1018D000A11DB11DD2CF1F920F920FB60F921124EE
:1018E0002F933F934F935F936F937F938F939F9328
:1018F000AF93BF93EF93FF93E0910201F091030147
:101900000995FF91EF91BF91AF919F918F917F9139
:101910006F915F914F913F912F910F900FBE0F905C
:101920001F9018951F920F920FB60F9211242F93AC
:101930003F934F935F936F937F938F939F93AF9357
:10194000BF93EF93FF93E0910001F091010109959E
:10195000FF91EF91BF91AF919F918F917F916F9187
:101960005F914F913F912F910F900FBE0F901F905D
:1019700018951F920F920FB60F9211242F933F9339
:101980004F935F936F937F938F939F93AF93BF9387
:10199000EF93FF9385EB92E00E942A03FF91EF9172
:1019A000BF91AF919F918F917F916F915F914F9177
:1019B0003F912F910F900FBE0F901F9018951F927F
:1019C0000F920FB60F9211242F938F939F93EF9343
:1019D000FF93E091C502F091C6028081E091CB02B5
:1019E000F091CC0282FD1BC090818091CE028F5F6E
:1019F0008F732091CF02821741F0E091CE02F0E088
:101A0000EB54FD4F958F8093CE02FF91EF919F9104
:101A10008F912F910F900FBE0F901F90189580817E
:101A2000F4CF1F920F920FB60F9211242F933F9372
:101A30004F935F936F937F938F939F93AF93BF93D6
:101A4000EF93FF938091B900887F803609F44AC0F4
:101A5000F0F5883209F4A7C018F5803109F49BC06D
:101A6000B8F4882309F4F9C0883009F494C0FF91D0
:101A7000EF91BF91AF919F918F917F916F915F9106
:101A80004F913F912F910F900FBE0F901F9018957F
:101A9000883109F488C0803251F78093890214C0DC
:101AA000803409F49DC040F48033B9F38833F9F6EB
:101AB0008093890285ECB0C0803509F485C08835F3
:101AC00009F496C0883499F60E94E90BD0CF883982
:101AD00009F48CC038F5883729F050F4883611F0B5
:101AE000803729F683E080938B021092330257C02F
:101AF000883809F47BC0803919F0803809F0B7CFF5
:101B000080913302803208F071C0E091330281E0AD
:101B10008E0F809333028091BB00F0E0ED5EFD4FAD
:101B200080833DC0803B39F0E0F4803A09F479C00D
:101B3000883A09F09CCF84E080938B0210921202C5
:101B400010921102E0913402F091350209958091D2
:101B5000110281110FC081E0809311021092F101F6
:101B600009C0803C09F4A6CF883C09F4A3CF883B88
:101B700009F07DCFE091120281E08E0F8093120276
:101B8000F0E0EF50FE4F80818093BB0090911202F5
:101B90008091110229C0809166028093BB0085EC80
:101BA0008093BC0064CF909188028091870298173F
:101BB00058F5E091880281E08E0F80938802F0E072
:101BC000E959FD4F8081E9CFE091880281E08E0FD5
:101BD000809388028091BB00F0E0E959FD4F80833B
:101BE00090918802809187029817C8F285E8D8CF33
:101BF000E091880281E08E0F809388028091BB0083
:101C0000F0E0E959FD4F808380918A0281115CCF19
:101C100081E08093650284EA8093BC0010928B027D
:101C200026CF85EC8093BC0010928B02809133020A
:101C3000803230F4E0913302F0E0ED5EFD4F10822F
:101C40006091330270E0E0913602F091370283E157
:101C500092E00995109233020ACF1092890234CF94
:101C6000CF9380913A02882341F0C0E061E08C2F4D
:101C70000E949E06CF5FCC31C9F78BE190E0909334
:101C80004B0280934A0284E090E090935302809349
:101C90005202CF910895CF93DF93EC01862F688392
:101CA00079831A821B821C821D821E821F821886E3
:101CB00019861B861A8662E00E94D8011D861C8642
:101CC00081E090E09F878E8788810E948101998BB7
:101CD000888B9B8B8A8B9D8B8C8B1E8A1F8A188E80
:101CE000198EDF91CF9108951092B8021092B70229
:101CF00088EE93E0A0E0B0E08093B9029093BA023E
:101D0000A093BB02B093BC0280E191E09093B60235
:101D10008093B50285EC90E09093C2028093C1025B
:101D200084EC90E09093C4028093C30280EC90E036
:101D30009093C6028093C50281EC90E09093C80214
:101D40008093C70282EC90E09093CA028093C9020C
:101D500086EC90E09093CC028093CB021092CE025E
:101D60001092CF021092D0021092D1028BE9809390
:101D7000520388E08093550380E091E090935403F0
:101D8000809353030E943417909357038093560314
:101D900030E020E0809153039091540328173907D5
:101DA000E0F4C9016091520370E048E050E0FC01AA
:101DB000E078FF27880F991FEF2B11F086279727D0
:101DC00041505109A1F7E0915603F0915703E20FFA
:101DD000F31F80832F5F3F4FDDCF10925B03109284
:101DE0005A0388EE93E0A0E0B0E080935C03909308
:101DF0005D03A0935E03B0935F0382E291E0909352
:101E000059038093580388E893E1A0E0B0E0809301
:101E1000870390938803A0938903B0938A03109259
:101E2000930310928F0310929003109291031092DB
:101E300092031092940310928B0310928C031092D1
:101E40008D0310928E031092660310926503109218
:101E50006403109267031092680310926903109252
:101E60006A0310926B0310926C0310926D03109230
:101E70006E0310926F031092700310927103109210
:101E800072031092730310927403109275031092F0
:101E900076031092770310927803109279031092D0
:101EA0007A0310927B0310927C0310927D031092B0
:101EB0007E0310927F031092800310928103109290
:101EC0008203109283031092840310928503109270
:101ED000860348E853E160E070E08BE893E00E94FD
:101EE0006C0681E08093660310929803109297032A
:101EF00084E391E090939603809395031092670694
:101F0000109263061092640610926506109266069F
:101F10001092680610925F06109260061092610699
:101F20001092620610925D061092590610925A069F
:101F300010925B0610925C0610925E061092550697
:101F400010925606109257061092580610923806B4
:101F5000109234061092350610923606109237060B
:101F60001092390610923006109231061092320605
:101F70001092330665E070E086E196E00E944B0E19
:101F800066E070E08CEF95E00E944B0E64E070E03C
:101F900082EE95E00E944B0E1092E0051092DC0557
:101FA0001092DD051092DE051092DF051092E1051A
:101FB0001092D8051092D9051092DA051092DB051F
:101FC0001092D6051092D2051092D3051092D40526
:101FD0001092D5051092D7051092CE051092CF051C
:101FE0001092D0051092D1051092CC051092C80520
:101FF0001092C9051092CA051092CB051092CD051A
:102000001092C4051092C5051092C6051092C7051E
:102010001092C2051092BE051092BF051092C00525
:102020001092C1051092C3051092BA051092BB051B
:102030001092BC051092BD058EE780939505109215
:10204000960510929705109298051092990581E8CF
:1020500080939A0510929B0510929C0510929E0504
:1020600010929D051092A00510929F051092A10557
:102070001092A4051092A5051092A6051092A7052E
:102080001092A8051092A9051092AA051092AB050E
:102090001092AC051092AD051092B2051092B305E6
:1020A0000895789484B5826084BD84B5816084BDD0
:1020B00085B5826085BD85B5816085BD80916E00E6
:1020C000816080936E001092810080918100826017
:1020D0008093810080918100816080938100809154
:1020E00080008160809380008091B1008460809343
:1020F000B1008091B00081608093B00080917A003F
:10210000846080937A0080917A00826080937A0064
:1021100080917A00816080937A0080917A00806853
:1021200080937A001092C10025EB32E0E091C50265
:10213000F091C60282E08083E091C102F091C20278
:102140001082E091C302F091C4028FEC8083109260
:10215000CD02E091C902F091CA0286E08083E0914D
:10216000C702F091C802808180618083E091C7023C
:10217000F091C802808188608083E091C702F0916D
:10218000C802808180688083E091C702F091C80214
:1021900080818F7D80833093B5052093B40582E3E1
:1021A00090E0A0E0B0E08093B6059093B705A093CF
:1021B000B805B093B9053093A3052093A20521E09B
:1021C0002093A4058093AE059093AF05A093B0052E
:1021D000B093B10584E090E090933C0280933B0281
:1021E000209156022111FDC090934D0280934C0224
:1021F000109242021092410282E390E0A0E0B0E02F
:102200008093180690931906A0931A06B0931B06A4
:102210008093FE059093FF05A0930006B0930106FE
:102220008093E4059093E505A093E605B093E70558
:1022300062E082E00E94D80162E083E00E94D8015F
:1022400087E792E0909301018093000180916900FB
:102250008C7F816080936900E89A61E08DE00E9444
:10226000D8016AE070E080E090E00E9439021092AC
:102270003902109238020E94E00389EA92E09093BA
:102280003502809334028AEA92E090933702809379
:1022900036028CE08093B800D0E0C1E011E01093EA
:1022A0009102C093B302109292021092B4020E9463
:1022B0001F04811101C0DF5FCF5FCF3781F7DD23BE
:1022C00009F494C081E080933A0280913A02882315
:1022D00039F180E78093500610923902109238024B
:1022E000109292021092B4020E94E00389EA92E0F6
:1022F00090933502809334028AEA92E090933702F9
:102300008093360281E20E948C0581E80E948C0550
:1023100080EA0E948C058FEE0E948C050E941207B5
:102320000E942C070E94920664E670E080E090E034
:102330000E94390280915602882339F040E050E033
:10234000BA018AEB95E00E946C06EE24E394F12C2E
:1023500043E0842E912C52E0252E312C64E0662E31
:10236000712C76E0C72ED12CD1E02CE1422E809149
:1023700056028823F1F18AEB95E00E943C068823FF
:1023800099F082E00E94D10060E08DE00E94AA01F5
:1023900010925D0610925E064EEE52E060E070E034
:1023A0008AEB95E00E946C060E949F09809156027C
:1023B00081110CC061E08DE00E94AA0140E253E06F
:1023C00060E070E085E596E00E946C0620E030E079
:1023D000232B69F20E941603882331F20E94000029
:1023E000C3CF10924D0210924C0202CF10923A02CB
:1023F0006CCF0E949F090E94920610924002109298
:102400003F022091F2053091F3058091F005909103
:10241000F10528173907F9F42091F4053091F505F5
:102420008091EE059091EF0528173907A1F44CE251
:1024300051E060E070E08EEC95E00E946C0648E5AB
:1024400052E060E070E084EC95E00E946C06D0936E
:102450003E0210923D0280913E02882309F4A0C002
:102460002091F2053091F3058091EE059091EF05F2
:102470002817390709F044C02091F4053091F5057B
:102480008091F0059091F10528173907C9F58091E1
:10249000E8059091E905A091EA05B091EB05892B3B
:1024A0008A2B8B2B69F13092400220923F021092CE
:1024B0003E021092E8051092E9051092EA0510928A
:1024C000EB051092D6051092D70580913F029091AE
:1024D00040028230910509F4B8C18330910509F4B6
:1024E000C1C1019709F05CC0809141029091420204
:1024F000009709F4A6C1019709F052C086E2A2C173
:102500008091D605811123C08091E8059091E9055D
:10251000A091EA05B091EB050197A105B105F9F489
:10252000F0924002E0923F0210923E021092E805C3
:102530001092E9051092EA051092EB051092D6056B
:102540001092D7051092CC051092CD05BECF8EEC1F
:1025500095E00E940006672B682B692BA9F28091F9
:10256000CC05882349F084EC95E00E940006672B97
:10257000682B692B09F0A9CF80913D02882309F4CB
:1025800051C1809155028D278093550210923E02D1
:102590001092E8051092E9051092EA051092EB05F9
:1025A00080915502811172C02091470230914802FA
:1025B0008091450290914602821793072CF58091F5
:1025C000E005811121C080914402882309F45DC196
:1025D00080910501833008F458C1809143028F5FD8
:1025E0008093430265E00E94FA16911105C087E1CD
:1025F0000E94D1001092430244E650E060E070E097
:1026000088ED95E00E946C062091470230914802C7
:102610008091450290914602281739072CF5809148
:10262000E005811121C080914402882309F43CC156
:1026300080910501833008F437C1809143028F5F98
:102640008093430265E00E94FA16911105C087E16C
:102650000E94D1001092430244E650E060E070E036
:1026600088ED95E00E946C068091470290914802A7
:10267000909346028093450288ED95E00E943C06C7
:10268000882321F01092E0051092E1058091560216
:10269000811130C085E596E00E943C06882351F107
:1026A0008DE00E94810161E0019709F460E08DE016
:1026B0000E94AA018091590690915A06A0915B064A
:1026C000B0915C06409155065091560660915706B0
:1026D00070915806840F951FA61FB71F8093590647
:1026E00090935A06A0935B06B0935C06D0935D0668
:1026F00010925E064091260650912706809124068E
:1027000090912506209122063091230648175907FB
:1027100009F0D9C080912806909129068217930765
:1027200061F48091280690912906892B09F0D4C084
:1027300085E30E94D100D0935402809154028823F3
:1027400009F4D0C08091520290915302892BD1F4A8
:1027500080915102811116C080915002811112C0E6
:1027600010924B0210924A0210924902F0925302C8
:10277000E0925202109238061092390670924F027F
:1027800060924E02C0910501C11101C0C1E00091EB
:1027900052021091530280914E0290914F02049781
:1027A000039798F480914C020230110509F0A4C0FF
:1027B000D0924F02C0924E0291E0980F892F880F5D
:1027C000880F890F8D5F809304010115110509F4AD
:1027D000A7C05090040180913806811198C06C2FD9
:1027E00070E08CE090E00E9406176230710514F4EE
:1027F00062E070E0C42DC519C60FA0904E02B090E3
:102800004F0237E0A316B10408F08AC0F501E55F76
:10281000FB4E0C941A17A514F2142B152B15A014AB
:102820000915CB149092400280923F0210923E0212
:102830001092E8051092E9051092EA051092EB0556
:1028400044CE88E30E94D100ABCE809141029091AA
:102850004202009729F0019709F0A2CE87E2F2CF59
:1028600089E3F0CF8091410290914202009741F0BC
:10287000019709F095CE109242021092410290CE3B
:10288000F0924202E09241028BCE809141029091FF
:102890004202009729F0019709F0AECE82E201C012
:1028A00089E20E94D100A8CE80914102909142021B
:1028B000009729F0019709F0CFCE83E201C088E2AA
:1028C0000E94D100C9CE4217530709F036CF20919C
:1028D00028063091290622CF86E30E94D10010926B
:1028E00054022BCF8091280690912906019709F078
:1028F00049CF0E942C0746CF0430110509F05CCF68
:1029000025E030E030934F0220934E0255CF80E314
:1029100096E00E940006672B682B692B09F45FCFB5
:102920008AEB95E00E943C06882309F44FCDD093B2
:1029300056024EEE52E060E070E08AEB95E044CD46
:10294000D0924F02C0924E02EBCF00914A021091FA
:102950004B0261E0802F0E949E060E940E070F5FCF
:102960001F4F10934B0200934A020D3111052CF0BA
:102970001092530210925202D3CF17FF02C00F5F82
:102980001F4F15950795A8014C0F511D052E000CE2
:10299000660B770B5BC000914A0210914B0261E01D
:1029A000802F0E949E060E940E070F5F1F4F1093FC
:1029B0004B0200934A024C2F50E0501611064CF483
:1029C000709253026092520283E0C89FA0011124CA
:1029D000DDCF17FF02C00F5F1F4F15950795400F02
:1029E000511FD4CF00914A0210914B0260E0802F1A
:1029F0000E949E060E940E070150110910934B027F
:102A000000934A02CC0FCC0F17FF1CC00E941C077A
:102A1000AFCF00914A0210914B0260E0802F0E94DC
:102A20009E060E940E070150110910934B0200935D
:102A30004A0217FF07C00E941C0793E0C99FA0012C
:102A40001124A4CF4C2F50E070E060E080E396E0CA
:102A50000E946C0665CF025011090230110548F042
:102A60000E941C0723E0A216B10489F58DE0809333
:102A700049021091490211112DC030925302209247
:102A8000520261E080E00E949E0661E08BE10E94BC
:102A90009E0632E0A316B10441F460E081E00E949A
:102AA0009E0660E08AE10E949E060E940E078091C9
:102AB000520290915302039709F442C01F5F109392
:102AC0004902409149024C0F5527551F5FCF109284
:102AD0004902CFCF1D3099F4909253028092520256
:102AE00061E08DE00E949E0661E08EE00E949E06FD
:102AF00060E08CE00E949E0660E08FE0D4CF61E051
:102B0000812F0E949E0661E08BE1811B0E949E0640
:102B100060E08FEF810F0E949E0660E0842D811B94
:102B20000E949E0682E0A816B10409F0BECF60E0C4
:102B300081E0810F0E949E0660E08AE1811BB3CF95
:102B40001150BDCFE89409C097FB3EF49095809555
:102B5000709561957F4F8F4F9F4F9923A9F0F92F63
:102B600096E9BB279395F695879577956795B795E1
:102B7000F111F8CFFAF4BB0F11F460FF1BC06F5FC7
:102B80007F4F8F4F9F4F16C0882311F096E911C0D9
:102B9000772321F09EE8872F762F05C0662371F0FA
:102BA00096E8862F70E060E02AF09A95660F771F0E
:102BB000881FDAF7880F9695879597F9089597F902
:102BC0009F6780E870E060E008959FEF80EC0895D3
:102BD00000240A94161617061806090608950024FC
:102BE0000A9412161306140605060895092E039476
:102BF000000C11F4882352F0BB0F40F4BF2B11F4EA
:102C000060FF04C06F5F7F4F8F4F9F4F089557FD48
:102C10009058440F551F59F05F3F71F04795880F4A
:102C200097FB991F61F09F3F79F0879508951216E1
:102C300013061406551FF2CF4695F1DF08C016168D
:102C400017061806991FF1CF86957105610508943E
:102C50000895E894BB2766277727CB0197F9089555
:102C6000A1E21A2EAA1BBB1BFD010DC0AA1FBB1F90
:102C7000EE1FFF1FA217B307E407F50720F0A21B02
:102C8000B30BE40BF50B661F771F881F991F1A946F
:102C900069F760957095809590959B01AC01BD0199
:102CA000CF0108950E9466160C94F6150E94EF1548
:102CB00058F00E94E81540F029F45F3F29F00C9489
:102CC000DF1551110C942A160C94E5150E94071675
:102CD00068F39923B1F3552391F3951B550BBB274B
:102CE000AA2762177307840738F09F5F5F4F220F90
:102CF000331F441FAA1FA9F335D00E2E3AF0E0E887
:102D000032D091505040E695001CCAF72BD0FE2FD0
:102D100029D0660F771F881FBB1F26173707480764
:102D2000AB07B0E809F0BB0B802DBF01FF2793581C
:102D30005F4F3AF09E3F510578F00C94DF150C94EC
:102D40002A165F3FE4F3983ED4F38695779567950E
:102D5000B795F7959F5FC9F7880F911D9695879551
:102D600097F90895E1E0660F771F881FBB1F621770
:102D700073078407BA0720F0621B730B840BBA0B2E
:102D8000EE1F88F7E09508950E94CB166894B11164
:102D90000C942A1608950E940F1688F09F5798F0F9
:102DA000B92F9927B751B0F0E1F0660F771F881F50
:102DB000991F1AF0BA95C9F714C0B13091F00E946A
:102DC0002916B1E008950C942916672F782F8827CB
:102DD000B85F39F0B93FCCF3869577956795B39591
:102DE000D9F73EF490958095709561957F4F8F4F00
:102DF0009F4F0895991B79E004C0991F961708F01A
:102E0000961B881F7A95C9F78095089597FB072E22
:102E100016F4009407D077FD09D00E94201707FC14
:102E200005D03EF4909581959F4F089570956195DA
:102E30007F4F0895EE0FFF1F0590F491E02D099448
:102E4000AA1BBB1B51E107C0AA1FBB1FA617B707D0
:102E500010F0A61BB70B881F991F5A95A9F78095EC
:102E60009095BC01CD0108950F931F93CF93DF93ED
:102E70008230910510F482E090E0E0916B06F091D1
:102E80006C0630E020E0B0E0A0E0309799F4211526
:102E9000310509F44AC0281B390B24303105D8F517
:102EA0008A819B816115710589F1FB01938382837E
:102EB000FE0111C0408151810281138148175907D9
:102EC000E0F04817590799F4109761F012960C93A7
:102ED000129713961C933296CF01DF91CF911F91D9
:102EE0000F91089500936B0610936C06F4CF211593
:102EF000310551F04217530738F0A901DB019A015F
:102F0000BD01DF01F801C1CFEF01F9CF90936C064D
:102F100080936B06CDCFFE01E20FF31F8193919357
:102F20002250310939832883D7CF20916906309107
:102F30006A06232B41F42091080130910901309356
:102F40006A06209369062091060130910701211538
:102F5000310541F42DB73EB740910A0150910B0164
:102F6000241B350BE0916906F0916A06E217F3071E
:102F7000A0F42E1B3F0B2817390778F0AC014E5FE9
:102F80005F4F2417350748F04E0F5F1F50936A06B6
:102F900040936906819391939FCFF0E0E0E09CCF4E
:102FA000CF93DF930097E9F0FC01329713821282EE
:102FB000A0916B06B0916C06ED0130E020E0109717
:102FC000A1F420813181820F931F209169063091F5
:102FD0006A062817390709F061C0F0936A06E09382
:102FE0006906DF91CF910895EA01CE17DF07E8F572
:102FF0004A815B819E0141155105B1F7E901FB83CF
:10300000EA8349915991C40FD51FEC17FD0761F46C
:10301000808191810296840F951FE90199838883AD
:10302000828193819B838A83F0E0E0E012968D9108
:103030009C9113970097B9F52D913C911197CD0173
:103040000296820F931F2091690630916A06281715
:10305000390739F6309751F510926C0610926B06CD
:10306000B0936A06A0936906BCCFD383C283408124
:103070005181840F951FC817D90761F44E5F5F4FC8
:1030800088819981480F591F518340838A819B8190
:10309000938382832115310509F0B0CFF0936C063C
:1030A000E0936B069ECFFD01DC01C0CF138212823C
:0630B000D7CFF894FFCF1A
:1030B600AB02AB021C0100006D06800000000000A0
:1030C6004C03AC02D90299030A03E802FC02000091
:1030D60000005D0530057F0606052905160507056E
:1030E600000000008F068C067F068B060D0A004541
:1030F60052524F523A205354414C45205041434B73
:103106004554004552524F523A205041594C4F4176
:10311600445F4552524F52004552524F523A204355
:1031260052435F4552524F52004552524F523A2037
:1031360053544F505F425954455F4552524F5200C7
:103146004552524F523A20556E646566696E656403
:08315600207374617465200010
:00000001FF
