:100000000C9486000C94920C0C946B0C0C94AE0027
:100010000C94AE000C94AE000C94AE000C94AE00A8
:100020000C94AE000C94AE000C94AE000C94AE0098
:100030000C94AE000C94AE000C94AE000C94AE0088
:100040000C94210C0C94AE000C94DF0C0C94B90CA5
:100050000C94AE000C94AE000C94AE000C94AE0068
:100060000C94110D0C94AE000010203001112131C0
:1000700002122232031323330414243405152535C8
:100080000616263600000000240027002A00000083
:100090000000250028002B0000000000230026009F
:1000A00029000404040404040404020202020202FB
:1000B000030303030303010204081020408001022C
:1000C00004081020010204081020000000080002AB
:1000D000010000030407000000000000000045527A
:1000E000524F523A204E6F2063616C6C6261636BB9
:1000F00020617661696C61626C6520666F72207048
:1001000061636B65742049442000740E11241FBE86
:10011000CFEFD8E0DEBFCDBF26E0AAEAB1E001C054
:100120001D92AE36B207E1F711E0A0E0B1E0E6EBD8
:10013000F0E302C005900D92AA3AB107D9F710E09A
:10014000C6E8D0E004C02197FE010E941A17C53806
:10015000D107C9F70E9451100C9459180C94000053
:10016000FC01DB019C919150492F4F3FC9F0242F96
:1001700030E0DF01A20FB31F8C918E3711F0415098
:10018000F4CF9F3F69F0492F50E0DF01A40FB51F66
:100190008C918E3719F4291B2C93292F9150F1CF74
:1001A00008950F931F93CF93DF931F92CDB7DEB7C0
:1001B00010926102809362021092640210926302B4
:1001C00093E09093650210929A0380939B031092A0
:1001D0009C0310929D0390939E038FEF8093A9053B
:1001E0000AE913E0F80180E091919E3709F05BC0C5
:1001F0008093A90585E08983BE016F5F7F4F8AE9FF
:1002000093E00E94B0008091570390915803E0E082
:10021000D8012D918D01E227E80FF92FF11DE08122
:10022000B3E00F391B07A1F781E080939705809118
:10023000A9058093980585E080939905E0939A0538
:100240008091B5059091B605DC01ED91FC9102809D
:10025000F381E02D44E050E066E975E00995809176
:10026000B5059091B605DC01ED91FC910280F3811A
:10027000E02D45E050E06AE973E009958091B5050D
:100280009091B605DC01ED91FC910280F381E02DA7
:1002900042E050E06AE975E009950F90DF91CF9157
:1002A0001F910F9108958F5F853009F09DCFA2CFE8
:1002B000833081F028F4813099F08230A9F00895DC
:1002C0008730A9F08830C9F08430B1F48091800083
:1002D0008F7D03C0809180008F7780938000089588
:1002E00084B58F7784BD089584B58F7DFBCF8091D1
:1002F000B0008F778093B00008958091B0008F7D1B
:10030000F9CFCF93DF93282F30E0F901E653FF4F69
:100310008491F901EA54FF4FD491F901EE55FF4F52
:10032000C491CC23A1F081110E945801EC2FF0E080
:10033000EE0FFF1FE856FF4FA591B491EC91ED230E
:1003400081E090E009F480E0DF91CF91089580E0B2
:1003500090E0FACF1F93CF93DF93282F30E0F9017D
:10036000E653FF4F8491F901EA54FF4FD491F9010C
:10037000EE55FF4FC491CC23A9F0162F81110E9496
:100380005801EC2FF0E0EE0FFF1FE257FF4FA59151
:10039000B4918FB7F894EC91111108C0D095DE2379
:1003A000DC938FBFDF91CF911F910895DE2BF8CFA3
:1003B000CF93DF9390E0FC01EA54FF4F24918E55D8
:1003C0009F4FFC0184918823C9F090E0880F991F0A
:1003D000FC01EC57FF4FA591B491FC01E257FF4F90
:1003E000C591D49161110DC09FB7F8948C9120955F
:1003F00082238C938881282328839FBFDF91CF910C
:100400000895623051F49FB7F8943C91822F809503
:1004100083238C93E8812E2BEFCF8FB7F894EC9148
:100420002E2B2C938FBFEACF3FB7F89480915D02BB
:1004300090915E02A0915F02B091600226B5A89BE8
:1004400005C02F3F19F00196A11DB11D3FBFBA2F66
:10045000A92F982F8827BC01CD01620F711D811D26
:10046000911D42E0660F771F881F991F4A95D1F7AB
:1004700008958F929F92AF92BF92CF92DF92EF92A8
:10048000FF924B015C010E9414026B017C010E94EF
:1004900014026C197D098E099F09683E734081051D
:1004A0009105A8F321E0821A9108A108B10888EE0D
:1004B000C80E83E0D81EE11CF11C81149104A10434
:1004C000B10429F7FF90EF90DF90CF90BF90AF90ED
:1004D0009F908F9008952FB7F89460915902709172
:1004E0005A0280915B0290915C022FBF0895CF93D6
:1004F000DF9382E00E948101EC0183E00E94810190
:100500002091D0013091D101C817D907F9F42F5F9C
:100510003F4F3093D1012093D0016091D001709171
:10052000D101072E000C880B990B0E94A41520E026
:1005300030E040E250E40E9452160E94C4167093CC
:100540004A0260934902DF91CF9108952150310909
:10055000E0CF089508950895AF92BF92CF92DF92B1
:10056000EF92FF920F931F93CF93DF936C017B0168
:100570008B01040F151FEB015E01AE18BF08C017F9
:10058000D10759F06991D601ED91FC910190F0816C
:10059000E02DC6010995892B79F7C501DF91CF912F
:1005A0001F910F91FF90EF90DF90CF90BF90AF9091
:1005B0000895FC01538D448D252F30E0842F90E069
:1005C000821B930B541710F0CF960895019708954E
:1005D000FC01918D828D981761F0A28DAE0FBF2F17
:1005E000B11D5D968C91928D9F5F9F73928F90E06D
:1005F00008958FEF9FEF0895FC01918D828D9817DC
:1006000031F0828DE80FF11D858D90E008958FEF18
:100610009FEF0895FC01918D228D892F90E0805CE1
:100620009F4F821B91098F739927089586EB92E063
:100630000E940A0321E0892B09F420E0822F08950B
:1006400080E090E0892B29F00E94160381110C9420
:1006500000000895FC01A48DA80FB92FB11DA35A65
:10066000BF4F2C91848D90E001968F739927848FD2
:10067000A689B7892C93A089B1898C9183708064F5
:100680008C93938D848D981306C00288F389E02D96
:1006900080818F7D80830895EF92FF920F931F9347
:1006A000CF93DF93EC0181E0888F9B8D8C8D981325
:1006B0001AC0E889F989808185FF15C09FB7F89431
:1006C000EE89FF896083E889F9898081837080647D
:1006D00080839FBF81E090E0DF91CF911F910F91C8
:1006E000FF90EF900895F62E0B8D10E00F5F1F4FD7
:1006F0000F731127E02E8C8D8E110CC00FB607FCE6
:10070000FACFE889F989808185FFF5CFCE010E9473
:100710002A03F1CFEB8DEC0FFD2FF11DE35AFF4FB4
:10072000F0829FB7F8940B8FEA89FB898081806201
:10073000CFCFCF93DF93EC01888D8823B9F0AA89BE
:10074000BB89E889F9898C9185FD03C0808186FD8C
:100750000DC00FB607FCF7CF8C9185FFF2CF8081DB
:1007600085FFEDCFCE010E942A03E9CFDF91CF9123
:10077000089520911302260F3327331F21323105AC
:10078000ECF420918C02FC0190E080E0243069F0D0
:1007900082E00895A09113022191AC014D505E4F6B
:1007A000A40FB52FB11D2C930196861798F3809155
:1007B0001302680F6093130280E0089581E00895AA
:1007C00010928C0281E080938B021092660261E0AD
:1007D00082E10E94AA0161E083E10E94AA01E9EBA3
:1007E000F0E080818E7F808380818D7F808388E4AC
:1007F0008093B80085E48093BC000895CF93DF9385
:1008000091E09093F2018823B9F0C091B800D091A3
:10081000BA008091BC008A7B8093BC0060E082E1DA
:100820000E94AA0160E083E10E94AA010E94E00305
:10083000D093BA00C093B800DF91CF910895CF92C2
:10084000DF92EF92FF920F931F93CF93DF93D0919C
:10085000B50281E0D13208F09CC0C091B4020E9480
:1008600014026B017C0180918C0281116CC082E0CA
:1008700080938C0281E080938B028FEF80938A02B9
:1008800010928902D0938802A4E9B2E0E8E6F2E08F
:1008900080E0D8138DC01092670280916702CC0F60
:1008A000C82BC093670280916602813009F084C032
:1008B000109266020E9414026B017C018091670213
:1008C0008093BB0080918E0290918F02A091900244
:1008D000B0919102892B8A2B8B2BA1F00E941402DC
:1008E00000918E0210918F0220919002309191021E
:1008F0006C197D098E099F09061717072807390704
:1009000008F442C08091BC0083FDD8CF85EC809371
:10091000BC000E9414026B017C0180918C02823029
:1009200009F44CC080918A028F3F09F469C080911C
:100930008A02803209F466C080918A02803309F409
:1009400063C084E026C080918E0290918F02A091B6
:100950009002B0919102892B8A2B8B2B09F483CFC3
:100960000E94140200918E0210918F022091900239
:10097000309191026C197D098E099F09061717079E
:100980002807390708F06FCF80918D020E94FE037F
:1009900085E0109293021092B50210929202DF91BC
:1009A000CF911F910F91FF90EF90DF90CF9008951E
:1009B0009D9191938F5F6DCF85EEA9CF80918E022F
:1009C00090918F02A0919002B0919102892B8A2B75
:1009D0008B2B09F4A2CF0E94140200918E02109179
:1009E0008F0220919002309191026C197D098E093D
:1009F0009F09061717072807390708F08ECFC4CFBD
:100A000080E0C7CF82E0C5CF83E0C3CF0895E091F7
:100A10003B0280913A02E81730F4F0E0EE52FE4FCC
:100A2000808190E008958FEF9FEF089590913B02B1
:100A300080913A022FEF3FEF981748F4E92FF0E04A
:100A4000EE52FE4F208130E09F5F90933B02C90140
:100A5000089580913A0290913B02891B990B089569
:100A6000CF92DF92EF92FF920F931F93CF93DF937A
:100A70007C01CB018A0120919202222389F0EB01B3
:100A80006B01C40ED51ECC15DD0569F06991D70147
:100A9000ED91FC910190F081E02DC7010995F3CF14
:100AA000642F0E94B903C801DF91CF911F910F916C
:100AB000FF90EF90DF90CF900895CF93DF931F9238
:100AC000CDB7DEB76983209192022223F9F02091FD
:100AD000B502203258F021E030E0FC01338322835C
:100AE00090E080E00F90DF91CF9108958091930284
:100AF000E82FF0E0EC56FD4F998190838F5F809353
:100B000093028093B50281E090E0ECCF61E0CE01EA
:100B100001960E94B903F7CF9091510621E02093EE
:100B200092029093B402109293021092B502682F31
:100B300089E593E00E945D050C941F04CF92DF923B
:100B4000EF92FF920F931F93CF93DF93EC01888175
:100B50000E9481018C010E946B022C893D89201723
:100B6000310731F06E8B7F8B888F998F1D8B0C8BAB
:100B7000CE88DF88E88CF98C6C197D098E099F0975
:100B8000CA80DB80EC80FD806C157D058E059F059D
:100B900030F08A899B89998B888B1B8B0A8B2889DB
:100BA00039898A899B892817390781F04A855B85AD
:100BB00042305105A1F48E819F81A885B9850196A7
:100BC000A11DB11D8E839F83A887B987DF91CF9127
:100BD0001F910F91FF90EF90DF90CF9008954115F6
:100BE000510531F42130310589F7892B21F3EECFFE
:100BF0004130510559F7232B49F7019739F7DBCFDE
:100C0000CF92DF92EF92FF920F931F93CF93DF93D8
:100C1000EC010E946B02AB01BC018985811128C0E7
:100C20008C819D81AE81BF81088119812A813B81A0
:100C30006A017B01C81AD90AEA0AFB0AC016D10662
:100C4000E206F306A8F4800F911FA21FB31F8C01C8
:100C50009D01041B150B260B370BC901B801DF9151
:100C6000CF911F910F91FF90EF90DF90CF9008955B
:100C700060E070E0CB01F3CFCF92DF92EF92FF9272
:100C80001F93CF93DF93FC01108511110AC010E070
:100C9000812FDF91CF911F91FF90EF90DF90CF9048
:100CA0000895EC018185882319F018861986F0CF04
:100CB0000E946B02CC80DD80EE80FF806C197D0984
:100CC0008E099F09C880D980EA80FB806C157D055C
:100CD0008E059F0550F7DBCFCF93DF93EC01488360
:100CE00059836A837B830E946B026C837D838E832E
:100CF0009F8381E088871986DF91CF91089590E0E6
:100D000080E00895089586E993E00C948C0686E9C6
:100D100093E00C948F06089590E080E0089590E0B1
:100D200080E0089587E196E00E949E058DEF95E0B2
:100D30000E949E0583EE95E00C949E05CF93DF9371
:100D4000E82F80913C02882331F1EC310CF0EBE18B
:100D5000E7FDE0E00E2E000CFF0BE859FF4F662385
:100D6000E9F0E491E7FD17C0AE2FA695A695A695EC
:100D7000B0E0ED01C55CD94FE77081E090E0A0E004
:100D8000B0E004C0880F991FAA1FBB1FEA95D2F7D5
:100D90002881822B8883DF91CF910895E491E7FD2C
:100DA000FACFCE2FC695C695C695D0E0C55CD94F73
:100DB000E77081E090E0A0E0B0E004C0880F991FE8
:100DC000AA1FBB1FEA95D2F7809598818923E2CFAD
:100DD0000F931F93CF93DF938C018091510691E085
:100DE000909392028093B402109293021092B502F3
:100DF00060E089E593E00E945D05E801005F1F4F18
:100E0000699189E593E00E945D050C171D07C1F704
:100E1000DF91CF911F910F910C941F048BE396E00B
:100E20000C94E806EBE3F6E080E1DF011D928A9581
:100E3000E9F7CF010C94E80680913C0281110E94F1
:100E4000120710924D0210924C0282E090E09093B3
:100E500055028093540208950E941C0710924D027F
:100E600010924C0210924B02E1E3F6E010861186DC
:100E7000109255021092540208958EEFEAE9F3E0C1
:100E8000DF01982F1D929A95E9F7E8E9F4E0DF0178
:100E90001D928A95E9F710929C051092AB0510926D
:100EA000AC051092AD051092AE0508958091B50580
:100EB0009091B605DC01ED91FC910084F185E02D67
:100EC0000995892B61F08091B5059091B605DC01FB
:100ED000ED91FC910284F385E02D0995E7CF0E9406
:100EE0003D0780919D058093B4050895FB01019015
:100EF0000020E9F73197AF01461B570BDC01ED915C
:100F0000FC910280F381E02D09948F929F92AF9221
:100F1000BF92EF92FF920F931F93CF93DF93CDB7C2
:100F2000DEB7A1970FB6F894DEBF0FBECDBF7C0130
:100F3000FA01CB0119A2223008F42AE08E010F5DDC
:100F40001F4F822E912CB12CA12CBF01A501940121
:100F50000E943016F901CA016A300CF5605DD801B3
:100F60006E938D01232B242B252B79F790E080E0C5
:100F7000109721F0BD01C7010E947607A1960FB618
:100F8000F894DEBF0FBECDBFDF91CF911F910F91BF
:100F9000FF90EF90BF90AF909F908F900895695C05
:100FA000DECF0F931F93CF93DF93EC010E94760760
:100FB0008C016DE371E0CE010E947607800F911FD6
:100FC000DF91CF911F910F910895CF92DF92EF9211
:100FD000FF920F931F93CF93DF93EC017B018091DE
:100FE000AB059091AC05A091AD05B091AE05892BF4
:100FF0008A2B8B2B41F4D7018C9181113EC010922A
:101000009C0581E063C00E946B020091AB051091CA
:10101000AC052091AD053091AE05601B710B820BC4
:10102000930B0091AF051091B0052091B10530915F
:10103000B2056017710782079307E8F28091A50552
:10104000882341F060E471E08091A3059091A405AC
:101050000E94D10710929C0510929F0510929E0548
:101060008DEF80939D051092AB051092AC05109208
:10107000AD051092AE0580E0E4C0E0919E05F091D0
:101080009F05E730F10508F01EC1E75BF74F0C94B0
:101090001A1750086908730879089908AD08E1081B
:1010A00088818E3781F481E090E090939F05809352
:1010B0009E050E946B026093AB057093AC05809314
:1010C000AD059093AE0510929C0583E080939D053D
:1010D000D2CF88818093A80582E090E090939F050D
:1010E00080939E05F0CF88818093AA0583E090E0ED
:1010F000F5CF88819FEF980F9E3F38F48093A60527
:101100001092A70584E090E0E9CF10929C05109220
:101110009F0510929E058FEF80939D058091A505F8
:1011200064E571E0811146C00E943D0780919C05F5
:1011300088C08091A7059091A605891720F628817F
:10114000E82FF0E0E856FB4F20838F5F8093A705E0
:101150009813B9CF85E090E0C1CF4091A60560918A
:10116000570370915803A8E9B4E030E020E080E034
:1011700050E02417350748F4ED91E827E60FF72FE4
:10118000F11D80812F5F3F4FF4CF9881981303C0EA
:1011900086E090E0A3CF10929C0510929F051092DC
:1011A0009E0510929D058091A50569E671E0882352
:1011B00009F4BACF8091A3059091A4050E94D107AC
:1011C000B3CF10929F0510929E058881813809F057
:1011D0006DC08091AA058F3F69F02EE7E82FF0E0FF
:1011E000E856FB4F9081992319F02083890FF6CFA1
:1011F0008EE780838091A60580939C0582E0809392
:101200009D052091A0053091A1052115310579F0AA
:101210008091A8059091A2058917E0F490E0880FCD
:10122000991F820F931FDC01ED91FC91099510929B
:10123000AB051092AC051092AD051092AE058091F1
:10124000A605DF91CF911F910F91FF90EF90DF9056
:10125000CF9008958091A505882349F3E090A305D8
:10126000F090A405CEEDD0E0FE016491662359F024
:10127000D701ED91FC910190F081E02DC701099516
:101280002196892B89F7C091A305D091A40540919F
:10129000A80550E070E060E02AE0CE010E948507DA
:1012A0006DE371E0CE010E947607C1CF10929C05DC
:1012B0008EEF80939D058091A505882309F434CF96
:1012C0006AE771E077CF8091A505882389F161E90C
:1012D00071E08091A3059091A4050E947607C091CA
:1012E000A305D091A405C0909E05D0909F050D2C1C
:1012F000000CEE08FF082AE0B701A601F7FE10C0B7
:10130000E881F9810190F081E02D6DE2CE0109952F
:1013100044275527BA014C195D096E097F092AE057
:10132000CE010E9485076DE371E0CE010E94760731
:101330000E943D0710929F0510929E05C4CE1F93F8
:10134000CF93DF9300D0CDB7DEB71A828FEF8983BA
:101350008091B5059091B605DC01ED91FC9100847A
:10136000F185E02D0995892B99F181E08A8380919F
:10137000B5059091B605DC01ED91FC910084F185F5
:10138000E02D0995892BF1F08091B5059091B60576
:10139000DC01ED91FC910284F385E02D09958983B0
:1013A000BE016E5F7F4FCE0101960E94E5078093DC
:1013B000B30580919D058093B4058330C1F287FD0C
:1013C0000E9456078091B305811110C010E0D3C070
:1013D000BE016E5F7F4FCE0101960E94E5078093AC
:1013E000B30580919D058093B405E9CF1091A805C0
:1013F000112361F38091C305882309F489C080918A
:1014000006018111E2C14091BB055091BC0560917C
:10141000BD057091BE058BEB95E00E946C06123005
:1014200009F47DC0163009F46EC1113079F690913F
:1014300098049093CB01E0919904E093CC018091C2
:101440009A048093CD0180919B048093CE0180917A
:101450009C048093CF01EE2309F4B8CF913009F0BA
:10146000B5CF843009F0B2CFE150EB3408F0AECF05
:10147000F0E0E35CF54F0C941A17B40AE609E609AC
:10148000C60AD50ADB0A500B5A0BE609E609D30A4D
:10149000D30AD30AD30AD30AD30AE609D30A3D0BE7
:1014A000430B460B4A0BE609E609E609760B700B7F
:1014B000180B1D0B240B270B2A0BE609E609E6097E
:1014C000E609E609E609E609E609E609E609E609A4
:1014D000E6090E0B040BFA0AEC0A2D0B330BD50AA6
:1014E000DB0AE609E609E609E609E609E609E6098E
:1014F000E609E609E609E609E609E609E609E60974
:10150000E609E609E609E609E609E609D30AD30A87
:10151000123009F087CF80910601811157CF2091B9
:1015200098042093C501809199048093C6019091FD
:101530009A049093C70190919B049093C801909155
:101540009C049093C90190919D049093CA018823B3
:1015500009F43CCF213009F039CF943009F036CF6F
:10156000813109F033CF1FC01091060111110AC05B
:1015700081E00E94D100812F0F900F90DF91CF91D9
:101580001F91089582E00E94D10020CF10920601A1
:1015900040E45FE160E070E08BEB95E00E946C0658
:1015A00084E00E94D10011E0E6CF81E080935602F2
:1015B00084E090E00CC01092560280915402909109
:1015C0005502892B11F00E94300E81E090E090933B
:1015D000510280935002E7CF80913D0290913E02EC
:1015E000029709F4F3CE82E090E090933E0280935C
:1015F0003D02D9CF80913D0290913E02039709F4BC
:10160000E5CE83E090E0F1CF80913D0290913E02E3
:10161000049709F4DBCE84E090E0E7CF80913D02AF
:1016200090913E02059709F4D1CE85E090E0DDCFA0
:1016300010924F0210924E02B6CF81E090E090934C
:101640004F0280934E02AFCF82E090E0F8CF83E06C
:1016500090E0F5CF84E090E0F2CF1092460281E076
:1016600080935202B0CF109252028091560288238A
:1016700009F499CF0E941C079BCF81E0809305015C
:1016800080935302F7CF109253028DCF81E0809365
:10169000530299CF1092530281E080930501EACF63
:1016A00081E080934602809356020E941C0782E0EC
:1016B00090E08DCF1092460280915302811103C0B9
:1016C00081E08093050110915202112399F20E944A
:1016D000300E81E090E090935102809350024BCF06
:1016E000809105018F5F809305015DCF81E080933C
:1016F000050110914602112309F4BCCF0E941C077A
:1017000082E090E0E8CFA8E9B4E0EAEAF1E08D9168
:10171000819381E0E53CF807D1F78091AD018230FB
:10172000D1F158F5813081F18091AF01833009F416
:1017300046C0B8F58230E1F110924F0210924E028D
:1017400081E09091AE01913009F080E080935602E3
:1017500081E09091B301913009F080E080934602DE
:1017600081E09091B401913009F080E080935302C0
:101770008091B5018093050129CE833079F08430C2
:1017800099F685E090E002C082E090E090933E02FE
:1017900080933D02C9CF83E090E0F8CF84E090E0F1
:1017A000F5CF843079F0853039F684E090E002C0DE
:1017B00081E090E090934F0280934E02C1CF82E08F
:1017C00090E0F8CF83E090E0F5CF123009F02ACE18
:1017D000FDCD85ED8093BC0080918E0290918F02AB
:1017E000A0919002B09191020796A11DB11D23E036
:1017F000B695A795979587952A95D1F72091BC0026
:1018000024FD03C010928C02089540918E025091E5
:101810008F026091900270919102452B462B472BCD
:1018200069F30097A105B10541F02AE22A95F1F785
:1018300000C00197A109B109E1CF80918D020C94FC
:10184000FE031F920F920FB60F9211242F933F9316
:101850008F939F93AF93BF938091590290915A02B7
:10186000A0915B02B0915C023091580223E0230FFB
:101870002D3758F50196A11DB11D20935802809374
:10188000590290935A02A0935B02B0935C0280913C
:101890005D0290915E02A0915F02B091600201969C
:1018A000A11DB11D80935D0290935E02A0935F0223
:1018B000B0936002BF91AF919F918F913F912F9113
:1018C0000F900FBE0F901F90189526E8230F0296D9
:1018D000A11DB11DD2CF1F920F920FB60F921124EE
:1018E0002F933F934F935F936F937F938F939F9328
:1018F000AF93BF93EF93FF93E0910201F091030147
:101900000995FF91EF91BF91AF919F918F917F9139
:101910006F915F914F913F912F910F900FBE0F905C
:101920001F9018951F920F920FB60F9211242F93AC
:101930003F934F935F936F937F938F939F93AF9357
:10194000BF93EF93FF93E0910001F091010109959E
:10195000FF91EF91BF91AF919F918F917F916F9187
:101960005F914F913F912F910F900FBE0F901F905D
:1019700018951F920F920FB60F9211242F933F9339
:101980004F935F936F937F938F939F93AF93BF9387
:10199000EF93FF9386EB92E00E942A03FF91EF9171
:1019A000BF91AF919F918F917F916F915F914F9177
:1019B0003F912F910F900FBE0F901F9018951F927F
:1019C0000F920FB60F9211242F938F939F93EF9343
:1019D000FF93E091C602F091C7028081E091CC02B2
:1019E000F091CD0282FD1BC090818091CF028F5F6C
:1019F0008F732091D002821741F0E091CF02F0E086
:101A0000EA54FD4F958F8093CF02FF91EF919F9104
:101A10008F912F910F900FBE0F901F90189580817E
:101A2000F4CF1F920F920FB60F9211242F933F9372
:101A30004F935F936F937F938F939F93AF93BF93D6
:101A4000EF93FF938091B900887F803609F44AC0F4
:101A5000F0F5883209F4A7C018F5803109F49BC06D
:101A6000B8F4882309F4F9C0883009F494C0FF91D0
:101A7000EF91BF91AF919F918F917F916F915F9106
:101A80004F913F912F910F900FBE0F901F9018957F
:101A9000883109F488C0803251F780938A0214C0DB
:101AA000803409F49DC040F48033B9F38833F9F6EB
:101AB00080938A0285ECB0C0803509F485C08835F2
:101AC00009F496C0883499F60E94E90BD0CF883982
:101AD00009F48CC038F5883729F050F4883611F0B5
:101AE000803729F683E080938C021092350257C02C
:101AF000883809F47BC0803919F0803809F0B7CFF5
:101B000080913502803208F071C0E091350281E0A9
:101B10008E0F809335028091BB00F0E0EB5EFD4FAD
:101B200080833DC0803B39F0E0F4803A09F479C00D
:101B3000883A09F09CCF84E080938C0210921402C2
:101B400010921302E0913602F091370209958091CC
:101B5000130281110FC081E0809313021092F301F0
:101B600009C0803C09F4A6CF883C09F4A3CF883B88
:101B700009F07DCFE091140281E08E0F8093140272
:101B8000F0E0ED50FE4F80818093BB0090911402F5
:101B90008091130229C0809167028093BB0085EC7D
:101BA0008093BC0064CF909189028091880298173D
:101BB00058F5E091890281E08E0F80938902F0E070
:101BC000E859FD4F8081E9CFE091890281E08E0FD5
:101BD000809389028091BB00F0E0E859FD4F80833B
:101BE00090918902809188029817C8F285E8D8CF31
:101BF000E091890281E08E0F809389028091BB0081
:101C0000F0E0E859FD4F808380918B0281115CCF19
:101C100081E08093660284EA8093BC0010928C027B
:101C200026CF85EC8093BC0010928C028091350207
:101C3000803230F4E0913502F0E0EB5EFD4F10822F
:101C40006091350270E0E0913802F091390285E14F
:101C500092E00995109235020ACF10928A0234CF91
:101C6000CF9380913C02882341F0C0E061E08C2F4B
:101C70000E949E06CF5FCC31C9F78BE190E0909334
:101C80004D0280934C0284E090E090935502809343
:101C90005402CF910895CF93DF93EC01862F688390
:101CA00079831A821B821C821D821E821F821886E3
:101CB00019861B861A8662E00E94D8011D861C8642
:101CC00081E090E09F878E8788810E948101998BB7
:101CD000888B9B8B8A8B9D8B8C8B1E8A1F8A188E80
:101CE000198EDF91CF9108951092B9021092B80227
:101CF00088EE93E0A0E0B0E08093BA029093BB023C
:101D0000A093BC02B093BD0281E191E09093B70231
:101D10008093B60285EC90E09093C3028093C20258
:101D200084EC90E09093C5028093C40280EC90E034
:101D30009093C7028093C60281EC90E09093C90211
:101D40008093C80282EC90E09093CB028093CA0209
:101D500086EC90E09093CD028093CC021092CF025B
:101D60001092D0021092D1021092D2028BE980938D
:101D7000530388E08093560380E091E090935503ED
:101D8000809354030E943417909358038093570311
:101D900030E020E0809154039091550328173907D3
:101DA000E0F4C9016091530370E048E050E0FC01A9
:101DB000E078FF27880F991FEF2B11F086279727D0
:101DC00041505109A1F7E0915703F0915803E20FF8
:101DD000F31F80832F5F3F4FDDCF10925C03109283
:101DE0005B0388EE93E0A0E0B0E080935D03909306
:101DF0005E03A0935F03B093600383E291E090934E
:101E00005A038093590388E893E1A0E0B0E08093FF
:101E1000880390938903A0938A03B0938B03109255
:101E200094031092900310929103109292031092D7
:101E300093031092950310928C0310928D031092CD
:101E40008E0310928F031092670310926603109214
:101E50006503109268031092690310926A0310924E
:101E60006B0310926C0310926D0310926E0310922C
:101E70006F0310927003109271031092720310920C
:101E800073031092740310927503109276031092EC
:101E90007703109278031092790310927A031092CC
:101EA0007B0310927C0310927D0310927E031092AC
:101EB0007F0310928003109281031092820310928C
:101EC000830310928403109285031092860310926C
:101ED000870348E853E160E070E08CE893E00E94FB
:101EE0006C0681E080936703109299031092980327
:101EF00085E391E090939703809396031092680690
:101F0000109264061092650610926606109267069B
:101F10001092690610926006109261061092620695
:101F20001092630610925E0610925A0610925B069B
:101F300010925C0610925D0610925F061092560693
:101F400010925706109258061092590610923906B0
:101F50001092350610923606109237061092380607
:101F600010923A0610923106109232061092330601
:101F70001092340665E070E087E196E00E944B0E17
:101F800066E070E08DEF95E00E944B0E64E070E03B
:101F900083EE95E00E944B0E1092E1051092DD0554
:101FA0001092DE051092DF051092E0051092E20516
:101FB0001092D9051092DA051092DB051092DC051B
:101FC0001092D7051092D3051092D4051092D50522
:101FD0001092D6051092D8051092CF051092D00518
:101FE0001092D1051092D2051092CD051092C9051C
:101FF0001092CA051092CB051092CC051092CE0516
:102000001092C5051092C6051092C7051092C8051A
:102010001092C3051092BF051092C0051092C10521
:102020001092C2051092C4051092BB051092BC0517
:102030001092BD051092BE058EE780939605109212
:102040009705109298051092990510929A0581E8CB
:1020500080939B0510929C0510929D0510929F0500
:1020600010929E051092A1051092A0051092A20553
:102070001092A5051092A6051092A7051092A8052A
:102080001092A9051092AA051092AB051092AC050A
:102090001092AD051092AE051092B3051092B405E2
:1020A0000895789484B5826084BD84B5816084BDD0
:1020B00085B5826085BD85B5816085BD80916E00E6
:1020C000816080936E001092810080918100826017
:1020D0008093810080918100816080938100809154
:1020E00080008160809380008091B1008460809343
:1020F000B1008091B00081608093B00080917A003F
:10210000846080937A0080917A00826080937A0064
:1021100080917A00816080937A0080917A00806853
:1021200080937A001092C10026EB32E0E091C60263
:10213000F091C70282E08083E091C202F091C30275
:102140001082E091C402F091C5028FEC808310925E
:10215000CE02E091CA02F091CB0286E08083E0914A
:10216000C802F091C902808180618083E091C80239
:10217000F091C902808188608083E091C802F0916B
:10218000C902808180688083E091C802F091C90211
:1021900080818F7D80833093B6052093B50582E3DF
:1021A00090E0A0E0B0E08093B7059093B805A093CD
:1021B000B905B093BA053093A4052093A30521E097
:1021C0002093A5058093AF059093B005A093B1052A
:1021D000B093B20584E090E090933E0280933D027C
:1021E000209106012111FDC090934F0280934E0271
:1021F000109244021092430282E390E0A0E0B0E02B
:102200008093190690931A06A0931B06B0931C06A0
:102210008093FF0590930006A0930106B0930206F9
:102220008093E5059093E605A093E705B093E80554
:1022300062E082E00E94D80162E083E00E94D8015F
:1022400087E792E0909301018093000180916900FB
:102250008C7F816080936900E89A61E08DE00E9444
:10226000D8016AE070E080E090E00E9439021092AC
:102270003B0210923A020E94E00389EA92E09093B6
:102280003702809336028AEA92E090933902809373
:1022900038028CE08093B800D0E0C1E011E01093E8
:1022A0009202C093B402109293021092B5020E945F
:1022B0001F04811101C0DF5FCF5FCF3781F7DD23BE
:1022C00009F494C081E080933C0280913C02882311
:1022D00039F180E78093510610923B0210923A0246
:1022E000109293021092B5020E94E00389EA92E0F4
:1022F00090933702809336028AEA92E090933902F3
:102300008093380281E20E948C0581E80E948C054E
:1023100080EA0E948C058FEE0E948C050E941207B5
:102320000E942C070E94920664E670E080E090E034
:102330000E94390280910601882339F040E050E084
:10234000BA018BEB95E00E946C06EE24E394F12C2D
:1023500043E0842E912C52E0252E312C64E0662E31
:10236000712C76E0C72ED12CD1E02CE1422E809149
:1023700006018823F1F18BEB95E00E943C0688234F
:1023800099F082E00E94D10060E08DE00E94AA01F5
:1023900010925E0610925F064EEE52E060E070E032
:1023A0008BEB95E00E946C060E949F0980910601CC
:1023B00081110CC061E08DE00E94AA0140E253E06F
:1023C00060E070E086E596E00E946C0620E030E078
:1023D000232B69F20E941603882331F20E94000029
:1023E000C3CF10924F0210924E0202CF10923C02C5
:1023F0006CCF0E949F090E94920610924202109296
:1024000041022091F3053091F4058091F1059091FE
:10241000F20528173907F9F42091F5053091F605F2
:102420008091EF059091F00528173907A1F44CE24F
:1024300051E060E070E08FEC95E00E946C0648E5AA
:1024400052E060E070E085EC95E00E946C06D0936D
:10245000400210923F0280914002882309F4A0C0FC
:102460002091F3053091F4058091EF059091F005EE
:102470002817390709F044C02091F5053091F60579
:102480008091F1059091F20528173907C9F58091DF
:10249000E9059091EA05A091EB05B091EC05892B37
:1024A0008A2B8B2B69F130924202209241021092CA
:1024B00040021092E9051092EA051092EB05109285
:1024C000EC051092D7051092D805809141029091A9
:1024D00042028230910509F4B8C18330910509F4B4
:1024E000C1C1019709F05CC0809143029091440200
:1024F000009709F4A6C1019709F052C086E2A2C173
:102500008091D705811123C08091E9059091EA055A
:10251000A091EB05B091EC050197A105B105F9F487
:10252000F0924202E0924102109240021092E905BC
:102530001092EA051092EB051092EC051092D70567
:102540001092D8051092CD051092CE05BECF8FEC1B
:1025500095E00E940006672B682B692BA9F28091F9
:10256000CD05882349F085EC95E00E940006672B95
:10257000682B692B09F0A9CF80913F02882309F4C9
:1025800051C1809157028D278093570210924002CB
:102590001092E9051092EA051092EB051092EC05F5
:1025A00080915702811172C02091490230914A02F4
:1025B0008091470290914802821793072CF58091F1
:1025C000E105811121C080914602882309F45DC193
:1025D00080910501833008F458C1809145028F5FD6
:1025E0008093450265E00E94FA16911105C087E1CB
:1025F0000E94D1001092450244E650E060E070E095
:1026000089ED95E00E946C062091490230914A02C2
:102610008091470290914802281739072CF5809144
:10262000E105811121C080914602882309F43CC153
:1026300080910501833008F437C1809145028F5F96
:102640008093450265E00E94FA16911105C087E16A
:102650000E94D1001092450244E650E060E070E034
:1026600089ED95E00E946C068091490290914A02A2
:10267000909348028093470289ED95E00E943C06C2
:10268000882321F01092E1051092E2058091060165
:10269000811130C086E596E00E943C06882351F106
:1026A0008DE00E94810161E0019709F460E08DE016
:1026B0000E94AA0180915A0690915B06A0915C0647
:1026C000B0915D06409156065091570660915806AC
:1026D00070915906840F951FA61FB71F80935A0645
:1026E00090935B06A0935C06B0935D06D0935E0664
:1026F00010925F064091270650912806809125068A
:1027000090912606209123063091240648175907F8
:1027100009F0D9C08091290690912A068217930763
:1027200061F48091290690912A06892B09F0D4C082
:1027300085E30E94D100D0935602809156028823EF
:1027400009F4D0C08091540290915502892BD1F4A4
:1027500080915302811116C080915202811112C0E2
:1027600010924D0210924C0210924B02F0925502C0
:10277000E09254021092390610923A067092510279
:1027800060925002C0910501C11101C0C1E00091E9
:102790005402109155028091500290915102049779
:1027A000039798F480914E020230110509F0A4C0FD
:1027B000D0925102C092500291E0980F892F880F59
:1027C000880F890F8D5F809304010115110509F4AD
:1027D000A7C05090040180913906811198C06C2FD8
:1027E00070E08CE090E00E9406176230710514F4EE
:1027F00062E070E0C42DC519C60FA0905002B090E1
:10280000510237E0A316B10408F08AC0F501E55F74
:10281000FB4E0C941A17A514F2142B152B15A014AB
:102820000915CB149092420280924102109240020C
:102830001092E9051092EA051092EB051092EC0552
:1028400044CE88E30E94D100ABCE809143029091A8
:102850004402009729F0019709F0A2CE87E2F2CF57
:1028600089E3F0CF8091430290914402009741F0B8
:10287000019709F095CE109244021092430290CE37
:10288000F0924402E09243028BCE809143029091F9
:102890004402009729F0019709F0AECE82E201C010
:1028A00089E20E94D100A8CE809143029091440217
:1028B000009729F0019709F0CFCE83E201C088E2AA
:1028C0000E94D100C9CE4217530709F036CF20919C
:1028D000290630912A0622CF86E30E94D100109269
:1028E00056022BCF8091290690912A06019709F074
:1028F00049CF0E942C0746CF0430110509F05CCF68
:1029000025E030E0309351022093500255CF81E30F
:1029100096E00E940006672B682B692B09F45FCFB5
:102920008BEB95E00E943C06882309F44FCDD093B1
:1029300006014EEE52E060E070E08BEB95E044CD96
:10294000D0925102C0925002EBCF00914C021091F4
:102950004D0261E0802F0E949E060E940E070F5FCD
:102960001F4F10934D0200934C020D3111052CF0B6
:102970001092550210925402D3CF17FF02C00F5F7E
:102980001F4F15950795A8014C0F511D052E000CE2
:10299000660B770B5BC000914C0210914D0261E019
:1029A000802F0E949E060E940E070F5F1F4F1093FC
:1029B0004D0200934C024C2F50E0501611064CF47F
:1029C000709255026092540283E0C89FA0011124C6
:1029D000DDCF17FF02C00F5F1F4F15950795400F02
:1029E000511FD4CF00914C0210914D0260E0802F16
:1029F0000E949E060E940E070150110910934D027D
:102A000000934C02CC0FCC0F17FF1CC00E941C0778
:102A1000AFCF00914C0210914D0260E0802F0E94D8
:102A20009E060E940E070150110910934D0200935B
:102A30004C0217FF07C00E941C0793E0C99FA0012A
:102A40001124A4CF4C2F50E070E060E081E396E0C9
:102A50000E946C0665CF025011090230110548F042
:102A60000E941C0723E0A216B10489F58DE0809333
:102A70004B0210914B0211112DC030925502209241
:102A8000540261E080E00E949E0661E08BE10E94BA
:102A90009E0632E0A316B10441F460E081E00E949A
:102AA0009E0660E08AE10E949E060E940E078091C9
:102AB000540290915502039709F442C01F5F10938E
:102AC0004B0240914B024C0F5527551F5FCF109280
:102AD0004B02CFCF1D3099F4909255028092540250
:102AE00061E08DE00E949E0661E08EE00E949E06FD
:102AF00060E08CE00E949E0660E08FE0D4CF61E051
:102B0000812F0E949E0661E08BE1811B0E949E0640
:102B100060E08FEF810F0E949E0660E0842D811B94
:102B20000E949E0682E0A816B10409F0BECF60E0C4
:102B300081E0810F0E949E0660E08AE1811BB3CF95
:102B40001150BDCFE89409C097FB3EF49095809555
:102B5000709561957F4F8F4F9F4F9923A9F0F92F63
:102B600096E9BB279395F695879577956795B795E1
:102B7000F111F8CFFAF4BB0F11F460FF1BC06F5FC7
:102B80007F4F8F4F9F4F16C0882311F096E911C0D9
:102B9000772321F09EE8872F762F05C0662371F0FA
:102BA00096E8862F70E060E02AF09A95660F771F0E
:102BB000881FDAF7880F9695879597F9089597F902
:102BC0009F6780E870E060E008959FEF80EC0895D3
:102BD00000240A94161617061806090608950024FC
:102BE0000A9412161306140605060895092E039476
:102BF000000C11F4882352F0BB0F40F4BF2B11F4EA
:102C000060FF04C06F5F7F4F8F4F9F4F089557FD48
:102C10009058440F551F59F05F3F71F04795880F4A
:102C200097FB991F61F09F3F79F0879508951216E1
:102C300013061406551FF2CF4695F1DF08C016168D
:102C400017061806991FF1CF86957105610508943E
:102C50000895E894BB2766277727CB0197F9089555
:102C6000A1E21A2EAA1BBB1BFD010DC0AA1FBB1F90
:102C7000EE1FFF1FA217B307E407F50720F0A21B02
:102C8000B30BE40BF50B661F771F881F991F1A946F
:102C900069F760957095809590959B01AC01BD0199
:102CA000CF0108950E9466160C94F6150E94EF1548
:102CB00058F00E94E81540F029F45F3F29F00C9489
:102CC000DF1551110C942A160C94E5150E94071675
:102CD00068F39923B1F3552391F3951B550BBB274B
:102CE000AA2762177307840738F09F5F5F4F220F90
:102CF000331F441FAA1FA9F335D00E2E3AF0E0E887
:102D000032D091505040E695001CCAF72BD0FE2FD0
:102D100029D0660F771F881FBB1F26173707480764
:102D2000AB07B0E809F0BB0B802DBF01FF2793581C
:102D30005F4F3AF09E3F510578F00C94DF150C94EC
:102D40002A165F3FE4F3983ED4F38695779567950E
:102D5000B795F7959F5FC9F7880F911D9695879551
:102D600097F90895E1E0660F771F881FBB1F621770
:102D700073078407BA0720F0621B730B840BBA0B2E
:102D8000EE1F88F7E09508950E94CB166894B11164
:102D90000C942A1608950E940F1688F09F5798F0F9
:102DA000B92F9927B751B0F0E1F0660F771F881F50
:102DB000991F1AF0BA95C9F714C0B13091F00E946A
:102DC0002916B1E008950C942916672F782F8827CB
:102DD000B85F39F0B93FCCF3869577956795B39591
:102DE000D9F73EF490958095709561957F4F8F4F00
:102DF0009F4F0895991B79E004C0991F961708F01A
:102E0000961B881F7A95C9F78095089597FB072E22
:102E100016F4009407D077FD09D00E94201707FC14
:102E200005D03EF4909581959F4F089570956195DA
:102E30007F4F0895EE0FFF1F0590F491E02D099448
:102E4000AA1BBB1B51E107C0AA1FBB1FA617B707D0
:102E500010F0A61BB70B881F991F5A95A9F78095EC
:102E60009095BC01CD0108950F931F93CF93DF93ED
:102E70008230910510F482E090E0E0916C06F091D0
:102E80006D0630E020E0B0E0A0E0309799F4211525
:102E9000310509F44AC0281B390B24303105D8F517
:102EA0008A819B816115710589F1FB01938382837E
:102EB000FE0111C0408151810281138148175907D9
:102EC000E0F04817590799F4109761F012960C93A7
:102ED000129713961C933296CF01DF91CF911F91D9
:102EE0000F91089500936C0610936D06F4CF211591
:102EF000310551F04217530738F0A901DB019A015F
:102F0000BD01DF01F801C1CFEF01F9CF90936D064C
:102F100080936C06CDCFFE01E20FF31F8193919356
:102F20002250310939832883D7CF20916A06309106
:102F30006B06232B41F42091090130910A01309353
:102F40006B0620936A062091070130910801211534
:102F5000310541F42DB73EB740910B0150910C0162
:102F6000241B350BE0916A06F0916B06E217F3071C
:102F7000A0F42E1B3F0B2817390778F0AC014E5FE9
:102F80005F4F2417350748F04E0F5F1F50936B06B5
:102F900040936A06819391939FCFF0E0E0E09CCF4D
:102FA000CF93DF930097E9F0FC01329713821282EE
:102FB000A0916C06B0916D06ED0130E020E0109715
:102FC000A1F420813181820F931F20916A063091F4
:102FD0006B062817390709F061C0F0936B06E09380
:102FE0006A06DF91CF910895EA01CE17DF07E8F571
:102FF0004A815B819E0141155105B1F7E901FB83CF
:10300000EA8349915991C40FD51FEC17FD0761F46C
:10301000808191810296840F951FE90199838883AD
:10302000828193819B838A83F0E0E0E012968D9108
:103030009C9113970097B9F52D913C911197CD0173
:103040000296820F931F20916A0630916B06281713
:10305000390739F6309751F510926D0610926C06CB
:10306000B0936B06A0936A06BCCFD383C283408122
:103070005181840F951FC817D90761F44E5F5F4FC8
:1030800088819981480F591F518340838A819B8190
:10309000938382832115310509F0B0CFF0936D063B
:1030A000E0936C069ECFFD01DC01C0CF138212823B
:0630B000D7CFF894FFCF1A
:1030B600AB02AB021C010100006E0680000000009E
:1030C600004C03AC02D90299030A03E802FC020091
:1030D6000000005D0530057F060605290516050773
:1030E60005000000008F068C067F068B060D0A0081
:1030F6004552524F523A205354414C452050414379
:103106004B4554004552524F523A205041594C4F6C
:1031160041445F4552524F52004552524F523A2057
:103126004352435F4552524F52004552524F523A14
:103136002053544F505F425954455F4552524F52A7
:10314600004552524F523A20556E646566696E6567
:0A31560064207374617465200000AA
:00000001FF
