:100000000C9453040C9484040C9484040C94840481
:100010000C9484040C9484040C9484040C94840440
:100020000C9484040C9484040C9484040C94840430
:100030000C9484040C9484040C9484040C94840420
:100040000C9484040C9484040C9484040C94840410
:100050000C9484040C9484040C9484040C94512E09
:100060000C9484040C94252F0C94FB2E0C94840483
:100070000C9484040C9484040C9484040C948404E0
:100080000C9484040C9484040C9484040C948404D0
:100090000C9484040C9484040C9484040C945B2FBE
:1000A0000C9484040C9484040C9484040C948404B0
:1000B0000C9484040C9484040C9484040C948404A0
:1000C0000C9484040C9484040C9484040C94840490
:1000D0000C9484040C9484040C94C52E0C949B2ED4
:1000E0000C9484040C94F2140C946C070C948312FA
:1000F0000C942E2E0C9481070C94CD2D0C94D32DA2
:100100000C9474150C9486040C9450150C9482096C
:100110000C9497080C94A1120C94D20F0C94501DBF
:100120000C94AF090C94FC080C949B140C94C50817
:100130000C94681D0C94D1140C9451110C94FE1461
:100140000C940A150C942C2E0C94A7120C94F20803
:100150000C944C150C94D12D0C94CF080C94B7141E
:100160000C9488080C9410090C9430150C946B15A1
:100170000C94E0090C94CF2D0C947E120C942A1D43
:100180000C9447100C94A3120C9489120C94A3079E
:100190000C94B3080C94B00F0C94121D0C94BE096F
:1001A0000C9487120C948F1D0C948B070C94E714FD
:1001B0000C94AD140C948D120C9406090C94EB2D38
:1001C0000C94E8080C94D2090C94152E0C94A108F8
:1001D0000C94A1140C947E070C9488050C94251E95
:1001E0000C9480080C9499070C9493120C94573C2F
:1001F0000C94002E0C942A2E0C94220A0C94821536
:100200000C9476070C94832D0C94AF0F0C949E12D3
:100210000C948B120C94BD140C949C120C94D90861
:100220000C944A100C947B150C942D150C94781298
:100230000C9491120C94AD070C946F0A0C948012DC
:100240000C94AC070C949F070C9448150C94AB08C5
:100250000C9472070C9475120C9462150C94DD11B9
:100260000C947B120C9487070C94DC140C94A71448
:100270000C948D080C948F120C94B3120C94D90F1B
:100280000C94A5120C94B1070C9485120C9489055A
:100290000C94B5120C947A070C94BF0F0C944D1F5C
:1002A0000C9491070C94091D0C943E310C941A097E
:1002B0000C94A7070C9406100C94B6270C94950781
:1002C0000C94BB085761726E696E673A2043616C8B
:1002D00063756C61746564206D7573696320636F09
:1002E000756E742065786365656473206D617869E7
:1002F0006D756D20706F737369626C653B2053443C
:10030000206361726420636F7272757074696F6EBE
:10031000206C696B656C7921005761726E696E673C
:100320003A20547261636B20636F756E7420646F42
:100330006573206E6F74206D6174636820666972E6
:100340006D776172652120506C65617365207570F1
:100350006461746520746865206D6963726F5344CD
:10036000206361726420736F756E642065666665D4
:100370006374732E00000000000000000000000005
:100380000001010101010101010202020202020356
:100390000303030404040405050505060606070710
:1003A000070808080909090A0A0B0B0B0C0C0D0DAC
:1003B0000E0E0F0F10101111121213131414151525
:1003C0001617171818191A1A1B1C1C1D1E1E1F2081
:1003D0002021222323242526262728292A2A2B2CBC
:1003E0002D2E2F2F30313233343536373838393AD5
:1003F0003B3C3D3E3F4041424344454647494A4BD2
:100400004C4D4E4F5051525455565758595B5C5DA8
:100410005E5F61626364666768696B6C6D6F707163
:100420007374757778797B7C7E7F808283858688FC
:10043000898B8C8E8F9192949597989A9B9D9EA074
:10044000A2A3A5A6A8AAABADAFB0B2B4B5B7B9BACE
:10045000BCBEC0C1C3C5C7C8CACCCECFD1D3D5D707
:10046000D9DADCDEE0E2E4E6E8E9EBEDEFF1F3F522
:10047000F7F9FBFDFF646576696365457869744D3E
:10048000656E757C00646576696365456E7465723A
:100490004D656E757C00446576696365204F6E2CF2
:1004A0002053797374656D20566F6C2D2000446560
:1004B00076696365204F6E2C2053797374656D20C7
:1004C000566F6C2B20004572726F722C205379731B
:1004D00074656D20566F6C2D20004572726F722C02
:1004E0002053797374656D20566F6C2B2000446522
:1004F00076696365204F66662C2053797374656D49
:1005000020566F6C2D2000446576696365204F6628
:10051000662C2053797374656D20566F6C2B200008
:10052000446576696365204F66662C204D75736956
:100530006320566F6C2D2000446576696365204FFB
:1005400066662C204D7573696320566F6C2B2000F6
:100550004D656E752C204D7573696320566F6C2D3B
:1005600020004D656E752C204D7573696320566FA4
:100570006C2B200053746F70204D757369630050AD
:100580006C6179204D75736963004E6578742054F1
:100590007261636B3A202300507265762054726159
:1005A000636B3A2023004D656E752C2045666665A9
:1005B00063747320566F6C2D20004D656E752C2072
:1005C0004566666563747320566F6C2B2000546F0C
:1005D00067676C65204D757369632053687566663F
:1005E0006C65004D656E752C2053797374656D20B4
:1005F000566F6C2D20004D656E752C2053797374E9
:10060000656D20566F6C2B2000546F67676C6520FA
:100610004D75736963204C6F6F70004E6F2041758C
:1006200064696F20446576696365005573696E6718
:10063000205741562054726967676572005761728E
:100640006E696E673A205253505F53595354454D6B
:100650005F494E464F206E6F742072656365697600
:10066000656421005573696E672047505374617249
:1006700020417564696F2056657273696F6E3A2008
:100680000000002100240027002A002D0030003344
:100690000001010000040107010A010000200023FD
:1006A00000260029002C002F00320000010000036A
:1006B000010601090100000A0B02090C0D0E0807D2
:1006C0000304010000000000000000000000000022
:1006D000000000000000000000000000000000001A
:1006E00000121110000000000000000000000000D7
:1006F00000000000000000000000000102102020A7
:100700000808102040102040800201020108040265
:1007100001010204081020408080402010080402DB
:100720000180040201804020100804020108040234
:10073000010102040810204080010204081020403A
:100740008000002200250028002B002E00310034FC
:100750000002010000050108010B01050505050760
:100760000508080808020202020A0A08080404042C
:100770000401010101010101010303030303030358
:1007800003040707070C0C0C0C0C0C0C0C020202E7
:100790000206060606060606060B0B0B0B0B0B0BDA
:1007A0000B0000000000000000000000000000003E
:1007B0000000000000000000000101010101010132
:1007C000010101010102020202020202020303030B
:1007D00003030304040404050505050506060606CF
:1007E0000707070808080909090A0A0A0B0B0B0C76
:1007F0000C0D0D0D0E0E0F0F101011111212131300
:1008000014141515161617181819191A1B1B1C1D68
:100810001D1E1F1F202122222324252626272829AA
:100820002A2A2B2C2D2E2F303132333435363738BF
:10083000393A3B3C3D3E3F404142444546474849AA
:100840004B4C4D4E50515254555658595A5C5D5E62
:10085000606163646667696A6C6D6F7072737577E7
:10086000787A7C7D7F8182848688898B8D8F919236
:100870009496989A9C9EA0A2A4A6A8AAACAEB0B248
:10088000B4B6B8BABCBFC1C3C5C7CACCCED1D3D524
:10089000D7DADCDFE1E3E6E8EBEDF0F2F5F7FAFCBE
:1008A000FF003E31573C11241FBECFEFD1E2DEBF27
:1008B000CDBF00E00CBF13E0A0E0B2E0E4EBF0E855
:1008C00000E00BBF02C007900D92AE30B107D9F720
:1008D00029E0AEE0B3E001C01D92A33DB207E1F70D
:1008E00014E0C2E5D4E000E006C021970109802FA2
:1008F000FE010E94083EC135D10780E00807A9F734
:100900000E94D5340C9448400C94000083B7817F3A
:1009100083BF83B7816083BF83B7816083BF8895BE
:1009200083B78E7F83BF83B78E7F83BF08954F9237
:100930005F926F927F928F929F92AF92BF92EF924F
:10094000FF92CF93DF936091770970917409409182
:1009500072095091730980907109262F30E0E0915F
:100960007509F0E0A0917609B0E0671364C0BC019E
:10097000660F771F860F971F480F591F240F351FCB
:10098000E9012881E40FF51FF080A40FB51FCC9179
:10099000882009F445C0912CB12CA12C622F70E065
:1009A000762F6627072E000C880B990BA501940162
:1009B0000E94B33D3901552444246F2D70E0762FF9
:1009C0006627072E000C880B990BA50194010E9445
:1009D000B33DB42FA32F922F8827482A592A6A2A79
:1009E0007B2A6C2F70E0762F6627072E000C880B71
:1009F000990BA50194010E94B33DC301B201622B82
:100A0000732B842B952BDF91CF91FF90EF90BF90AC
:100A1000AF909F908F907F906F905F904F900895D0
:100A20006F2D70E090E080E0982F872F762F66275B
:100A3000822B6C2BE8CF880F991F880F991F840F8A
:100A4000951F280F391FE9013881EC01C70FD11D0F
:100A5000F880E80FF91FC081A80FB91FEC9088201B
:100A600009F44BC0912CB12CA12C632F70E0762F90
:100A70006627072E000C880B990BA50194010E9494
:100A8000B33D722E6624552444246F2D70E0762FDA
:100A90006627072E000C880B990BA50194010E9474
:100AA000B33DA90133272227422A532A642A752AF3
:100AB0006E2D70E0762F6627072E000C880B990BA1
:100AC000A50194010E94B33D422A532A642A752A43
:100AD0006C2F70E0762F6627072E000C880B990B81
:100AE000A50194010E94B33D942F832F722F662796
:100AF000642975298629972986CF6F2D70E090E0AB
:100B000080E0CB0177276627932B6E297C2B7BCF48
:100B10000895089587FF2FC010921F0710921E0797
:100B200080912107882331F180912007E0911E07F1
:100B3000F0911F07E45CF94F662361F1882341F1CE
:100B4000848D87FD17C0E82FE695E695E695F0E0E1
:100B5000E050F94F282F277081E090E0A0E0B0E04E
:100B600004C0880F991FAA1FBB1F2A95D2F72081A6
:100B7000822B808308958C313CF08BE190E0909340
:100B80001F0780931E07CCCF082E000C990BF7CFC0
:100B90008081D7CF8823D1F0248D27FDEBCFE22FA2
:100BA000E695E695E695F0E0E050F94F277081E094
:100BB00090E0A0E0B0E004C0880F991FAA1FBB1FFF
:100BC0002A95D2F7809590818923D3CF2081E5CFD4
:100BD0004F925F926F927F928F929F92AF92BF924D
:100BE000CF92DF92EF92FF920F931F93CF93DF93F9
:100BF00000D01F921F92CDB7DEB7209199032D83AD
:100C00004B015C0104C0B694A794979487942A95ED
:100C1000D2F740909D0350909E0360909F03709088
:100C2000A0036B017C01C420D520E620F720809131
:100C3000A1039091A203A091A303B091A40389837F
:100C40009A83AB83BC83F0E0E0E029813A814B8159
:100C50005C81282539254A255B2565EB77E782E904
:100C60009CE20E94E43DDC01CB018B5F944BA94ADE
:100C7000B3458C019D014CE1369527951795079555
:100C80004A95D1F70C5F1F4F9C01AD0104C05695EA
:100C90004795379527950A95D2F7282739274A2768
:100CA0005B2769ED72EF8EE890E10E94E43D8B01D5
:100CB0009C0156E136952795179507955A95D1F7DA
:100CC000DC01CB0180279127A227B327842195211E
:100CD000A621B7218C259D25AE25BF25319675010E
:100CE0006401E430F10521F50D8004C0880F991FDF
:100CF000AA1FBB1F0A94D2F7BC01CD01682979292C
:100D00008A299B290F900F900F900F900F90DF91E1
:100D1000CF911F910F91FF90EF90DF90CF90BF90F8
:100D2000AF909F908F907F906F905F904F900895BD
:100D30004C015D018ACF4F925F926F927F928F92AA
:100D40009F92AF92BF92CF92DF92EF92FF920F935A
:100D50001F93CF93DF9300D01F921F92CDB7DEB7C2
:100D6000209199032D834B015C0104C0B694A79494
:100D7000979487942A95D2F740909D0350909E03B4
:100D800060909F037090A0036B017C01C420D5206C
:100D9000E620F7208091A1039091A203A091A303E4
:100DA000B091A40389839A83AB83BC83F0E0E0E035
:100DB00029813A814B815C812C253D254E255F257B
:100DC00065EB77E782E99CE20E94E43DDC01CB0120
:100DD0008B5F944BA94AB3458C019D014CE136953C
:100DE0002795179507954A95D1F70C5F1F4F9C01E2
:100DF000AD0104C056954795379527950A95D2F7CA
:100E0000282739274A275B2769ED72EF8EE890E1A2
:100E10000E94E43D8B019C0156E13695279517957C
:100E200007955A95D1F7DC01CB0180279127A2279E
:100E3000B32784219521A621B721BC01CD016825C6
:100E400079258A259B25319646015701E430F10525
:100E500011F50D8004C0CC0CDD1CEE1CFF1C0A94A7
:100E6000D2F76C297D298E299F290F900F900F9022
:100E70000F900F90DF91CF911F910F91FF90EF9006
:100E8000DF90CF90BF90AF909F908F907F906F90AA
:100E90005F904F9008956B017C018ACF8150823121
:100EA00008F05AC0E82FF0E08827E65AF84F8F4F35
:100EB0000C94083E7A077E076C0772077607AC072A
:100EC000810787078B079107950799079F07A30756
:100ED000AC07A707AD07B107809180008F7780939B
:100EE00080000895809180008F7DF9CF80918000EF
:100EF000877FF5CF84B58F7784BD089584B58F7DC6
:100F0000FBCF8091B0008F778093B00008958091DF
:100F1000B0008F7DF9CF809190008F778093900003
:100F20000895809190008F7DF9CF80919000877F08
:100F3000F5CF8091A0008F778093A00008958091D5
:100F4000A0008F7DF9CF8091A000877FF5CF8091A1
:100F500020018F77809320010895809120018F7D5B
:100F6000F9CF80912001877FF5CFCF93DF93282F92
:100F700030E0F901EB54F94F8491F901E550F94F54
:100F8000D491F901E55AF84FC491CC23A1F0811115
:100F90000E944E07EC2FF0E0EE0FFF1FE556F94FD1
:100FA000A591B491EC91ED2381E090E009F480E00B
:100FB000DF91CF91089580E090E0FACF1F93CF9317
:100FC000DF93282F30E0F901EB54F94F8491F901B8
:100FD000E550F94FD491F901E55AF84FC491CC236B
:100FE000A9F0162F81110E944E07EC2FF0E0EE0FB2
:100FF000FF1FEF5BF84FA591B4918FB7F894EC9178
:10100000111108C0D095DE23DC938FBFDF91CF9103
:101010001F910895DE2BF8CFCF93DF9390E0FC0172
:10102000E550F94F2491855A984FFC01849188230B
:10103000C9F090E0880F991FFC01EF57F94FA59177
:10104000B491FC01EF5BF84FC591D49161110DC0D3
:101050009FB7F8948C91209582238C9388812823C4
:1010600028839FBFDF91CF910895623051F49FB7DD
:10107000F8943C91822F809583238C93E8812E2BCA
:10108000EFCF8FB7F894EC912E2B2C938FBFEACF34
:101090001F93CF93DF93182FEB0161E00E940C08A0
:1010A000209739F460E0812FDF91CF911F910C944C
:1010B000DE07CF3FD10511F461E0F5CFE12FF0E07D
:1010C000EB54F94FE491E150E23108F0B3C0F0E0A5
:1010D0008827E259F74F8F4F0C94083E8008880804
:1010E0008D089708A1081A09AB08B308BB08C50802
:1010F000CF08D908E808F2081A09FC0806091009FF
:1011000084B5806884BDC7BDDF91CF911F910895DC
:1011100084B5806284BDC8BDF7CF809180008068AF
:1011200080938000D0938900C0938800EDCF809198
:101130008000806280938000D0938B00C0938A00EF
:10114000E3CF80918000886080938000D0938D00F1
:10115000C0938C00D9CF8091B00080688093B0009C
:10116000C093B300D1CF8091B00080628093B00073
:10117000C093B400C9CF80919000806880939000A4
:10118000D0939900C0939800BFCF80919000806267
:1011900080939000D0939B00C0939A00B5CF80912C
:1011A0009000886080939000D0939D00C0939C0035
:1011B000ABCF8091A00080688093A0008091A000B8
:1011C0008F7B8093A000D093A900C093A8009CCFF0
:1011D0008091A00080628093A000D093AB00C09368
:1011E000AA0092CF8091A00088608093A000D09345
:1011F000AD00C093AC0088CF8091200180688093BF
:101200002001D0932901C09328017ECF8091200135
:10121000806280932001D0932B01C0932A0174CF68
:1012200080912001886080932001D0932D01C0938C
:101230002C016ACFC038D1050CF03ECF33CF3FB779
:10124000F8948091930390919403A0919503B091A9
:10125000960326B5A89B05C02F3F19F00196A11D46
:10126000B11D3FBFBA2FA92F982F8827BC01CD01F0
:10127000620F711D811D911D42E0660F771F881F4F
:10128000991F4A95D1F708958F929F92AF92BF927E
:10129000CF92DF92EF92FF924B015C010E941F09F7
:1012A0006B017C010E941F096C197D098E099F0941
:1012B000683E734081059105A8F321E0821A9108E8
:1012C000A108B10888EEC80E83E0D81EE11CF11C0D
:1012D00081149104A104B10429F7FF90EF90DF90ED
:1012E000CF90BF90AF909F908F9008952FB7F894B4
:1012F00060918F037091900380919103909192037C
:101300002FBF0895AF92BF92CF92DF92EF92FF92DC
:101310000F931F93CF93DF936C017B018B01040F1D
:10132000151FEB015E01AE18BF08C017D10759F0B9
:101330006991D601ED91FC910190F081E02DC601FB
:101340001995892B79F7C501DF91CF911F910F91E5
:10135000FF90EF90DF90CF90BF90AF900895FC0189
:10136000538D448D252F30E0842F90E0821B930B0A
:10137000541710F0CF96089501970895FC01918DB0
:10138000828D981761F0A28DAE0FBF2FB11D5D96B3
:101390008C91928D9F5F9F73928F90E008958FEF55
:1013A0009FEF0895FC01918D828D981731F0828D09
:1013B000E80FF11D858D90E008958FEF9FEF089560
:1013C000FC01918D228D892F90E0805C9F4F821BC4
:1013D00091098F73992708958CEF93E00E94E0099B
:1013E00021E0892B09F420E0822F089589E994E017
:1013F0000E94E00921E0892B09F420E0822F089562
:10140000FC01A48DA80FB92FB11DA35ABF4F2C9179
:10141000848D90E001968F739927848FA689B78970
:101420002C93A089B1898C91837080648C93938D67
:10143000848D981306C00288F389E02D80818F7D0A
:1014400080830895EF92FF920F931F93CF93DF93C2
:10145000EC0181E0888F9B8D8C8D98131AC0E889F0
:10146000F989808185FF15C09FB7F894EE89FF89BF
:101470006083E889F98980818370806480839FBF5D
:1014800081E090E0DF91CF911F910F91FF90EF905D
:101490000895F62E0B8D10E00F5F1F4F0F7311276D
:1014A000E02E8C8D8E110CC00FB607FCFACFE889A8
:1014B000F989808185FFF5CFCE010E94000AF1CF26
:1014C000EB8DEC0FFD2FF11DE35AFF4FF0829FB71C
:1014D000F8940B8FEA89FB8980818062CFCFCF930C
:1014E000DF93EC01888D8823B9F0AA89BB89E8894C
:1014F000F9898C9185FD03C0808186FD0DC00FB6F2
:1015000007FCF7CF8C9185FFF2CF808185FFEDCF6F
:10151000CE010E94000AE9CFDF91CF91089580E0CB
:1015200090E0892B29F00E94F60981110E940000A9
:1015300080E090E0892B49F080E090E0892B29F051
:101540000E94000081110E94000080E090E0892B41
:1015500049F080E090E0892B29F00E940000811181
:101560000E94000080E090E0892B29F00E94EC09A5
:1015700081110C94000008958F929F92AF92BF92B8
:10158000CF92DF92EF92FF921F93CF93DF93FC01F4
:101590008281938168177907A8F54A01AA24BB24A0
:1015A000C82DC32ED42EE52EFF241C2DD22F8085CE
:1015B000882361F0889E40011124C92D8C9D600113
:1015C00011241D2D829FD0011124DB2FA685E184DB
:1015D000F2849385A91322C0CB01880F991F680F4D
:1015E000791F6E0D7F1DA385A60FB72FB11DCC935C
:1015F000A485A60FB72FB11D1C938585680F711D9B
:10160000FB01D083DF91CF911F91FF90EF90DF908E
:10161000CF90BF90AF909F908F900895660F771FE7
:10162000660F771F6E0D7F1D252F33274427552703
:10163000882349F090E0829F7001839FF00C929F75
:10164000F00C11242F2DA60FB72FB11D2C93CBCF4B
:101650009B01AC018091FB03682F70E08FE799E05C
:101660000E94BC0A8BEF93E00895CF92DF92EF9235
:10167000FF920F931F93CF93DF9300D000D000D041
:10168000CDB7DEB78C01DC0119968D919C91892B29
:1016900009F473C00E941F09F801C784D088E1884B
:1016A000F2886C157D058E059F0520F46787708B89
:1016B000818B928BF801C784D088E188F2886C19FD
:1016C0007D098E099F096C3271408105910510F3E7
:1016D000F894D80114968D919C9115979A838983DB
:1016E0001996ED91FC917F01BFEFEB1AFB0A808107
:1016F0008987F80190810388F489E02DD8015596F7
:101700008C91992309F448C09081982B98879081F7
:10171000809589238F838F818C8388E08B83588584
:101720006F8149853B812C8189819A81D7015083C2
:1017300047FD252F3A952083262F39F0441F00C0FE
:1017400000006083000000C0F2CF38E04D9160835C
:101750000000019761F7D8015496FC93EE935397DC
:1017600049873B832C839A83898378940E941F093D
:10177000F8016787708B818B928B29960FB6F8944E
:10178000DEBF0FBECDBFDF91CF911F910F91FF90B4
:10179000EF90DF90CF9008959081982B988790815B
:1017A000809589238F838F818E8388E08D835885F0
:1017B0006F8149853D812E8189819A81D70150832E
:1017C00047FD252F00C000C0208300C000C000C01E
:1017D00000C000C060830000262F3A9541F0441FEE
:1017E000000000C000C000C000C000C0E8CF38E06A
:1017F0004D9100C0608300C0019709F7D80154964D
:10180000FC93EE93539749873D832E83ACCFCF93C0
:10181000DF93EC018E819F8197FD0CC061E00E94F7
:101820000C0860E08E810E94DE0781E08983DF91F1
:10183000CF910895198280E0FACFFC0183A5882317
:1018400029F081E022A595A1291380E00895CF9287
:10185000DF92EF92FF920F931F93CF93DF93EC01F0
:101860008CA10E94B50721E0892B09F420E02EA36A
:101870000E94760968A379A38AA39BA3EEA12FA156
:10188000E2132DC191E098A798A59923F1F048A102
:1018900059A16AA17BA1088919892A893B89DB01A1
:1018A000CA01801B910BA20BB30B8C019D01C88058
:1018B000D980EA80FB80C016D106E206F30628F440
:1018C000E9A7488B598B6A8B7B8BEFA31BA629A5B5
:1018D0008AA52817C1F088A199A1AAA1BBA14C890A
:1018E0005D896E897F89841B950BA60BB70B4C8194
:1018F0005D816E817F81481759076A077B0718F45D
:101900002AA781E08BA71FA6CE010E941D0C882369
:10191000B9F088A199A1AAA1BBA1488D598D6A8D62
:101920007B8D841B950BA60BB70B4C855D856E8557
:101930007F8584179507A607B70708F4D6C018AAAD
:1019400088A91BA5811131C011112DC09AA58DA1A7
:10195000981741F1C88CD98CEA8CFB8C8C8D9D8DAD
:10196000AE8DBF8D8C199D09AE09BF09488559857B
:101970006A857B85481759076A077B0708F4B8C052
:1019800048A159A16AA17BA14C195D096E097F0983
:1019900081E0CC84DD84EE84FF844C155D056E050A
:1019A0007F0508F480E08FA788ABCE010E941D0C54
:1019B0008823B9F048A159A16AA17BA1888D998D8E
:1019C000AA8DBB8D481B590B6A0B7B0B81E0CC8425
:1019D000DD84EE84FF844C155D056E057F0508F0FF
:1019E00080E08EA71CA6112321F09AA58DA1981343
:1019F0001DA68DA581111FC011111BC09AA58DA117
:101A0000981378C048A159A16AA17BA1888D998DAE
:101A1000AA8DBB8D481B590B6A0B7B0B81E0C884D8
:101A2000D984EA84FB84C416D506E606F70608F0D6
:101A300080E08CA78DA7112391F0C8A0D9A0EAA0BF
:101A4000FBA0CC8ADD8AEE8AFF8ACE010E941D0CA3
:101A5000882309F451C0C88ED98EEA8EFB8EE9A87E
:101A6000FAA8E114F10409F44CC0CE010E941D0C47
:101A7000882309F446C08BAD9CADF7011995EDA9FB
:101A8000FEA9309741F08CA5882329F0DE01DF966E
:101A90008D919C911995EFA9F8AD309749F08EA5DD
:101AA000882331F0DE01AF5BBF4F8D919C9119957A
:101AB000E9ADFAAD309749F08FA5882331F0DE010A
:101AC000AD5BBF4F8D919C9119958BA5DF91CF9107
:101AD0001F910F91FF90EF90DF90CF90089518A67F
:101AE000688B798B8A8B9B8BCFCE81E088AB28CF9C
:101AF000812F59CF812F9DCFCC8EDD8EEE8EFF8E24
:101B0000AECFEBA9FCA9309709F4B9CF112309F4A2
:101B1000B6CF9AA58DA1981709F4B1CF8DAD9EAD22
:101B2000ADCF8F929F92AF92BF92CF92DF92EF9202
:101B3000FF920F931F93CF93DF93FC012085211118
:101B400010C060E070E0CB01DF91CF911F910F9149
:101B5000FF90EF90DF90CF90BF90AF909F908F90CD
:101B60000895EC010E94760929852111EACF8C8025
:101B70009D80AE80BF80088119812A813B816B01E5
:101B80007C01C818D908EA08FB08C016D106E2068D
:101B9000F306B8F6080D191D2A1D3B1D68017901D1
:101BA000C61AD70AE80AF90AC701B601CDCFCF9203
:101BB000DF92EF92FF921F93CF93DF93FC0110858A
:101BC00011110AC010E0812FDF91CF911F91FF907A
:101BD000EF90DF90CF900895EC018185882319F074
:101BE00018861986F0CF0E947609CC80DD80EE80C1
:101BF000FF806C197D098E099F09C880D980EA8011
:101C0000FB806C157D058E059F0550F7DBCFCF93CC
:101C1000DF93EC01488359836A837B830E947609B2
:101C20006C837D838E839F8381E088871986DF9113
:101C3000CF9108950F931F93CF93DF93EC010E94F0
:101C400076098B019C018C819D81AE81BF81488189
:101C500059816A817B81081B190B2A0B3B0B0417E6
:101C600015072607370738F4CE01DF91CF911F9172
:101C70000F910C94070E840F951FA61FB71F8C831E
:101C80009D83AE83BF8381E088871986DF91CF91E2
:101C90001F910F91089520916303260F3327331F5F
:101CA00021323105ECF42091D103FC0190E080E079
:101CB000243069F082E00895A09163032191AC0182
:101CC0004D5B5C4FA40FB52FB11D2C930196861769
:101CD00098F380916303680F6093630380E0089535
:101CE00081E008951092D10381E08093D003109297
:101CF000AB0361E084E10E94DE0761E085E10E94C0
:101D0000DE07E9EBF0E080818E7F808380818D7F2C
:101D1000808388E48093B80085E48093BC000895B4
:101D20001092AA031092A9031092D8031092FA03FA
:101D30000E94720E88E895E09093A8038093A70311
:101D400089E895E09093A6038093A5030895CF9327
:101D5000DF9391E0909342038823B9F0C091B800DB
:101D6000D091BA008091BC008A7B8093BC0060E077
:101D700084E10E94DE0760E085E10E94DE070E94A8
:101D8000720ED093BA00C093B800DF91CF9108953E
:101D9000CF92DF92EF92FF920F931F93CF93DF9337
:101DA000D091FA0381E0D13208F09CC0C091F903D0
:101DB0000E941F096B017C018091D10381116CC0CD
:101DC00082E08093D10381E08093D0038FEF8093F2
:101DD000CF031092CE03D093CD03A9EDB3E0EDEA8B
:101DE000F3E080E0D8138DC01092AC038091AC0377
:101DF000CC0FC82BC093AC038091AB03813009F0AA
:101E000084C01092AB030E941F096B017C0180917A
:101E1000AC038093BB008091D3039091D403A09135
:101E2000D503B091D603892B8A2B8B2BA1F00E946E
:101E30001F090091D3031091D4032091D503309151
:101E4000D6036C197D098E099F0906171707280705
:101E5000390708F442C08091BC0083FDD8CF85ECDF
:101E60008093BC000E941F096B017C018091D1030B
:101E7000823009F44CC08091CF038F3F09F469C0D0
:101E80008091CF03803209F466C08091CF03803304
:101E900009F463C084E026C08091D3039091D403F9
:101EA000A091D503B091D603892B8A2B8B2B09F4F3
:101EB00083CF0E941F090091D3031091D403209176
:101EC000D5033091D6036C197D098E099F09061739
:101ED00017072807390708F06FCF8091D2030E94B7
:101EE000A70E85E01092D8031092FA031092D70340
:101EF000DF91CF911F910F91FF90EF90DF90CF90E6
:101F000008959D9191938F5F6DCF85EEA9CF8091BC
:101F1000D3039091D403A091D503B091D603892B1C
:101F20008A2B8B2B09F4A2CF0E941F090091D303A7
:101F30001091D4032091D5033091D6036C197D09FB
:101F40008E099F09061717072807390708F08ECF53
:101F5000C4CF80E0C7CF82E0C5CF83E0C3CF089570
:101F6000E091AA038091A903E81730F4F0E0EE5D58
:101F7000FC4F808190E008958FEF9FEF089590913E
:101F8000AA038091A9032FEF3FEF981748F4E92F98
:101F9000F0E0EE5DFC4F208130E09F5F9093AA035C
:101FA000C90108958091A9039091AA03891B990BF7
:101FB0000895CF92DF92EF92FF920F931F93CF93EA
:101FC000DF937C01CB018A012091D703222389F082
:101FD000EB016B01C40ED51ECC15DD0569F06991CE
:101FE000D701ED91FC910190F081E02DC701199589
:101FF000F3CF642F0E944B0EC801DF91CF911F9148
:102000000F91FF90EF90DF90CF900895CF93DF93E3
:102010001F92CDB7DEB769832091D7032223F9F051
:102020002091FA03203258F021E030E0FC013383A4
:10203000228390E080E00F90DF91CF91089580910E
:10204000D803E82FF0E0E752FC4F998190838F5F2F
:102050008093D8038093FA0381E090E0ECCF61E0B5
:10206000CE0101960E944B0EF7CF9091160721E00A
:102070002093D7039093F9031092D8031092FA0398
:10208000682F86E395E00E9406100C94C80E90E03D
:1020900080E0089580912E0790912F07892B31F0D1
:1020A00080912C0790912D070597B1F010921F0792
:1020B00010921E0710921D0781E090E090932F0769
:1020C00080932E0710922A0710922B0785E090E04C
:1020D00090932D0780932C070895E9E5F9E0108689
:1020E00011861092110370E060E08BE00C944808B8
:1020F00090919B099330C9F02091CC079230B9F4AC
:10210000222399F0682F70E0660F771F6134710504
:1021100014F060E470E08091110386171706B9F09F
:10212000609311038BE00C9448080C946D1090910F
:102130001103222369F0682F70E0660F771F613466
:10214000710514F060E470E09617170649F70895DA
:102150008917E9F380931103682F70E0E3CF489F5C
:1021600090011124479FC0011124469FA001112412
:10217000692F70E090E080E0982F872F762F6627F8
:10218000832B652B0895CF93DF93EC0161E0888169
:102190000E940C086A818881DF91CF910C94DE0740
:1021A000EF92FF921F93CF93DF93EC011A8111708E
:1021B0008A818E7F8A838A818D7F8A838FA598A961
:1021C0000097A1F0112391F0E9A5FAA5309771F0DD
:1021D000DC011496ED90FC9015971596DC93CE9348
:1021E00014971995EFA5F8A9F582E482812FDF9164
:1021F000CF911F91FF90EF9008950F931F93CF936E
:10220000DF93FC01A7A5B0A9109709F448C0EC0121
:1022100011A212A213A214A282818B7F828307A033
:10222000F0A5E02D3097B9F18A8181FD34C0149674
:102230000D911C9115971596DC93CE9314978A8176
:1022400082608A8319959A8180FB90F99A838A81AA
:102250008D7F8A83EFA5F8A9158304838B819C81E8
:10226000AD81BE818F839887A987BA870E9476093E
:102270000F81188529853A85601B710B820B930BA2
:102280006B877C878D879E878A818170DF91CF9154
:102290001F910F9108958A8181608A83DFCF80E04A
:1022A000F5CFCF93DF93EC0189E093E099838883A6
:1022B0008A8180FF03C0CE010E94D010EFA5F8A94B
:1022C000309721F1118686899789A08DB18D01976C
:1022D000A109B109868B978BA08FB18F2DA53EA543
:1022E00086819781C817D90711F43783268318AAE6
:1022F0001FA68BA59CA50097A1F42115310549F4D3
:10230000118210821382128281E08187DF91CF9146
:102310000895D9019C961C921E929B97318320832D
:10232000F3CFDC012115310539F49E961C921E92E3
:102330009D9793838283E8CF9E963C932E939D979F
:10234000ADA5BEA59C969C938E939B97DDCF0E94D6
:102350001F09CB0108958F929F92AF92BF92CF92A7
:10236000DF92EF92FF921F93CF93DF9300D01F92E3
:10237000CDB7DEB7182FE62E8731F8F4E82FF0E05E
:102380008827EA53FE4E8F4F0C94083E7512DD11DC
:10239000B51278127B127E12801283128512871278
:1023A00089128B128D128F1291129C1293129E120F
:1023B000A112A312A512A712B31224E610E030E076
:1023C000AFEFBFEF0E94D53D2FEF30E040E050E08F
:1023D0000E94813DAAEFB5E00E94A03DDC01CB0147
:1023E0009058AF4FBF4FCD01BB2797FDB095AB2F96
:1023F0008E3F21E0920708F0BBC0382F8F3F910538
:1024000008F4D3C0EEEFE81BF0E03FEFF12C8FEFC4
:10241000E81AF80AC12ED12C2FEFC21AD20A109551
:10242000412F50E03C9DC0013D9D900D1124292F6E
:102430003327240F351FD7010E94103E4B015C014A
:102440008824AA24BB24FC9D9001FD9D300D1124FD
:10245000232F3327240F351F0E94103E672F782F1C
:10246000892F9927862A972AA82AB92AEC9D9001B4
:10247000ED9D300D1124232F3327240F351F0E948B
:10248000103E982F872F762F662766277727992764
:10249000862A972AA82AB92A89829A82AB82BC8284
:1024A000DE011196CE010596ED91F0E0EF55F84F63
:1024B00044919D0121503109F90140838A179B07FE
:1024C00099F769817A818B819C810F900F900F9091
:1024D0000F90DF91CF911F91FF90EF90DF90CF9001
:1024E000BF90AF909F908F900895212FE12E67CFDE
:1024F00024EF1FEF64CF24EF10E861CF20E0F9CF85
:1025000020E010EC5CCF25E0F4CF2AE0F2CF2FE002
:10251000F0CF24E1EECF20E2ECCF2BE2EDCF20E4B0
:10252000E8CF20E5E6CF70E08FEF90E00E94F43D29
:10253000E62EE794EE24E79420E6DBCF20E718E7C9
:102540003ECF20E8D6CF21E9D4CF20EAD2CF70E029
:102550008FEF90E00E94F43D80E7689FE02C11240B
:102560002AEA18EC2CCF24EBC4CF24E217EB27CFB8
:102570008C3FE3E09E0768F48D3FF2E09F0728F46C
:10258000F2E0F80F3FEFE0E041CF3CEF381BFFEF08
:10259000FACFFAEFF81B30E08B3F24E0920730F4DB
:1025A000E4E0E80FFFEF30E031CFF0E0EFEF2ECFC7
:1025B000CF9380914205811106C060911F028091E6
:1025C0001D020E94DE07C1E0C093980380916B0951
:1025D00090916C090297C0F081E090E00E9497040E
:1025E000672B682B692B81F06FEF80E00E94AB11A5
:1025F0009B01AC01C093980361E070E089E699E02B
:102600000E94BC0AC0939703CF910895CF93C82F1F
:102610008091110290914205992309F10E94B5071A
:10262000813031F060911302809111020E94DE0727
:102630006FEF80E0C43110F06C2F82E00E94AB118C
:102640009B01AC011092980370E060E089E699E08C
:102650000E94BC0A81E080939703CF910895C11135
:1026600005C060911302CF910C94DE07EC2FF0E0CF
:10267000EB58FC4F6491E62FE0956E2F70E0CF9100
:102680000C944808CF931092E0071092E107109243
:102690001403C0E06FEF80E00E94AB11C093FB0316
:1026A0000E94280BCF5FC730A9F760910A02809182
:1026B0000802CF910C94DE07FF920F931F93CF93E4
:1026C000DF93C82F82E396E00E94D70D882309F498
:1026D00065C08091A20924E1829FC00111249695D2
:1026E0008795969587954EE150E0481B590B70E011
:1026F00060E082E396E00E94070E80910F038E3F18
:1027000018F4815F80930F0380910102823018F0EA
:102710008F5080930102F0900102E0910E03F0E0EF
:10272000EE0FFF1FE754FD4F0081095FD0910F03AB
:102730001181195F809100026FEF8823A9F18C2F1E
:102740000E94AB114D2F0E94AF100093FB030E941B
:10275000280B6FEF8C2F0E94AB114F2D0E94AF10F2
:102760001093FB030E94280BDF3FC1F4809101020C
:10277000811114C08091000291E0892780930002AA
:1027800010920F03D093010280910E0390E0019606
:102790006CE070E00E94F43D80930E03DF91CF91D6
:1027A0001F910F91FF9008958C2F0E94AB114F2D18
:1027B0000E94AF100093FB030E94280B6FEF8C2F39
:1027C0000E94AB114D2FCACF0F931F93CF93DF936E
:1027D0008C018091160791E09093D7038093F903C1
:1027E0001092D8031092FA0360E086E395E00E940D
:1027F0000610E801005F1F4F699186E395E00E9493
:1028000006100C171D07C1F7DF91CF911F910F9193
:102810000C94C80E80912107882321F080E097E076
:102820000C94E4130895CF9380914205811106C062
:1028300060911E0280911D020E94DE0781E080935C
:10284000980380916B0990916C09029740F081E0A8
:1028500090E00E949704672B682B692B89F46FEF37
:1028600081E00E94AB119B01AC01C1E0C0939803D1
:1028700061E070E089E699E00E94BC0AC09397038A
:10288000CF910895CF92DF92EF92FF920F931F9313
:10289000CF93DF93CDB7DEB7DC010DB71EB73C9108
:1028A000432F50E07A0181E0E81AF108EDB7FEB756
:1028B000E41BF50B0FB6F894FEBF0FBEEDBF6DB76E
:1028C0007EB76F5F7F4F20E08AEAD82E90EFC92E47
:1028D000822F90E08E159F050CF01BC1233030F441
:1028E000FB01213021F1223021F1C08213969C910D
:1028F0001397992309F49AC0233008F438C0EDEFF8
:10290000E20FEC3008F033C0F0E08827E557FB4ECB
:102910008F4F0C94083E2D159B14A114A714AD14D1
:10292000BD14D114DC14E714F214FE140A15D1827C
:10293000DDCF3283DBCF14968C911497FB01848317
:1029400016C011968C911197FB01858310C01296C9
:102950008C911297FB0186830AC051968C915197F6
:10296000882339F052968C915297FB0187832F5F11
:10297000AFCF16968C911697F8CF1A968C911A971E
:10298000882331F01B968C911B97FB018087EFCF3A
:1029900051968C915197882351F353968C9153976C
:1029A000F4CF1A968C911A97882309F31C968C9170
:1029B0001C97FB018187DBCF1A968C911A9788238D
:1029C000B1F21D968C911D97FB018287D0CF1E9688
:1029D0008C911E97882359F21F968C911F97FB01AB
:1029E0008387C5CF1E968C911E97882309F4BFCF8D
:1029F00050968C915097FB018487B9CF17968C9194
:102A00001797882309F4B3CF18968C911897FB0178
:102A10008587ADCF17968C911797882309F4A7CF98
:102A200019968C911997FB018687A1CFEDEFE20FE4
:102A3000E83008F09CCFF0E014969C91149788271A
:102A4000EB5DFA4E8F4F0C94083E2D153015501546
:102A500062156B1574157B158215FB01938387CF67
:102A600095509C3008F083CFE92FF0E08827E45C94
:102A7000FA4E8F4F0C94083E4815B714B7144815FA
:102A80004C154815B7144815B7144C154C15481576
:102A900011968C91119752CF16968C9116974ECF16
:102AA0009A3031F048F4953019F0983009F05FCF42
:102AB00012968C91129748CF9C30D1F3903109F047
:102AC00056CFF6CF983019F09A3009F050CF1B96B8
:102AD0008C911B973FCF983019F09A3009F047CF6F
:102AE0001C968C911C9741CF9A3009F040CF1896D4
:102AF0008C9118974ACF9A3009F039CF19968C915A
:102B0000199757CF9A3009F032CF17968C911797B3
:102B10005BCF860F971F25E5DC012C938091D105B3
:102B20009091D205DC01ED91FC910280F381E02DC2
:102B300019950FB6F8941EBF0FBE0DBFDF91CF9150
:102B40001F910F91FF90EF90DF90CF900895CF935A
:102B5000DF93CDB7DEB764970FB6F894DEBF0FBE34
:102B6000CDBFFE01359620E1DF011D922A95E9F7E0
:102B700029E029839B838A838DE08C8386E0611121
:102B800085E08D836F83CE0101960E944214649686
:102B90000FB6F894DEBF0FBECDBFDF91CF91089581
:102BA000CF93DF93CDB7DEB764970FB6F894DEBF4F
:102BB0000FBECDBFFE01339622E1DF011D922A95A3
:102BC000E9F729E029839B838A8388E08D837D87C9
:102BD0006C87CE0101960E94421464960FB6F89459
:102BE000DEBF0FBECDBFDF91CF91089580911C0352
:102BF00090911D031816190694F480918803909102
:102C000089030197039758F46091A905062E000CDB
:102C1000770B80911F03909120030C94D015089599
:102C200080918803909189030197039748F46091FC
:102C3000AA05062E000C770B83E090E00C94D015CB
:102C40000895CF93DF93CDB7DEB764970FB6F894AE
:102C5000DEBF0FBECDBFFE01359620E1DF011D9224
:102C60002A95E9F729E029839B838A838DE08C8369
:102C700081E08D836F83CE0101960E944214649699
:102C80000FB6F894DEBF0FBECDBFDF91CF91089590
:102C9000CF93DF93CDB7DEB764970FB6F894DEBF5E
:102CA0000FBECDBF4115510559F40E9421166496FF
:102CB0000FB6F894DEBF0FBECDBFDF91CF91089560
:102CC000FE01359620E1DF011D922A95E9F72BE000
:102CD00029839B838A838BE18C8381E08D836F833F
:102CE00088875A874987CE0101960E944214DFCF18
:102CF000CF93DF93CDB7DEB764970FB6F894DEBFFE
:102D00000FBECDBFFE01359620E1DF011D922A9551
:102D1000E9F728E029839B838A8383E08C8384E01E
:102D20008D83CE0101960E94421464960FB6F894EA
:102D3000DEBF0FBECDBFDF91CF91089520918803F4
:102D400030918903215031092330310510F40C945E
:102D50007816089583E090E00C949E16CF93DF934D
:102D6000CDB7DEB764970FB6F894DEBF0FBECDBF08
:102D7000FE01339622E1DF011D922A95E9F727E053
:102D800029839B838A8385E08D83CE0101960E94EF
:102D9000421464960FB6F894DEBF0FBECDBFDF912C
:102DA000CF910895CF93DF93CDB7DEB764970FB679
:102DB000F894DEBF0FBECDBFCE01019624E1FC0129
:102DC00011922A95E9F725E0298324E02D830E94BA
:102DD000421464960FB6F894DEBF0FBECDBFDF91EC
:102DE000CF910895CF93DF93CDB7DEB764970FB639
:102DF000F894DEBF0FBECDBF2091880330918903C8
:102E0000215031092230310580F4FE01319694E1E0
:102E1000DF011D929A95E9F795E0998381110EC023
:102E200083E18D83CF010E94421464960FB6F8941B
:102E3000DEBF0FBECDBFDF91CF91089582E1F1CF0C
:102E4000AF92BF92CF92DF92EF92FF920F931F93B8
:102E5000CF93DF93CDB7DEB764970FB6F894DEBF9C
:102E60000FBECDBF5C01F62EC42E14160CF4C12C7F
:102E70008AEBC81614F48AEBC82E809188039091CF
:102E800089038230910509F449C08330910511F01E
:102E9000019799F50C2C000CDD082223F9F06AEB60
:102EA0007FEFC5010E94D0156E2DC5010E9421162D
:102EB000FE01339682E1DF011D928A95E9F78CE0ED
:102EC0008983BB82AA828AE08D83DD86CC861A87BD
:102ED0000987CE0101960E94421408C0B601C501BF
:102EE0000E94D0156E2DC5010E94211661E0F110DF
:102EF00001C060E0C5010E94A71564960FB6F89462
:102F0000DEBF0FBECDBFDF91CF911F910F91FF901C
:102F1000EF90DF90CF90BF90AF9008950C2C000CF5
:102F2000DD08222361F06AEB7FEFC5010E94D01516
:102F300050E040E06E2DC5010E944816B9CFB601A1
:102F4000C5010E94D01550E040E06E2DC5010E94E1
:102F50004816CCCFEF920F931F93EE24E39408E82A
:102F600013E1282F4091AA0561E083E090E00E94E0
:102F700020171F910F91EF900895EF920F931F93D9
:102F800080912002853020F51092200287E090E0A9
:102F90000E949E16EE24E39410E000E020E04091B1
:102FA000AC0560E087E090E00E942017809120024D
:102FB00026E4829FC001112464E670E00E94F43D83
:102FC00066546093A9051F910F91EF900C94F6152C
:102FD000855080932002EACFEF920F931F93809148
:102FE0002002803628F184E68093200287E090E07A
:102FF0000E949E16EE24E39410E000E020E0409151
:10300000AC0560E087E090E00E94201780912002EC
:1030100026E4829FC001112464E670E00E94F43D22
:1030200066546093A9051F910F91EF900C94F615CB
:103030008B5F80932002EACFEF920F931F93CF9381
:10304000C82F80918803909189030197039738F4E2
:103050008091AC05082E000C990B0E94AE16C11190
:1030600016C080918C0390918D03892B81F487E0A9
:1030700090E00E949E16EE24E39410E000E020E031
:103080004091AA0560E087E090E00E942017CF9170
:103090001F910F91EF9008958091AC058D3DE1F067
:1030A000809122028530A0F4109222022091220207
:1030B0003DED3203C00111246CE97FEF0E94F43D25
:1030C00063526093AC056093AB0580E00C941C18D0
:1030D000855080932202EACF08958091AC05882321
:1030E000D9F0809122028036A8F084E680932202F3
:1030F000209122023DED3203C00111246CE97FEFE3
:103100000E94F43D63526093AC056093AB0580E090
:103110000C941C188B5FEACF08950F931F93CF93E5
:10312000DF938091D1059091D205892B09F4DBC002
:10313000CFEFDFEF11E003E08091D1059091D20550
:10314000DC01ED91FC910084F185E02D1995892B2E
:1031500009F4C9C08091D1059091D205DC01ED91AF
:10316000FC910284F385E02D19959091F40591115D
:1031700005C0803FA9F51093F405DECF913041F4EE
:103180008A3A21F482E08093F405D6CF80E0FBCF29
:10319000923099F4803F21F08A3A11F0853529F474
:1031A0001092F4051092F505C7CF8132C8F781500F
:1031B0008093F5050093F405BFCF2091F505921794
:1031C00078F4E92FF0E0E053FA4F8083803F41F339
:1031D0008A3A31F3853521F39F5F9093F405ACCFA4
:1031E0002091F5059213A8CF8535D1F68091D305AE
:1031F000843809F446C0A0F4813809F466C08238E6
:1032000079F68091D4058093F3058091D50590914E
:10321000D605909313068093120610931906C0CF1B
:103220008538E1F0863809F0BBCF8091D4058093D2
:10323000F3052091D5053091D605309313062093E0
:103240001206993040F08091D7059091D80590935F
:1032500015068093140610931A06A2CF8091D40508
:103260009091D505909317068093160681E0909172
:10327000D605911101C080E080931B0610921C06B8
:103280008FCF8091D6058E3008F08ACF2091D4055B
:103290003091D5052F5F3F4F90E04091D705880FC3
:1032A000991F41110CC0FC01EF52FA4F85A196A164
:1032B0002817390709F074CFD6A3C5A371CF8F5251
:1032C0009A4FFC0136A325A36BCF84E1E4EDF5E032
:1032D000ADE1B6E001900D928A95E1F710923106CA
:1032E000109318065DCFDF91CF911F910F91089534
:1032F00080918803909189030197039798F48091B6
:103300001C0390911D031816190654F480911F0395
:1033100090912003843F21E0920710F00E947816DC
:103320000E948D181092100310922103089580912D
:103330001C0390911D03181619060CF05DC08091B6
:103340001F0390912003843F21E0920708F454C0AA
:1033500021E02093210320918803309189032230BA
:10336000310569F12330310519F021303105F9F4C7
:1033700020911E0361E0211101C060E00E94A715A9
:103380006091A905062E000C770B80911F03909188
:1033900020030E94D01561E080911F0390912003CB
:1033A0000E9421160E948D1881E080931C0640E146
:1033B00057E260E070E08DEA95E00C94070E2091F2
:1033C0001E0361E0211101C060E00E94A715609119
:1033D000A905062E000C770B80911F039091200306
:1033E0000E94D01550E040E061E080911F03909171
:1033F00020030E944816D6CF0895E0E0F7E080E170
:10340000DF011D928A95E9F7CF010C94E4138091B6
:10341000210781110E94FD1910921F0710921E07AB
:1034200082E090E090932F0780932E0708950E94EA
:10343000071A10921F0710921E0710921D07109274
:103440002A0710922B0710922F0710922E0708952B
:10345000FF920F931F93CF93DF93D82F0E94171AD9
:1034600010922D0710922C0785E090E090932F0783
:1034700080932E070CE316E0C0E0F12CD33061F10D
:10348000A8F4D130E1F0D23009F16C2F8F2D0E94D9
:103490008A05F3940F5F1F4FFCE1FF12EFCFDF911E
:1034A000CF911F910F91FF900C940A14D430C9F062
:1034B000D53059F7C1E0F801E855FF4F0BC0C1E026
:1034C000F80180AD8111E1CFC0E0DFCFC1E0F801AC
:1034D000EC5AFF4F8081F6CFC1E0F801E059FF4F71
:1034E000F9CFC1E0F801E457FF4FF4CFEF920F930B
:1034F0001F9390913E0980913909981709F462C190
:1035000090912A0880912508981709F45BC1809151
:1035100068098F3F09F421C1813009F053C18091BE
:103520000202909103028330910509F42DC170F4D9
:103530008130910509F412C2029709F412C28091F8
:1035400002021F910F91EF900C94281A843091057C
:1035500009F42BC1059799F7809104029091050217
:103560008330910509F48DC050F48130910509F440
:1035700029C1029709F445C081E090E018C1843068
:10358000910509F4B2C00597B9F784E090E09093F3
:1035900005028093040260911802809117020E9434
:1035A000DE078FEF0E9406130E941314609116022B
:1035B000809114020E94DE0785E090E00E949E1632
:1035C000EE24E39410E000E020E04091AA0560E0E2
:1035D00085E090E00E9420178BE090E00E949E160C
:1035E0008CE090E00E949E168DE090E00E949E1676
:1035F00020E04091AA0560E08EE090E00E94201754
:103600003BC081E090E090930502809304026091BA
:103610001902809117020E94DE0780E00E940613C3
:103620000E94D81260911602809114020E94DE0757
:1036300085E090E00E949E16EE24E39410E000E006
:1036400020E04091AA0560E085E090E00E9420170C
:1036500020E04091AA0560E08BE090E00E942017F6
:103660008CE090E00E949E168DE090E00E949E16F5
:103670008EE090E00E949E168FE090E00E949E16E1
:103680007BCF82E090E090930502809304026091EA
:103690001802809117020E94DE0780E00E94061344
:1036A0000E94D81260911602809114020E94DE07D7
:1036B00085E090E00E949E16EE24E39410E000E086
:1036C00020E04091AA0560E085E090E00E9420178C
:1036D0008BE090E00E949E1620E04091AA0560E0F9
:1036E0008CE090E00E942017BFCF83E090E09093A1
:1036F00005028093040260911802809117020E94D3
:10370000DE078FEF0E9406130E94D8126091160206
:10371000809114020E94DE0785E090E00E949E16D0
:10372000EE24E39410E000E020E04091AA0560E080
:1037300085E090E00E9420178BE090E00E949E16AA
:103740008CE090E00E949E1620E04091AA0560E087
:103750008DE090E00E9420178BCF80910202909123
:1037600003028330910509F4F9C038F481309105E2
:1037700071F0029709F400CFE2CE8430910509F48C
:10378000F0C0059709F0DBCE84E090E010C0809196
:103790000402909105028330910509F463C060F43E
:1037A0008130910599F0029769F085E090E090935F
:1037B000030280930202C3CE8430910509F48EC0C7
:1037C000059799F71F910F91EF90089580918C03C1
:1037D00090918D03019731F480918A0390918B032E
:1037E000059781F382E090E09093050280930402B4
:1037F00060911802809117020E94DE0780E00E940B
:1038000006130E94D81260911602809114020E9441
:10381000DE0785E090E00E949E16EE24E39410E01F
:1038200000E020E04091AA0560E085E090E00E9481
:1038300020178BE090E00E949E1620E04091AA05A0
:1038400060E08CE090E00E9420178DE090E00E9404
:103850009E168EE090E00E949E168FE090E00E94FF
:103860009E16A3CF84E090E090930502809304021B
:1038700060911802809117020E94DE078FEF0E946C
:1038800006130E94131460911602809114020E9484
:10389000DE0785E090E00E949E16EE24E39410E09F
:1038A00000E020E04091AA0560E085E090E00E9401
:1038B00020178BE090E00E949E168CE090E00E9422
:1038C0009E168DE090E00E949E1620E04091AA0591
:1038D00060E08EE090E00E942017BFCF85E090E08E
:1038E0009093050280930402609118028091170260
:1038F0000E94DE078FEF0E9406130E94131460914E
:103900001502809114020E94DE0785E090E00E947B
:103910009E16EE24E39410E000E020E04091AA051A
:1039200060E085E090E00E9420178BE090E00E942C
:103930009E168CE090E00E949E168DE090E00E9422
:103940009E168EE090E00E949E1620E04091AA050F
:1039500060E08FE090E00E94201727CF82E090E0A7
:1039600026CF83E090E023CFCF93DF93C82F811140
:1039700001C0C1E020912E0730912F0780912C07C4
:1039800090912D0705970397B8F487E090E02230D7
:10399000310529F02430310531F486E090E0909330
:1039A0002D0780932C079091A209892F880F880FEB
:1039B000890F8D5F80931B07232B89F1D0911B0703
:1039C00082E297E00E94910D672B682B692B39F5F5
:1039D0006C2F70E088E090E00E94F43D623008F4C3
:1039E00062E06D1BCCE1C60FE0912C07F0912D0732
:1039F0003197E730F10598F48827EE5FF24E8F4F4C
:103A00000C94083E121D501D8F1D8F1D091D681D31
:103A10002A1D87E090E090932D0780932C07DF917B
:103A2000CF91089561E080911E070E948A050E944F
:103A30000A1480911E0790911F07019690931F070B
:103A400080931E074C970CF460C010922F071092C1
:103A50002E07E5CF61E080911E070E948A050E9433
:103A60000A1480911E0790911F07019690931F07DB
:103A700080931E0720911B072817190611F00CF0E0
:103A800044C084E090E090932F0780932E0783E05A
:103A9000C89FA0011124052E000C660B770B39C0BE
:103AA00060E080911E070E948A050E940A1480919E
:103AB0001E0790911F07019790931F0780931E0781
:103AC0004C2F440F440F97FF21C00E94071ABDCF0F
:103AD00060E080911E070E948A050E940A1480916E
:103AE0002C0790912D07029711F4CC0FCC0F8091E9
:103AF0001E0790911F07019790931F0780931E0741
:103B000097FF03C00E94071AC2CF4C2F50E070E00D
:103B100060E082E297E0DF91CF910C94070E8091F4
:103B20002E0790912F070297029768F00E94071ABC
:103B300080912C0790912D070497E1F580911C0747
:103B4000815080931D0780911D07811136C082E04E
:103B500090E090932F0780932E0761E080E00E9411
:103B60008A0561E08BE10E948A0580912C07909183
:103B70002D07039751F480911D0760E08F5F0E942D
:103B80008A0560E08AE10E948A050E940A148091F9
:103B90001D0720912E0730912F072330310509F49E
:103BA00052C08F5F80931D0740911D074C0F552712
:103BB000551F71CF10921D07C6CFD0911C079FEFE4
:103BC0009D0F891316C023E030E030932F07209318
:103BD0002E0761E00E948A0561E08D2F0E948A0510
:103BE00060E08EEF8D0F0E948A0560E081E08D0F0E
:103BF000CACF61E00E948A0590911D0761E08BE1C8
:103C0000891B0E948A0580911D0760E081500E94F7
:103C10008A0590911D0760E08CE1891B0E948A054E
:103C200080912C0790912D07039709F0AECF8091DA
:103C30001D0760E08F5F0E948A0590911D0760E07C
:103C40008AE1891BA0CF8150ADCF8091E007882306
:103C500061F18091A20981500E94B41C80918C0373
:103C600090918D03019761F580913A06811114C0FE
:103C70008091A20924E1829FC00111249695879525
:103C8000969587954EE150E0481B590B70E060E037
:103C900082E396E00E94070E8091A209823019F11A
:103CA00030F4813051F08AE009C081E0D5CF833013
:103CB000E1F08430C1F789E001C085E00E945C1327
:103CC0008FE799E00E94350B80919703882351F08C
:103CD00080914205882321F089E699E00E94350B06
:103CE00010929703089587E0E9CF88E0E7CF0E941C
:103CF000171A0E94421360911C0280911A020E94BE
:103D0000DE0760911602809114020E94DE07609126
:103D1000100280910E020E94DE0760910D028091D8
:103D20000B020E94DE0760911902809117020E9427
:103D3000DE0760910A02809108020E94DE0780E09F
:103D40000E9406130E94D812409183095091840961
:103D500070E060E080918809909189090E943A4062
:103D600080912103811108C040E65AEE60E070E0C6
:103D700080EB97E00C94070E0895EF920F931F933A
:103D800080911303882361F086E090E00E949E16E4
:103D900085E090E00E949E1685E090E00E949E16CD
:103DA00081E090E00E949E1684E290E00E949E16C0
:103DB00020918A0330918B038091130324303105C5
:103DC00099F5811133C010928D0310928C031092DB
:103DD0008B0310928A030E94AA160E946D10109203
:103DE000120310923A0610923B061092C2071092EC
:103DF000C3071092D6071092D7071092CC071092E3
:103E0000CD071092F4071092F5071092EA0710926E
:103E1000EB0780918C0390918D03892B01F51F9105
:103E20000F91EF900C94771E8111D5CF10928D03D6
:103E300010928C0310928B0310928A0382E090E020
:103E40000E949E16EE24E39410E000E020E04091F2
:103E5000AA0560E082E090E00E942017BCCF1F918D
:103E60000F91EF900895CF93DF93EC0188819981B2
:103E7000009711F00E94C73E198218821D821C8291
:103E80001B821A82DF91CF910895FC01808191817C
:103E9000009711F00C94C73E0895CF93DF93EC0187
:103EA0000E945111CE01DF91CF910C94C73E0F9328
:103EB0001F93CF93DF93EC0188819981009759F08C
:103EC0002A813B812617370730F081E0DF91CF91BF
:103ED0001F910F9108958B016F5F7F4F0E94503F9C
:103EE000009759F0998388831B830A832C813D8135
:103EF000232B59F7FC011082E8CF80E0E7CFEF9247
:103F0000FF920F931F93CF93DF93EC01FB01E080AF
:103F1000F180E114F10411F10481158101151105FD
:103F2000A9F08C819D81080F191FB801CE010E9454
:103F3000571F882399F0288139818C819D81B70191
:103F4000820F931F0E9441401D830C83CE01DF919D
:103F5000CF911F910F91FF90EF900895CE010E9495
:103F6000331FF4CFEF92FF920F931F93CF93DF9302
:103F7000EC017B018A01BA010E94571F81110BC01D
:103F8000CE010E94331FCE01DF91CF911F910F917F
:103F9000FF90EF9008951D830C83B701888199816C
:103FA0000E944140F0CFEF92FF920F931F93CF9367
:103FB000DF93CDB7DEB762970FB6F894DEBF0FBEC2
:103FC000CDBF8C01CB01F8011182108213821282C5
:103FD000158214824AE09E012F5F3F4F7901B9019B
:103FE0000E94363DF70101900020E9F73197AF01BB
:103FF0004E195F09B701C8010E94B21F62960FB641
:10400000F894DEBF0FBECDBFDF91CF911F910F910E
:10401000FF90EF900895EF92FF920F931F93CF932D
:10402000DF93CDB7DEB761970FB6F894DEBF0FBE52
:10403000CDBF8C01CB01F801118210821382128254
:10404000158214824AE09E012F5F3F4F7901B9012A
:104050000E94413DF70101900020E9F73197AF013F
:104060004E195F09B701C8010E94B21F61960FB6D1
:10407000F894DEBF0FBECDBFDF91CF911F910F919E
:10408000FF90EF900895FB01DC0111961C921E92A7
:1040900013961C921E92129715961C921E921497BC
:1040A0008617970749F0608171816115710521F0CC
:1040B000448155810C94B21F0895EF92FF920F93A3
:1040C0001F93CF93DF93EC018B01198218821B821F
:1040D0001A821D821C82CB010E942D3D7C01BC01F5
:1040E000CE010E94571F811109C0CE01DF91CF91EF
:1040F0001F910F91FF90EF900C94331FFD82EC8283
:10410000B80188819981DF91CF911F910F91FF9024
:10411000EF900C94263DEF920F931F93CF93DF9374
:10412000CDB7DEB762970FB6F894DEBF0FBECDBF36
:1041300080910402909105028130910579F00297F7
:1041400009F441C262960FB6F894DEBF0FBECDBF30
:10415000DF91CF911F910F91EF900895809102020E
:10416000909103028330910509F4DBC008F050C040
:104170008130910509F4EAC1029721F7809121036A
:10418000882301F384E199E00E941D0C882309F43F
:1041900079C100911F031091200380911B03882394
:1041A00009F463C1045F1140B80190E080E00E940F
:1041B000E80520911703309118032617370709F0F7
:1041C00037C1809115039091160390931A03809341
:1041D00019036091190370911A0390E080E00E9426
:1041E0009B0600911C0310911D03601771070CF4CE
:1041F00026C16091190370911A036150710970937F
:104200001A036093190390E080E00E949B06EDCFB3
:104210008430910549F1059709F094CF80912103ED
:10422000882309F48FCF84E199E00E941D0C882334
:1042300009F488CF60911E0381E0682760931E0314
:1042400080911C0390911D031816190634F4809177
:104250001F03909120030E94A71569E076E0CE012C
:1042600001960E945D2047C084E199E00E941D0CE8
:10427000882381F08091AC058A3B41F48091AB05A5
:104280008093AC0580E00E941C185CCF8093AB0546
:104290008AEBF6CF90912A0880912508981352CF87
:1042A00080916809813061F50E946D186091AC05BC
:1042B000062E000C770BCE0101960E94D31F66EFED
:1042C00075E0CE010D960E945D20BE01635F7F4FB9
:1042D000CE0107960E944320BE016F5F7F4FCE0143
:1042E00007960E947F1FCE0107960E94451FCE01B0
:1042F0000D960E94451FCE0101960E94451F22CFB8
:104300008F3F09F01FCF0E944C186091AC05062E1C
:10431000000C770BCE0101960E94D31F63EE75E06F
:10432000D0CF84E199E00E941D0C882349F0809150
:104330001B0391E0892780931B036EEC75E08FCF00
:1043400090912A08809125089813FCCE80916809E5
:104350008130B1F580912102803670F184E680933E
:10436000210287E090E00E949E16EE24E39410E084
:1043700000E020E04091AA0560E087E090E00E9424
:1043800020178091210226E4829FC001112464E657
:1043900070E00E94F43D66546093AA050E941016D6
:1043A0006091AA05062E000C770BCE0101960E94A3
:1043B000D31F6AEB75E085CF8B5F80932102E1CF3D
:1043C0008F3F09F0BFCE80912102853068F51092B1
:1043D000210287E090E00E949E16EE24E39410E014
:1043E00000E020E04091AC0560E087E090E00E94B2
:1043F00020178091210226E4829FC001112464E6E7
:1044000070E00E94F43D66546093AA050E94101665
:104410006091AA05062E000C770BCE0101960E9432
:10442000D31F66EA75E04DCF855080932102E1CF1E
:104430006150710970931A0360931903CACE8B01FE
:104440000C501E4F0E9478191093200300931F03F5
:104450000E94971960911F0370912003CE0101966D
:104460000E940B2068E975E02CCF01501109043F30
:1044700081E0180738F700911C0310911D030D50BF
:104480001E4FE0CF80E098E00E941D0C882309F4C5
:1044900059CE60911F037091200300911C0310916D
:1044A0001D0380911B03882309F444C0645F71409D
:1044B00090E080E00E94E8052091150330911603FA
:1044C00026173707D1F410921A031092190360913E
:1044D000190370911A0390E080E00E949B06601718
:1044E000710794F06091190370911A036F5F7F4F09
:1044F00070931A0360931903EECF6F5F7F4F709331
:104500001A0360931903E3CF8B010C501E4F0E94D6
:1045100078191093200300931F030E94971960914C
:104520001F0370912003CE0101960E940B206AE8C0
:1045300075E0C7CE6F5F7F4F0D501E4F06171707F0
:1045400010F08B01E4CF04EF11E0E1CF84E199E0BA
:104550000E941D0C882371F080912103811105C0F8
:104560000E9497196FE775E07ACE0E94781964E788
:1045700075E075CE90912A08809125089813E2CDB8
:1045800080916809813071F40E94EC176091A9054F
:10459000062E000C770BCE0101960E94D31F62E617
:1045A00075E08FCE8F3F09F0CDCD0E94BD17609191
:1045B000A905062E000C770BCE0101960E94D31F91
:1045C00060E575E07ECE8091020290910302843016
:1045D000910509F49AC08530910551F1039709F0CE
:1045E000B1CD84E199E00E941D0C882309F40EC12D
:1045F00080919909882309F4F3C0109299098AE1FE
:1046000090E00E949E168BE190E00E949E16EE24A0
:10461000E39410E000E020E04091AA0560E08BE127
:1046200090E00E942017809199090E94F2168ACD8D
:1046300084E199E00E941D0C882389F180919709FB
:104640008823B9F01092970983E190E00E949E16AA
:1046500084E190E00E949E16EE24E39410E000E0D6
:1046600020E04091AA0560E084E190E00E942017DC
:1046700069CD81E08093970983E190E00E949E16C6
:1046800084E190E00E949E16EE24E39410E000E0A6
:1046900020E04091AA0560E083E190E0E7CF80E070
:1046A00098E00E941D0C882309F44CCD80914205AE
:1046B0008823A9F01092420585E190E00E949E16A1
:1046C00086E190E00E949E16EE24E39410E000E064
:1046D00020E04091AA0560E086E190E0C7CF81E04C
:1046E0008093420585E190E00E949E1686E190E06D
:1046F0000E949E16EE24E39410E000E020E040913A
:10470000AA0560E085E190E0B1CF84E199E00E94E4
:104710001D0C882379F1809195098823A9F01092C6
:1047200095098CE190E00E949E168DE190E00E9438
:104730009E16EE24E39410E000E020E04091AA05EC
:1047400060E08DE190E092CF81E0809395098CE16B
:1047500090E00E949E168DE190E00E949E16EE244D
:10476000E39410E000E020E04091AA0560E08CE1D5
:1047700090E07CCF80E098E00E941D0C882309F433
:10478000E1CC809196098823A9F0109296098EE1D8
:1047900090E00E949E168FE190E00E949E16EE240B
:1047A000E39410E000E020E04091AA0560E08FE192
:1047B00090E05CCF81E0809396098EE190E00E94CA
:1047C0009E168FE190E00E949E16EE24E39410E086
:1047D00000E020E04091AA0560E08EE190E046CF45
:1047E00081E0809399098AE190E00E949E168BE116
:1047F00090E00E949E16EE24E39410E000E020E09A
:104800004091AA0560E08AE190E00BCF80E098E05B
:104810000E941D0C882309F495CC87E090E00E944B
:104820009E16EE24E39410E000E020E04091AA05FB
:1048300060E087E090E00E94201780919B09813022
:10484000E1F08330F1F183E080939B0982E290E014
:104850000E949E1680E290E00E949E1681E290E007
:104860000E949E16EE24E39410E000E020E04091C8
:10487000AA0560E081E290E0F9CE82E080939B0996
:1048800082E290E00E949E1680E290E00E949E16D6
:1048900081E290E00E949E16EE24E39410E000E096
:1048A00020E04091AA0560E082E290E00E9420179B
:1048B0004AEF50E060E070E089E599E00E94070E61
:1048C00041CC81E080939B0982E290E00E949E1699
:1048D00080E290E00E949E1681E290E00E949E1687
:1048E000EE24E39410E000E020E04091AA0560E0AF
:1048F00080E290E0DBCF85ED8093BC008091D30314
:104900009091D403A091D503B091D6030796A11D31
:10491000B11D23E0B695A795979587952A95D1F770
:104920002091BC0024FD03C01092D1030895409152
:10493000D3035091D4036091D5037091D603452BD6
:10494000462B472B69F30097A105B10541F02AE2F8
:104950002A95F1F700C00197A109B109E1CF809133
:10496000D2030C94A70EBF92CF92DF92EF92FF92E8
:104970000F931F93CF93DF9300D000D0CDB7DEB756
:104980009C012552310930931D0320931C032115EE
:10499000310509F433C137FF12C010921D03109284
:1049A0001C0381E08093860369E173E0CE010196E8
:1049B0000E945D20CE0101960E94451F1FC14091BB
:1049C000060250910702BA0165527109261737078E
:1049D0000CF024C14817590708F420C184EF91E076
:1049E0009093200380931F030E9476096B017C0142
:1049F0000E94CE3C20E031E040E050E00E94813D4A
:104A00009B01AC012C0D3D1D4E1D5F1D65E979EE2E
:104A100081ED9BE50E94E43D292F3327442755274C
:104A2000262737274827592765E979EE81ED9BE549
:104A30000E94E43D9B01AC01E7EC2E27E1E03E271C
:104A4000E1E14E27E3E55E2769EB70E98AE698E24B
:104A50000E94E43DDC01CB0127E5822723E7922772
:104A60002AE2A2272AEAB2279C01AD016DE0569501
:104A70004795379527956A95D1F7282739274A27EB
:104A80005B2765E979EE81ED9BE50E94E43D8B01B2
:104A90009C01EFE03695279517950795EA95D1F794
:104AA000AB01BC01402751276227732700911C03EB
:104AB00010911D036801012E000CEE08FF0884E030
:104AC00090E0A0E0B0E08C159D05AE05BF0540F478
:104AD00032E0880F991FAA1FBB1F3A95D1F7F3CF79
:104AE0000197A109B109C12CD12C76010097A1052C
:104AF000B10551F0B695A79597958795EFEFCE1A2A
:104B0000DE0AEE0AFE0AF2CFF694E794D794C79431
:104B1000C0929903D0929A03E0929B03F0929C0377
:104B200081E090E002C0880F991FCA94E2F70197D4
:104B3000092E000CAA0BBB0B80939D0390939E0340
:104B4000A0939F03B093A0034093A1035093A203AB
:104B50006093A3037093A403109218031092170399
:104B60001092160310921503F12CE12CBB24B39480
:104B7000680121E0C21AD108E016F1068CF56091B7
:104B800015037091160390E080E00E949B06601769
:104B900071075CF060911503709116036F5F7F4F92
:104BA0007093160360931503EECFBB2041F0809104
:104BB0001503909116039093180380931703EC1438
:104BC000FD0449F08091150390911603019690938E
:104BD0001603809315038FEFE81AF80AB12CCCCF97
:104BE00060911F03709120036552710990E080E08D
:104BF0000E94E80570931A036093190326960FB676
:104C0000F894DEBF0FBECDBFDF91CF911F910F9102
:104C1000FF90EF90DF90CF90BF90089510921D030A
:104C200010921C0381E08093870364EC72E0BECE97
:104C3000FF920F931F93CF93DF93EC01F62E088121
:104C40001981C8010E946B3DF81621F06F2DC80133
:104C50000E94733DCE01DF91CF911F910F91FF9084
:104C600008950F931F93CF93DF931F921F92CDB799
:104C7000DEB78C011A821982FC016081CE01019697
:104C80000E94182681E090E09A838983F80161816F
:104C9000CE0101960E941826C8010F900F90DF9157
:104CA000CF911F910F910895EF92FF920F931F9351
:104CB000CF93DF93CDB7DEB762970FB6F894DEBF20
:104CC0000FBECDBF00918A0310918B030115110512
:104CD00019F00530110591F480E098E00E941D0C58
:104CE000882361F09091B4088091AF08981313C0A5
:104CF00090916F0880916A08981386C062960FB6EB
:104D0000F894DEBF0FBECDBFDF91CF911F910F9101
:104D1000FF90EF9008950530110509F479C0909146
:104D20006F0880916A08981749F305E010E0109326
:104D30008B0300938A0340E951E060E070E08AEB66
:104D400097E00E94070E65E070E0CE0101960E9498
:104D5000D31F65E874E0CE010D960E945D20BE0170
:104D6000635F7F4FCE0107960E944320BE016F5FB5
:104D70007F4FCE0107960E947F1FCE0107960E94AB
:104D8000451FCE010D960E94451FCE0101960E943F
:104D9000451F81E090E090930502809304021093F8
:104DA000030200930202EE24E39410E000E020E00E
:104DB0004091AA0560E080E190E00E942017809178
:104DC0008C0390918D03892BE1F40E94771E6091F2
:104DD0001902809117020E94DE0780E00E940613EC
:104DE0000E94D81260911602809114020E94DE0780
:104DF0001092B8071092B907809102020E94281AF7
:104E00007DCF0E94171AF8CF0530110509F076CF33
:104E1000E0900402F090050281E0E816F10409F048
:104E20006DCF00910202109103020530110509F0C7
:104E300065CF10928B0310928A031092C2071092D2
:104E4000C30770E060E0CE0101960E94D31F65E7C2
:104E500074E0CE010D960E945D20BE01635F7F4F1E
:104E6000CE0107960E944320BE016F5F7F4FCE01A7
:104E700007960E947F1FCE0107960E94451FCE0114
:104E80000D960E94451FCE0101960E94451FF0928B
:104E90000502E09204021093030200930202809143
:104EA0008C0390918D03892B71F587E090E09887B2
:104EB0008F83CE0107960E94312685E9E82E89E08E
:104EC000F82E02E010E01A830983F70161917F0157
:104ED000CE0101960E9418260F5F1F4F0930110561
:104EE00091F78AE090E00E949E16EE24E39410E091
:104EF00000E020E04091AA0560E08AE090E00E9496
:104F000020170E94771E80E190E00E949E16EE24FA
:104F1000E39410E000E020E04091AA0560E080E129
:104F200090E00E94201710928B0310928A03009148
:104F30008C0310918D030130110509F0DFCE0E9422
:104F4000171A10921F0710921E0710921D07109338
:104F50002F0700932E0710922A0710922B0785E047
:104F600090E090932D0780932C07C8CEEF920F937B
:104F70001F93CF93DF93CDB7DEB7A0970FB6F8940A
:104F8000DEBF0FBECDBF809188039091890301974A
:104F9000039710F40E948D1881EC95E00E94D70DC4
:104FA000882309F45FC08091BF0581115BC08091A7
:104FB0008803909189030197039708F053C040ED4F
:104FC00057E060E070E081EC95E00E94070E809170
:104FD0001F0390912003FE01339622E1DF011D9211
:104FE0002A95E9F727E029839B838A8380E18D83D3
:104FF000CE0101960E94421480912103882391F1F1
:1050000080911E0381112EC08091100381112AC04E
:105010008DEA95E00E94D70D882321F180918803C5
:10502000909189030197039708F093C020911F0383
:1050300030912003809116069091170628173907A2
:1050400021F480911B06811105C080911C068823E4
:1050500009F47FC040E45FE160E070E08DEA95E034
:105060000E94070E87EB95E00E94D70D882371F010
:105070001092BF051092C00540ED57E060E070E06F
:1050800081EC95E00E94070E0E94971984E199E057
:105090000E94270C8FEC98E00E94270C85E498E092
:1050A0000E94270C8AE898E00E94270C80E098E094
:1050B0000E94270C80916309880F880F80936309F1
:1050C00087E00E94B507892B29F0809163098260EF
:1050D0008093630986E00E94B507892B29F08091AF
:1050E0006309816080936309209163092F70209385
:1050F0006309422F50E0FA01EF52FD4F808188236F
:10510000B9F0809164099091650934E0880F991F86
:105110003A95E1F7822B952B90936509809364096A
:1051200099273FEF8B32910521F031E0479709F045
:1051300030E010926809809166098317C1F13093BD
:105140006609273059F580916709882369F18FEF47
:105150002CC01092C9051092CA051092B505109284
:10516000B6050E94781980911F0390912003019643
:1051700020911C0330911D032D503E4F28173907F5
:1051800010F484EF91E09093200380931F0344EF89
:1051900051E060E070E087EB95E062CF2B3039F4AE
:1051A00080916709882399F281E080936809809152
:1051B0006809882371F020918C0330918D03213090
:1051C000310509F412C108F473C02230310509F425
:1051D000EBC089E599E00E94D70D882309F4B3C19B
:1051E0000E946D1080918C0390918D038130910508
:1051F00009F464C208F4BAC1029709F4F0C100913D
:105200008A0310918B030230110509F4A8C30530FD
:10521000110509F4A1C30130110521F40E94BD1E3E
:105220000E94171A88ED97E00E94D70D882309F491
:1052300080C41091140311111AC00E94071A109211
:105240001F0710921E0710921D0781E090E09093B7
:105250002F0780932E0710922A0710922B070E9487
:105260000A1483E090E090932D0780932C0780919F
:1052700008026091090210FD60910A020E94DE0797
:105280001C3008F0EDC4E12FF0E06FEF8827E45BFD
:10529000F64D8F4F0C94083E832DCD2DCF2DD12D63
:1052A000D32DEB2D002E152E2A2E2C2E832D2E2EB7
:1052B00020918A0330918B032230310580F0253014
:1052C000310509F086CF0E94761A80918A03909169
:1052D0008B03059709F07DCF0E948B207ACF9091A8
:1052E0002103992309F43FC0813061F50E94EC1736
:1052F0006091A905062E000C770BCE0101960E9445
:10530000D31F68E375E0CE014B960E945D20BE017D
:10531000655E7F4FCE0145960E944320BE016F5FC0
:105320007F4FCE0145960E947F1FCE0145960E9479
:10533000451FCE014B960E94451FCE0101960E944B
:10534000451F47CF8F3F09F044CF0E94BD176091A2
:10535000A905062E000C770BCE0101960E94D31FE3
:1053600060E275E0D0CF813071F40E946D186091D9
:10537000AC05062E000C770BCE0101960E94D31FC0
:1053800067E075E0C0CF8F3F09F023CF0E944C1833
:105390006091AC05062E000C770BCE0101960E94A1
:1053A000D31F6EEE74E0AFCF813071F40E946D18A0
:1053B0006091AC05062E000C770BCE0101960E9481
:1053C000D31F6AED74E09FCF8F3F09F002CF0E9498
:1053D0004C186091AC05062E000C770BCE0101969F
:1053E0000E94D31F66EC74E08ECF80918A03909167
:1053F0008B03059799F490913E098091390998178C
:1054000069F090916F0880916A08981739F090912F
:10541000B4088091AF0898130E94761A80918A038D
:1054200090918B03892B09F0D4CE9091F90880914B
:10543000F4089813CECE9091B4088091AF089813D9
:1054400006C030916F0820916A08321719F1309127
:105450003E09209139093213BCCE30916F0820915A
:105460006A08321709F4B5CE981709F4B2CE8091C4
:105470006809813009F056C00E946D186091AC0532
:10548000062E000C770BCE0101960E94D31F6EEA08
:1054900074E039CF80916809813041F58091A2098B
:1054A0008230C1F138F4813009F093CE8093A309A2
:1054B00082E008C0833029F1843009F08ACE8093DD
:1054C000A30985E08093A209EE24E39410E000E0B4
:1054D00020E04091AA0560E085E090E00E9420175E
:1054E0000E94AA1680E00E94AA1773CE8F3F09F08F
:1054F00070CE8091A209823089F038F4813009F4AD
:1055000068CE8093A30984E0DDCF833079F28430C4
:10551000C1F784E08093A30983E0D4CF8093A309EB
:1055200081E0D0CF8F3F09F054CE0E944C1860919B
:10553000AC05062E000C770BCE0101960E94D31FFE
:1055400066E974E0E0CE80916109882309F44ACECF
:10555000809111038E3109F445CE8EE180931103C1
:105560006EE170E08BE00E9448083CCE0E94542619
:105570009091F9088091F40898130CC080918A03E7
:1055800090918B03892B31F482E090E090938B0310
:1055900080938A0380918A0390918B03892B09F071
:1055A0002ECE80EB97E00E94D70D882309F43ACEE7
:1055B000809114020E94B50760911602681302C020
:1055C00060911502809114020E94DE0744EF51E0C1
:1055D00060E070E080EB97E00E94070E10CE82EE54
:1055E00097E00E94910D683C71058105910508F0D6
:1055F00054C060911602809114020E94DE076091EF
:105600001902809117020E94DE070E94D812609151
:105610000D0280910B020E94DE0782EE97E00E944D
:10562000D70D8823C1F082EE97E00E941A0EEE2477
:10563000E39410E000E020E04091AA0560E086E0FD
:1056400090E00E94201720E04091AA0560E085E0EC
:1056500090E00E9420178CEE97E00E94D70D8823DF
:1056600081F0EE24E39410E000E020E04091AA05F0
:1056700060E085E090E00E9420178CEE97E00E94A9
:105680001A0E9091F9088091F408981709F4B7CD93
:10569000109213030E94BD1EB2CD6091150280913D
:1056A00014020E94DE0760911802809117020E9486
:1056B000DE070E94131460910C02ABCF8091F407B7
:1056C00081110AC08091EA07811106C060910C0225
:1056D00080910B020E94DE0786EF97E00E94D70DB3
:1056E0008823B9F086EF97E00E941A0E81E080933C
:1056F000980380916B0990916C090297A0F081E06A
:1057000090E00E949704672B682B692B61F00E9440
:10571000D8128091A209823009F488C038F481300F
:1057200061F087E30BC00E941314F3CF833009F4B8
:105730007FC08430B1F78AE201C08EE10E94781008
:105740000E945426809170088823E9F090916F0898
:1057500080916A0898136EC081E090E00E949E16C6
:1057600084E290E00E949E16EE24E39410E000E0B4
:1057700020E04091AA0560E081E090E00E942017BF
:1057800081E00E94AA1790916F0880916A0898138F
:1057900069C080919709882359F080918A0390917C
:1057A0008B03039729F08091CC07882309F445C027
:1057B0008FEF0E9406138091B508882311F1809124
:1057C00014022091B4089091AF0829134DC0609144
:1057D00015020E94DE0790916F0880916A08981365
:1057E00010C085E090E00E949E16EE24E39410E045
:1057F00000E020E04091AA0560E085E090E00E9492
:1058000020178091F9089091F40820918A03309133
:105810008B032530310509F49DC0981751F181E0C3
:1058200090E090938B0380938A03E9CC83E286CF48
:1058300088E284CF0E94AA16A6CF8091A209823066
:1058400069F020F4813041F08CECB3CF833041F02B
:105850008430D1F782EBADCF86E6ABCF80E8A9CF1D
:1058600089E9A7CF80E0A5CF609116020E94DE07EC
:10587000C8CF90916F0880916A083091B408209148
:10588000AF08321347C0981347C090912A088091FF
:105890002508981749F090913E0980913909981789
:1058A00019F010921203ABCC809112038111A7CC96
:1058B0008EEC97E00E94910D672B682B692B09F005
:1058C0009ECC40ED57E060E070E08EEC97E00E94E7
:1058D000070E0E944213E12C10E000E020E040910E
:1058E000AA0560E084E090E00E94201748E250E0C2
:1058F00060E070E088ED97E00E94070E4EE551E011
:1059000060E070E084EC97E00E94070E81E08093F5
:10591000120375CC981373CC80E098E00E941D0CA4
:10592000811107C084E199E00E941D0C882309F4CD
:1059300066CC83E290E00E949E16EE24E39410E091
:1059400000E020E04091AA0560E083E290E00E9440
:10595000201755CC981363CF0E948B2063CC1092F4
:10596000B8071092B9079091B4088091AF089813C6
:10597000A7C080919509882309F4A2C081E0809393
:1059800013030E94BD1E10938D0300938C0384E0CB
:1059900090E090938B0380938A0340E456E060E0AC
:1059A00070E08CEE97E00E94070E40E951E060E065
:1059B00070E082EE97E00E94070E40E951E060E05F
:1059C00070E08AEB97E00E94070EEE24E39410E06B
:1059D00000E020E04091AA0560E086E090E00E94AF
:1059E000201720E04091AA0560E085E090E00E9449
:1059F000201720E04091AA0560E085E090E00E9439
:105A0000201780918C0390918D03029709F40ACCA2
:105A1000A0E3B7E0F0E0E0E01E968C911E978111C4
:105A20005AC084E0EE0FFF1F8A95E1F7E05DF84F62
:105A30008AE490E19387828788EC90E09587848759
:105A400081E08687178648EC50E060E070E0CF0187
:105A50000E94070E60911802809117020E94DE07D3
:105A60004DE451E060E070E086EF97E00E94070EA1
:105A70000E9413141092F4071092F5071092EA078F
:105A80001092EB0790916F0880916A0898132AC0D2
:105A900081E090E00E949E1684E290E00E949E16B3
:105AA000EE24E39410E000E020E04091AA0560E0DD
:105AB00081E090E00E94201781E00E94AA17B2CBFB
:105AC00081E090E090938D0380938C0310928B0380
:105AD00010928A0396CF31965096E830F10509F07E
